ARM GAS  C:\Users\mattma1\AppData\Local\Temp\ccEG71GX.s 			page 1


   1              		.syntax unified
   2              		.cpu cortex-m0plus
   3              		.fpu softvfp
   4              		.eabi_attribute 20, 1
   5              		.eabi_attribute 21, 1
   6              		.eabi_attribute 23, 3
   7              		.eabi_attribute 24, 1
   8              		.eabi_attribute 25, 1
   9              		.eabi_attribute 26, 1
  10              		.eabi_attribute 30, 1
  11              		.eabi_attribute 34, 0
  12              		.eabi_attribute 18, 4
  13              		.thumb
  14              		.syntax unified
  15              		.file	"cy_ipc_pipe.c"
  16              		.text
  17              	.Ltext0:
  18              		.cfi_sections	.debug_frame
  19              		.section	.text.Cy_IPC_Pipe_Config,"ax",%progbits
  20              		.align	2
  21              		.global	Cy_IPC_Pipe_Config
  22              		.code	16
  23              		.thumb_func
  24              		.type	Cy_IPC_Pipe_Config, %function
  25              	Cy_IPC_Pipe_Config:
  26              	.LFB66:
  27              		.file 1 "Generated_Source\\PSoC6\\pdl\\drivers\\peripheral\\ipc\\cy_ipc_pipe.c"
   1:Generated_Source\PSoC6\pdl\drivers\peripheral\ipc/cy_ipc_pipe.c **** /***************************************************************************//**
   2:Generated_Source\PSoC6\pdl\drivers\peripheral\ipc/cy_ipc_pipe.c **** * \file cy_ipc_pipe.c
   3:Generated_Source\PSoC6\pdl\drivers\peripheral\ipc/cy_ipc_pipe.c **** * \version 1.30
   4:Generated_Source\PSoC6\pdl\drivers\peripheral\ipc/cy_ipc_pipe.c **** *
   5:Generated_Source\PSoC6\pdl\drivers\peripheral\ipc/cy_ipc_pipe.c **** *  Description:
   6:Generated_Source\PSoC6\pdl\drivers\peripheral\ipc/cy_ipc_pipe.c **** *   IPC Pipe Driver - This source file includes code for the Pipe layer on top
   7:Generated_Source\PSoC6\pdl\drivers\peripheral\ipc/cy_ipc_pipe.c **** *   of the IPC driver.
   8:Generated_Source\PSoC6\pdl\drivers\peripheral\ipc/cy_ipc_pipe.c **** *
   9:Generated_Source\PSoC6\pdl\drivers\peripheral\ipc/cy_ipc_pipe.c **** ********************************************************************************
  10:Generated_Source\PSoC6\pdl\drivers\peripheral\ipc/cy_ipc_pipe.c **** * Copyright 2016-2018, Cypress Semiconductor Corporation.  All rights reserved.
  11:Generated_Source\PSoC6\pdl\drivers\peripheral\ipc/cy_ipc_pipe.c **** * You may use this file only in accordance with the license, terms, conditions,
  12:Generated_Source\PSoC6\pdl\drivers\peripheral\ipc/cy_ipc_pipe.c **** * disclaimers, and limitations in the end user license agreement accompanying
  13:Generated_Source\PSoC6\pdl\drivers\peripheral\ipc/cy_ipc_pipe.c **** * the software package with which this file was provided.
  14:Generated_Source\PSoC6\pdl\drivers\peripheral\ipc/cy_ipc_pipe.c **** *******************************************************************************/
  15:Generated_Source\PSoC6\pdl\drivers\peripheral\ipc/cy_ipc_pipe.c **** 
  16:Generated_Source\PSoC6\pdl\drivers\peripheral\ipc/cy_ipc_pipe.c **** #include "cy_ipc_pipe.h"
  17:Generated_Source\PSoC6\pdl\drivers\peripheral\ipc/cy_ipc_pipe.c **** 
  18:Generated_Source\PSoC6\pdl\drivers\peripheral\ipc/cy_ipc_pipe.c **** /* Define a pointer to array of endPoints. */
  19:Generated_Source\PSoC6\pdl\drivers\peripheral\ipc/cy_ipc_pipe.c **** static cy_stc_ipc_pipe_ep_t * cy_ipc_pipe_epArray = NULL;
  20:Generated_Source\PSoC6\pdl\drivers\peripheral\ipc/cy_ipc_pipe.c **** 
  21:Generated_Source\PSoC6\pdl\drivers\peripheral\ipc/cy_ipc_pipe.c **** 
  22:Generated_Source\PSoC6\pdl\drivers\peripheral\ipc/cy_ipc_pipe.c **** /*******************************************************************************
  23:Generated_Source\PSoC6\pdl\drivers\peripheral\ipc/cy_ipc_pipe.c **** * Function Name: Cy_IPC_Pipe_Config
  24:Generated_Source\PSoC6\pdl\drivers\peripheral\ipc/cy_ipc_pipe.c **** ****************************************************************************//**
  25:Generated_Source\PSoC6\pdl\drivers\peripheral\ipc/cy_ipc_pipe.c **** *
  26:Generated_Source\PSoC6\pdl\drivers\peripheral\ipc/cy_ipc_pipe.c **** * This function stores a copy of a pointer to the array of endpoints.  All
  27:Generated_Source\PSoC6\pdl\drivers\peripheral\ipc/cy_ipc_pipe.c **** * access to endpoints will be via the index of the endpoint in this array.
  28:Generated_Source\PSoC6\pdl\drivers\peripheral\ipc/cy_ipc_pipe.c **** *
  29:Generated_Source\PSoC6\pdl\drivers\peripheral\ipc/cy_ipc_pipe.c **** * \note In general case, this function is called in the default startup code,
  30:Generated_Source\PSoC6\pdl\drivers\peripheral\ipc/cy_ipc_pipe.c **** * so user doesn't need to call it anywhere.
ARM GAS  C:\Users\mattma1\AppData\Local\Temp\ccEG71GX.s 			page 2


  31:Generated_Source\PSoC6\pdl\drivers\peripheral\ipc/cy_ipc_pipe.c **** * However, it may be useful in case of some pipe customizations.
  32:Generated_Source\PSoC6\pdl\drivers\peripheral\ipc/cy_ipc_pipe.c **** *
  33:Generated_Source\PSoC6\pdl\drivers\peripheral\ipc/cy_ipc_pipe.c **** * \param theEpArray
  34:Generated_Source\PSoC6\pdl\drivers\peripheral\ipc/cy_ipc_pipe.c **** * This is the pointer to an array of endpoint structures that the designer
  35:Generated_Source\PSoC6\pdl\drivers\peripheral\ipc/cy_ipc_pipe.c **** * created and will be used to reference all endpoints.
  36:Generated_Source\PSoC6\pdl\drivers\peripheral\ipc/cy_ipc_pipe.c **** *
  37:Generated_Source\PSoC6\pdl\drivers\peripheral\ipc/cy_ipc_pipe.c **** * \funcusage
  38:Generated_Source\PSoC6\pdl\drivers\peripheral\ipc/cy_ipc_pipe.c **** * \snippet IPC_sut_01.cydsn/main_cm4.c snippet_myIpcPipeEpArray
  39:Generated_Source\PSoC6\pdl\drivers\peripheral\ipc/cy_ipc_pipe.c **** * \snippet IPC_sut_01.cydsn/main_cm4.c snippet_Cy_IPC_Pipe_Config
  40:Generated_Source\PSoC6\pdl\drivers\peripheral\ipc/cy_ipc_pipe.c **** *
  41:Generated_Source\PSoC6\pdl\drivers\peripheral\ipc/cy_ipc_pipe.c **** *******************************************************************************/
  42:Generated_Source\PSoC6\pdl\drivers\peripheral\ipc/cy_ipc_pipe.c **** void Cy_IPC_Pipe_Config(cy_stc_ipc_pipe_ep_t * theEpArray)
  43:Generated_Source\PSoC6\pdl\drivers\peripheral\ipc/cy_ipc_pipe.c **** {
  28              		.loc 1 43 0
  29              		.cfi_startproc
  30              		@ args = 0, pretend = 0, frame = 0
  31              		@ frame_needed = 0, uses_anonymous_args = 0
  32              		@ link register save eliminated.
  33              	.LVL0:
  44:Generated_Source\PSoC6\pdl\drivers\peripheral\ipc/cy_ipc_pipe.c ****     /* Keep copy of this endpoint */
  45:Generated_Source\PSoC6\pdl\drivers\peripheral\ipc/cy_ipc_pipe.c ****     if (cy_ipc_pipe_epArray == NULL)
  34              		.loc 1 45 0
  35 0000 034B     		ldr	r3, .L3
  36 0002 1B68     		ldr	r3, [r3]
  37 0004 002B     		cmp	r3, #0
  38 0006 01D1     		bne	.L1
  46:Generated_Source\PSoC6\pdl\drivers\peripheral\ipc/cy_ipc_pipe.c ****     {
  47:Generated_Source\PSoC6\pdl\drivers\peripheral\ipc/cy_ipc_pipe.c ****         cy_ipc_pipe_epArray = theEpArray;
  39              		.loc 1 47 0
  40 0008 014B     		ldr	r3, .L3
  41 000a 1860     		str	r0, [r3]
  42              	.L1:
  48:Generated_Source\PSoC6\pdl\drivers\peripheral\ipc/cy_ipc_pipe.c ****     }
  49:Generated_Source\PSoC6\pdl\drivers\peripheral\ipc/cy_ipc_pipe.c **** }
  43              		.loc 1 49 0
  44              		@ sp needed
  45 000c 7047     		bx	lr
  46              	.L4:
  47 000e C046     		.align	2
  48              	.L3:
  49 0010 00000000 		.word	.LANCHOR0
  50              		.cfi_endproc
  51              	.LFE66:
  52              		.size	Cy_IPC_Pipe_Config, .-Cy_IPC_Pipe_Config
  53              		.section	.text.Cy_IPC_Pipe_EndpointInit,"ax",%progbits
  54              		.align	2
  55              		.global	Cy_IPC_Pipe_EndpointInit
  56              		.code	16
  57              		.thumb_func
  58              		.type	Cy_IPC_Pipe_EndpointInit, %function
  59              	Cy_IPC_Pipe_EndpointInit:
  60              	.LFB68:
  50:Generated_Source\PSoC6\pdl\drivers\peripheral\ipc/cy_ipc_pipe.c **** 
  51:Generated_Source\PSoC6\pdl\drivers\peripheral\ipc/cy_ipc_pipe.c **** 
  52:Generated_Source\PSoC6\pdl\drivers\peripheral\ipc/cy_ipc_pipe.c **** /*******************************************************************************
  53:Generated_Source\PSoC6\pdl\drivers\peripheral\ipc/cy_ipc_pipe.c **** * Function Name: Cy_IPC_Pipe_Init
  54:Generated_Source\PSoC6\pdl\drivers\peripheral\ipc/cy_ipc_pipe.c **** ****************************************************************************//**
ARM GAS  C:\Users\mattma1\AppData\Local\Temp\ccEG71GX.s 			page 3


  55:Generated_Source\PSoC6\pdl\drivers\peripheral\ipc/cy_ipc_pipe.c **** *
  56:Generated_Source\PSoC6\pdl\drivers\peripheral\ipc/cy_ipc_pipe.c **** * Initializes the system pipes. The system pipes are used by BLE.
  57:Generated_Source\PSoC6\pdl\drivers\peripheral\ipc/cy_ipc_pipe.c **** * \note The function should be called on all CPUs.
  58:Generated_Source\PSoC6\pdl\drivers\peripheral\ipc/cy_ipc_pipe.c **** *
  59:Generated_Source\PSoC6\pdl\drivers\peripheral\ipc/cy_ipc_pipe.c **** * \note In general case, this function is called in the default startup code,
  60:Generated_Source\PSoC6\pdl\drivers\peripheral\ipc/cy_ipc_pipe.c **** * so user doesn't need to call it anywhere.
  61:Generated_Source\PSoC6\pdl\drivers\peripheral\ipc/cy_ipc_pipe.c **** * However, it may be useful in case of some pipe customizations.
  62:Generated_Source\PSoC6\pdl\drivers\peripheral\ipc/cy_ipc_pipe.c **** *
  63:Generated_Source\PSoC6\pdl\drivers\peripheral\ipc/cy_ipc_pipe.c **** * \param config
  64:Generated_Source\PSoC6\pdl\drivers\peripheral\ipc/cy_ipc_pipe.c **** * This is the pointer to the pipe configuration structure
  65:Generated_Source\PSoC6\pdl\drivers\peripheral\ipc/cy_ipc_pipe.c **** *
  66:Generated_Source\PSoC6\pdl\drivers\peripheral\ipc/cy_ipc_pipe.c **** * \funcusage
  67:Generated_Source\PSoC6\pdl\drivers\peripheral\ipc/cy_ipc_pipe.c **** * \snippet IPC_sut_01.cydsn/main_cm4.c snippet_myIpcPipeCbArray
  68:Generated_Source\PSoC6\pdl\drivers\peripheral\ipc/cy_ipc_pipe.c **** * \snippet IPC_sut_01.cydsn/main_cm4.c snippet_myIpcPipeEpConfig
  69:Generated_Source\PSoC6\pdl\drivers\peripheral\ipc/cy_ipc_pipe.c **** * \snippet IPC_sut_01.cydsn/main_cm4.c snippet_Cy_IPC_Pipe_Init
  70:Generated_Source\PSoC6\pdl\drivers\peripheral\ipc/cy_ipc_pipe.c **** *
  71:Generated_Source\PSoC6\pdl\drivers\peripheral\ipc/cy_ipc_pipe.c **** *******************************************************************************/
  72:Generated_Source\PSoC6\pdl\drivers\peripheral\ipc/cy_ipc_pipe.c **** void Cy_IPC_Pipe_Init(cy_stc_ipc_pipe_config_t const *config)
  73:Generated_Source\PSoC6\pdl\drivers\peripheral\ipc/cy_ipc_pipe.c **** {
  74:Generated_Source\PSoC6\pdl\drivers\peripheral\ipc/cy_ipc_pipe.c ****     /* Create the interrupt structures and arrays needed */
  75:Generated_Source\PSoC6\pdl\drivers\peripheral\ipc/cy_ipc_pipe.c **** 
  76:Generated_Source\PSoC6\pdl\drivers\peripheral\ipc/cy_ipc_pipe.c ****     cy_stc_sysint_t                 ipc_intr_cypipeConfig;
  77:Generated_Source\PSoC6\pdl\drivers\peripheral\ipc/cy_ipc_pipe.c **** 
  78:Generated_Source\PSoC6\pdl\drivers\peripheral\ipc/cy_ipc_pipe.c ****     cy_stc_ipc_pipe_ep_config_t        epConfigDataA;
  79:Generated_Source\PSoC6\pdl\drivers\peripheral\ipc/cy_ipc_pipe.c ****     cy_stc_ipc_pipe_ep_config_t        epConfigDataB;
  80:Generated_Source\PSoC6\pdl\drivers\peripheral\ipc/cy_ipc_pipe.c **** 
  81:Generated_Source\PSoC6\pdl\drivers\peripheral\ipc/cy_ipc_pipe.c ****     /* Parameters checking begin */
  82:Generated_Source\PSoC6\pdl\drivers\peripheral\ipc/cy_ipc_pipe.c ****     CY_ASSERT_L1(NULL != config);
  83:Generated_Source\PSoC6\pdl\drivers\peripheral\ipc/cy_ipc_pipe.c ****     #if (CY_CPU_CORTEX_M0P)
  84:Generated_Source\PSoC6\pdl\drivers\peripheral\ipc/cy_ipc_pipe.c ****     CY_ASSERT_L2((uint32_t)(1UL << __NVIC_PRIO_BITS) > config->ep0ConfigData.ipcNotifierPriority);
  85:Generated_Source\PSoC6\pdl\drivers\peripheral\ipc/cy_ipc_pipe.c ****     #else
  86:Generated_Source\PSoC6\pdl\drivers\peripheral\ipc/cy_ipc_pipe.c ****     CY_ASSERT_L2((uint32_t)(1UL << __NVIC_PRIO_BITS) > config->ep1ConfigData.ipcNotifierPriority);
  87:Generated_Source\PSoC6\pdl\drivers\peripheral\ipc/cy_ipc_pipe.c ****     #endif
  88:Generated_Source\PSoC6\pdl\drivers\peripheral\ipc/cy_ipc_pipe.c ****     CY_ASSERT_L1(NULL != config->endpointsCallbacksArray);
  89:Generated_Source\PSoC6\pdl\drivers\peripheral\ipc/cy_ipc_pipe.c ****     CY_ASSERT_L1(NULL != config->userPipeIsrHandler);
  90:Generated_Source\PSoC6\pdl\drivers\peripheral\ipc/cy_ipc_pipe.c ****     /* Parameters checking end */
  91:Generated_Source\PSoC6\pdl\drivers\peripheral\ipc/cy_ipc_pipe.c **** 
  92:Generated_Source\PSoC6\pdl\drivers\peripheral\ipc/cy_ipc_pipe.c **** #if (CY_CPU_CORTEX_M0P)
  93:Generated_Source\PSoC6\pdl\drivers\peripheral\ipc/cy_ipc_pipe.c **** 
  94:Generated_Source\PSoC6\pdl\drivers\peripheral\ipc/cy_ipc_pipe.c ****     /* Receiver endpoint = EP0, Sender endpoint = EP1 */
  95:Generated_Source\PSoC6\pdl\drivers\peripheral\ipc/cy_ipc_pipe.c ****     epConfigDataA = config->ep0ConfigData;
  96:Generated_Source\PSoC6\pdl\drivers\peripheral\ipc/cy_ipc_pipe.c ****     epConfigDataB = config->ep1ConfigData;
  97:Generated_Source\PSoC6\pdl\drivers\peripheral\ipc/cy_ipc_pipe.c **** 
  98:Generated_Source\PSoC6\pdl\drivers\peripheral\ipc/cy_ipc_pipe.c ****     /* Configure CM0 interrupts */
  99:Generated_Source\PSoC6\pdl\drivers\peripheral\ipc/cy_ipc_pipe.c ****     ipc_intr_cypipeConfig.intrSrc          = (IRQn_Type)epConfigDataA.ipcNotifierMuxNumber;
 100:Generated_Source\PSoC6\pdl\drivers\peripheral\ipc/cy_ipc_pipe.c ****     ipc_intr_cypipeConfig.cm0pSrc          = (cy_en_intr_t)((int32_t)cy_device->cpussIpc0Irq + (int
 101:Generated_Source\PSoC6\pdl\drivers\peripheral\ipc/cy_ipc_pipe.c ****     ipc_intr_cypipeConfig.intrPriority     = epConfigDataA.ipcNotifierPriority;
 102:Generated_Source\PSoC6\pdl\drivers\peripheral\ipc/cy_ipc_pipe.c **** 
 103:Generated_Source\PSoC6\pdl\drivers\peripheral\ipc/cy_ipc_pipe.c **** #else
 104:Generated_Source\PSoC6\pdl\drivers\peripheral\ipc/cy_ipc_pipe.c **** 
 105:Generated_Source\PSoC6\pdl\drivers\peripheral\ipc/cy_ipc_pipe.c ****     /* Receiver endpoint = EP1, Sender endpoint = EP0 */
 106:Generated_Source\PSoC6\pdl\drivers\peripheral\ipc/cy_ipc_pipe.c ****     epConfigDataA = config->ep1ConfigData;
 107:Generated_Source\PSoC6\pdl\drivers\peripheral\ipc/cy_ipc_pipe.c ****     epConfigDataB = config->ep0ConfigData;
 108:Generated_Source\PSoC6\pdl\drivers\peripheral\ipc/cy_ipc_pipe.c **** 
 109:Generated_Source\PSoC6\pdl\drivers\peripheral\ipc/cy_ipc_pipe.c ****     /* Configure interrupts */
 110:Generated_Source\PSoC6\pdl\drivers\peripheral\ipc/cy_ipc_pipe.c ****     ipc_intr_cypipeConfig.intrSrc          = (IRQn_Type)((int32_t)cy_device->cpussIpc0Irq + (int32_
 111:Generated_Source\PSoC6\pdl\drivers\peripheral\ipc/cy_ipc_pipe.c ****     ipc_intr_cypipeConfig.intrPriority     = epConfigDataA.ipcNotifierPriority;
ARM GAS  C:\Users\mattma1\AppData\Local\Temp\ccEG71GX.s 			page 4


 112:Generated_Source\PSoC6\pdl\drivers\peripheral\ipc/cy_ipc_pipe.c **** 
 113:Generated_Source\PSoC6\pdl\drivers\peripheral\ipc/cy_ipc_pipe.c **** #endif
 114:Generated_Source\PSoC6\pdl\drivers\peripheral\ipc/cy_ipc_pipe.c **** 
 115:Generated_Source\PSoC6\pdl\drivers\peripheral\ipc/cy_ipc_pipe.c ****     /* Initialize the pipe endpoints */
 116:Generated_Source\PSoC6\pdl\drivers\peripheral\ipc/cy_ipc_pipe.c ****     Cy_IPC_Pipe_EndpointInit(epConfigDataA.epAddress,
 117:Generated_Source\PSoC6\pdl\drivers\peripheral\ipc/cy_ipc_pipe.c ****                              config->endpointsCallbacksArray,
 118:Generated_Source\PSoC6\pdl\drivers\peripheral\ipc/cy_ipc_pipe.c ****                              config->endpointClientsCount,
 119:Generated_Source\PSoC6\pdl\drivers\peripheral\ipc/cy_ipc_pipe.c ****                              epConfigDataA.epConfig,
 120:Generated_Source\PSoC6\pdl\drivers\peripheral\ipc/cy_ipc_pipe.c ****                              &ipc_intr_cypipeConfig);
 121:Generated_Source\PSoC6\pdl\drivers\peripheral\ipc/cy_ipc_pipe.c **** 
 122:Generated_Source\PSoC6\pdl\drivers\peripheral\ipc/cy_ipc_pipe.c ****     /* Create the endpoints for the CM4 just for reference */
 123:Generated_Source\PSoC6\pdl\drivers\peripheral\ipc/cy_ipc_pipe.c ****     Cy_IPC_Pipe_EndpointInit(epConfigDataB.epAddress, NULL, 0ul, epConfigDataB.epConfig, NULL);
 124:Generated_Source\PSoC6\pdl\drivers\peripheral\ipc/cy_ipc_pipe.c **** 
 125:Generated_Source\PSoC6\pdl\drivers\peripheral\ipc/cy_ipc_pipe.c ****     (void)Cy_SysInt_Init(&ipc_intr_cypipeConfig, config->userPipeIsrHandler);
 126:Generated_Source\PSoC6\pdl\drivers\peripheral\ipc/cy_ipc_pipe.c **** 
 127:Generated_Source\PSoC6\pdl\drivers\peripheral\ipc/cy_ipc_pipe.c ****     /* Enable the interrupts */
 128:Generated_Source\PSoC6\pdl\drivers\peripheral\ipc/cy_ipc_pipe.c ****     NVIC_EnableIRQ(ipc_intr_cypipeConfig.intrSrc);
 129:Generated_Source\PSoC6\pdl\drivers\peripheral\ipc/cy_ipc_pipe.c **** }
 130:Generated_Source\PSoC6\pdl\drivers\peripheral\ipc/cy_ipc_pipe.c **** 
 131:Generated_Source\PSoC6\pdl\drivers\peripheral\ipc/cy_ipc_pipe.c **** 
 132:Generated_Source\PSoC6\pdl\drivers\peripheral\ipc/cy_ipc_pipe.c **** /*******************************************************************************
 133:Generated_Source\PSoC6\pdl\drivers\peripheral\ipc/cy_ipc_pipe.c **** * Function Name: Cy_IPC_Pipe_EndpointInit
 134:Generated_Source\PSoC6\pdl\drivers\peripheral\ipc/cy_ipc_pipe.c **** ****************************************************************************//**
 135:Generated_Source\PSoC6\pdl\drivers\peripheral\ipc/cy_ipc_pipe.c **** *
 136:Generated_Source\PSoC6\pdl\drivers\peripheral\ipc/cy_ipc_pipe.c **** * This function initializes the endpoint of a pipe for the current CPU.  The
 137:Generated_Source\PSoC6\pdl\drivers\peripheral\ipc/cy_ipc_pipe.c **** * current CPU is the CPU that is executing the code. An endpoint of a pipe
 138:Generated_Source\PSoC6\pdl\drivers\peripheral\ipc/cy_ipc_pipe.c **** * is for the IPC channel that receives a message for the current CPU.
 139:Generated_Source\PSoC6\pdl\drivers\peripheral\ipc/cy_ipc_pipe.c **** *
 140:Generated_Source\PSoC6\pdl\drivers\peripheral\ipc/cy_ipc_pipe.c **** * After this function is called, the callbackArray needs to be populated
 141:Generated_Source\PSoC6\pdl\drivers\peripheral\ipc/cy_ipc_pipe.c **** * with the callback functions for that endpoint using the
 142:Generated_Source\PSoC6\pdl\drivers\peripheral\ipc/cy_ipc_pipe.c **** * Cy_IPC_Pipe_RegisterCallback() function.
 143:Generated_Source\PSoC6\pdl\drivers\peripheral\ipc/cy_ipc_pipe.c **** *
 144:Generated_Source\PSoC6\pdl\drivers\peripheral\ipc/cy_ipc_pipe.c **** * \note In general case, this function is called within \ref Cy_IPC_Pipe_Init,
 145:Generated_Source\PSoC6\pdl\drivers\peripheral\ipc/cy_ipc_pipe.c **** * so user doesn't need to call it anywhere.
 146:Generated_Source\PSoC6\pdl\drivers\peripheral\ipc/cy_ipc_pipe.c **** * However, it may be useful in case of some pipe/endpoint customizations.
 147:Generated_Source\PSoC6\pdl\drivers\peripheral\ipc/cy_ipc_pipe.c **** *
 148:Generated_Source\PSoC6\pdl\drivers\peripheral\ipc/cy_ipc_pipe.c **** * \param epAddr
 149:Generated_Source\PSoC6\pdl\drivers\peripheral\ipc/cy_ipc_pipe.c **** * This parameter is the address (or index in the array of endpoint structures)
 150:Generated_Source\PSoC6\pdl\drivers\peripheral\ipc/cy_ipc_pipe.c **** * that designates the endpoint you want to initialize.
 151:Generated_Source\PSoC6\pdl\drivers\peripheral\ipc/cy_ipc_pipe.c **** *
 152:Generated_Source\PSoC6\pdl\drivers\peripheral\ipc/cy_ipc_pipe.c **** * \param cbArray
 153:Generated_Source\PSoC6\pdl\drivers\peripheral\ipc/cy_ipc_pipe.c **** * This is a pointer to the callback function array.  Based on the client ID, one
 154:Generated_Source\PSoC6\pdl\drivers\peripheral\ipc/cy_ipc_pipe.c **** * of the functions in this array is called to process the message.
 155:Generated_Source\PSoC6\pdl\drivers\peripheral\ipc/cy_ipc_pipe.c **** *
 156:Generated_Source\PSoC6\pdl\drivers\peripheral\ipc/cy_ipc_pipe.c **** * \param cbCnt
 157:Generated_Source\PSoC6\pdl\drivers\peripheral\ipc/cy_ipc_pipe.c **** * This is the size of the callback array, or the number of defined clients.
 158:Generated_Source\PSoC6\pdl\drivers\peripheral\ipc/cy_ipc_pipe.c **** *
 159:Generated_Source\PSoC6\pdl\drivers\peripheral\ipc/cy_ipc_pipe.c **** * \param epConfig
 160:Generated_Source\PSoC6\pdl\drivers\peripheral\ipc/cy_ipc_pipe.c **** * This value defines the IPC channel, IPC interrupt number, and the interrupt
 161:Generated_Source\PSoC6\pdl\drivers\peripheral\ipc/cy_ipc_pipe.c **** * mask for the entire pipe.
 162:Generated_Source\PSoC6\pdl\drivers\peripheral\ipc/cy_ipc_pipe.c **** * The format of the endpoint configuration
 163:Generated_Source\PSoC6\pdl\drivers\peripheral\ipc/cy_ipc_pipe.c **** *    Bits[31:16] Interrupt Mask
 164:Generated_Source\PSoC6\pdl\drivers\peripheral\ipc/cy_ipc_pipe.c **** *    Bits[15:8 ] IPC interrupt
 165:Generated_Source\PSoC6\pdl\drivers\peripheral\ipc/cy_ipc_pipe.c **** *    Bits[ 7:0 ] IPC channel
 166:Generated_Source\PSoC6\pdl\drivers\peripheral\ipc/cy_ipc_pipe.c **** *
 167:Generated_Source\PSoC6\pdl\drivers\peripheral\ipc/cy_ipc_pipe.c **** * \param epInterrupt
 168:Generated_Source\PSoC6\pdl\drivers\peripheral\ipc/cy_ipc_pipe.c **** * This is a pointer to the endpoint interrupt description structure.
ARM GAS  C:\Users\mattma1\AppData\Local\Temp\ccEG71GX.s 			page 5


 169:Generated_Source\PSoC6\pdl\drivers\peripheral\ipc/cy_ipc_pipe.c **** *
 170:Generated_Source\PSoC6\pdl\drivers\peripheral\ipc/cy_ipc_pipe.c **** * \funcusage
 171:Generated_Source\PSoC6\pdl\drivers\peripheral\ipc/cy_ipc_pipe.c **** * \snippet IPC_sut_01.cydsn/main_cm4.c snippet_myIpcPipeCbArray
 172:Generated_Source\PSoC6\pdl\drivers\peripheral\ipc/cy_ipc_pipe.c **** * \snippet IPC_sut_01.cydsn/main_cm4.c snippet_myIpcPipeEpConfig
 173:Generated_Source\PSoC6\pdl\drivers\peripheral\ipc/cy_ipc_pipe.c **** * \snippet IPC_sut_01.cydsn/main_cm4.c snippet_Cy_IPC_Pipe_EndpointInit
 174:Generated_Source\PSoC6\pdl\drivers\peripheral\ipc/cy_ipc_pipe.c **** *
 175:Generated_Source\PSoC6\pdl\drivers\peripheral\ipc/cy_ipc_pipe.c **** *******************************************************************************/
 176:Generated_Source\PSoC6\pdl\drivers\peripheral\ipc/cy_ipc_pipe.c **** void Cy_IPC_Pipe_EndpointInit(uint32_t epAddr, cy_ipc_pipe_callback_array_ptr_t cbArray,
 177:Generated_Source\PSoC6\pdl\drivers\peripheral\ipc/cy_ipc_pipe.c ****                               uint32_t cbCnt, uint32_t epConfig, cy_stc_sysint_t const *epInterrupt
 178:Generated_Source\PSoC6\pdl\drivers\peripheral\ipc/cy_ipc_pipe.c **** {
  61              		.loc 1 178 0
  62              		.cfi_startproc
  63              		@ args = 4, pretend = 0, frame = 0
  64              		@ frame_needed = 0, uses_anonymous_args = 0
  65              	.LVL1:
  66 0000 F0B5     		push	{r4, r5, r6, r7, lr}
  67              		.cfi_def_cfa_offset 20
  68              		.cfi_offset 4, -20
  69              		.cfi_offset 5, -16
  70              		.cfi_offset 6, -12
  71              		.cfi_offset 7, -8
  72              		.cfi_offset 14, -4
  73 0002 4746     		mov	r7, r8
  74 0004 80B4     		push	{r7}
  75              		.cfi_def_cfa_offset 24
  76              		.cfi_offset 8, -24
  77 0006 0400     		movs	r4, r0
  78 0008 0F00     		movs	r7, r1
  79 000a 9046     		mov	r8, r2
  80 000c 1E00     		movs	r6, r3
 179:Generated_Source\PSoC6\pdl\drivers\peripheral\ipc/cy_ipc_pipe.c ****     cy_stc_ipc_pipe_ep_t * endpoint;
 180:Generated_Source\PSoC6\pdl\drivers\peripheral\ipc/cy_ipc_pipe.c **** 
 181:Generated_Source\PSoC6\pdl\drivers\peripheral\ipc/cy_ipc_pipe.c ****     CY_ASSERT_L1(NULL != cy_ipc_pipe_epArray);
  81              		.loc 1 181 0
  82 000e 2D4B     		ldr	r3, .L12
  83              	.LVL2:
  84 0010 1B68     		ldr	r3, [r3]
  85 0012 002B     		cmp	r3, #0
  86 0014 03D1     		bne	.L6
  87              		.loc 1 181 0 is_stmt 0 discriminator 1
  88 0016 B521     		movs	r1, #181
  89              	.LVL3:
  90 0018 2B48     		ldr	r0, .L12+4
  91              	.LVL4:
  92 001a FFF7FEFF 		bl	Cy_SysLib_AssertFailed
  93              	.LVL5:
  94              	.L6:
 182:Generated_Source\PSoC6\pdl\drivers\peripheral\ipc/cy_ipc_pipe.c **** 
 183:Generated_Source\PSoC6\pdl\drivers\peripheral\ipc/cy_ipc_pipe.c ****     endpoint = &cy_ipc_pipe_epArray[epAddr];
  95              		.loc 1 183 0 is_stmt 1
  96 001e 294B     		ldr	r3, .L12
  97 0020 1B68     		ldr	r3, [r3]
  98 0022 2C20     		movs	r0, #44
  99 0024 6043     		muls	r0, r4
 100 0026 1C18     		adds	r4, r3, r0
 101              	.LVL6:
 184:Generated_Source\PSoC6\pdl\drivers\peripheral\ipc/cy_ipc_pipe.c **** 
ARM GAS  C:\Users\mattma1\AppData\Local\Temp\ccEG71GX.s 			page 6


 185:Generated_Source\PSoC6\pdl\drivers\peripheral\ipc/cy_ipc_pipe.c ****     /* Extract the channel, interrupt and interrupt mask */
 186:Generated_Source\PSoC6\pdl\drivers\peripheral\ipc/cy_ipc_pipe.c ****     endpoint->ipcChan         = _FLD2VAL(CY_IPC_PIPE_CFG_CHAN,  epConfig);
 102              		.loc 1 186 0
 103 0028 FF22     		movs	r2, #255
 104 002a 1500     		movs	r5, r2
 105 002c 3540     		ands	r5, r6
 106 002e 2560     		str	r5, [r4]
 187:Generated_Source\PSoC6\pdl\drivers\peripheral\ipc/cy_ipc_pipe.c ****     endpoint->intrChan        = _FLD2VAL(CY_IPC_PIPE_CFG_INTR,  epConfig);
 107              		.loc 1 187 0
 108 0030 330A     		lsrs	r3, r6, #8
 109 0032 1340     		ands	r3, r2
 110 0034 6360     		str	r3, [r4, #4]
 188:Generated_Source\PSoC6\pdl\drivers\peripheral\ipc/cy_ipc_pipe.c ****     endpoint->pipeIntMask     = _FLD2VAL(CY_IPC_PIPE_CFG_IMASK, epConfig);
 111              		.loc 1 188 0
 112 0036 360C     		lsrs	r6, r6, #16
 113              	.LVL7:
 114 0038 A660     		str	r6, [r4, #8]
 115              	.LVL8:
 116              	.LBB46:
 117              	.LBB47:
 118              		.file 2 "Generated_Source\\PSoC6\\pdl\\drivers\\peripheral\\ipc\\cy_ipc_drv.h"
   1:Generated_Source\PSoC6\pdl\drivers\peripheral\ipc/cy_ipc_drv.h **** /***************************************************************************//**
   2:Generated_Source\PSoC6\pdl\drivers\peripheral\ipc/cy_ipc_drv.h **** * \file cy_ipc_drv.h
   3:Generated_Source\PSoC6\pdl\drivers\peripheral\ipc/cy_ipc_drv.h **** * \version 1.30
   4:Generated_Source\PSoC6\pdl\drivers\peripheral\ipc/cy_ipc_drv.h **** *
   5:Generated_Source\PSoC6\pdl\drivers\peripheral\ipc/cy_ipc_drv.h **** * Provides an API declaration of the IPC driver.
   6:Generated_Source\PSoC6\pdl\drivers\peripheral\ipc/cy_ipc_drv.h **** *
   7:Generated_Source\PSoC6\pdl\drivers\peripheral\ipc/cy_ipc_drv.h **** ********************************************************************************
   8:Generated_Source\PSoC6\pdl\drivers\peripheral\ipc/cy_ipc_drv.h **** * \copyright
   9:Generated_Source\PSoC6\pdl\drivers\peripheral\ipc/cy_ipc_drv.h **** * Copyright 2016-2018, Cypress Semiconductor Corporation. All rights reserved.
  10:Generated_Source\PSoC6\pdl\drivers\peripheral\ipc/cy_ipc_drv.h **** * You may use this file only in accordance with the license, terms, conditions,
  11:Generated_Source\PSoC6\pdl\drivers\peripheral\ipc/cy_ipc_drv.h **** * disclaimers, and limitations in the end user license agreement accompanying
  12:Generated_Source\PSoC6\pdl\drivers\peripheral\ipc/cy_ipc_drv.h **** * the software package with which this file was provided.
  13:Generated_Source\PSoC6\pdl\drivers\peripheral\ipc/cy_ipc_drv.h **** *******************************************************************************/
  14:Generated_Source\PSoC6\pdl\drivers\peripheral\ipc/cy_ipc_drv.h **** 
  15:Generated_Source\PSoC6\pdl\drivers\peripheral\ipc/cy_ipc_drv.h **** #ifndef CY_IPC_DRV_H
  16:Generated_Source\PSoC6\pdl\drivers\peripheral\ipc/cy_ipc_drv.h **** #define CY_IPC_DRV_H
  17:Generated_Source\PSoC6\pdl\drivers\peripheral\ipc/cy_ipc_drv.h **** 
  18:Generated_Source\PSoC6\pdl\drivers\peripheral\ipc/cy_ipc_drv.h **** 
  19:Generated_Source\PSoC6\pdl\drivers\peripheral\ipc/cy_ipc_drv.h **** /**
  20:Generated_Source\PSoC6\pdl\drivers\peripheral\ipc/cy_ipc_drv.h **** * \addtogroup group_ipc
  21:Generated_Source\PSoC6\pdl\drivers\peripheral\ipc/cy_ipc_drv.h **** * \{
  22:Generated_Source\PSoC6\pdl\drivers\peripheral\ipc/cy_ipc_drv.h **** * The inter-processor communication (IPC) driver provides a safe and reliable
  23:Generated_Source\PSoC6\pdl\drivers\peripheral\ipc/cy_ipc_drv.h **** * method to transfer data between CPUs. Hardware locking ensures that only one
  24:Generated_Source\PSoC6\pdl\drivers\peripheral\ipc/cy_ipc_drv.h **** * device can acquire and transfer data at a time so no data is lost or
  25:Generated_Source\PSoC6\pdl\drivers\peripheral\ipc/cy_ipc_drv.h **** * overwritten by asynchronous processes or CPUs.
  26:Generated_Source\PSoC6\pdl\drivers\peripheral\ipc/cy_ipc_drv.h **** *
  27:Generated_Source\PSoC6\pdl\drivers\peripheral\ipc/cy_ipc_drv.h **** * Include either cy_ipc_pipe.h or cy_ipc_sema.h. Alternatively include cy_pdl.h 
  28:Generated_Source\PSoC6\pdl\drivers\peripheral\ipc/cy_ipc_drv.h **** * (ModusToolbox only) to get access to all functions and declarations in the PDL.
  29:Generated_Source\PSoC6\pdl\drivers\peripheral\ipc/cy_ipc_drv.h **** *
  30:Generated_Source\PSoC6\pdl\drivers\peripheral\ipc/cy_ipc_drv.h **** * There are three parts to the API:
  31:Generated_Source\PSoC6\pdl\drivers\peripheral\ipc/cy_ipc_drv.h **** *     - Driver-level (DRV) API - used internally by Semaphore and Pipe levels
  32:Generated_Source\PSoC6\pdl\drivers\peripheral\ipc/cy_ipc_drv.h **** *     - Pipe-level (PIPE) API - establishes a communication channel between
  33:Generated_Source\PSoC6\pdl\drivers\peripheral\ipc/cy_ipc_drv.h **** *       processors
  34:Generated_Source\PSoC6\pdl\drivers\peripheral\ipc/cy_ipc_drv.h **** *     - Semaphore-level (SEMA) API - enables users to set and clear flags to
  35:Generated_Source\PSoC6\pdl\drivers\peripheral\ipc/cy_ipc_drv.h **** *       synchronize operations.
  36:Generated_Source\PSoC6\pdl\drivers\peripheral\ipc/cy_ipc_drv.h **** *
ARM GAS  C:\Users\mattma1\AppData\Local\Temp\ccEG71GX.s 			page 7


  37:Generated_Source\PSoC6\pdl\drivers\peripheral\ipc/cy_ipc_drv.h **** * Firmware does not need to use the DRV API. It can implement IPC functionality
  38:Generated_Source\PSoC6\pdl\drivers\peripheral\ipc/cy_ipc_drv.h **** * entirely with the PIPE and SEMA APIs.
  39:Generated_Source\PSoC6\pdl\drivers\peripheral\ipc/cy_ipc_drv.h **** *
  40:Generated_Source\PSoC6\pdl\drivers\peripheral\ipc/cy_ipc_drv.h **** * \section group_ipc_background Background
  41:Generated_Source\PSoC6\pdl\drivers\peripheral\ipc/cy_ipc_drv.h **** *
  42:Generated_Source\PSoC6\pdl\drivers\peripheral\ipc/cy_ipc_drv.h **** * IPC is implemented in hardware as a collection of individual communication
  43:Generated_Source\PSoC6\pdl\drivers\peripheral\ipc/cy_ipc_drv.h **** * channels, each with a set of 32-bit registers. The IPC design implements a set
  44:Generated_Source\PSoC6\pdl\drivers\peripheral\ipc/cy_ipc_drv.h **** * of interrupts that enable each processor to notify the other that data is
  45:Generated_Source\PSoC6\pdl\drivers\peripheral\ipc/cy_ipc_drv.h **** * available, or has been processed. There is also a locking mechanism that
  46:Generated_Source\PSoC6\pdl\drivers\peripheral\ipc/cy_ipc_drv.h **** * allows only one CPU to gain access at a time.
  47:Generated_Source\PSoC6\pdl\drivers\peripheral\ipc/cy_ipc_drv.h **** *
  48:Generated_Source\PSoC6\pdl\drivers\peripheral\ipc/cy_ipc_drv.h **** * The Driver-level API manages each channel's registers to implement IPC
  49:Generated_Source\PSoC6\pdl\drivers\peripheral\ipc/cy_ipc_drv.h **** * functionality. For information on the IPC registers, see the IPC chapter of
  50:Generated_Source\PSoC6\pdl\drivers\peripheral\ipc/cy_ipc_drv.h **** * the Technical Reference Manual (TRM).
  51:Generated_Source\PSoC6\pdl\drivers\peripheral\ipc/cy_ipc_drv.h **** *
  52:Generated_Source\PSoC6\pdl\drivers\peripheral\ipc/cy_ipc_drv.h **** * At the hardware level, communication is a five-step process.
  53:Generated_Source\PSoC6\pdl\drivers\peripheral\ipc/cy_ipc_drv.h **** *     -#  The sending processor acquires a channel
  54:Generated_Source\PSoC6\pdl\drivers\peripheral\ipc/cy_ipc_drv.h **** *     -#  It puts data into the channel
  55:Generated_Source\PSoC6\pdl\drivers\peripheral\ipc/cy_ipc_drv.h **** *     -#  The sender generates a notify event (interrupt)
  56:Generated_Source\PSoC6\pdl\drivers\peripheral\ipc/cy_ipc_drv.h **** *     -#  The receiving processor identifies the sender and retrieves the data
  57:Generated_Source\PSoC6\pdl\drivers\peripheral\ipc/cy_ipc_drv.h **** *     -#  The receiving processor generates a release event (interrupt)
  58:Generated_Source\PSoC6\pdl\drivers\peripheral\ipc/cy_ipc_drv.h **** *
  59:Generated_Source\PSoC6\pdl\drivers\peripheral\ipc/cy_ipc_drv.h **** * \image html ipc_driver.png
  60:Generated_Source\PSoC6\pdl\drivers\peripheral\ipc/cy_ipc_drv.h **** *
  61:Generated_Source\PSoC6\pdl\drivers\peripheral\ipc/cy_ipc_drv.h **** * These transactions are handled transparently by the DRV-level API. Use the
  62:Generated_Source\PSoC6\pdl\drivers\peripheral\ipc/cy_ipc_drv.h **** * PIPE and SEMA layers of the API to implement communication in your application.
  63:Generated_Source\PSoC6\pdl\drivers\peripheral\ipc/cy_ipc_drv.h **** * The data transferred is limited to a single 32-bit value. As implemented by
  64:Generated_Source\PSoC6\pdl\drivers\peripheral\ipc/cy_ipc_drv.h **** * the PIPE API, that value is a pointer to a data structure of arbitrary size
  65:Generated_Source\PSoC6\pdl\drivers\peripheral\ipc/cy_ipc_drv.h **** * and complexity.
  66:Generated_Source\PSoC6\pdl\drivers\peripheral\ipc/cy_ipc_drv.h **** *
  67:Generated_Source\PSoC6\pdl\drivers\peripheral\ipc/cy_ipc_drv.h **** * \section group_ipc_overview Overview
  68:Generated_Source\PSoC6\pdl\drivers\peripheral\ipc/cy_ipc_drv.h **** *
  69:Generated_Source\PSoC6\pdl\drivers\peripheral\ipc/cy_ipc_drv.h **** * The Pipe is the key element in the PDL design. A pipe is typically a
  70:Generated_Source\PSoC6\pdl\drivers\peripheral\ipc/cy_ipc_drv.h **** * full-duplex communication channel between CPU cores. A pipe allows a single
  71:Generated_Source\PSoC6\pdl\drivers\peripheral\ipc/cy_ipc_drv.h **** * conduit to transfer messages or data to and from multiple processes or CPUs.
  72:Generated_Source\PSoC6\pdl\drivers\peripheral\ipc/cy_ipc_drv.h **** *
  73:Generated_Source\PSoC6\pdl\drivers\peripheral\ipc/cy_ipc_drv.h **** * A pipe has two endpoints, one on each core. Each endpoint contains a dedicated
  74:Generated_Source\PSoC6\pdl\drivers\peripheral\ipc/cy_ipc_drv.h **** * IPC channel and an interrupt. IPC channels 0-7 and IPC interrupts 0-7 are
  75:Generated_Source\PSoC6\pdl\drivers\peripheral\ipc/cy_ipc_drv.h **** * reserved for system use.
  76:Generated_Source\PSoC6\pdl\drivers\peripheral\ipc/cy_ipc_drv.h **** *
  77:Generated_Source\PSoC6\pdl\drivers\peripheral\ipc/cy_ipc_drv.h **** * The pipe also contains the number of clients it supports, and for each client
  78:Generated_Source\PSoC6\pdl\drivers\peripheral\ipc/cy_ipc_drv.h **** * a callback function. So the pipe can service a number of clients, each with a
  79:Generated_Source\PSoC6\pdl\drivers\peripheral\ipc/cy_ipc_drv.h **** * separate callback function, on either endpoint. The number of clients a pipe
  80:Generated_Source\PSoC6\pdl\drivers\peripheral\ipc/cy_ipc_drv.h **** * supports is the sum of each endpoint's clients.
  81:Generated_Source\PSoC6\pdl\drivers\peripheral\ipc/cy_ipc_drv.h **** *
  82:Generated_Source\PSoC6\pdl\drivers\peripheral\ipc/cy_ipc_drv.h **** * This design enables any number of processes on the sending core to put
  83:Generated_Source\PSoC6\pdl\drivers\peripheral\ipc/cy_ipc_drv.h **** * arbitrary data into a single pipe. The first element of that data is the
  84:Generated_Source\PSoC6\pdl\drivers\peripheral\ipc/cy_ipc_drv.h **** * client ID of the client that should handle the data.
  85:Generated_Source\PSoC6\pdl\drivers\peripheral\ipc/cy_ipc_drv.h **** *
  86:Generated_Source\PSoC6\pdl\drivers\peripheral\ipc/cy_ipc_drv.h **** * An interrupt notifies the receiving core that data is available. The receiving
  87:Generated_Source\PSoC6\pdl\drivers\peripheral\ipc/cy_ipc_drv.h **** * core parses the data to identify the client, and then dispatches the event to
  88:Generated_Source\PSoC6\pdl\drivers\peripheral\ipc/cy_ipc_drv.h **** * the appropriate client via the client callback function. An interrupt notifies
  89:Generated_Source\PSoC6\pdl\drivers\peripheral\ipc/cy_ipc_drv.h **** * the sending core that the receiver is finished. In this way a single pipe can
  90:Generated_Source\PSoC6\pdl\drivers\peripheral\ipc/cy_ipc_drv.h **** * manage arbitrary data transfers between cores with data flowing in either
  91:Generated_Source\PSoC6\pdl\drivers\peripheral\ipc/cy_ipc_drv.h **** * direction.
  92:Generated_Source\PSoC6\pdl\drivers\peripheral\ipc/cy_ipc_drv.h **** *
  93:Generated_Source\PSoC6\pdl\drivers\peripheral\ipc/cy_ipc_drv.h **** * \image html ipc_ints.png
ARM GAS  C:\Users\mattma1\AppData\Local\Temp\ccEG71GX.s 			page 8


  94:Generated_Source\PSoC6\pdl\drivers\peripheral\ipc/cy_ipc_drv.h **** *
  95:Generated_Source\PSoC6\pdl\drivers\peripheral\ipc/cy_ipc_drv.h **** * The application can use semaphores to control access to shared resources, as
  96:Generated_Source\PSoC6\pdl\drivers\peripheral\ipc/cy_ipc_drv.h **** * required by the application's logic.
  97:Generated_Source\PSoC6\pdl\drivers\peripheral\ipc/cy_ipc_drv.h **** *
  98:Generated_Source\PSoC6\pdl\drivers\peripheral\ipc/cy_ipc_drv.h **** * The PDL provides specific files that set up default IPC functionality.
  99:Generated_Source\PSoC6\pdl\drivers\peripheral\ipc/cy_ipc_drv.h **** * They are system_psoc6.h, system_psoc6_cm0plus.c and system_psoc6_cm4.c. You 
 100:Generated_Source\PSoC6\pdl\drivers\peripheral\ipc/cy_ipc_drv.h **** * can modify these files based on the requirements of your design. 
 101:Generated_Source\PSoC6\pdl\drivers\peripheral\ipc/cy_ipc_drv.h **** * If you use PSoC Creator as a development environment, it will not overwrite 
 102:Generated_Source\PSoC6\pdl\drivers\peripheral\ipc/cy_ipc_drv.h **** * your changes when you generate the application or build your code.
 103:Generated_Source\PSoC6\pdl\drivers\peripheral\ipc/cy_ipc_drv.h **** *
 104:Generated_Source\PSoC6\pdl\drivers\peripheral\ipc/cy_ipc_drv.h **** * \section group_ipc_pipe_layer PIPE layer
 105:Generated_Source\PSoC6\pdl\drivers\peripheral\ipc/cy_ipc_drv.h **** *
 106:Generated_Source\PSoC6\pdl\drivers\peripheral\ipc/cy_ipc_drv.h **** * A pipe is a communication channel between two endpoints. PSoC 6 devices support
 107:Generated_Source\PSoC6\pdl\drivers\peripheral\ipc/cy_ipc_drv.h **** * 16 IPC channels, and 16 IPC interrupts, each numbered 0-15. IPC Channels 0-7
 108:Generated_Source\PSoC6\pdl\drivers\peripheral\ipc/cy_ipc_drv.h **** * and IPC interrupts 0-7 are reserved for system use. Channels 8-15 and
 109:Generated_Source\PSoC6\pdl\drivers\peripheral\ipc/cy_ipc_drv.h **** * interrupts 8-15 are available for application use.
 110:Generated_Source\PSoC6\pdl\drivers\peripheral\ipc/cy_ipc_drv.h **** *
 111:Generated_Source\PSoC6\pdl\drivers\peripheral\ipc/cy_ipc_drv.h **** * A full duplex pipe uses two IPC channels, one per endpoint. Each endpoint
 112:Generated_Source\PSoC6\pdl\drivers\peripheral\ipc/cy_ipc_drv.h **** * specifies all the information required to process a message (either sent or
 113:Generated_Source\PSoC6\pdl\drivers\peripheral\ipc/cy_ipc_drv.h **** * received). Each endpoint is configured to use an IPC channel, and an IPC
 114:Generated_Source\PSoC6\pdl\drivers\peripheral\ipc/cy_ipc_drv.h **** * interrupt. Common practice is to use the interrupt with the same number as
 115:Generated_Source\PSoC6\pdl\drivers\peripheral\ipc/cy_ipc_drv.h **** * the IPC channel. However, IPC Interrupts are not directly associated with the
 116:Generated_Source\PSoC6\pdl\drivers\peripheral\ipc/cy_ipc_drv.h **** * IPC channels, so any channel can use any interrupt.  Any IPC channel can
 117:Generated_Source\PSoC6\pdl\drivers\peripheral\ipc/cy_ipc_drv.h **** * trigger 0, 1 or all the IPC interrupts at once, depending on the Notify or
 118:Generated_Source\PSoC6\pdl\drivers\peripheral\ipc/cy_ipc_drv.h **** * Release masks used.
 119:Generated_Source\PSoC6\pdl\drivers\peripheral\ipc/cy_ipc_drv.h **** *
 120:Generated_Source\PSoC6\pdl\drivers\peripheral\ipc/cy_ipc_drv.h **** * It is also possible to set up a one-directional pipe, using a single IPC
 121:Generated_Source\PSoC6\pdl\drivers\peripheral\ipc/cy_ipc_drv.h **** * channel. In this design one processor is always the sender, and the other is
 122:Generated_Source\PSoC6\pdl\drivers\peripheral\ipc/cy_ipc_drv.h **** * always the receiver. However, there are still two endpoints.
 123:Generated_Source\PSoC6\pdl\drivers\peripheral\ipc/cy_ipc_drv.h **** *
 124:Generated_Source\PSoC6\pdl\drivers\peripheral\ipc/cy_ipc_drv.h **** * A pipe supports an arbitrary number of clients with an array of callback
 125:Generated_Source\PSoC6\pdl\drivers\peripheral\ipc/cy_ipc_drv.h **** * functions, one per client. The client ID is the index number into the array
 126:Generated_Source\PSoC6\pdl\drivers\peripheral\ipc/cy_ipc_drv.h **** * for the client. After a pipe is configured and initialized, the application
 127:Generated_Source\PSoC6\pdl\drivers\peripheral\ipc/cy_ipc_drv.h **** * calls Cy_IPC_Pipe_RegisterCallback() once per client to register each client's
 128:Generated_Source\PSoC6\pdl\drivers\peripheral\ipc/cy_ipc_drv.h **** * callback function. Multiple clients can use the same callback function. The
 129:Generated_Source\PSoC6\pdl\drivers\peripheral\ipc/cy_ipc_drv.h **** * endpoints in a pipe share the callback array.
 130:Generated_Source\PSoC6\pdl\drivers\peripheral\ipc/cy_ipc_drv.h **** *
 131:Generated_Source\PSoC6\pdl\drivers\peripheral\ipc/cy_ipc_drv.h **** * Use Cy_IPC_Pipe_SendMessage() to send data. You specify both the "to" and
 132:Generated_Source\PSoC6\pdl\drivers\peripheral\ipc/cy_ipc_drv.h **** * "from" endpoints, and a callback function to be used when the data transfer is
 133:Generated_Source\PSoC6\pdl\drivers\peripheral\ipc/cy_ipc_drv.h **** * complete. The data is a 32-bit void pointer. The data pointed to is arbitrary,
 134:Generated_Source\PSoC6\pdl\drivers\peripheral\ipc/cy_ipc_drv.h **** * and can be an array, a structure, or a location in memory. The only limitation
 135:Generated_Source\PSoC6\pdl\drivers\peripheral\ipc/cy_ipc_drv.h **** * is that the first element of the data must be a 32-bit unsigned word containing
 136:Generated_Source\PSoC6\pdl\drivers\peripheral\ipc/cy_ipc_drv.h **** * a client ID number. The ID number is the index into the callback array.
 137:Generated_Source\PSoC6\pdl\drivers\peripheral\ipc/cy_ipc_drv.h **** *
 138:Generated_Source\PSoC6\pdl\drivers\peripheral\ipc/cy_ipc_drv.h **** * When a message is sent, the receiving endpoint's interrupt handler is called.
 139:Generated_Source\PSoC6\pdl\drivers\peripheral\ipc/cy_ipc_drv.h **** * The ISR can perform any task required by the design. However, as part of its
 140:Generated_Source\PSoC6\pdl\drivers\peripheral\ipc/cy_ipc_drv.h **** * function it calls \ref Cy_IPC_Pipe_ExecCallback. This function retrieves the
 141:Generated_Source\PSoC6\pdl\drivers\peripheral\ipc/cy_ipc_drv.h **** * client ID from the data and calls the associated callback function.
 142:Generated_Source\PSoC6\pdl\drivers\peripheral\ipc/cy_ipc_drv.h **** * The user-supplied callback function handles the data in whatever way is
 143:Generated_Source\PSoC6\pdl\drivers\peripheral\ipc/cy_ipc_drv.h **** * appropriate based on the application logic.
 144:Generated_Source\PSoC6\pdl\drivers\peripheral\ipc/cy_ipc_drv.h **** *
 145:Generated_Source\PSoC6\pdl\drivers\peripheral\ipc/cy_ipc_drv.h **** * After the callback function is returned by the receiver, it invokes the release
 146:Generated_Source\PSoC6\pdl\drivers\peripheral\ipc/cy_ipc_drv.h **** * callback function defined by the sender of the message.
 147:Generated_Source\PSoC6\pdl\drivers\peripheral\ipc/cy_ipc_drv.h **** *
 148:Generated_Source\PSoC6\pdl\drivers\peripheral\ipc/cy_ipc_drv.h **** * \section group_ipc_sema_layer SEMA Layer
 149:Generated_Source\PSoC6\pdl\drivers\peripheral\ipc/cy_ipc_drv.h **** *
 150:Generated_Source\PSoC6\pdl\drivers\peripheral\ipc/cy_ipc_drv.h **** * A semaphore is a flag the application uses to control access to a shared
ARM GAS  C:\Users\mattma1\AppData\Local\Temp\ccEG71GX.s 			page 9


 151:Generated_Source\PSoC6\pdl\drivers\peripheral\ipc/cy_ipc_drv.h **** * resource. The SEMA-level API uses an IPC channel to implement
 152:Generated_Source\PSoC6\pdl\drivers\peripheral\ipc/cy_ipc_drv.h **** * semaphores. Startup code sets up a default semaphore system. The
 153:Generated_Source\PSoC6\pdl\drivers\peripheral\ipc/cy_ipc_drv.h **** * default system creates an array of 128 semaphores (four 32-bit values).
 154:Generated_Source\PSoC6\pdl\drivers\peripheral\ipc/cy_ipc_drv.h **** * Semaphores 0-15 are reserved for system use. See
 155:Generated_Source\PSoC6\pdl\drivers\peripheral\ipc/cy_ipc_drv.h **** * Configuration Considerations - SEMA.
 156:Generated_Source\PSoC6\pdl\drivers\peripheral\ipc/cy_ipc_drv.h **** *
 157:Generated_Source\PSoC6\pdl\drivers\peripheral\ipc/cy_ipc_drv.h **** * Functions are available to initialize the semaphore system, to set or
 158:Generated_Source\PSoC6\pdl\drivers\peripheral\ipc/cy_ipc_drv.h **** * clear a semaphore, or to get the semaphore's current status. Application
 159:Generated_Source\PSoC6\pdl\drivers\peripheral\ipc/cy_ipc_drv.h **** * logic uses SEMA functions to relate a particular semaphore to a particular
 160:Generated_Source\PSoC6\pdl\drivers\peripheral\ipc/cy_ipc_drv.h **** * shared resource, and set, clear, or check the flag when accessing the
 161:Generated_Source\PSoC6\pdl\drivers\peripheral\ipc/cy_ipc_drv.h **** * shared resource.
 162:Generated_Source\PSoC6\pdl\drivers\peripheral\ipc/cy_ipc_drv.h **** *
 163:Generated_Source\PSoC6\pdl\drivers\peripheral\ipc/cy_ipc_drv.h **** * \section group_ipc_configuration_cypipe Configuration Considerations - CYPIPE
 164:Generated_Source\PSoC6\pdl\drivers\peripheral\ipc/cy_ipc_drv.h **** *
 165:Generated_Source\PSoC6\pdl\drivers\peripheral\ipc/cy_ipc_drv.h **** * There are none. The startup files set up the required CYPIPE for system
 166:Generated_Source\PSoC6\pdl\drivers\peripheral\ipc/cy_ipc_drv.h **** * use. Do not modify the CYPIPE. It uses IPC channels 5 and 6 to implement full
 167:Generated_Source\PSoC6\pdl\drivers\peripheral\ipc/cy_ipc_drv.h **** * duplex communication between cores. See System Interrupt (SysInt) for background.
 168:Generated_Source\PSoC6\pdl\drivers\peripheral\ipc/cy_ipc_drv.h **** *
 169:Generated_Source\PSoC6\pdl\drivers\peripheral\ipc/cy_ipc_drv.h **** * To create your own pipe (<b>USRPIPE</b>) you should edit startup files
 170:Generated_Source\PSoC6\pdl\drivers\peripheral\ipc/cy_ipc_drv.h **** * and take 4 steps:
 171:Generated_Source\PSoC6\pdl\drivers\peripheral\ipc/cy_ipc_drv.h **** *   -# Define a pipe callbacks processing interrupt handler
 172:Generated_Source\PSoC6\pdl\drivers\peripheral\ipc/cy_ipc_drv.h **** *      (similar to <b>Cy_SysIpcPipeIsrCm0</b> or <b>Cy_SysIpcPipeIsrCm4</b>)
 173:Generated_Source\PSoC6\pdl\drivers\peripheral\ipc/cy_ipc_drv.h **** *   -# Define a callbacks array (similar to <b>systemIpcPipeSysCbArray</b>)
 174:Generated_Source\PSoC6\pdl\drivers\peripheral\ipc/cy_ipc_drv.h **** *   -# Define your pipe configuration with a cy_stc_ipc_pipe_config_t type structure
 175:Generated_Source\PSoC6\pdl\drivers\peripheral\ipc/cy_ipc_drv.h **** *      (similar to <b>systemIpcPipeConfigCm0</b> and <b>systemIpcPipeConfigCm4</b>)
 176:Generated_Source\PSoC6\pdl\drivers\peripheral\ipc/cy_ipc_drv.h **** *   -# Call Cy_IPC_Pipe_Init() from each core to initialize your pipe (similar
 177:Generated_Source\PSoC6\pdl\drivers\peripheral\ipc/cy_ipc_drv.h **** *      to call in the <b>SystemInit</b>)
 178:Generated_Source\PSoC6\pdl\drivers\peripheral\ipc/cy_ipc_drv.h **** *
 179:Generated_Source\PSoC6\pdl\drivers\peripheral\ipc/cy_ipc_drv.h **** * \section group_ipc_configuration_sema Configuration Considerations - SEMA
 180:Generated_Source\PSoC6\pdl\drivers\peripheral\ipc/cy_ipc_drv.h **** *
 181:Generated_Source\PSoC6\pdl\drivers\peripheral\ipc/cy_ipc_drv.h **** * Startup code calls Cy_IPC_Sema_Init() with default values to set up semaphore 
 182:Generated_Source\PSoC6\pdl\drivers\peripheral\ipc/cy_ipc_drv.h **** * functionality. By default the semaphore system uses IPC channel 4, and 
 183:Generated_Source\PSoC6\pdl\drivers\peripheral\ipc/cy_ipc_drv.h **** * creates 128 semaphores. Do <b>not</b> change the IPC channel. 
 184:Generated_Source\PSoC6\pdl\drivers\peripheral\ipc/cy_ipc_drv.h **** * You can change the number of semaphores.
 185:Generated_Source\PSoC6\pdl\drivers\peripheral\ipc/cy_ipc_drv.h **** *
 186:Generated_Source\PSoC6\pdl\drivers\peripheral\ipc/cy_ipc_drv.h **** * To change the number of semaphores, modify this line of code in system_psoc6.h.
 187:Generated_Source\PSoC6\pdl\drivers\peripheral\ipc/cy_ipc_drv.h **** *
 188:Generated_Source\PSoC6\pdl\drivers\peripheral\ipc/cy_ipc_drv.h **** * \code
 189:Generated_Source\PSoC6\pdl\drivers\peripheral\ipc/cy_ipc_drv.h **** * #define CY_IPC_SEMA_COUNT               (uint32_t)(128u)
 190:Generated_Source\PSoC6\pdl\drivers\peripheral\ipc/cy_ipc_drv.h **** * \endcode
 191:Generated_Source\PSoC6\pdl\drivers\peripheral\ipc/cy_ipc_drv.h **** *
 192:Generated_Source\PSoC6\pdl\drivers\peripheral\ipc/cy_ipc_drv.h **** * Startup also declares array ipcSemaArray to hold the semaphore
 193:Generated_Source\PSoC6\pdl\drivers\peripheral\ipc/cy_ipc_drv.h **** * flags based on the size defined for this symbol. Use increments of 32. You
 194:Generated_Source\PSoC6\pdl\drivers\peripheral\ipc/cy_ipc_drv.h **** * must have at least 32 semaphores. Semaphores 0-15 are reserved for
 195:Generated_Source\PSoC6\pdl\drivers\peripheral\ipc/cy_ipc_drv.h **** * system use. Your application can use semaphores greater than 15.
 196:Generated_Source\PSoC6\pdl\drivers\peripheral\ipc/cy_ipc_drv.h **** *
 197:Generated_Source\PSoC6\pdl\drivers\peripheral\ipc/cy_ipc_drv.h **** * \section group_ipc_more_information More Information
 198:Generated_Source\PSoC6\pdl\drivers\peripheral\ipc/cy_ipc_drv.h **** *
 199:Generated_Source\PSoC6\pdl\drivers\peripheral\ipc/cy_ipc_drv.h **** * If the default startup file is not used, or SystemInit() is not called in your 
 200:Generated_Source\PSoC6\pdl\drivers\peripheral\ipc/cy_ipc_drv.h **** * project, call the following three functions prior to executing any flash or 
 201:Generated_Source\PSoC6\pdl\drivers\peripheral\ipc/cy_ipc_drv.h **** * EmEEPROM write or erase operation:
 202:Generated_Source\PSoC6\pdl\drivers\peripheral\ipc/cy_ipc_drv.h **** *  -# Cy_IPC_Sema_Init()
 203:Generated_Source\PSoC6\pdl\drivers\peripheral\ipc/cy_ipc_drv.h **** *  -# Cy_IPC_Pipe_Config()
 204:Generated_Source\PSoC6\pdl\drivers\peripheral\ipc/cy_ipc_drv.h **** *  -# Cy_IPC_Pipe_Init()
 205:Generated_Source\PSoC6\pdl\drivers\peripheral\ipc/cy_ipc_drv.h **** *  -# Cy_Flash_Init()
 206:Generated_Source\PSoC6\pdl\drivers\peripheral\ipc/cy_ipc_drv.h **** *
 207:Generated_Source\PSoC6\pdl\drivers\peripheral\ipc/cy_ipc_drv.h **** * See the technical reference manual(TRM) for more information on the IPC.
ARM GAS  C:\Users\mattma1\AppData\Local\Temp\ccEG71GX.s 			page 10


 208:Generated_Source\PSoC6\pdl\drivers\peripheral\ipc/cy_ipc_drv.h **** *
 209:Generated_Source\PSoC6\pdl\drivers\peripheral\ipc/cy_ipc_drv.h **** * \section group_ipc_MISRA MISRA-C Compliance
 210:Generated_Source\PSoC6\pdl\drivers\peripheral\ipc/cy_ipc_drv.h **** *
 211:Generated_Source\PSoC6\pdl\drivers\peripheral\ipc/cy_ipc_drv.h **** * <table class="doxtable">
 212:Generated_Source\PSoC6\pdl\drivers\peripheral\ipc/cy_ipc_drv.h **** *   <tr>
 213:Generated_Source\PSoC6\pdl\drivers\peripheral\ipc/cy_ipc_drv.h **** *     <th>MISRA Rule</th>
 214:Generated_Source\PSoC6\pdl\drivers\peripheral\ipc/cy_ipc_drv.h **** *     <th>Rule Class (Required/Advisory)</th>
 215:Generated_Source\PSoC6\pdl\drivers\peripheral\ipc/cy_ipc_drv.h **** *     <th>Rule Description</th>
 216:Generated_Source\PSoC6\pdl\drivers\peripheral\ipc/cy_ipc_drv.h **** *     <th style="width: 50%;">Description of Deviation(s)</th>
 217:Generated_Source\PSoC6\pdl\drivers\peripheral\ipc/cy_ipc_drv.h **** *   </tr>
 218:Generated_Source\PSoC6\pdl\drivers\peripheral\ipc/cy_ipc_drv.h **** *   <tr>
 219:Generated_Source\PSoC6\pdl\drivers\peripheral\ipc/cy_ipc_drv.h **** *     <td>10.3</td>
 220:Generated_Source\PSoC6\pdl\drivers\peripheral\ipc/cy_ipc_drv.h **** *     <td>R</td>
 221:Generated_Source\PSoC6\pdl\drivers\peripheral\ipc/cy_ipc_drv.h **** *     <td>The value of a complex expression of integer type shall be cast
 222:Generated_Source\PSoC6\pdl\drivers\peripheral\ipc/cy_ipc_drv.h **** *         only to a type of the same signedness that is no wider than the underlying
 223:Generated_Source\PSoC6\pdl\drivers\peripheral\ipc/cy_ipc_drv.h **** *         type of the expression.</td>
 224:Generated_Source\PSoC6\pdl\drivers\peripheral\ipc/cy_ipc_drv.h **** *     <td>The cast from integer to enumeration value is used to calculate
 225:Generated_Source\PSoC6\pdl\drivers\peripheral\ipc/cy_ipc_drv.h **** *         the interrupt vector source from the integer number of the IPC interrupt
 226:Generated_Source\PSoC6\pdl\drivers\peripheral\ipc/cy_ipc_drv.h **** *         structure, so there is no way to avoid this cast.</td>
 227:Generated_Source\PSoC6\pdl\drivers\peripheral\ipc/cy_ipc_drv.h **** *   </tr>
 228:Generated_Source\PSoC6\pdl\drivers\peripheral\ipc/cy_ipc_drv.h **** *   <tr>
 229:Generated_Source\PSoC6\pdl\drivers\peripheral\ipc/cy_ipc_drv.h **** *     <td>11.4</td>
 230:Generated_Source\PSoC6\pdl\drivers\peripheral\ipc/cy_ipc_drv.h **** *     <td>A</td>
 231:Generated_Source\PSoC6\pdl\drivers\peripheral\ipc/cy_ipc_drv.h **** *     <td>A cast should not be performed between a pointer to the void to a
 232:Generated_Source\PSoC6\pdl\drivers\peripheral\ipc/cy_ipc_drv.h **** *         pointer to the object type.</td>
 233:Generated_Source\PSoC6\pdl\drivers\peripheral\ipc/cy_ipc_drv.h **** *     <td>The cast from the void to pointer and vice versa is used to transmit
 234:Generated_Source\PSoC6\pdl\drivers\peripheral\ipc/cy_ipc_drv.h **** *         data via the \ref group_ipc channel by exchanging the pointer. We
 235:Generated_Source\PSoC6\pdl\drivers\peripheral\ipc/cy_ipc_drv.h **** *         exchange only one pointer, so there is no way to avoid this cast.</td>
 236:Generated_Source\PSoC6\pdl\drivers\peripheral\ipc/cy_ipc_drv.h **** *   </tr>
 237:Generated_Source\PSoC6\pdl\drivers\peripheral\ipc/cy_ipc_drv.h **** * </table>
 238:Generated_Source\PSoC6\pdl\drivers\peripheral\ipc/cy_ipc_drv.h **** *
 239:Generated_Source\PSoC6\pdl\drivers\peripheral\ipc/cy_ipc_drv.h **** * \section group_ipc_changelog Changelog
 240:Generated_Source\PSoC6\pdl\drivers\peripheral\ipc/cy_ipc_drv.h **** *
 241:Generated_Source\PSoC6\pdl\drivers\peripheral\ipc/cy_ipc_drv.h **** * <table class="doxtable">
 242:Generated_Source\PSoC6\pdl\drivers\peripheral\ipc/cy_ipc_drv.h **** *   <tr><th>Version</th><th>Changes</th><th>Reason for Change</th></tr>
 243:Generated_Source\PSoC6\pdl\drivers\peripheral\ipc/cy_ipc_drv.h **** *   <tr>
 244:Generated_Source\PSoC6\pdl\drivers\peripheral\ipc/cy_ipc_drv.h **** *     <td rowspan="3">1.30</td>
 245:Generated_Source\PSoC6\pdl\drivers\peripheral\ipc/cy_ipc_drv.h **** *     <td>Flattened the organization of the driver source code into the single source directory and
 246:Generated_Source\PSoC6\pdl\drivers\peripheral\ipc/cy_ipc_drv.h **** *     <td>Driver library directory-structure simplification.</td>
 247:Generated_Source\PSoC6\pdl\drivers\peripheral\ipc/cy_ipc_drv.h **** *   </tr>
 248:Generated_Source\PSoC6\pdl\drivers\peripheral\ipc/cy_ipc_drv.h **** *   <tr>
 249:Generated_Source\PSoC6\pdl\drivers\peripheral\ipc/cy_ipc_drv.h **** *     <td>Moved the Cy_IPC_SystemSemaInit(), Cy_IPC_SystemPipeInit() functions implementation from 
 250:Generated_Source\PSoC6\pdl\drivers\peripheral\ipc/cy_ipc_drv.h **** *     <td>Changed IPC driver configuration method from compile time to run time.</td>
 251:Generated_Source\PSoC6\pdl\drivers\peripheral\ipc/cy_ipc_drv.h **** *   </tr>
 252:Generated_Source\PSoC6\pdl\drivers\peripheral\ipc/cy_ipc_drv.h **** *   <tr>
 253:Generated_Source\PSoC6\pdl\drivers\peripheral\ipc/cy_ipc_drv.h **** *     <td>Added register access layer. Use register access macros instead
 254:Generated_Source\PSoC6\pdl\drivers\peripheral\ipc/cy_ipc_drv.h **** *         of direct register access using dereferenced pointers.</td>
 255:Generated_Source\PSoC6\pdl\drivers\peripheral\ipc/cy_ipc_drv.h **** *     <td>Makes register access device-independent, so that the PDL does 
 256:Generated_Source\PSoC6\pdl\drivers\peripheral\ipc/cy_ipc_drv.h **** *         not need to be recompiled for each supported part number.</td>
 257:Generated_Source\PSoC6\pdl\drivers\peripheral\ipc/cy_ipc_drv.h **** *   </tr>
 258:Generated_Source\PSoC6\pdl\drivers\peripheral\ipc/cy_ipc_drv.h **** *   <tr>
 259:Generated_Source\PSoC6\pdl\drivers\peripheral\ipc/cy_ipc_drv.h **** *     <td>1.20</td>
 260:Generated_Source\PSoC6\pdl\drivers\peripheral\ipc/cy_ipc_drv.h **** *     <td>Added \ref Cy_IPC_Pipe_ExecuteCallback function.
 261:Generated_Source\PSoC6\pdl\drivers\peripheral\ipc/cy_ipc_drv.h **** *         Updated documentation about user pipe initialization.
 262:Generated_Source\PSoC6\pdl\drivers\peripheral\ipc/cy_ipc_drv.h **** *     </td>
 263:Generated_Source\PSoC6\pdl\drivers\peripheral\ipc/cy_ipc_drv.h **** *     <td>Interface improvement, documentation update</td>
 264:Generated_Source\PSoC6\pdl\drivers\peripheral\ipc/cy_ipc_drv.h **** *   </tr>
ARM GAS  C:\Users\mattma1\AppData\Local\Temp\ccEG71GX.s 			page 11


 265:Generated_Source\PSoC6\pdl\drivers\peripheral\ipc/cy_ipc_drv.h **** *   <tr>
 266:Generated_Source\PSoC6\pdl\drivers\peripheral\ipc/cy_ipc_drv.h **** *     <td>1.10.1</td>
 267:Generated_Source\PSoC6\pdl\drivers\peripheral\ipc/cy_ipc_drv.h **** *     <td>Updated description of the \ref Cy_IPC_Pipe_Init,
 268:Generated_Source\PSoC6\pdl\drivers\peripheral\ipc/cy_ipc_drv.h **** *         \ref Cy_IPC_Pipe_EndpointInit, \ref Cy_IPC_Sema_Set functions.
 269:Generated_Source\PSoC6\pdl\drivers\peripheral\ipc/cy_ipc_drv.h **** *         Added / updated code snippets.
 270:Generated_Source\PSoC6\pdl\drivers\peripheral\ipc/cy_ipc_drv.h **** *     </td>
 271:Generated_Source\PSoC6\pdl\drivers\peripheral\ipc/cy_ipc_drv.h **** *     <td>Documentation update and clarification</td>
 272:Generated_Source\PSoC6\pdl\drivers\peripheral\ipc/cy_ipc_drv.h **** *   </tr>
 273:Generated_Source\PSoC6\pdl\drivers\peripheral\ipc/cy_ipc_drv.h **** *   <tr>
 274:Generated_Source\PSoC6\pdl\drivers\peripheral\ipc/cy_ipc_drv.h **** *     <td>1.10</td>
 275:Generated_Source\PSoC6\pdl\drivers\peripheral\ipc/cy_ipc_drv.h **** *     <td>Added support for more IPC structures</td>
 276:Generated_Source\PSoC6\pdl\drivers\peripheral\ipc/cy_ipc_drv.h **** *     <td>New device support</td>
 277:Generated_Source\PSoC6\pdl\drivers\peripheral\ipc/cy_ipc_drv.h **** *   </tr>
 278:Generated_Source\PSoC6\pdl\drivers\peripheral\ipc/cy_ipc_drv.h **** *   <tr>
 279:Generated_Source\PSoC6\pdl\drivers\peripheral\ipc/cy_ipc_drv.h **** *     <td>1.0</td>
 280:Generated_Source\PSoC6\pdl\drivers\peripheral\ipc/cy_ipc_drv.h **** *     <td>Initial version</td>
 281:Generated_Source\PSoC6\pdl\drivers\peripheral\ipc/cy_ipc_drv.h **** *     <td></td>
 282:Generated_Source\PSoC6\pdl\drivers\peripheral\ipc/cy_ipc_drv.h **** *   </tr>
 283:Generated_Source\PSoC6\pdl\drivers\peripheral\ipc/cy_ipc_drv.h **** * </table>
 284:Generated_Source\PSoC6\pdl\drivers\peripheral\ipc/cy_ipc_drv.h **** *
 285:Generated_Source\PSoC6\pdl\drivers\peripheral\ipc/cy_ipc_drv.h **** * \defgroup group_ipc_drv IPC driver layer (IPC_DRV)
 286:Generated_Source\PSoC6\pdl\drivers\peripheral\ipc/cy_ipc_drv.h **** * \{
 287:Generated_Source\PSoC6\pdl\drivers\peripheral\ipc/cy_ipc_drv.h **** *   The functions of this layer are used in the higher IPC levels
 288:Generated_Source\PSoC6\pdl\drivers\peripheral\ipc/cy_ipc_drv.h **** *   (Semaphores and Pipes).
 289:Generated_Source\PSoC6\pdl\drivers\peripheral\ipc/cy_ipc_drv.h **** *   Users are not expected to call any of these IPC functions directly (cy_ipc_drv.h). 
 290:Generated_Source\PSoC6\pdl\drivers\peripheral\ipc/cy_ipc_drv.h **** *   Instead include either of cy_ipc_sema.h or cy_ipc_pipe.h. 
 291:Generated_Source\PSoC6\pdl\drivers\peripheral\ipc/cy_ipc_drv.h **** *   Alternatively include cy_pdl.h to get access to all functions and declarations in the PDL.
 292:Generated_Source\PSoC6\pdl\drivers\peripheral\ipc/cy_ipc_drv.h **** *
 293:Generated_Source\PSoC6\pdl\drivers\peripheral\ipc/cy_ipc_drv.h **** *   \defgroup group_ipc_macros Macros
 294:Generated_Source\PSoC6\pdl\drivers\peripheral\ipc/cy_ipc_drv.h **** *       Macro definitions are used in the driver
 295:Generated_Source\PSoC6\pdl\drivers\peripheral\ipc/cy_ipc_drv.h **** *
 296:Generated_Source\PSoC6\pdl\drivers\peripheral\ipc/cy_ipc_drv.h **** *   \defgroup group_ipc_functions Functions
 297:Generated_Source\PSoC6\pdl\drivers\peripheral\ipc/cy_ipc_drv.h **** *       Functions are used in the driver
 298:Generated_Source\PSoC6\pdl\drivers\peripheral\ipc/cy_ipc_drv.h **** *
 299:Generated_Source\PSoC6\pdl\drivers\peripheral\ipc/cy_ipc_drv.h **** *   \defgroup group_ipc_data_structures Data Structures
 300:Generated_Source\PSoC6\pdl\drivers\peripheral\ipc/cy_ipc_drv.h **** *       Data structures are used in the driver
 301:Generated_Source\PSoC6\pdl\drivers\peripheral\ipc/cy_ipc_drv.h **** *
 302:Generated_Source\PSoC6\pdl\drivers\peripheral\ipc/cy_ipc_drv.h **** *   \defgroup group_ipc_enums Enumerated Types
 303:Generated_Source\PSoC6\pdl\drivers\peripheral\ipc/cy_ipc_drv.h **** *       Enumerations are used in the driver
 304:Generated_Source\PSoC6\pdl\drivers\peripheral\ipc/cy_ipc_drv.h **** * \}
 305:Generated_Source\PSoC6\pdl\drivers\peripheral\ipc/cy_ipc_drv.h **** *
 306:Generated_Source\PSoC6\pdl\drivers\peripheral\ipc/cy_ipc_drv.h **** * \defgroup group_ipc_sema IPC semaphores layer (IPC_SEMA)
 307:Generated_Source\PSoC6\pdl\drivers\peripheral\ipc/cy_ipc_drv.h **** * \defgroup group_ipc_pipe IPC pipes layer (IPC_PIPE)
 308:Generated_Source\PSoC6\pdl\drivers\peripheral\ipc/cy_ipc_drv.h **** *
 309:Generated_Source\PSoC6\pdl\drivers\peripheral\ipc/cy_ipc_drv.h **** */
 310:Generated_Source\PSoC6\pdl\drivers\peripheral\ipc/cy_ipc_drv.h **** 
 311:Generated_Source\PSoC6\pdl\drivers\peripheral\ipc/cy_ipc_drv.h **** 
 312:Generated_Source\PSoC6\pdl\drivers\peripheral\ipc/cy_ipc_drv.h **** /******************************************************************************/
 313:Generated_Source\PSoC6\pdl\drivers\peripheral\ipc/cy_ipc_drv.h **** /* Include files                                                              */
 314:Generated_Source\PSoC6\pdl\drivers\peripheral\ipc/cy_ipc_drv.h **** /******************************************************************************/
 315:Generated_Source\PSoC6\pdl\drivers\peripheral\ipc/cy_ipc_drv.h **** 
 316:Generated_Source\PSoC6\pdl\drivers\peripheral\ipc/cy_ipc_drv.h **** #include "cy_device.h"
 317:Generated_Source\PSoC6\pdl\drivers\peripheral\ipc/cy_ipc_drv.h **** #include "cy_device_headers.h"
 318:Generated_Source\PSoC6\pdl\drivers\peripheral\ipc/cy_ipc_drv.h **** #include "cy_syslib.h"
 319:Generated_Source\PSoC6\pdl\drivers\peripheral\ipc/cy_ipc_drv.h **** #include <stddef.h>
 320:Generated_Source\PSoC6\pdl\drivers\peripheral\ipc/cy_ipc_drv.h **** 
 321:Generated_Source\PSoC6\pdl\drivers\peripheral\ipc/cy_ipc_drv.h **** 
ARM GAS  C:\Users\mattma1\AppData\Local\Temp\ccEG71GX.s 			page 12


 322:Generated_Source\PSoC6\pdl\drivers\peripheral\ipc/cy_ipc_drv.h **** /**
 323:Generated_Source\PSoC6\pdl\drivers\peripheral\ipc/cy_ipc_drv.h **** * \addtogroup group_ipc_macros
 324:Generated_Source\PSoC6\pdl\drivers\peripheral\ipc/cy_ipc_drv.h **** * \{
 325:Generated_Source\PSoC6\pdl\drivers\peripheral\ipc/cy_ipc_drv.h **** */
 326:Generated_Source\PSoC6\pdl\drivers\peripheral\ipc/cy_ipc_drv.h **** 
 327:Generated_Source\PSoC6\pdl\drivers\peripheral\ipc/cy_ipc_drv.h **** /** Driver major version */
 328:Generated_Source\PSoC6\pdl\drivers\peripheral\ipc/cy_ipc_drv.h **** #define CY_IPC_DRV_VERSION_MAJOR       1
 329:Generated_Source\PSoC6\pdl\drivers\peripheral\ipc/cy_ipc_drv.h **** 
 330:Generated_Source\PSoC6\pdl\drivers\peripheral\ipc/cy_ipc_drv.h **** /** Driver minor version */
 331:Generated_Source\PSoC6\pdl\drivers\peripheral\ipc/cy_ipc_drv.h **** #define CY_IPC_DRV_VERSION_MINOR       30
 332:Generated_Source\PSoC6\pdl\drivers\peripheral\ipc/cy_ipc_drv.h **** 
 333:Generated_Source\PSoC6\pdl\drivers\peripheral\ipc/cy_ipc_drv.h **** /** Defines a value to indicate that no notification events are needed */
 334:Generated_Source\PSoC6\pdl\drivers\peripheral\ipc/cy_ipc_drv.h **** #define CY_IPC_NO_NOTIFICATION         (uint32_t)(0x00000000ul)
 335:Generated_Source\PSoC6\pdl\drivers\peripheral\ipc/cy_ipc_drv.h **** 
 336:Generated_Source\PSoC6\pdl\drivers\peripheral\ipc/cy_ipc_drv.h **** /* Error Code constants */
 337:Generated_Source\PSoC6\pdl\drivers\peripheral\ipc/cy_ipc_drv.h **** #define CY_IPC_ID CY_PDL_DRV_ID(0x22u)  /**< Software PDL driver ID for IPC */
 338:Generated_Source\PSoC6\pdl\drivers\peripheral\ipc/cy_ipc_drv.h **** 
 339:Generated_Source\PSoC6\pdl\drivers\peripheral\ipc/cy_ipc_drv.h **** /** Return prefix for IPC driver function status codes */
 340:Generated_Source\PSoC6\pdl\drivers\peripheral\ipc/cy_ipc_drv.h **** #define CY_IPC_ID_INFO    (uint32_t)( CY_IPC_ID | CY_PDL_STATUS_INFO )
 341:Generated_Source\PSoC6\pdl\drivers\peripheral\ipc/cy_ipc_drv.h **** /** Return prefix for IPC driver function warning return values */
 342:Generated_Source\PSoC6\pdl\drivers\peripheral\ipc/cy_ipc_drv.h **** #define CY_IPC_ID_WARNING (uint32_t)( CY_IPC_ID | CY_PDL_STATUS_WARNING)
 343:Generated_Source\PSoC6\pdl\drivers\peripheral\ipc/cy_ipc_drv.h **** /** Return prefix for IPC driver function error return values */
 344:Generated_Source\PSoC6\pdl\drivers\peripheral\ipc/cy_ipc_drv.h **** #define CY_IPC_ID_ERROR   (uint32_t)( CY_IPC_ID | CY_PDL_STATUS_ERROR)
 345:Generated_Source\PSoC6\pdl\drivers\peripheral\ipc/cy_ipc_drv.h **** 
 346:Generated_Source\PSoC6\pdl\drivers\peripheral\ipc/cy_ipc_drv.h **** /** Converts the IPC interrupt channel number to interrupt vector */
 347:Generated_Source\PSoC6\pdl\drivers\peripheral\ipc/cy_ipc_drv.h **** #define CY_IPC_INTR_NUM_TO_VECT(x)         ((int32_t) cy_device->cpussIpc0Irq + (x))
 348:Generated_Source\PSoC6\pdl\drivers\peripheral\ipc/cy_ipc_drv.h **** 
 349:Generated_Source\PSoC6\pdl\drivers\peripheral\ipc/cy_ipc_drv.h **** /** \} group_ipc_macros */
 350:Generated_Source\PSoC6\pdl\drivers\peripheral\ipc/cy_ipc_drv.h **** 
 351:Generated_Source\PSoC6\pdl\drivers\peripheral\ipc/cy_ipc_drv.h **** /* end of definition in device.h */
 352:Generated_Source\PSoC6\pdl\drivers\peripheral\ipc/cy_ipc_drv.h **** 
 353:Generated_Source\PSoC6\pdl\drivers\peripheral\ipc/cy_ipc_drv.h **** /** \cond INTERNAL */
 354:Generated_Source\PSoC6\pdl\drivers\peripheral\ipc/cy_ipc_drv.h **** #if (CY_CPU_CORTEX_M0P)
 355:Generated_Source\PSoC6\pdl\drivers\peripheral\ipc/cy_ipc_drv.h ****     #define CY_IPC_CHAN_SYSCALL         CY_IPC_CHAN_SYSCALL_CM0
 356:Generated_Source\PSoC6\pdl\drivers\peripheral\ipc/cy_ipc_drv.h **** #else
 357:Generated_Source\PSoC6\pdl\drivers\peripheral\ipc/cy_ipc_drv.h ****     #define CY_IPC_CHAN_SYSCALL         CY_IPC_CHAN_SYSCALL_CM4
 358:Generated_Source\PSoC6\pdl\drivers\peripheral\ipc/cy_ipc_drv.h **** #endif  /* (CY_CPU_CORTEX_M0P) */
 359:Generated_Source\PSoC6\pdl\drivers\peripheral\ipc/cy_ipc_drv.h **** /** \endcond */
 360:Generated_Source\PSoC6\pdl\drivers\peripheral\ipc/cy_ipc_drv.h **** 
 361:Generated_Source\PSoC6\pdl\drivers\peripheral\ipc/cy_ipc_drv.h **** /**
 362:Generated_Source\PSoC6\pdl\drivers\peripheral\ipc/cy_ipc_drv.h **** * \addtogroup group_ipc_enums
 363:Generated_Source\PSoC6\pdl\drivers\peripheral\ipc/cy_ipc_drv.h **** * \{
 364:Generated_Source\PSoC6\pdl\drivers\peripheral\ipc/cy_ipc_drv.h **** */
 365:Generated_Source\PSoC6\pdl\drivers\peripheral\ipc/cy_ipc_drv.h **** 
 366:Generated_Source\PSoC6\pdl\drivers\peripheral\ipc/cy_ipc_drv.h **** /**
 367:Generated_Source\PSoC6\pdl\drivers\peripheral\ipc/cy_ipc_drv.h **** * This is a list of ENUMs used for function return status.
 368:Generated_Source\PSoC6\pdl\drivers\peripheral\ipc/cy_ipc_drv.h **** */
 369:Generated_Source\PSoC6\pdl\drivers\peripheral\ipc/cy_ipc_drv.h **** typedef enum
 370:Generated_Source\PSoC6\pdl\drivers\peripheral\ipc/cy_ipc_drv.h **** {
 371:Generated_Source\PSoC6\pdl\drivers\peripheral\ipc/cy_ipc_drv.h ****     /** Function was successfully executed */
 372:Generated_Source\PSoC6\pdl\drivers\peripheral\ipc/cy_ipc_drv.h ****     CY_IPC_DRV_SUCCESS      = (0x00u),
 373:Generated_Source\PSoC6\pdl\drivers\peripheral\ipc/cy_ipc_drv.h ****     /** Function was not executed due to an error.
 374:Generated_Source\PSoC6\pdl\drivers\peripheral\ipc/cy_ipc_drv.h ****         Typical conditions for the error explained
 375:Generated_Source\PSoC6\pdl\drivers\peripheral\ipc/cy_ipc_drv.h ****         in the function description */
 376:Generated_Source\PSoC6\pdl\drivers\peripheral\ipc/cy_ipc_drv.h ****     CY_IPC_DRV_ERROR        = ( CY_IPC_ID_ERROR + 1ul),
 377:Generated_Source\PSoC6\pdl\drivers\peripheral\ipc/cy_ipc_drv.h **** } cy_en_ipcdrv_status_t;
 378:Generated_Source\PSoC6\pdl\drivers\peripheral\ipc/cy_ipc_drv.h **** 
ARM GAS  C:\Users\mattma1\AppData\Local\Temp\ccEG71GX.s 			page 13


 379:Generated_Source\PSoC6\pdl\drivers\peripheral\ipc/cy_ipc_drv.h **** /** \} group_ipc_enums */
 380:Generated_Source\PSoC6\pdl\drivers\peripheral\ipc/cy_ipc_drv.h **** 
 381:Generated_Source\PSoC6\pdl\drivers\peripheral\ipc/cy_ipc_drv.h **** 
 382:Generated_Source\PSoC6\pdl\drivers\peripheral\ipc/cy_ipc_drv.h **** #ifdef __cplusplus
 383:Generated_Source\PSoC6\pdl\drivers\peripheral\ipc/cy_ipc_drv.h **** extern "C" {
 384:Generated_Source\PSoC6\pdl\drivers\peripheral\ipc/cy_ipc_drv.h **** #endif
 385:Generated_Source\PSoC6\pdl\drivers\peripheral\ipc/cy_ipc_drv.h **** 
 386:Generated_Source\PSoC6\pdl\drivers\peripheral\ipc/cy_ipc_drv.h **** /** \cond INTERNAL */
 387:Generated_Source\PSoC6\pdl\drivers\peripheral\ipc/cy_ipc_drv.h **** 
 388:Generated_Source\PSoC6\pdl\drivers\peripheral\ipc/cy_ipc_drv.h **** __STATIC_INLINE void     Cy_IPC_Drv_WriteDataValue (IPC_STRUCT_Type* base, uint32_t dataValue);
 389:Generated_Source\PSoC6\pdl\drivers\peripheral\ipc/cy_ipc_drv.h **** __STATIC_INLINE uint32_t Cy_IPC_Drv_ReadDataValue (IPC_STRUCT_Type const * base);
 390:Generated_Source\PSoC6\pdl\drivers\peripheral\ipc/cy_ipc_drv.h **** 
 391:Generated_Source\PSoC6\pdl\drivers\peripheral\ipc/cy_ipc_drv.h **** __STATIC_INLINE uint32_t Cy_IPC_Drv_ExtractAcquireMask (uint32_t intMask);
 392:Generated_Source\PSoC6\pdl\drivers\peripheral\ipc/cy_ipc_drv.h **** __STATIC_INLINE uint32_t Cy_IPC_Drv_ExtractReleaseMask (uint32_t intMask);
 393:Generated_Source\PSoC6\pdl\drivers\peripheral\ipc/cy_ipc_drv.h **** 
 394:Generated_Source\PSoC6\pdl\drivers\peripheral\ipc/cy_ipc_drv.h **** /** \endcond */
 395:Generated_Source\PSoC6\pdl\drivers\peripheral\ipc/cy_ipc_drv.h **** 
 396:Generated_Source\PSoC6\pdl\drivers\peripheral\ipc/cy_ipc_drv.h **** /**
 397:Generated_Source\PSoC6\pdl\drivers\peripheral\ipc/cy_ipc_drv.h **** * \addtogroup group_ipc_functions
 398:Generated_Source\PSoC6\pdl\drivers\peripheral\ipc/cy_ipc_drv.h **** * \{
 399:Generated_Source\PSoC6\pdl\drivers\peripheral\ipc/cy_ipc_drv.h **** */
 400:Generated_Source\PSoC6\pdl\drivers\peripheral\ipc/cy_ipc_drv.h **** 
 401:Generated_Source\PSoC6\pdl\drivers\peripheral\ipc/cy_ipc_drv.h **** __STATIC_INLINE IPC_STRUCT_Type*       Cy_IPC_Drv_GetIpcBaseAddress (uint32_t ipcIndex);
 402:Generated_Source\PSoC6\pdl\drivers\peripheral\ipc/cy_ipc_drv.h **** __STATIC_INLINE IPC_INTR_STRUCT_Type*  Cy_IPC_Drv_GetIntrBaseAddr (uint32_t ipcIntrIndex);
 403:Generated_Source\PSoC6\pdl\drivers\peripheral\ipc/cy_ipc_drv.h **** 
 404:Generated_Source\PSoC6\pdl\drivers\peripheral\ipc/cy_ipc_drv.h **** __STATIC_INLINE void     Cy_IPC_Drv_AcquireNotify (IPC_STRUCT_Type * base, uint32_t notifyEventIntr
 405:Generated_Source\PSoC6\pdl\drivers\peripheral\ipc/cy_ipc_drv.h **** __STATIC_INLINE void     Cy_IPC_Drv_ReleaseNotify (IPC_STRUCT_Type * base, uint32_t notifyEventIntr
 406:Generated_Source\PSoC6\pdl\drivers\peripheral\ipc/cy_ipc_drv.h **** 
 407:Generated_Source\PSoC6\pdl\drivers\peripheral\ipc/cy_ipc_drv.h **** __STATIC_INLINE  cy_en_ipcdrv_status_t Cy_IPC_Drv_LockAcquire (IPC_STRUCT_Type const * base);
 408:Generated_Source\PSoC6\pdl\drivers\peripheral\ipc/cy_ipc_drv.h **** cy_en_ipcdrv_status_t    Cy_IPC_Drv_LockRelease (IPC_STRUCT_Type * base, uint32_t releaseEventIntr)
 409:Generated_Source\PSoC6\pdl\drivers\peripheral\ipc/cy_ipc_drv.h **** __STATIC_INLINE bool     Cy_IPC_Drv_IsLockAcquired (IPC_STRUCT_Type const * base);
 410:Generated_Source\PSoC6\pdl\drivers\peripheral\ipc/cy_ipc_drv.h **** __STATIC_INLINE uint32_t Cy_IPC_Drv_GetLockStatus (IPC_STRUCT_Type const * base);
 411:Generated_Source\PSoC6\pdl\drivers\peripheral\ipc/cy_ipc_drv.h **** 
 412:Generated_Source\PSoC6\pdl\drivers\peripheral\ipc/cy_ipc_drv.h **** cy_en_ipcdrv_status_t    Cy_IPC_Drv_SendMsgWord (IPC_STRUCT_Type * base, uint32_t notifyEventIntr, 
 413:Generated_Source\PSoC6\pdl\drivers\peripheral\ipc/cy_ipc_drv.h **** cy_en_ipcdrv_status_t    Cy_IPC_Drv_ReadMsgWord (IPC_STRUCT_Type const * base, uint32_t * message);
 414:Generated_Source\PSoC6\pdl\drivers\peripheral\ipc/cy_ipc_drv.h **** __STATIC_INLINE cy_en_ipcdrv_status_t Cy_IPC_Drv_SendMsgPtr (IPC_STRUCT_Type* base, uint32_t notify
 415:Generated_Source\PSoC6\pdl\drivers\peripheral\ipc/cy_ipc_drv.h **** __STATIC_INLINE cy_en_ipcdrv_status_t Cy_IPC_Drv_ReadMsgPtr (IPC_STRUCT_Type const * base, void ** 
 416:Generated_Source\PSoC6\pdl\drivers\peripheral\ipc/cy_ipc_drv.h **** 
 417:Generated_Source\PSoC6\pdl\drivers\peripheral\ipc/cy_ipc_drv.h **** __STATIC_INLINE void     Cy_IPC_Drv_SetInterruptMask (IPC_INTR_STRUCT_Type * base,
 418:Generated_Source\PSoC6\pdl\drivers\peripheral\ipc/cy_ipc_drv.h ****                                                       uint32_t ipcReleaseMask, uint32_t ipcAcquireM
 419:Generated_Source\PSoC6\pdl\drivers\peripheral\ipc/cy_ipc_drv.h **** __STATIC_INLINE uint32_t Cy_IPC_Drv_GetInterruptMask (IPC_INTR_STRUCT_Type const * base);
 420:Generated_Source\PSoC6\pdl\drivers\peripheral\ipc/cy_ipc_drv.h **** __STATIC_INLINE uint32_t Cy_IPC_Drv_GetInterruptStatusMasked (IPC_INTR_STRUCT_Type const * base);
 421:Generated_Source\PSoC6\pdl\drivers\peripheral\ipc/cy_ipc_drv.h **** __STATIC_INLINE uint32_t Cy_IPC_Drv_GetInterruptStatus (IPC_INTR_STRUCT_Type const * base);
 422:Generated_Source\PSoC6\pdl\drivers\peripheral\ipc/cy_ipc_drv.h **** __STATIC_INLINE void     Cy_IPC_Drv_SetInterrupt (IPC_INTR_STRUCT_Type * base,
 423:Generated_Source\PSoC6\pdl\drivers\peripheral\ipc/cy_ipc_drv.h ****                                                       uint32_t ipcReleaseMask, uint32_t ipcAcquireM
 424:Generated_Source\PSoC6\pdl\drivers\peripheral\ipc/cy_ipc_drv.h **** __STATIC_INLINE void     Cy_IPC_Drv_ClearInterrupt (IPC_INTR_STRUCT_Type * base,
 425:Generated_Source\PSoC6\pdl\drivers\peripheral\ipc/cy_ipc_drv.h ****                                                       uint32_t ipcReleaseMask, uint32_t ipcAcquireM
 426:Generated_Source\PSoC6\pdl\drivers\peripheral\ipc/cy_ipc_drv.h **** 
 427:Generated_Source\PSoC6\pdl\drivers\peripheral\ipc/cy_ipc_drv.h **** 
 428:Generated_Source\PSoC6\pdl\drivers\peripheral\ipc/cy_ipc_drv.h **** /*******************************************************************************
 429:Generated_Source\PSoC6\pdl\drivers\peripheral\ipc/cy_ipc_drv.h **** * Function Name: Cy_IPC_Drv_GetIpcBaseAddress
 430:Generated_Source\PSoC6\pdl\drivers\peripheral\ipc/cy_ipc_drv.h **** ****************************************************************************//**
 431:Generated_Source\PSoC6\pdl\drivers\peripheral\ipc/cy_ipc_drv.h **** *
 432:Generated_Source\PSoC6\pdl\drivers\peripheral\ipc/cy_ipc_drv.h **** * This function takes an IPC channel index as a parameter and returns the base
 433:Generated_Source\PSoC6\pdl\drivers\peripheral\ipc/cy_ipc_drv.h **** * address the IPC registers corresponding to the IPC channel.
 434:Generated_Source\PSoC6\pdl\drivers\peripheral\ipc/cy_ipc_drv.h **** *
 435:Generated_Source\PSoC6\pdl\drivers\peripheral\ipc/cy_ipc_drv.h **** * \note The user is responsible for ensuring that ipcIndex does not exceed the
ARM GAS  C:\Users\mattma1\AppData\Local\Temp\ccEG71GX.s 			page 14


 436:Generated_Source\PSoC6\pdl\drivers\peripheral\ipc/cy_ipc_drv.h **** * limits.
 437:Generated_Source\PSoC6\pdl\drivers\peripheral\ipc/cy_ipc_drv.h **** *
 438:Generated_Source\PSoC6\pdl\drivers\peripheral\ipc/cy_ipc_drv.h **** * \param ipcIndex
 439:Generated_Source\PSoC6\pdl\drivers\peripheral\ipc/cy_ipc_drv.h **** * Represents the number of IPC structure. This is converted to the base address of
 440:Generated_Source\PSoC6\pdl\drivers\peripheral\ipc/cy_ipc_drv.h **** * the IPC channel registers.
 441:Generated_Source\PSoC6\pdl\drivers\peripheral\ipc/cy_ipc_drv.h **** *
 442:Generated_Source\PSoC6\pdl\drivers\peripheral\ipc/cy_ipc_drv.h **** * \return
 443:Generated_Source\PSoC6\pdl\drivers\peripheral\ipc/cy_ipc_drv.h **** * Returns a pointer to the base of the IPC registers.
 444:Generated_Source\PSoC6\pdl\drivers\peripheral\ipc/cy_ipc_drv.h **** *
 445:Generated_Source\PSoC6\pdl\drivers\peripheral\ipc/cy_ipc_drv.h **** * \funcusage
 446:Generated_Source\PSoC6\pdl\drivers\peripheral\ipc/cy_ipc_drv.h **** * \snippet IPC_sut_01.cydsn/main_cm4.c snippet_Cy_IPC_Drv_SendMsgWord
 447:Generated_Source\PSoC6\pdl\drivers\peripheral\ipc/cy_ipc_drv.h **** *
 448:Generated_Source\PSoC6\pdl\drivers\peripheral\ipc/cy_ipc_drv.h **** *******************************************************************************/
 449:Generated_Source\PSoC6\pdl\drivers\peripheral\ipc/cy_ipc_drv.h **** __STATIC_INLINE IPC_STRUCT_Type* Cy_IPC_Drv_GetIpcBaseAddress (uint32_t ipcIndex)
 450:Generated_Source\PSoC6\pdl\drivers\peripheral\ipc/cy_ipc_drv.h **** {
 451:Generated_Source\PSoC6\pdl\drivers\peripheral\ipc/cy_ipc_drv.h ****     CY_ASSERT_L1(CY_IPC_CHANNELS > ipcIndex);
 119              		.loc 2 451 0
 120 003a 244B     		ldr	r3, .L12+8
 121 003c 1A68     		ldr	r2, [r3]
 122 003e 3123     		movs	r3, #49
 123 0040 D35C     		ldrb	r3, [r2, r3]
 124 0042 9D42     		cmp	r5, r3
 125 0044 04D3     		bcc	.L7
 126 0046 C421     		movs	r1, #196
 127 0048 FF31     		adds	r1, r1, #255
 128 004a 2148     		ldr	r0, .L12+12
 129 004c FFF7FEFF 		bl	Cy_SysLib_AssertFailed
 130              	.LVL9:
 131              	.L7:
 452:Generated_Source\PSoC6\pdl\drivers\peripheral\ipc/cy_ipc_drv.h ****     return ( (IPC_STRUCT_Type*) CY_IPC_STRUCT_PTR(ipcIndex));
 132              		.loc 2 452 0
 133 0050 1E4B     		ldr	r3, .L12+8
 134 0052 1A68     		ldr	r2, [r3]
 135 0054 B023     		movs	r3, #176
 136 0056 D35A     		ldrh	r3, [r2, r3]
 137 0058 6B43     		muls	r3, r5
 138 005a 116A     		ldr	r1, [r2, #32]
 139 005c 8C46     		mov	ip, r1
 140 005e 6344     		add	r3, r3, ip
 141              	.LVL10:
 142              	.LBE47:
 143              	.LBE46:
 189:Generated_Source\PSoC6\pdl\drivers\peripheral\ipc/cy_ipc_pipe.c **** 
 190:Generated_Source\PSoC6\pdl\drivers\peripheral\ipc/cy_ipc_pipe.c ****     /* Assign IPC channel to this endpoint */
 191:Generated_Source\PSoC6\pdl\drivers\peripheral\ipc/cy_ipc_pipe.c ****     endpoint->ipcPtr   = Cy_IPC_Drv_GetIpcBaseAddress (endpoint->ipcChan);
 144              		.loc 1 191 0
 145 0060 2361     		str	r3, [r4, #16]
 192:Generated_Source\PSoC6\pdl\drivers\peripheral\ipc/cy_ipc_pipe.c **** 
 193:Generated_Source\PSoC6\pdl\drivers\peripheral\ipc/cy_ipc_pipe.c ****     /* Assign interrupt structure to endpoint and Initialize the interrupt mask for this endpoint *
 194:Generated_Source\PSoC6\pdl\drivers\peripheral\ipc/cy_ipc_pipe.c ****     endpoint->ipcIntrPtr = Cy_IPC_Drv_GetIntrBaseAddr(endpoint->intrChan);
 146              		.loc 1 194 0
 147 0062 6668     		ldr	r6, [r4, #4]
 148              	.LVL11:
 149              	.LBB48:
 150              	.LBB49:
 453:Generated_Source\PSoC6\pdl\drivers\peripheral\ipc/cy_ipc_drv.h **** }
 454:Generated_Source\PSoC6\pdl\drivers\peripheral\ipc/cy_ipc_drv.h **** 
ARM GAS  C:\Users\mattma1\AppData\Local\Temp\ccEG71GX.s 			page 15


 455:Generated_Source\PSoC6\pdl\drivers\peripheral\ipc/cy_ipc_drv.h **** 
 456:Generated_Source\PSoC6\pdl\drivers\peripheral\ipc/cy_ipc_drv.h **** /*******************************************************************************
 457:Generated_Source\PSoC6\pdl\drivers\peripheral\ipc/cy_ipc_drv.h **** * Function Name: Cy_IPC_Drv_GetIntrBaseAddr
 458:Generated_Source\PSoC6\pdl\drivers\peripheral\ipc/cy_ipc_drv.h **** ****************************************************************************//**
 459:Generated_Source\PSoC6\pdl\drivers\peripheral\ipc/cy_ipc_drv.h **** *
 460:Generated_Source\PSoC6\pdl\drivers\peripheral\ipc/cy_ipc_drv.h **** * This function takes an IPC interrupt structure index and returns the base
 461:Generated_Source\PSoC6\pdl\drivers\peripheral\ipc/cy_ipc_drv.h **** * address of the IPC interrupt registers corresponding to the IPC Interrupt.
 462:Generated_Source\PSoC6\pdl\drivers\peripheral\ipc/cy_ipc_drv.h **** *
 463:Generated_Source\PSoC6\pdl\drivers\peripheral\ipc/cy_ipc_drv.h **** * \note The user is responsible for ensuring that ipcIntrIndex does not exceed the
 464:Generated_Source\PSoC6\pdl\drivers\peripheral\ipc/cy_ipc_drv.h **** * limits.
 465:Generated_Source\PSoC6\pdl\drivers\peripheral\ipc/cy_ipc_drv.h **** *
 466:Generated_Source\PSoC6\pdl\drivers\peripheral\ipc/cy_ipc_drv.h **** * \param ipcIntrIndex
 467:Generated_Source\PSoC6\pdl\drivers\peripheral\ipc/cy_ipc_drv.h **** * Represents the number of IPC interrupt structure. This is converted to the
 468:Generated_Source\PSoC6\pdl\drivers\peripheral\ipc/cy_ipc_drv.h **** * base address of the IPC interrupt registers.
 469:Generated_Source\PSoC6\pdl\drivers\peripheral\ipc/cy_ipc_drv.h **** *
 470:Generated_Source\PSoC6\pdl\drivers\peripheral\ipc/cy_ipc_drv.h **** * \return
 471:Generated_Source\PSoC6\pdl\drivers\peripheral\ipc/cy_ipc_drv.h **** * Returns a pointer to the base of the IPC interrupt registers.
 472:Generated_Source\PSoC6\pdl\drivers\peripheral\ipc/cy_ipc_drv.h **** *
 473:Generated_Source\PSoC6\pdl\drivers\peripheral\ipc/cy_ipc_drv.h **** * \funcusage
 474:Generated_Source\PSoC6\pdl\drivers\peripheral\ipc/cy_ipc_drv.h **** * \snippet IPC_sut_01.cydsn/main_cm4.c snippet_Cy_IPC_Drv_GetInterruptStatus
 475:Generated_Source\PSoC6\pdl\drivers\peripheral\ipc/cy_ipc_drv.h **** *
 476:Generated_Source\PSoC6\pdl\drivers\peripheral\ipc/cy_ipc_drv.h **** *******************************************************************************/
 477:Generated_Source\PSoC6\pdl\drivers\peripheral\ipc/cy_ipc_drv.h **** __STATIC_INLINE IPC_INTR_STRUCT_Type* Cy_IPC_Drv_GetIntrBaseAddr (uint32_t ipcIntrIndex)
 478:Generated_Source\PSoC6\pdl\drivers\peripheral\ipc/cy_ipc_drv.h **** {
 479:Generated_Source\PSoC6\pdl\drivers\peripheral\ipc/cy_ipc_drv.h ****     CY_ASSERT_L1(CY_IPC_INTERRUPTS > ipcIntrIndex);
 151              		.loc 2 479 0
 152 0064 3223     		movs	r3, #50
 153 0066 D35C     		ldrb	r3, [r2, r3]
 154 0068 9E42     		cmp	r6, r3
 155 006a 04D3     		bcc	.L8
 156 006c E021     		movs	r1, #224
 157 006e FF31     		adds	r1, r1, #255
 158 0070 1748     		ldr	r0, .L12+12
 159 0072 FFF7FEFF 		bl	Cy_SysLib_AssertFailed
 160              	.LVL12:
 161              	.L8:
 480:Generated_Source\PSoC6\pdl\drivers\peripheral\ipc/cy_ipc_drv.h ****     return ( (IPC_INTR_STRUCT_Type*) &(((IPC_Type *)cy_device->ipcBase)->INTR_STRUCT[ipcIntrIndex])
 162              		.loc 2 480 0
 163 0076 154B     		ldr	r3, .L12+8
 164 0078 1B68     		ldr	r3, [r3]
 165 007a 1D6A     		ldr	r5, [r3, #32]
 166 007c 8036     		adds	r6, r6, #128
 167              	.LVL13:
 168 007e 7601     		lsls	r6, r6, #5
 169              	.LVL14:
 170 0080 AD19     		adds	r5, r5, r6
 171              	.LBE49:
 172              	.LBE48:
 173              		.loc 1 194 0
 174 0082 6561     		str	r5, [r4, #20]
 195:Generated_Source\PSoC6\pdl\drivers\peripheral\ipc/cy_ipc_pipe.c **** 
 196:Generated_Source\PSoC6\pdl\drivers\peripheral\ipc/cy_ipc_pipe.c ****     /* Only allow notify and release interrupts from endpoints in this pipe. */
 197:Generated_Source\PSoC6\pdl\drivers\peripheral\ipc/cy_ipc_pipe.c ****     Cy_IPC_Drv_SetInterruptMask(endpoint->ipcIntrPtr, endpoint->pipeIntMask, endpoint->pipeIntMask)
 175              		.loc 1 197 0
 176 0084 A668     		ldr	r6, [r4, #8]
 177              	.LVL15:
 178              	.LBB50:
ARM GAS  C:\Users\mattma1\AppData\Local\Temp\ccEG71GX.s 			page 16


 179              	.LBB51:
 481:Generated_Source\PSoC6\pdl\drivers\peripheral\ipc/cy_ipc_drv.h **** }
 482:Generated_Source\PSoC6\pdl\drivers\peripheral\ipc/cy_ipc_drv.h **** 
 483:Generated_Source\PSoC6\pdl\drivers\peripheral\ipc/cy_ipc_drv.h **** 
 484:Generated_Source\PSoC6\pdl\drivers\peripheral\ipc/cy_ipc_drv.h **** /*******************************************************************************
 485:Generated_Source\PSoC6\pdl\drivers\peripheral\ipc/cy_ipc_drv.h **** * Function Name: Cy_IPC_Drv_SetInterruptMask
 486:Generated_Source\PSoC6\pdl\drivers\peripheral\ipc/cy_ipc_drv.h **** ****************************************************************************//**
 487:Generated_Source\PSoC6\pdl\drivers\peripheral\ipc/cy_ipc_drv.h **** *
 488:Generated_Source\PSoC6\pdl\drivers\peripheral\ipc/cy_ipc_drv.h **** * This function is used to set the interrupt mask for an IPC Interrupt.
 489:Generated_Source\PSoC6\pdl\drivers\peripheral\ipc/cy_ipc_drv.h **** * The mask sets release or acquire notification events for all IPC channels.
 490:Generated_Source\PSoC6\pdl\drivers\peripheral\ipc/cy_ipc_drv.h **** *
 491:Generated_Source\PSoC6\pdl\drivers\peripheral\ipc/cy_ipc_drv.h **** * \param base
 492:Generated_Source\PSoC6\pdl\drivers\peripheral\ipc/cy_ipc_drv.h **** * This is a handle to the IPC interrupt. This handle can be calculated from the
 493:Generated_Source\PSoC6\pdl\drivers\peripheral\ipc/cy_ipc_drv.h **** * IPC interrupt number using \ref Cy_IPC_Drv_GetIntrBaseAddr.
 494:Generated_Source\PSoC6\pdl\drivers\peripheral\ipc/cy_ipc_drv.h **** *
 495:Generated_Source\PSoC6\pdl\drivers\peripheral\ipc/cy_ipc_drv.h **** * \param ipcReleaseMask
 496:Generated_Source\PSoC6\pdl\drivers\peripheral\ipc/cy_ipc_drv.h **** * An encoded list of all IPC channels that can trigger the interrupt on a
 497:Generated_Source\PSoC6\pdl\drivers\peripheral\ipc/cy_ipc_drv.h **** * release event.
 498:Generated_Source\PSoC6\pdl\drivers\peripheral\ipc/cy_ipc_drv.h **** *
 499:Generated_Source\PSoC6\pdl\drivers\peripheral\ipc/cy_ipc_drv.h **** * \param ipcAcquireMask
 500:Generated_Source\PSoC6\pdl\drivers\peripheral\ipc/cy_ipc_drv.h **** * An encoded list of all IPC channels that can trigger the interrupt on a
 501:Generated_Source\PSoC6\pdl\drivers\peripheral\ipc/cy_ipc_drv.h **** * notify event.
 502:Generated_Source\PSoC6\pdl\drivers\peripheral\ipc/cy_ipc_drv.h **** *
 503:Generated_Source\PSoC6\pdl\drivers\peripheral\ipc/cy_ipc_drv.h **** * \funcusage
 504:Generated_Source\PSoC6\pdl\drivers\peripheral\ipc/cy_ipc_drv.h **** * \snippet IPC_sut_01.cydsn/main_cm4.c snippet_Cy_IPC_Drv_GetInterruptStatusMasked
 505:Generated_Source\PSoC6\pdl\drivers\peripheral\ipc/cy_ipc_drv.h **** *
 506:Generated_Source\PSoC6\pdl\drivers\peripheral\ipc/cy_ipc_drv.h **** *******************************************************************************/
 507:Generated_Source\PSoC6\pdl\drivers\peripheral\ipc/cy_ipc_drv.h **** __STATIC_INLINE void  Cy_IPC_Drv_SetInterruptMask (IPC_INTR_STRUCT_Type* base,
 508:Generated_Source\PSoC6\pdl\drivers\peripheral\ipc/cy_ipc_drv.h ****                                               uint32_t ipcReleaseMask, uint32_t ipcAcquireMask)
 509:Generated_Source\PSoC6\pdl\drivers\peripheral\ipc/cy_ipc_drv.h **** {
 510:Generated_Source\PSoC6\pdl\drivers\peripheral\ipc/cy_ipc_drv.h ****     CY_ASSERT_L1(0ul == (ipcAcquireMask & ~(uint32_t)(IPC_STRUCT_NOTIFY_INTR_NOTIFY_Msk)));
 180              		.loc 2 510 0
 181 0086 330C     		lsrs	r3, r6, #16
 182 0088 04D0     		beq	.L9
 183 008a FF21     		movs	r1, #255
 184 008c 4900     		lsls	r1, r1, #1
 185 008e 1048     		ldr	r0, .L12+12
 186 0090 FFF7FEFF 		bl	Cy_SysLib_AssertFailed
 187              	.LVL16:
 188              	.L9:
 511:Generated_Source\PSoC6\pdl\drivers\peripheral\ipc/cy_ipc_drv.h ****     CY_ASSERT_L1(0ul == (ipcReleaseMask & ~(uint32_t)(IPC_STRUCT_RELEASE_INTR_RELEASE_Msk)));
 189              		.loc 2 511 0
 190 0094 330C     		lsrs	r3, r6, #16
 191 0096 03D0     		beq	.L10
 192 0098 0E49     		ldr	r1, .L12+16
 193 009a 0D48     		ldr	r0, .L12+12
 194 009c FFF7FEFF 		bl	Cy_SysLib_AssertFailed
 195              	.LVL17:
 196              	.L10:
 512:Generated_Source\PSoC6\pdl\drivers\peripheral\ipc/cy_ipc_drv.h ****     REG_IPC_INTR_STRUCT_INTR_MASK(base) = _VAL2FLD( IPC_INTR_STRUCT_INTR_MASK_NOTIFY,  ipcAcquireMa
 197              		.loc 2 512 0
 198 00a0 3604     		lsls	r6, r6, #16
 199              	.LVL18:
 513:Generated_Source\PSoC6\pdl\drivers\peripheral\ipc/cy_ipc_drv.h ****                       _VAL2FLD( IPC_INTR_STRUCT_INTR_MASK_RELEASE, ipcReleaseMask);
 200              		.loc 2 513 0
 201 00a2 330C     		lsrs	r3, r6, #16
 512:Generated_Source\PSoC6\pdl\drivers\peripheral\ipc/cy_ipc_drv.h ****     REG_IPC_INTR_STRUCT_INTR_MASK(base) = _VAL2FLD( IPC_INTR_STRUCT_INTR_MASK_NOTIFY,  ipcAcquireMa
ARM GAS  C:\Users\mattma1\AppData\Local\Temp\ccEG71GX.s 			page 17


 202              		.loc 2 512 0
 203 00a4 1E43     		orrs	r6, r3
 204 00a6 AE60     		str	r6, [r5, #8]
 205              	.LVL19:
 206              	.LBE51:
 207              	.LBE50:
 198:Generated_Source\PSoC6\pdl\drivers\peripheral\ipc/cy_ipc_pipe.c **** 
 199:Generated_Source\PSoC6\pdl\drivers\peripheral\ipc/cy_ipc_pipe.c ****     /* Save the Client count and the callback array pointer */
 200:Generated_Source\PSoC6\pdl\drivers\peripheral\ipc/cy_ipc_pipe.c ****     endpoint->clientCount   = cbCnt;
 208              		.loc 1 200 0
 209 00a8 4346     		mov	r3, r8
 210 00aa E361     		str	r3, [r4, #28]
 201:Generated_Source\PSoC6\pdl\drivers\peripheral\ipc/cy_ipc_pipe.c ****     endpoint->callbackArray = cbArray;
 211              		.loc 1 201 0
 212 00ac 2762     		str	r7, [r4, #32]
 202:Generated_Source\PSoC6\pdl\drivers\peripheral\ipc/cy_ipc_pipe.c ****     endpoint->busy = CY_IPC_PIPE_ENDPOINT_NOTBUSY;
 213              		.loc 1 202 0
 214 00ae 0023     		movs	r3, #0
 215 00b0 A361     		str	r3, [r4, #24]
 203:Generated_Source\PSoC6\pdl\drivers\peripheral\ipc/cy_ipc_pipe.c **** 
 204:Generated_Source\PSoC6\pdl\drivers\peripheral\ipc/cy_ipc_pipe.c ****     if (NULL != epInterrupt)
 216              		.loc 1 204 0
 217 00b2 069B     		ldr	r3, [sp, #24]
 218 00b4 002B     		cmp	r3, #0
 219 00b6 02D0     		beq	.L5
 205:Generated_Source\PSoC6\pdl\drivers\peripheral\ipc/cy_ipc_pipe.c ****     {
 206:Generated_Source\PSoC6\pdl\drivers\peripheral\ipc/cy_ipc_pipe.c ****         endpoint->pipeIntrSrc     = epInterrupt->intrSrc;
 220              		.loc 1 206 0
 221 00b8 0022     		movs	r2, #0
 222 00ba 9B5E     		ldrsh	r3, [r3, r2]
 223 00bc A381     		strh	r3, [r4, #12]
 224              	.L5:
 207:Generated_Source\PSoC6\pdl\drivers\peripheral\ipc/cy_ipc_pipe.c ****     }
 208:Generated_Source\PSoC6\pdl\drivers\peripheral\ipc/cy_ipc_pipe.c **** }
 225              		.loc 1 208 0
 226              		@ sp needed
 227              	.LVL20:
 228              	.LVL21:
 229              	.LVL22:
 230 00be 04BC     		pop	{r2}
 231 00c0 9046     		mov	r8, r2
 232 00c2 F0BD     		pop	{r4, r5, r6, r7, pc}
 233              	.L13:
 234              		.align	2
 235              	.L12:
 236 00c4 00000000 		.word	.LANCHOR0
 237 00c8 00000000 		.word	.LC2
 238 00cc 00000000 		.word	cy_device
 239 00d0 40000000 		.word	.LC5
 240 00d4 FF010000 		.word	511
 241              		.cfi_endproc
 242              	.LFE68:
 243              		.size	Cy_IPC_Pipe_EndpointInit, .-Cy_IPC_Pipe_EndpointInit
 244              		.section	.text.Cy_IPC_Pipe_Init,"ax",%progbits
 245              		.align	2
 246              		.global	Cy_IPC_Pipe_Init
 247              		.code	16
ARM GAS  C:\Users\mattma1\AppData\Local\Temp\ccEG71GX.s 			page 18


 248              		.thumb_func
 249              		.type	Cy_IPC_Pipe_Init, %function
 250              	Cy_IPC_Pipe_Init:
 251              	.LFB67:
  73:Generated_Source\PSoC6\pdl\drivers\peripheral\ipc/cy_ipc_pipe.c ****     /* Create the interrupt structures and arrays needed */
 252              		.loc 1 73 0
 253              		.cfi_startproc
 254              		@ args = 0, pretend = 0, frame = 48
 255              		@ frame_needed = 0, uses_anonymous_args = 0
 256              	.LVL23:
 257 0000 F0B5     		push	{r4, r5, r6, r7, lr}
 258              		.cfi_def_cfa_offset 20
 259              		.cfi_offset 4, -20
 260              		.cfi_offset 5, -16
 261              		.cfi_offset 6, -12
 262              		.cfi_offset 7, -8
 263              		.cfi_offset 14, -4
 264 0002 8FB0     		sub	sp, sp, #60
 265              		.cfi_def_cfa_offset 80
 266 0004 041E     		subs	r4, r0, #0
  82:Generated_Source\PSoC6\pdl\drivers\peripheral\ipc/cy_ipc_pipe.c ****     #if (CY_CPU_CORTEX_M0P)
 267              		.loc 1 82 0
 268 0006 03D1     		bne	.L15
  82:Generated_Source\PSoC6\pdl\drivers\peripheral\ipc/cy_ipc_pipe.c ****     #if (CY_CPU_CORTEX_M0P)
 269              		.loc 1 82 0 is_stmt 0 discriminator 1
 270 0008 5221     		movs	r1, #82
 271 000a 2948     		ldr	r0, .L20
 272              	.LVL24:
 273 000c FFF7FEFF 		bl	Cy_SysLib_AssertFailed
 274              	.LVL25:
 275              	.L15:
  84:Generated_Source\PSoC6\pdl\drivers\peripheral\ipc/cy_ipc_pipe.c ****     #else
 276              		.loc 1 84 0 is_stmt 1
 277 0010 6368     		ldr	r3, [r4, #4]
 278 0012 032B     		cmp	r3, #3
 279 0014 03D9     		bls	.L16
  84:Generated_Source\PSoC6\pdl\drivers\peripheral\ipc/cy_ipc_pipe.c ****     #else
 280              		.loc 1 84 0 is_stmt 0 discriminator 1
 281 0016 5421     		movs	r1, #84
 282 0018 2548     		ldr	r0, .L20
 283 001a FFF7FEFF 		bl	Cy_SysLib_AssertFailed
 284              	.LVL26:
 285              	.L16:
  88:Generated_Source\PSoC6\pdl\drivers\peripheral\ipc/cy_ipc_pipe.c ****     CY_ASSERT_L1(NULL != config->userPipeIsrHandler);
 286              		.loc 1 88 0 is_stmt 1
 287 001e E36A     		ldr	r3, [r4, #44]
 288 0020 002B     		cmp	r3, #0
 289 0022 03D1     		bne	.L17
  88:Generated_Source\PSoC6\pdl\drivers\peripheral\ipc/cy_ipc_pipe.c ****     CY_ASSERT_L1(NULL != config->userPipeIsrHandler);
 290              		.loc 1 88 0 is_stmt 0 discriminator 1
 291 0024 5821     		movs	r1, #88
 292 0026 2248     		ldr	r0, .L20
 293 0028 FFF7FEFF 		bl	Cy_SysLib_AssertFailed
 294              	.LVL27:
 295              	.L17:
  89:Generated_Source\PSoC6\pdl\drivers\peripheral\ipc/cy_ipc_pipe.c ****     /* Parameters checking end */
 296              		.loc 1 89 0 is_stmt 1
ARM GAS  C:\Users\mattma1\AppData\Local\Temp\ccEG71GX.s 			page 19


 297 002c 236B     		ldr	r3, [r4, #48]
 298 002e 002B     		cmp	r3, #0
 299 0030 03D1     		bne	.L18
  89:Generated_Source\PSoC6\pdl\drivers\peripheral\ipc/cy_ipc_pipe.c ****     /* Parameters checking end */
 300              		.loc 1 89 0 is_stmt 0 discriminator 1
 301 0032 5921     		movs	r1, #89
 302 0034 1E48     		ldr	r0, .L20
 303 0036 FFF7FEFF 		bl	Cy_SysLib_AssertFailed
 304              	.LVL28:
 305              	.L18:
  95:Generated_Source\PSoC6\pdl\drivers\peripheral\ipc/cy_ipc_pipe.c ****     epConfigDataB = config->ep1ConfigData;
 306              		.loc 1 95 0 is_stmt 1
 307 003a 07AA     		add	r2, sp, #28
 308 003c 1300     		movs	r3, r2
 309 003e 2100     		movs	r1, r4
 310 0040 61C9     		ldmia	r1!, {r0, r5, r6}
 311 0042 61C3     		stmia	r3!, {r0, r5, r6}
 312 0044 21C9     		ldmia	r1!, {r0, r5}
 313 0046 21C3     		stmia	r3!, {r0, r5}
  96:Generated_Source\PSoC6\pdl\drivers\peripheral\ipc/cy_ipc_pipe.c **** 
 314              		.loc 1 96 0
 315 0048 02AD     		add	r5, sp, #8
 316 004a 2900     		movs	r1, r5
 317 004c 2300     		movs	r3, r4
 318 004e 1433     		adds	r3, r3, #20
 319 0050 C1CB     		ldmia	r3!, {r0, r6, r7}
 320 0052 C1C1     		stmia	r1!, {r0, r6, r7}
 321 0054 41CB     		ldmia	r3!, {r0, r6}
 322 0056 41C1     		stmia	r1!, {r0, r6}
  99:Generated_Source\PSoC6\pdl\drivers\peripheral\ipc/cy_ipc_pipe.c ****     ipc_intr_cypipeConfig.cm0pSrc          = (cy_en_intr_t)((int32_t)cy_device->cpussIpc0Irq + (int
 323              		.loc 1 99 0
 324 0058 0821     		movs	r1, #8
 325 005a 535E     		ldrsh	r3, [r2, r1]
 326 005c 0CAE     		add	r6, sp, #48
 327 005e 3380     		strh	r3, [r6]
 100:Generated_Source\PSoC6\pdl\drivers\peripheral\ipc/cy_ipc_pipe.c ****     ipc_intr_cypipeConfig.intrPriority     = epConfigDataA.ipcNotifierPriority;
 328              		.loc 1 100 0
 329 0060 144B     		ldr	r3, .L20+4
 330 0062 1B68     		ldr	r3, [r3]
 331 0064 3621     		movs	r1, #54
 332 0066 5B5E     		ldrsh	r3, [r3, r1]
 333 0068 0799     		ldr	r1, [sp, #28]
 334 006a 8C46     		mov	ip, r1
 335 006c 6344     		add	r3, r3, ip
 336 006e B370     		strb	r3, [r6, #2]
 101:Generated_Source\PSoC6\pdl\drivers\peripheral\ipc/cy_ipc_pipe.c **** 
 337              		.loc 1 101 0
 338 0070 089B     		ldr	r3, [sp, #32]
 339 0072 0D93     		str	r3, [sp, #52]
 116:Generated_Source\PSoC6\pdl\drivers\peripheral\ipc/cy_ipc_pipe.c ****                              config->endpointsCallbacksArray,
 340              		.loc 1 116 0
 341 0074 0B9B     		ldr	r3, [sp, #44]
 342 0076 0A98     		ldr	r0, [sp, #40]
 343 0078 0096     		str	r6, [sp]
 344 007a A26A     		ldr	r2, [r4, #40]
 345 007c E16A     		ldr	r1, [r4, #44]
 346 007e FFF7FEFF 		bl	Cy_IPC_Pipe_EndpointInit
ARM GAS  C:\Users\mattma1\AppData\Local\Temp\ccEG71GX.s 			page 20


 347              	.LVL29:
 123:Generated_Source\PSoC6\pdl\drivers\peripheral\ipc/cy_ipc_pipe.c **** 
 348              		.loc 1 123 0
 349 0082 2B69     		ldr	r3, [r5, #16]
 350 0084 E868     		ldr	r0, [r5, #12]
 351 0086 0022     		movs	r2, #0
 352 0088 0092     		str	r2, [sp]
 353 008a 0021     		movs	r1, #0
 354 008c FFF7FEFF 		bl	Cy_IPC_Pipe_EndpointInit
 355              	.LVL30:
 125:Generated_Source\PSoC6\pdl\drivers\peripheral\ipc/cy_ipc_pipe.c **** 
 356              		.loc 1 125 0
 357 0090 216B     		ldr	r1, [r4, #48]
 358 0092 3000     		movs	r0, r6
 359 0094 FFF7FEFF 		bl	Cy_SysInt_Init
 360              	.LVL31:
 128:Generated_Source\PSoC6\pdl\drivers\peripheral\ipc/cy_ipc_pipe.c **** }
 361              		.loc 1 128 0
 362 0098 0023     		movs	r3, #0
 363 009a F25E     		ldrsh	r2, [r6, r3]
 364              	.LVL32:
 365              	.LBB52:
 366              	.LBB53:
 367              		.file 3 "Generated_Source\\PSoC6\\pdl\\cmsis/include/core_cm0plus.h"
   1:Generated_Source\PSoC6\pdl\cmsis/include/core_cm0plus.h **** /**************************************************************************//**
   2:Generated_Source\PSoC6\pdl\cmsis/include/core_cm0plus.h ****  * @file     core_cm0plus.h
   3:Generated_Source\PSoC6\pdl\cmsis/include/core_cm0plus.h ****  * @brief    CMSIS Cortex-M0+ Core Peripheral Access Layer Header File
   4:Generated_Source\PSoC6\pdl\cmsis/include/core_cm0plus.h ****  * @version  V5.0.4
   5:Generated_Source\PSoC6\pdl\cmsis/include/core_cm0plus.h ****  * @date     10. January 2018
   6:Generated_Source\PSoC6\pdl\cmsis/include/core_cm0plus.h ****  ******************************************************************************/
   7:Generated_Source\PSoC6\pdl\cmsis/include/core_cm0plus.h **** /*
   8:Generated_Source\PSoC6\pdl\cmsis/include/core_cm0plus.h ****  * Copyright (c) 2009-2018 Arm Limited. All rights reserved.
   9:Generated_Source\PSoC6\pdl\cmsis/include/core_cm0plus.h ****  *
  10:Generated_Source\PSoC6\pdl\cmsis/include/core_cm0plus.h ****  * SPDX-License-Identifier: Apache-2.0
  11:Generated_Source\PSoC6\pdl\cmsis/include/core_cm0plus.h ****  *
  12:Generated_Source\PSoC6\pdl\cmsis/include/core_cm0plus.h ****  * Licensed under the Apache License, Version 2.0 (the License); you may
  13:Generated_Source\PSoC6\pdl\cmsis/include/core_cm0plus.h ****  * not use this file except in compliance with the License.
  14:Generated_Source\PSoC6\pdl\cmsis/include/core_cm0plus.h ****  * You may obtain a copy of the License at
  15:Generated_Source\PSoC6\pdl\cmsis/include/core_cm0plus.h ****  *
  16:Generated_Source\PSoC6\pdl\cmsis/include/core_cm0plus.h ****  * www.apache.org/licenses/LICENSE-2.0
  17:Generated_Source\PSoC6\pdl\cmsis/include/core_cm0plus.h ****  *
  18:Generated_Source\PSoC6\pdl\cmsis/include/core_cm0plus.h ****  * Unless required by applicable law or agreed to in writing, software
  19:Generated_Source\PSoC6\pdl\cmsis/include/core_cm0plus.h ****  * distributed under the License is distributed on an AS IS BASIS, WITHOUT
  20:Generated_Source\PSoC6\pdl\cmsis/include/core_cm0plus.h ****  * WARRANTIES OR CONDITIONS OF ANY KIND, either express or implied.
  21:Generated_Source\PSoC6\pdl\cmsis/include/core_cm0plus.h ****  * See the License for the specific language governing permissions and
  22:Generated_Source\PSoC6\pdl\cmsis/include/core_cm0plus.h ****  * limitations under the License.
  23:Generated_Source\PSoC6\pdl\cmsis/include/core_cm0plus.h ****  */
  24:Generated_Source\PSoC6\pdl\cmsis/include/core_cm0plus.h **** 
  25:Generated_Source\PSoC6\pdl\cmsis/include/core_cm0plus.h **** #if   defined ( __ICCARM__ )
  26:Generated_Source\PSoC6\pdl\cmsis/include/core_cm0plus.h ****   #pragma system_include         /* treat file as system include file for MISRA check */
  27:Generated_Source\PSoC6\pdl\cmsis/include/core_cm0plus.h **** #elif defined (__clang__)
  28:Generated_Source\PSoC6\pdl\cmsis/include/core_cm0plus.h ****   #pragma clang system_header   /* treat file as system include file */
  29:Generated_Source\PSoC6\pdl\cmsis/include/core_cm0plus.h **** #endif
  30:Generated_Source\PSoC6\pdl\cmsis/include/core_cm0plus.h **** 
  31:Generated_Source\PSoC6\pdl\cmsis/include/core_cm0plus.h **** #ifndef __CORE_CM0PLUS_H_GENERIC
  32:Generated_Source\PSoC6\pdl\cmsis/include/core_cm0plus.h **** #define __CORE_CM0PLUS_H_GENERIC
  33:Generated_Source\PSoC6\pdl\cmsis/include/core_cm0plus.h **** 
ARM GAS  C:\Users\mattma1\AppData\Local\Temp\ccEG71GX.s 			page 21


  34:Generated_Source\PSoC6\pdl\cmsis/include/core_cm0plus.h **** #include <stdint.h>
  35:Generated_Source\PSoC6\pdl\cmsis/include/core_cm0plus.h **** 
  36:Generated_Source\PSoC6\pdl\cmsis/include/core_cm0plus.h **** #ifdef __cplusplus
  37:Generated_Source\PSoC6\pdl\cmsis/include/core_cm0plus.h ****  extern "C" {
  38:Generated_Source\PSoC6\pdl\cmsis/include/core_cm0plus.h **** #endif
  39:Generated_Source\PSoC6\pdl\cmsis/include/core_cm0plus.h **** 
  40:Generated_Source\PSoC6\pdl\cmsis/include/core_cm0plus.h **** /**
  41:Generated_Source\PSoC6\pdl\cmsis/include/core_cm0plus.h ****   \page CMSIS_MISRA_Exceptions  MISRA-C:2004 Compliance Exceptions
  42:Generated_Source\PSoC6\pdl\cmsis/include/core_cm0plus.h ****   CMSIS violates the following MISRA-C:2004 rules:
  43:Generated_Source\PSoC6\pdl\cmsis/include/core_cm0plus.h **** 
  44:Generated_Source\PSoC6\pdl\cmsis/include/core_cm0plus.h ****    \li Required Rule 8.5, object/function definition in header file.<br>
  45:Generated_Source\PSoC6\pdl\cmsis/include/core_cm0plus.h ****      Function definitions in header files are used to allow 'inlining'.
  46:Generated_Source\PSoC6\pdl\cmsis/include/core_cm0plus.h **** 
  47:Generated_Source\PSoC6\pdl\cmsis/include/core_cm0plus.h ****    \li Required Rule 18.4, declaration of union type or object of union type: '{...}'.<br>
  48:Generated_Source\PSoC6\pdl\cmsis/include/core_cm0plus.h ****      Unions are used for effective representation of core registers.
  49:Generated_Source\PSoC6\pdl\cmsis/include/core_cm0plus.h **** 
  50:Generated_Source\PSoC6\pdl\cmsis/include/core_cm0plus.h ****    \li Advisory Rule 19.7, Function-like macro defined.<br>
  51:Generated_Source\PSoC6\pdl\cmsis/include/core_cm0plus.h ****      Function-like macros are used to allow more efficient code.
  52:Generated_Source\PSoC6\pdl\cmsis/include/core_cm0plus.h ****  */
  53:Generated_Source\PSoC6\pdl\cmsis/include/core_cm0plus.h **** 
  54:Generated_Source\PSoC6\pdl\cmsis/include/core_cm0plus.h **** 
  55:Generated_Source\PSoC6\pdl\cmsis/include/core_cm0plus.h **** /*******************************************************************************
  56:Generated_Source\PSoC6\pdl\cmsis/include/core_cm0plus.h ****  *                 CMSIS definitions
  57:Generated_Source\PSoC6\pdl\cmsis/include/core_cm0plus.h ****  ******************************************************************************/
  58:Generated_Source\PSoC6\pdl\cmsis/include/core_cm0plus.h **** /**
  59:Generated_Source\PSoC6\pdl\cmsis/include/core_cm0plus.h ****   \ingroup Cortex-M0+
  60:Generated_Source\PSoC6\pdl\cmsis/include/core_cm0plus.h ****   @{
  61:Generated_Source\PSoC6\pdl\cmsis/include/core_cm0plus.h ****  */
  62:Generated_Source\PSoC6\pdl\cmsis/include/core_cm0plus.h **** 
  63:Generated_Source\PSoC6\pdl\cmsis/include/core_cm0plus.h **** #include "cmsis_version.h"
  64:Generated_Source\PSoC6\pdl\cmsis/include/core_cm0plus.h ****  
  65:Generated_Source\PSoC6\pdl\cmsis/include/core_cm0plus.h **** /*  CMSIS CM0+ definitions */
  66:Generated_Source\PSoC6\pdl\cmsis/include/core_cm0plus.h **** #define __CM0PLUS_CMSIS_VERSION_MAIN (__CM_CMSIS_VERSION_MAIN)                  /*!< \deprecated [3
  67:Generated_Source\PSoC6\pdl\cmsis/include/core_cm0plus.h **** #define __CM0PLUS_CMSIS_VERSION_SUB  (__CM_CMSIS_VERSION_SUB)                   /*!< \deprecated [1
  68:Generated_Source\PSoC6\pdl\cmsis/include/core_cm0plus.h **** #define __CM0PLUS_CMSIS_VERSION      ((__CM0PLUS_CMSIS_VERSION_MAIN << 16U) | \
  69:Generated_Source\PSoC6\pdl\cmsis/include/core_cm0plus.h ****                                        __CM0PLUS_CMSIS_VERSION_SUB           )  /*!< \deprecated CM
  70:Generated_Source\PSoC6\pdl\cmsis/include/core_cm0plus.h **** 
  71:Generated_Source\PSoC6\pdl\cmsis/include/core_cm0plus.h **** #define __CORTEX_M                   (0U)                                       /*!< Cortex-M Core 
  72:Generated_Source\PSoC6\pdl\cmsis/include/core_cm0plus.h **** 
  73:Generated_Source\PSoC6\pdl\cmsis/include/core_cm0plus.h **** /** __FPU_USED indicates whether an FPU is used or not.
  74:Generated_Source\PSoC6\pdl\cmsis/include/core_cm0plus.h ****     This core does not support an FPU at all
  75:Generated_Source\PSoC6\pdl\cmsis/include/core_cm0plus.h **** */
  76:Generated_Source\PSoC6\pdl\cmsis/include/core_cm0plus.h **** #define __FPU_USED       0U
  77:Generated_Source\PSoC6\pdl\cmsis/include/core_cm0plus.h **** 
  78:Generated_Source\PSoC6\pdl\cmsis/include/core_cm0plus.h **** #if defined ( __CC_ARM )
  79:Generated_Source\PSoC6\pdl\cmsis/include/core_cm0plus.h ****   #if defined __TARGET_FPU_VFP
  80:Generated_Source\PSoC6\pdl\cmsis/include/core_cm0plus.h ****     #error "Compiler generates FPU instructions for a device without an FPU (check __FPU_PRESENT)"
  81:Generated_Source\PSoC6\pdl\cmsis/include/core_cm0plus.h ****   #endif
  82:Generated_Source\PSoC6\pdl\cmsis/include/core_cm0plus.h **** 
  83:Generated_Source\PSoC6\pdl\cmsis/include/core_cm0plus.h **** #elif defined (__ARMCC_VERSION) && (__ARMCC_VERSION >= 6010050)
  84:Generated_Source\PSoC6\pdl\cmsis/include/core_cm0plus.h ****   #if defined __ARM_PCS_VFP
  85:Generated_Source\PSoC6\pdl\cmsis/include/core_cm0plus.h ****     #error "Compiler generates FPU instructions for a device without an FPU (check __FPU_PRESENT)"
  86:Generated_Source\PSoC6\pdl\cmsis/include/core_cm0plus.h ****   #endif
  87:Generated_Source\PSoC6\pdl\cmsis/include/core_cm0plus.h **** 
  88:Generated_Source\PSoC6\pdl\cmsis/include/core_cm0plus.h **** #elif defined ( __GNUC__ )
  89:Generated_Source\PSoC6\pdl\cmsis/include/core_cm0plus.h ****   #if defined (__VFP_FP__) && !defined(__SOFTFP__)
  90:Generated_Source\PSoC6\pdl\cmsis/include/core_cm0plus.h ****     #error "Compiler generates FPU instructions for a device without an FPU (check __FPU_PRESENT)"
ARM GAS  C:\Users\mattma1\AppData\Local\Temp\ccEG71GX.s 			page 22


  91:Generated_Source\PSoC6\pdl\cmsis/include/core_cm0plus.h ****   #endif
  92:Generated_Source\PSoC6\pdl\cmsis/include/core_cm0plus.h **** 
  93:Generated_Source\PSoC6\pdl\cmsis/include/core_cm0plus.h **** #elif defined ( __ICCARM__ )
  94:Generated_Source\PSoC6\pdl\cmsis/include/core_cm0plus.h ****   #if defined __ARMVFP__
  95:Generated_Source\PSoC6\pdl\cmsis/include/core_cm0plus.h ****     #error "Compiler generates FPU instructions for a device without an FPU (check __FPU_PRESENT)"
  96:Generated_Source\PSoC6\pdl\cmsis/include/core_cm0plus.h ****   #endif
  97:Generated_Source\PSoC6\pdl\cmsis/include/core_cm0plus.h **** 
  98:Generated_Source\PSoC6\pdl\cmsis/include/core_cm0plus.h **** #elif defined ( __TI_ARM__ )
  99:Generated_Source\PSoC6\pdl\cmsis/include/core_cm0plus.h ****   #if defined __TI_VFP_SUPPORT__
 100:Generated_Source\PSoC6\pdl\cmsis/include/core_cm0plus.h ****     #error "Compiler generates FPU instructions for a device without an FPU (check __FPU_PRESENT)"
 101:Generated_Source\PSoC6\pdl\cmsis/include/core_cm0plus.h ****   #endif
 102:Generated_Source\PSoC6\pdl\cmsis/include/core_cm0plus.h **** 
 103:Generated_Source\PSoC6\pdl\cmsis/include/core_cm0plus.h **** #elif defined ( __TASKING__ )
 104:Generated_Source\PSoC6\pdl\cmsis/include/core_cm0plus.h ****   #if defined __FPU_VFP__
 105:Generated_Source\PSoC6\pdl\cmsis/include/core_cm0plus.h ****     #error "Compiler generates FPU instructions for a device without an FPU (check __FPU_PRESENT)"
 106:Generated_Source\PSoC6\pdl\cmsis/include/core_cm0plus.h ****   #endif
 107:Generated_Source\PSoC6\pdl\cmsis/include/core_cm0plus.h **** 
 108:Generated_Source\PSoC6\pdl\cmsis/include/core_cm0plus.h **** #elif defined ( __CSMC__ )
 109:Generated_Source\PSoC6\pdl\cmsis/include/core_cm0plus.h ****   #if ( __CSMC__ & 0x400U)
 110:Generated_Source\PSoC6\pdl\cmsis/include/core_cm0plus.h ****     #error "Compiler generates FPU instructions for a device without an FPU (check __FPU_PRESENT)"
 111:Generated_Source\PSoC6\pdl\cmsis/include/core_cm0plus.h ****   #endif
 112:Generated_Source\PSoC6\pdl\cmsis/include/core_cm0plus.h **** 
 113:Generated_Source\PSoC6\pdl\cmsis/include/core_cm0plus.h **** #endif
 114:Generated_Source\PSoC6\pdl\cmsis/include/core_cm0plus.h **** 
 115:Generated_Source\PSoC6\pdl\cmsis/include/core_cm0plus.h **** #include "cmsis_compiler.h"               /* CMSIS compiler specific defines */
 116:Generated_Source\PSoC6\pdl\cmsis/include/core_cm0plus.h **** 
 117:Generated_Source\PSoC6\pdl\cmsis/include/core_cm0plus.h **** 
 118:Generated_Source\PSoC6\pdl\cmsis/include/core_cm0plus.h **** #ifdef __cplusplus
 119:Generated_Source\PSoC6\pdl\cmsis/include/core_cm0plus.h **** }
 120:Generated_Source\PSoC6\pdl\cmsis/include/core_cm0plus.h **** #endif
 121:Generated_Source\PSoC6\pdl\cmsis/include/core_cm0plus.h **** 
 122:Generated_Source\PSoC6\pdl\cmsis/include/core_cm0plus.h **** #endif /* __CORE_CM0PLUS_H_GENERIC */
 123:Generated_Source\PSoC6\pdl\cmsis/include/core_cm0plus.h **** 
 124:Generated_Source\PSoC6\pdl\cmsis/include/core_cm0plus.h **** #ifndef __CMSIS_GENERIC
 125:Generated_Source\PSoC6\pdl\cmsis/include/core_cm0plus.h **** 
 126:Generated_Source\PSoC6\pdl\cmsis/include/core_cm0plus.h **** #ifndef __CORE_CM0PLUS_H_DEPENDANT
 127:Generated_Source\PSoC6\pdl\cmsis/include/core_cm0plus.h **** #define __CORE_CM0PLUS_H_DEPENDANT
 128:Generated_Source\PSoC6\pdl\cmsis/include/core_cm0plus.h **** 
 129:Generated_Source\PSoC6\pdl\cmsis/include/core_cm0plus.h **** #ifdef __cplusplus
 130:Generated_Source\PSoC6\pdl\cmsis/include/core_cm0plus.h ****  extern "C" {
 131:Generated_Source\PSoC6\pdl\cmsis/include/core_cm0plus.h **** #endif
 132:Generated_Source\PSoC6\pdl\cmsis/include/core_cm0plus.h **** 
 133:Generated_Source\PSoC6\pdl\cmsis/include/core_cm0plus.h **** /* check device defines and use defaults */
 134:Generated_Source\PSoC6\pdl\cmsis/include/core_cm0plus.h **** #if defined __CHECK_DEVICE_DEFINES
 135:Generated_Source\PSoC6\pdl\cmsis/include/core_cm0plus.h ****   #ifndef __CM0PLUS_REV
 136:Generated_Source\PSoC6\pdl\cmsis/include/core_cm0plus.h ****     #define __CM0PLUS_REV             0x0000U
 137:Generated_Source\PSoC6\pdl\cmsis/include/core_cm0plus.h ****     #warning "__CM0PLUS_REV not defined in device header file; using default!"
 138:Generated_Source\PSoC6\pdl\cmsis/include/core_cm0plus.h ****   #endif
 139:Generated_Source\PSoC6\pdl\cmsis/include/core_cm0plus.h **** 
 140:Generated_Source\PSoC6\pdl\cmsis/include/core_cm0plus.h ****   #ifndef __MPU_PRESENT
 141:Generated_Source\PSoC6\pdl\cmsis/include/core_cm0plus.h ****     #define __MPU_PRESENT             0U
 142:Generated_Source\PSoC6\pdl\cmsis/include/core_cm0plus.h ****     #warning "__MPU_PRESENT not defined in device header file; using default!"
 143:Generated_Source\PSoC6\pdl\cmsis/include/core_cm0plus.h ****   #endif
 144:Generated_Source\PSoC6\pdl\cmsis/include/core_cm0plus.h **** 
 145:Generated_Source\PSoC6\pdl\cmsis/include/core_cm0plus.h ****   #ifndef __VTOR_PRESENT
 146:Generated_Source\PSoC6\pdl\cmsis/include/core_cm0plus.h ****     #define __VTOR_PRESENT            0U
 147:Generated_Source\PSoC6\pdl\cmsis/include/core_cm0plus.h ****     #warning "__VTOR_PRESENT not defined in device header file; using default!"
ARM GAS  C:\Users\mattma1\AppData\Local\Temp\ccEG71GX.s 			page 23


 148:Generated_Source\PSoC6\pdl\cmsis/include/core_cm0plus.h ****   #endif
 149:Generated_Source\PSoC6\pdl\cmsis/include/core_cm0plus.h **** 
 150:Generated_Source\PSoC6\pdl\cmsis/include/core_cm0plus.h ****   #ifndef __NVIC_PRIO_BITS
 151:Generated_Source\PSoC6\pdl\cmsis/include/core_cm0plus.h ****     #define __NVIC_PRIO_BITS          2U
 152:Generated_Source\PSoC6\pdl\cmsis/include/core_cm0plus.h ****     #warning "__NVIC_PRIO_BITS not defined in device header file; using default!"
 153:Generated_Source\PSoC6\pdl\cmsis/include/core_cm0plus.h ****   #endif
 154:Generated_Source\PSoC6\pdl\cmsis/include/core_cm0plus.h **** 
 155:Generated_Source\PSoC6\pdl\cmsis/include/core_cm0plus.h ****   #ifndef __Vendor_SysTickConfig
 156:Generated_Source\PSoC6\pdl\cmsis/include/core_cm0plus.h ****     #define __Vendor_SysTickConfig    0U
 157:Generated_Source\PSoC6\pdl\cmsis/include/core_cm0plus.h ****     #warning "__Vendor_SysTickConfig not defined in device header file; using default!"
 158:Generated_Source\PSoC6\pdl\cmsis/include/core_cm0plus.h ****   #endif
 159:Generated_Source\PSoC6\pdl\cmsis/include/core_cm0plus.h **** #endif
 160:Generated_Source\PSoC6\pdl\cmsis/include/core_cm0plus.h **** 
 161:Generated_Source\PSoC6\pdl\cmsis/include/core_cm0plus.h **** /* IO definitions (access restrictions to peripheral registers) */
 162:Generated_Source\PSoC6\pdl\cmsis/include/core_cm0plus.h **** /**
 163:Generated_Source\PSoC6\pdl\cmsis/include/core_cm0plus.h ****     \defgroup CMSIS_glob_defs CMSIS Global Defines
 164:Generated_Source\PSoC6\pdl\cmsis/include/core_cm0plus.h **** 
 165:Generated_Source\PSoC6\pdl\cmsis/include/core_cm0plus.h ****     <strong>IO Type Qualifiers</strong> are used
 166:Generated_Source\PSoC6\pdl\cmsis/include/core_cm0plus.h ****     \li to specify the access to peripheral variables.
 167:Generated_Source\PSoC6\pdl\cmsis/include/core_cm0plus.h ****     \li for automatic generation of peripheral register debug information.
 168:Generated_Source\PSoC6\pdl\cmsis/include/core_cm0plus.h **** */
 169:Generated_Source\PSoC6\pdl\cmsis/include/core_cm0plus.h **** #ifdef __cplusplus
 170:Generated_Source\PSoC6\pdl\cmsis/include/core_cm0plus.h ****   #define   __I     volatile             /*!< Defines 'read only' permissions */
 171:Generated_Source\PSoC6\pdl\cmsis/include/core_cm0plus.h **** #else
 172:Generated_Source\PSoC6\pdl\cmsis/include/core_cm0plus.h ****   #define   __I     volatile const       /*!< Defines 'read only' permissions */
 173:Generated_Source\PSoC6\pdl\cmsis/include/core_cm0plus.h **** #endif
 174:Generated_Source\PSoC6\pdl\cmsis/include/core_cm0plus.h **** #define     __O     volatile             /*!< Defines 'write only' permissions */
 175:Generated_Source\PSoC6\pdl\cmsis/include/core_cm0plus.h **** #define     __IO    volatile             /*!< Defines 'read / write' permissions */
 176:Generated_Source\PSoC6\pdl\cmsis/include/core_cm0plus.h **** 
 177:Generated_Source\PSoC6\pdl\cmsis/include/core_cm0plus.h **** /* following defines should be used for structure members */
 178:Generated_Source\PSoC6\pdl\cmsis/include/core_cm0plus.h **** #define     __IM     volatile const      /*! Defines 'read only' structure member permissions */
 179:Generated_Source\PSoC6\pdl\cmsis/include/core_cm0plus.h **** #define     __OM     volatile            /*! Defines 'write only' structure member permissions */
 180:Generated_Source\PSoC6\pdl\cmsis/include/core_cm0plus.h **** #define     __IOM    volatile            /*! Defines 'read / write' structure member permissions */
 181:Generated_Source\PSoC6\pdl\cmsis/include/core_cm0plus.h **** 
 182:Generated_Source\PSoC6\pdl\cmsis/include/core_cm0plus.h **** /*@} end of group Cortex-M0+ */
 183:Generated_Source\PSoC6\pdl\cmsis/include/core_cm0plus.h **** 
 184:Generated_Source\PSoC6\pdl\cmsis/include/core_cm0plus.h **** 
 185:Generated_Source\PSoC6\pdl\cmsis/include/core_cm0plus.h **** 
 186:Generated_Source\PSoC6\pdl\cmsis/include/core_cm0plus.h **** /*******************************************************************************
 187:Generated_Source\PSoC6\pdl\cmsis/include/core_cm0plus.h ****  *                 Register Abstraction
 188:Generated_Source\PSoC6\pdl\cmsis/include/core_cm0plus.h ****   Core Register contain:
 189:Generated_Source\PSoC6\pdl\cmsis/include/core_cm0plus.h ****   - Core Register
 190:Generated_Source\PSoC6\pdl\cmsis/include/core_cm0plus.h ****   - Core NVIC Register
 191:Generated_Source\PSoC6\pdl\cmsis/include/core_cm0plus.h ****   - Core SCB Register
 192:Generated_Source\PSoC6\pdl\cmsis/include/core_cm0plus.h ****   - Core SysTick Register
 193:Generated_Source\PSoC6\pdl\cmsis/include/core_cm0plus.h ****   - Core MPU Register
 194:Generated_Source\PSoC6\pdl\cmsis/include/core_cm0plus.h ****  ******************************************************************************/
 195:Generated_Source\PSoC6\pdl\cmsis/include/core_cm0plus.h **** /**
 196:Generated_Source\PSoC6\pdl\cmsis/include/core_cm0plus.h ****   \defgroup CMSIS_core_register Defines and Type Definitions
 197:Generated_Source\PSoC6\pdl\cmsis/include/core_cm0plus.h ****   \brief Type definitions and defines for Cortex-M processor based devices.
 198:Generated_Source\PSoC6\pdl\cmsis/include/core_cm0plus.h **** */
 199:Generated_Source\PSoC6\pdl\cmsis/include/core_cm0plus.h **** 
 200:Generated_Source\PSoC6\pdl\cmsis/include/core_cm0plus.h **** /**
 201:Generated_Source\PSoC6\pdl\cmsis/include/core_cm0plus.h ****   \ingroup    CMSIS_core_register
 202:Generated_Source\PSoC6\pdl\cmsis/include/core_cm0plus.h ****   \defgroup   CMSIS_CORE  Status and Control Registers
 203:Generated_Source\PSoC6\pdl\cmsis/include/core_cm0plus.h ****   \brief      Core Register type definitions.
 204:Generated_Source\PSoC6\pdl\cmsis/include/core_cm0plus.h ****   @{
ARM GAS  C:\Users\mattma1\AppData\Local\Temp\ccEG71GX.s 			page 24


 205:Generated_Source\PSoC6\pdl\cmsis/include/core_cm0plus.h ****  */
 206:Generated_Source\PSoC6\pdl\cmsis/include/core_cm0plus.h **** 
 207:Generated_Source\PSoC6\pdl\cmsis/include/core_cm0plus.h **** /**
 208:Generated_Source\PSoC6\pdl\cmsis/include/core_cm0plus.h ****   \brief  Union type to access the Application Program Status Register (APSR).
 209:Generated_Source\PSoC6\pdl\cmsis/include/core_cm0plus.h ****  */
 210:Generated_Source\PSoC6\pdl\cmsis/include/core_cm0plus.h **** typedef union
 211:Generated_Source\PSoC6\pdl\cmsis/include/core_cm0plus.h **** {
 212:Generated_Source\PSoC6\pdl\cmsis/include/core_cm0plus.h ****   struct
 213:Generated_Source\PSoC6\pdl\cmsis/include/core_cm0plus.h ****   {
 214:Generated_Source\PSoC6\pdl\cmsis/include/core_cm0plus.h ****     uint32_t _reserved0:28;              /*!< bit:  0..27  Reserved */
 215:Generated_Source\PSoC6\pdl\cmsis/include/core_cm0plus.h ****     uint32_t V:1;                        /*!< bit:     28  Overflow condition code flag */
 216:Generated_Source\PSoC6\pdl\cmsis/include/core_cm0plus.h ****     uint32_t C:1;                        /*!< bit:     29  Carry condition code flag */
 217:Generated_Source\PSoC6\pdl\cmsis/include/core_cm0plus.h ****     uint32_t Z:1;                        /*!< bit:     30  Zero condition code flag */
 218:Generated_Source\PSoC6\pdl\cmsis/include/core_cm0plus.h ****     uint32_t N:1;                        /*!< bit:     31  Negative condition code flag */
 219:Generated_Source\PSoC6\pdl\cmsis/include/core_cm0plus.h ****   } b;                                   /*!< Structure used for bit  access */
 220:Generated_Source\PSoC6\pdl\cmsis/include/core_cm0plus.h ****   uint32_t w;                            /*!< Type      used for word access */
 221:Generated_Source\PSoC6\pdl\cmsis/include/core_cm0plus.h **** } APSR_Type;
 222:Generated_Source\PSoC6\pdl\cmsis/include/core_cm0plus.h **** 
 223:Generated_Source\PSoC6\pdl\cmsis/include/core_cm0plus.h **** /* APSR Register Definitions */
 224:Generated_Source\PSoC6\pdl\cmsis/include/core_cm0plus.h **** #define APSR_N_Pos                         31U                                            /*!< APSR
 225:Generated_Source\PSoC6\pdl\cmsis/include/core_cm0plus.h **** #define APSR_N_Msk                         (1UL << APSR_N_Pos)                            /*!< APSR
 226:Generated_Source\PSoC6\pdl\cmsis/include/core_cm0plus.h **** 
 227:Generated_Source\PSoC6\pdl\cmsis/include/core_cm0plus.h **** #define APSR_Z_Pos                         30U                                            /*!< APSR
 228:Generated_Source\PSoC6\pdl\cmsis/include/core_cm0plus.h **** #define APSR_Z_Msk                         (1UL << APSR_Z_Pos)                            /*!< APSR
 229:Generated_Source\PSoC6\pdl\cmsis/include/core_cm0plus.h **** 
 230:Generated_Source\PSoC6\pdl\cmsis/include/core_cm0plus.h **** #define APSR_C_Pos                         29U                                            /*!< APSR
 231:Generated_Source\PSoC6\pdl\cmsis/include/core_cm0plus.h **** #define APSR_C_Msk                         (1UL << APSR_C_Pos)                            /*!< APSR
 232:Generated_Source\PSoC6\pdl\cmsis/include/core_cm0plus.h **** 
 233:Generated_Source\PSoC6\pdl\cmsis/include/core_cm0plus.h **** #define APSR_V_Pos                         28U                                            /*!< APSR
 234:Generated_Source\PSoC6\pdl\cmsis/include/core_cm0plus.h **** #define APSR_V_Msk                         (1UL << APSR_V_Pos)                            /*!< APSR
 235:Generated_Source\PSoC6\pdl\cmsis/include/core_cm0plus.h **** 
 236:Generated_Source\PSoC6\pdl\cmsis/include/core_cm0plus.h **** 
 237:Generated_Source\PSoC6\pdl\cmsis/include/core_cm0plus.h **** /**
 238:Generated_Source\PSoC6\pdl\cmsis/include/core_cm0plus.h ****   \brief  Union type to access the Interrupt Program Status Register (IPSR).
 239:Generated_Source\PSoC6\pdl\cmsis/include/core_cm0plus.h ****  */
 240:Generated_Source\PSoC6\pdl\cmsis/include/core_cm0plus.h **** typedef union
 241:Generated_Source\PSoC6\pdl\cmsis/include/core_cm0plus.h **** {
 242:Generated_Source\PSoC6\pdl\cmsis/include/core_cm0plus.h ****   struct
 243:Generated_Source\PSoC6\pdl\cmsis/include/core_cm0plus.h ****   {
 244:Generated_Source\PSoC6\pdl\cmsis/include/core_cm0plus.h ****     uint32_t ISR:9;                      /*!< bit:  0.. 8  Exception number */
 245:Generated_Source\PSoC6\pdl\cmsis/include/core_cm0plus.h ****     uint32_t _reserved0:23;              /*!< bit:  9..31  Reserved */
 246:Generated_Source\PSoC6\pdl\cmsis/include/core_cm0plus.h ****   } b;                                   /*!< Structure used for bit  access */
 247:Generated_Source\PSoC6\pdl\cmsis/include/core_cm0plus.h ****   uint32_t w;                            /*!< Type      used for word access */
 248:Generated_Source\PSoC6\pdl\cmsis/include/core_cm0plus.h **** } IPSR_Type;
 249:Generated_Source\PSoC6\pdl\cmsis/include/core_cm0plus.h **** 
 250:Generated_Source\PSoC6\pdl\cmsis/include/core_cm0plus.h **** /* IPSR Register Definitions */
 251:Generated_Source\PSoC6\pdl\cmsis/include/core_cm0plus.h **** #define IPSR_ISR_Pos                        0U                                            /*!< IPSR
 252:Generated_Source\PSoC6\pdl\cmsis/include/core_cm0plus.h **** #define IPSR_ISR_Msk                       (0x1FFUL /*<< IPSR_ISR_Pos*/)                  /*!< IPSR
 253:Generated_Source\PSoC6\pdl\cmsis/include/core_cm0plus.h **** 
 254:Generated_Source\PSoC6\pdl\cmsis/include/core_cm0plus.h **** 
 255:Generated_Source\PSoC6\pdl\cmsis/include/core_cm0plus.h **** /**
 256:Generated_Source\PSoC6\pdl\cmsis/include/core_cm0plus.h ****   \brief  Union type to access the Special-Purpose Program Status Registers (xPSR).
 257:Generated_Source\PSoC6\pdl\cmsis/include/core_cm0plus.h ****  */
 258:Generated_Source\PSoC6\pdl\cmsis/include/core_cm0plus.h **** typedef union
 259:Generated_Source\PSoC6\pdl\cmsis/include/core_cm0plus.h **** {
 260:Generated_Source\PSoC6\pdl\cmsis/include/core_cm0plus.h ****   struct
 261:Generated_Source\PSoC6\pdl\cmsis/include/core_cm0plus.h ****   {
ARM GAS  C:\Users\mattma1\AppData\Local\Temp\ccEG71GX.s 			page 25


 262:Generated_Source\PSoC6\pdl\cmsis/include/core_cm0plus.h ****     uint32_t ISR:9;                      /*!< bit:  0.. 8  Exception number */
 263:Generated_Source\PSoC6\pdl\cmsis/include/core_cm0plus.h ****     uint32_t _reserved0:15;              /*!< bit:  9..23  Reserved */
 264:Generated_Source\PSoC6\pdl\cmsis/include/core_cm0plus.h ****     uint32_t T:1;                        /*!< bit:     24  Thumb bit        (read 0) */
 265:Generated_Source\PSoC6\pdl\cmsis/include/core_cm0plus.h ****     uint32_t _reserved1:3;               /*!< bit: 25..27  Reserved */
 266:Generated_Source\PSoC6\pdl\cmsis/include/core_cm0plus.h ****     uint32_t V:1;                        /*!< bit:     28  Overflow condition code flag */
 267:Generated_Source\PSoC6\pdl\cmsis/include/core_cm0plus.h ****     uint32_t C:1;                        /*!< bit:     29  Carry condition code flag */
 268:Generated_Source\PSoC6\pdl\cmsis/include/core_cm0plus.h ****     uint32_t Z:1;                        /*!< bit:     30  Zero condition code flag */
 269:Generated_Source\PSoC6\pdl\cmsis/include/core_cm0plus.h ****     uint32_t N:1;                        /*!< bit:     31  Negative condition code flag */
 270:Generated_Source\PSoC6\pdl\cmsis/include/core_cm0plus.h ****   } b;                                   /*!< Structure used for bit  access */
 271:Generated_Source\PSoC6\pdl\cmsis/include/core_cm0plus.h ****   uint32_t w;                            /*!< Type      used for word access */
 272:Generated_Source\PSoC6\pdl\cmsis/include/core_cm0plus.h **** } xPSR_Type;
 273:Generated_Source\PSoC6\pdl\cmsis/include/core_cm0plus.h **** 
 274:Generated_Source\PSoC6\pdl\cmsis/include/core_cm0plus.h **** /* xPSR Register Definitions */
 275:Generated_Source\PSoC6\pdl\cmsis/include/core_cm0plus.h **** #define xPSR_N_Pos                         31U                                            /*!< xPSR
 276:Generated_Source\PSoC6\pdl\cmsis/include/core_cm0plus.h **** #define xPSR_N_Msk                         (1UL << xPSR_N_Pos)                            /*!< xPSR
 277:Generated_Source\PSoC6\pdl\cmsis/include/core_cm0plus.h **** 
 278:Generated_Source\PSoC6\pdl\cmsis/include/core_cm0plus.h **** #define xPSR_Z_Pos                         30U                                            /*!< xPSR
 279:Generated_Source\PSoC6\pdl\cmsis/include/core_cm0plus.h **** #define xPSR_Z_Msk                         (1UL << xPSR_Z_Pos)                            /*!< xPSR
 280:Generated_Source\PSoC6\pdl\cmsis/include/core_cm0plus.h **** 
 281:Generated_Source\PSoC6\pdl\cmsis/include/core_cm0plus.h **** #define xPSR_C_Pos                         29U                                            /*!< xPSR
 282:Generated_Source\PSoC6\pdl\cmsis/include/core_cm0plus.h **** #define xPSR_C_Msk                         (1UL << xPSR_C_Pos)                            /*!< xPSR
 283:Generated_Source\PSoC6\pdl\cmsis/include/core_cm0plus.h **** 
 284:Generated_Source\PSoC6\pdl\cmsis/include/core_cm0plus.h **** #define xPSR_V_Pos                         28U                                            /*!< xPSR
 285:Generated_Source\PSoC6\pdl\cmsis/include/core_cm0plus.h **** #define xPSR_V_Msk                         (1UL << xPSR_V_Pos)                            /*!< xPSR
 286:Generated_Source\PSoC6\pdl\cmsis/include/core_cm0plus.h **** 
 287:Generated_Source\PSoC6\pdl\cmsis/include/core_cm0plus.h **** #define xPSR_T_Pos                         24U                                            /*!< xPSR
 288:Generated_Source\PSoC6\pdl\cmsis/include/core_cm0plus.h **** #define xPSR_T_Msk                         (1UL << xPSR_T_Pos)                            /*!< xPSR
 289:Generated_Source\PSoC6\pdl\cmsis/include/core_cm0plus.h **** 
 290:Generated_Source\PSoC6\pdl\cmsis/include/core_cm0plus.h **** #define xPSR_ISR_Pos                        0U                                            /*!< xPSR
 291:Generated_Source\PSoC6\pdl\cmsis/include/core_cm0plus.h **** #define xPSR_ISR_Msk                       (0x1FFUL /*<< xPSR_ISR_Pos*/)                  /*!< xPSR
 292:Generated_Source\PSoC6\pdl\cmsis/include/core_cm0plus.h **** 
 293:Generated_Source\PSoC6\pdl\cmsis/include/core_cm0plus.h **** 
 294:Generated_Source\PSoC6\pdl\cmsis/include/core_cm0plus.h **** /**
 295:Generated_Source\PSoC6\pdl\cmsis/include/core_cm0plus.h ****   \brief  Union type to access the Control Registers (CONTROL).
 296:Generated_Source\PSoC6\pdl\cmsis/include/core_cm0plus.h ****  */
 297:Generated_Source\PSoC6\pdl\cmsis/include/core_cm0plus.h **** typedef union
 298:Generated_Source\PSoC6\pdl\cmsis/include/core_cm0plus.h **** {
 299:Generated_Source\PSoC6\pdl\cmsis/include/core_cm0plus.h ****   struct
 300:Generated_Source\PSoC6\pdl\cmsis/include/core_cm0plus.h ****   {
 301:Generated_Source\PSoC6\pdl\cmsis/include/core_cm0plus.h ****     uint32_t nPRIV:1;                    /*!< bit:      0  Execution privilege in Thread mode */
 302:Generated_Source\PSoC6\pdl\cmsis/include/core_cm0plus.h ****     uint32_t SPSEL:1;                    /*!< bit:      1  Stack to be used */
 303:Generated_Source\PSoC6\pdl\cmsis/include/core_cm0plus.h ****     uint32_t _reserved1:30;              /*!< bit:  2..31  Reserved */
 304:Generated_Source\PSoC6\pdl\cmsis/include/core_cm0plus.h ****   } b;                                   /*!< Structure used for bit  access */
 305:Generated_Source\PSoC6\pdl\cmsis/include/core_cm0plus.h ****   uint32_t w;                            /*!< Type      used for word access */
 306:Generated_Source\PSoC6\pdl\cmsis/include/core_cm0plus.h **** } CONTROL_Type;
 307:Generated_Source\PSoC6\pdl\cmsis/include/core_cm0plus.h **** 
 308:Generated_Source\PSoC6\pdl\cmsis/include/core_cm0plus.h **** /* CONTROL Register Definitions */
 309:Generated_Source\PSoC6\pdl\cmsis/include/core_cm0plus.h **** #define CONTROL_SPSEL_Pos                   1U                                            /*!< CONT
 310:Generated_Source\PSoC6\pdl\cmsis/include/core_cm0plus.h **** #define CONTROL_SPSEL_Msk                  (1UL << CONTROL_SPSEL_Pos)                     /*!< CONT
 311:Generated_Source\PSoC6\pdl\cmsis/include/core_cm0plus.h **** 
 312:Generated_Source\PSoC6\pdl\cmsis/include/core_cm0plus.h **** #define CONTROL_nPRIV_Pos                   0U                                            /*!< CONT
 313:Generated_Source\PSoC6\pdl\cmsis/include/core_cm0plus.h **** #define CONTROL_nPRIV_Msk                  (1UL /*<< CONTROL_nPRIV_Pos*/)                 /*!< CONT
 314:Generated_Source\PSoC6\pdl\cmsis/include/core_cm0plus.h **** 
 315:Generated_Source\PSoC6\pdl\cmsis/include/core_cm0plus.h **** /*@} end of group CMSIS_CORE */
 316:Generated_Source\PSoC6\pdl\cmsis/include/core_cm0plus.h **** 
 317:Generated_Source\PSoC6\pdl\cmsis/include/core_cm0plus.h **** 
 318:Generated_Source\PSoC6\pdl\cmsis/include/core_cm0plus.h **** /**
ARM GAS  C:\Users\mattma1\AppData\Local\Temp\ccEG71GX.s 			page 26


 319:Generated_Source\PSoC6\pdl\cmsis/include/core_cm0plus.h ****   \ingroup    CMSIS_core_register
 320:Generated_Source\PSoC6\pdl\cmsis/include/core_cm0plus.h ****   \defgroup   CMSIS_NVIC  Nested Vectored Interrupt Controller (NVIC)
 321:Generated_Source\PSoC6\pdl\cmsis/include/core_cm0plus.h ****   \brief      Type definitions for the NVIC Registers
 322:Generated_Source\PSoC6\pdl\cmsis/include/core_cm0plus.h ****   @{
 323:Generated_Source\PSoC6\pdl\cmsis/include/core_cm0plus.h ****  */
 324:Generated_Source\PSoC6\pdl\cmsis/include/core_cm0plus.h **** 
 325:Generated_Source\PSoC6\pdl\cmsis/include/core_cm0plus.h **** /**
 326:Generated_Source\PSoC6\pdl\cmsis/include/core_cm0plus.h ****   \brief  Structure type to access the Nested Vectored Interrupt Controller (NVIC).
 327:Generated_Source\PSoC6\pdl\cmsis/include/core_cm0plus.h ****  */
 328:Generated_Source\PSoC6\pdl\cmsis/include/core_cm0plus.h **** typedef struct
 329:Generated_Source\PSoC6\pdl\cmsis/include/core_cm0plus.h **** {
 330:Generated_Source\PSoC6\pdl\cmsis/include/core_cm0plus.h ****   __IOM uint32_t ISER[1U];               /*!< Offset: 0x000 (R/W)  Interrupt Set Enable Register */
 331:Generated_Source\PSoC6\pdl\cmsis/include/core_cm0plus.h ****         uint32_t RESERVED0[31U];
 332:Generated_Source\PSoC6\pdl\cmsis/include/core_cm0plus.h ****   __IOM uint32_t ICER[1U];               /*!< Offset: 0x080 (R/W)  Interrupt Clear Enable Register 
 333:Generated_Source\PSoC6\pdl\cmsis/include/core_cm0plus.h ****         uint32_t RSERVED1[31U];
 334:Generated_Source\PSoC6\pdl\cmsis/include/core_cm0plus.h ****   __IOM uint32_t ISPR[1U];               /*!< Offset: 0x100 (R/W)  Interrupt Set Pending Register *
 335:Generated_Source\PSoC6\pdl\cmsis/include/core_cm0plus.h ****         uint32_t RESERVED2[31U];
 336:Generated_Source\PSoC6\pdl\cmsis/include/core_cm0plus.h ****   __IOM uint32_t ICPR[1U];               /*!< Offset: 0x180 (R/W)  Interrupt Clear Pending Register
 337:Generated_Source\PSoC6\pdl\cmsis/include/core_cm0plus.h ****         uint32_t RESERVED3[31U];
 338:Generated_Source\PSoC6\pdl\cmsis/include/core_cm0plus.h ****         uint32_t RESERVED4[64U];
 339:Generated_Source\PSoC6\pdl\cmsis/include/core_cm0plus.h ****   __IOM uint32_t IP[8U];                 /*!< Offset: 0x300 (R/W)  Interrupt Priority Register */
 340:Generated_Source\PSoC6\pdl\cmsis/include/core_cm0plus.h **** }  NVIC_Type;
 341:Generated_Source\PSoC6\pdl\cmsis/include/core_cm0plus.h **** 
 342:Generated_Source\PSoC6\pdl\cmsis/include/core_cm0plus.h **** /*@} end of group CMSIS_NVIC */
 343:Generated_Source\PSoC6\pdl\cmsis/include/core_cm0plus.h **** 
 344:Generated_Source\PSoC6\pdl\cmsis/include/core_cm0plus.h **** 
 345:Generated_Source\PSoC6\pdl\cmsis/include/core_cm0plus.h **** /**
 346:Generated_Source\PSoC6\pdl\cmsis/include/core_cm0plus.h ****   \ingroup  CMSIS_core_register
 347:Generated_Source\PSoC6\pdl\cmsis/include/core_cm0plus.h ****   \defgroup CMSIS_SCB     System Control Block (SCB)
 348:Generated_Source\PSoC6\pdl\cmsis/include/core_cm0plus.h ****   \brief    Type definitions for the System Control Block Registers
 349:Generated_Source\PSoC6\pdl\cmsis/include/core_cm0plus.h ****   @{
 350:Generated_Source\PSoC6\pdl\cmsis/include/core_cm0plus.h ****  */
 351:Generated_Source\PSoC6\pdl\cmsis/include/core_cm0plus.h **** 
 352:Generated_Source\PSoC6\pdl\cmsis/include/core_cm0plus.h **** /**
 353:Generated_Source\PSoC6\pdl\cmsis/include/core_cm0plus.h ****   \brief  Structure type to access the System Control Block (SCB).
 354:Generated_Source\PSoC6\pdl\cmsis/include/core_cm0plus.h ****  */
 355:Generated_Source\PSoC6\pdl\cmsis/include/core_cm0plus.h **** typedef struct
 356:Generated_Source\PSoC6\pdl\cmsis/include/core_cm0plus.h **** {
 357:Generated_Source\PSoC6\pdl\cmsis/include/core_cm0plus.h ****   __IM  uint32_t CPUID;                  /*!< Offset: 0x000 (R/ )  CPUID Base Register */
 358:Generated_Source\PSoC6\pdl\cmsis/include/core_cm0plus.h ****   __IOM uint32_t ICSR;                   /*!< Offset: 0x004 (R/W)  Interrupt Control and State Regi
 359:Generated_Source\PSoC6\pdl\cmsis/include/core_cm0plus.h **** #if defined (__VTOR_PRESENT) && (__VTOR_PRESENT == 1U)
 360:Generated_Source\PSoC6\pdl\cmsis/include/core_cm0plus.h ****   __IOM uint32_t VTOR;                   /*!< Offset: 0x008 (R/W)  Vector Table Offset Register */
 361:Generated_Source\PSoC6\pdl\cmsis/include/core_cm0plus.h **** #else
 362:Generated_Source\PSoC6\pdl\cmsis/include/core_cm0plus.h ****         uint32_t RESERVED0;
 363:Generated_Source\PSoC6\pdl\cmsis/include/core_cm0plus.h **** #endif
 364:Generated_Source\PSoC6\pdl\cmsis/include/core_cm0plus.h ****   __IOM uint32_t AIRCR;                  /*!< Offset: 0x00C (R/W)  Application Interrupt and Reset 
 365:Generated_Source\PSoC6\pdl\cmsis/include/core_cm0plus.h ****   __IOM uint32_t SCR;                    /*!< Offset: 0x010 (R/W)  System Control Register */
 366:Generated_Source\PSoC6\pdl\cmsis/include/core_cm0plus.h ****   __IOM uint32_t CCR;                    /*!< Offset: 0x014 (R/W)  Configuration Control Register *
 367:Generated_Source\PSoC6\pdl\cmsis/include/core_cm0plus.h ****         uint32_t RESERVED1;
 368:Generated_Source\PSoC6\pdl\cmsis/include/core_cm0plus.h ****   __IOM uint32_t SHP[2U];                /*!< Offset: 0x01C (R/W)  System Handlers Priority Registe
 369:Generated_Source\PSoC6\pdl\cmsis/include/core_cm0plus.h ****   __IOM uint32_t SHCSR;                  /*!< Offset: 0x024 (R/W)  System Handler Control and State
 370:Generated_Source\PSoC6\pdl\cmsis/include/core_cm0plus.h **** } SCB_Type;
 371:Generated_Source\PSoC6\pdl\cmsis/include/core_cm0plus.h **** 
 372:Generated_Source\PSoC6\pdl\cmsis/include/core_cm0plus.h **** /* SCB CPUID Register Definitions */
 373:Generated_Source\PSoC6\pdl\cmsis/include/core_cm0plus.h **** #define SCB_CPUID_IMPLEMENTER_Pos          24U                                            /*!< SCB 
 374:Generated_Source\PSoC6\pdl\cmsis/include/core_cm0plus.h **** #define SCB_CPUID_IMPLEMENTER_Msk          (0xFFUL << SCB_CPUID_IMPLEMENTER_Pos)          /*!< SCB 
 375:Generated_Source\PSoC6\pdl\cmsis/include/core_cm0plus.h **** 
ARM GAS  C:\Users\mattma1\AppData\Local\Temp\ccEG71GX.s 			page 27


 376:Generated_Source\PSoC6\pdl\cmsis/include/core_cm0plus.h **** #define SCB_CPUID_VARIANT_Pos              20U                                            /*!< SCB 
 377:Generated_Source\PSoC6\pdl\cmsis/include/core_cm0plus.h **** #define SCB_CPUID_VARIANT_Msk              (0xFUL << SCB_CPUID_VARIANT_Pos)               /*!< SCB 
 378:Generated_Source\PSoC6\pdl\cmsis/include/core_cm0plus.h **** 
 379:Generated_Source\PSoC6\pdl\cmsis/include/core_cm0plus.h **** #define SCB_CPUID_ARCHITECTURE_Pos         16U                                            /*!< SCB 
 380:Generated_Source\PSoC6\pdl\cmsis/include/core_cm0plus.h **** #define SCB_CPUID_ARCHITECTURE_Msk         (0xFUL << SCB_CPUID_ARCHITECTURE_Pos)          /*!< SCB 
 381:Generated_Source\PSoC6\pdl\cmsis/include/core_cm0plus.h **** 
 382:Generated_Source\PSoC6\pdl\cmsis/include/core_cm0plus.h **** #define SCB_CPUID_PARTNO_Pos                4U                                            /*!< SCB 
 383:Generated_Source\PSoC6\pdl\cmsis/include/core_cm0plus.h **** #define SCB_CPUID_PARTNO_Msk               (0xFFFUL << SCB_CPUID_PARTNO_Pos)              /*!< SCB 
 384:Generated_Source\PSoC6\pdl\cmsis/include/core_cm0plus.h **** 
 385:Generated_Source\PSoC6\pdl\cmsis/include/core_cm0plus.h **** #define SCB_CPUID_REVISION_Pos              0U                                            /*!< SCB 
 386:Generated_Source\PSoC6\pdl\cmsis/include/core_cm0plus.h **** #define SCB_CPUID_REVISION_Msk             (0xFUL /*<< SCB_CPUID_REVISION_Pos*/)          /*!< SCB 
 387:Generated_Source\PSoC6\pdl\cmsis/include/core_cm0plus.h **** 
 388:Generated_Source\PSoC6\pdl\cmsis/include/core_cm0plus.h **** /* SCB Interrupt Control State Register Definitions */
 389:Generated_Source\PSoC6\pdl\cmsis/include/core_cm0plus.h **** #define SCB_ICSR_NMIPENDSET_Pos            31U                                            /*!< SCB 
 390:Generated_Source\PSoC6\pdl\cmsis/include/core_cm0plus.h **** #define SCB_ICSR_NMIPENDSET_Msk            (1UL << SCB_ICSR_NMIPENDSET_Pos)               /*!< SCB 
 391:Generated_Source\PSoC6\pdl\cmsis/include/core_cm0plus.h **** 
 392:Generated_Source\PSoC6\pdl\cmsis/include/core_cm0plus.h **** #define SCB_ICSR_PENDSVSET_Pos             28U                                            /*!< SCB 
 393:Generated_Source\PSoC6\pdl\cmsis/include/core_cm0plus.h **** #define SCB_ICSR_PENDSVSET_Msk             (1UL << SCB_ICSR_PENDSVSET_Pos)                /*!< SCB 
 394:Generated_Source\PSoC6\pdl\cmsis/include/core_cm0plus.h **** 
 395:Generated_Source\PSoC6\pdl\cmsis/include/core_cm0plus.h **** #define SCB_ICSR_PENDSVCLR_Pos             27U                                            /*!< SCB 
 396:Generated_Source\PSoC6\pdl\cmsis/include/core_cm0plus.h **** #define SCB_ICSR_PENDSVCLR_Msk             (1UL << SCB_ICSR_PENDSVCLR_Pos)                /*!< SCB 
 397:Generated_Source\PSoC6\pdl\cmsis/include/core_cm0plus.h **** 
 398:Generated_Source\PSoC6\pdl\cmsis/include/core_cm0plus.h **** #define SCB_ICSR_PENDSTSET_Pos             26U                                            /*!< SCB 
 399:Generated_Source\PSoC6\pdl\cmsis/include/core_cm0plus.h **** #define SCB_ICSR_PENDSTSET_Msk             (1UL << SCB_ICSR_PENDSTSET_Pos)                /*!< SCB 
 400:Generated_Source\PSoC6\pdl\cmsis/include/core_cm0plus.h **** 
 401:Generated_Source\PSoC6\pdl\cmsis/include/core_cm0plus.h **** #define SCB_ICSR_PENDSTCLR_Pos             25U                                            /*!< SCB 
 402:Generated_Source\PSoC6\pdl\cmsis/include/core_cm0plus.h **** #define SCB_ICSR_PENDSTCLR_Msk             (1UL << SCB_ICSR_PENDSTCLR_Pos)                /*!< SCB 
 403:Generated_Source\PSoC6\pdl\cmsis/include/core_cm0plus.h **** 
 404:Generated_Source\PSoC6\pdl\cmsis/include/core_cm0plus.h **** #define SCB_ICSR_ISRPREEMPT_Pos            23U                                            /*!< SCB 
 405:Generated_Source\PSoC6\pdl\cmsis/include/core_cm0plus.h **** #define SCB_ICSR_ISRPREEMPT_Msk            (1UL << SCB_ICSR_ISRPREEMPT_Pos)               /*!< SCB 
 406:Generated_Source\PSoC6\pdl\cmsis/include/core_cm0plus.h **** 
 407:Generated_Source\PSoC6\pdl\cmsis/include/core_cm0plus.h **** #define SCB_ICSR_ISRPENDING_Pos            22U                                            /*!< SCB 
 408:Generated_Source\PSoC6\pdl\cmsis/include/core_cm0plus.h **** #define SCB_ICSR_ISRPENDING_Msk            (1UL << SCB_ICSR_ISRPENDING_Pos)               /*!< SCB 
 409:Generated_Source\PSoC6\pdl\cmsis/include/core_cm0plus.h **** 
 410:Generated_Source\PSoC6\pdl\cmsis/include/core_cm0plus.h **** #define SCB_ICSR_VECTPENDING_Pos           12U                                            /*!< SCB 
 411:Generated_Source\PSoC6\pdl\cmsis/include/core_cm0plus.h **** #define SCB_ICSR_VECTPENDING_Msk           (0x1FFUL << SCB_ICSR_VECTPENDING_Pos)          /*!< SCB 
 412:Generated_Source\PSoC6\pdl\cmsis/include/core_cm0plus.h **** 
 413:Generated_Source\PSoC6\pdl\cmsis/include/core_cm0plus.h **** #define SCB_ICSR_VECTACTIVE_Pos             0U                                            /*!< SCB 
 414:Generated_Source\PSoC6\pdl\cmsis/include/core_cm0plus.h **** #define SCB_ICSR_VECTACTIVE_Msk            (0x1FFUL /*<< SCB_ICSR_VECTACTIVE_Pos*/)       /*!< SCB 
 415:Generated_Source\PSoC6\pdl\cmsis/include/core_cm0plus.h **** 
 416:Generated_Source\PSoC6\pdl\cmsis/include/core_cm0plus.h **** #if defined (__VTOR_PRESENT) && (__VTOR_PRESENT == 1U)
 417:Generated_Source\PSoC6\pdl\cmsis/include/core_cm0plus.h **** /* SCB Interrupt Control State Register Definitions */
 418:Generated_Source\PSoC6\pdl\cmsis/include/core_cm0plus.h **** #define SCB_VTOR_TBLOFF_Pos                 8U                                            /*!< SCB 
 419:Generated_Source\PSoC6\pdl\cmsis/include/core_cm0plus.h **** #define SCB_VTOR_TBLOFF_Msk                (0xFFFFFFUL << SCB_VTOR_TBLOFF_Pos)            /*!< SCB 
 420:Generated_Source\PSoC6\pdl\cmsis/include/core_cm0plus.h **** #endif
 421:Generated_Source\PSoC6\pdl\cmsis/include/core_cm0plus.h **** 
 422:Generated_Source\PSoC6\pdl\cmsis/include/core_cm0plus.h **** /* SCB Application Interrupt and Reset Control Register Definitions */
 423:Generated_Source\PSoC6\pdl\cmsis/include/core_cm0plus.h **** #define SCB_AIRCR_VECTKEY_Pos              16U                                            /*!< SCB 
 424:Generated_Source\PSoC6\pdl\cmsis/include/core_cm0plus.h **** #define SCB_AIRCR_VECTKEY_Msk              (0xFFFFUL << SCB_AIRCR_VECTKEY_Pos)            /*!< SCB 
 425:Generated_Source\PSoC6\pdl\cmsis/include/core_cm0plus.h **** 
 426:Generated_Source\PSoC6\pdl\cmsis/include/core_cm0plus.h **** #define SCB_AIRCR_VECTKEYSTAT_Pos          16U                                            /*!< SCB 
 427:Generated_Source\PSoC6\pdl\cmsis/include/core_cm0plus.h **** #define SCB_AIRCR_VECTKEYSTAT_Msk          (0xFFFFUL << SCB_AIRCR_VECTKEYSTAT_Pos)        /*!< SCB 
 428:Generated_Source\PSoC6\pdl\cmsis/include/core_cm0plus.h **** 
 429:Generated_Source\PSoC6\pdl\cmsis/include/core_cm0plus.h **** #define SCB_AIRCR_ENDIANESS_Pos            15U                                            /*!< SCB 
 430:Generated_Source\PSoC6\pdl\cmsis/include/core_cm0plus.h **** #define SCB_AIRCR_ENDIANESS_Msk            (1UL << SCB_AIRCR_ENDIANESS_Pos)               /*!< SCB 
 431:Generated_Source\PSoC6\pdl\cmsis/include/core_cm0plus.h **** 
 432:Generated_Source\PSoC6\pdl\cmsis/include/core_cm0plus.h **** #define SCB_AIRCR_SYSRESETREQ_Pos           2U                                            /*!< SCB 
ARM GAS  C:\Users\mattma1\AppData\Local\Temp\ccEG71GX.s 			page 28


 433:Generated_Source\PSoC6\pdl\cmsis/include/core_cm0plus.h **** #define SCB_AIRCR_SYSRESETREQ_Msk          (1UL << SCB_AIRCR_SYSRESETREQ_Pos)             /*!< SCB 
 434:Generated_Source\PSoC6\pdl\cmsis/include/core_cm0plus.h **** 
 435:Generated_Source\PSoC6\pdl\cmsis/include/core_cm0plus.h **** #define SCB_AIRCR_VECTCLRACTIVE_Pos         1U                                            /*!< SCB 
 436:Generated_Source\PSoC6\pdl\cmsis/include/core_cm0plus.h **** #define SCB_AIRCR_VECTCLRACTIVE_Msk        (1UL << SCB_AIRCR_VECTCLRACTIVE_Pos)           /*!< SCB 
 437:Generated_Source\PSoC6\pdl\cmsis/include/core_cm0plus.h **** 
 438:Generated_Source\PSoC6\pdl\cmsis/include/core_cm0plus.h **** /* SCB System Control Register Definitions */
 439:Generated_Source\PSoC6\pdl\cmsis/include/core_cm0plus.h **** #define SCB_SCR_SEVONPEND_Pos               4U                                            /*!< SCB 
 440:Generated_Source\PSoC6\pdl\cmsis/include/core_cm0plus.h **** #define SCB_SCR_SEVONPEND_Msk              (1UL << SCB_SCR_SEVONPEND_Pos)                 /*!< SCB 
 441:Generated_Source\PSoC6\pdl\cmsis/include/core_cm0plus.h **** 
 442:Generated_Source\PSoC6\pdl\cmsis/include/core_cm0plus.h **** #define SCB_SCR_SLEEPDEEP_Pos               2U                                            /*!< SCB 
 443:Generated_Source\PSoC6\pdl\cmsis/include/core_cm0plus.h **** #define SCB_SCR_SLEEPDEEP_Msk              (1UL << SCB_SCR_SLEEPDEEP_Pos)                 /*!< SCB 
 444:Generated_Source\PSoC6\pdl\cmsis/include/core_cm0plus.h **** 
 445:Generated_Source\PSoC6\pdl\cmsis/include/core_cm0plus.h **** #define SCB_SCR_SLEEPONEXIT_Pos             1U                                            /*!< SCB 
 446:Generated_Source\PSoC6\pdl\cmsis/include/core_cm0plus.h **** #define SCB_SCR_SLEEPONEXIT_Msk            (1UL << SCB_SCR_SLEEPONEXIT_Pos)               /*!< SCB 
 447:Generated_Source\PSoC6\pdl\cmsis/include/core_cm0plus.h **** 
 448:Generated_Source\PSoC6\pdl\cmsis/include/core_cm0plus.h **** /* SCB Configuration Control Register Definitions */
 449:Generated_Source\PSoC6\pdl\cmsis/include/core_cm0plus.h **** #define SCB_CCR_STKALIGN_Pos                9U                                            /*!< SCB 
 450:Generated_Source\PSoC6\pdl\cmsis/include/core_cm0plus.h **** #define SCB_CCR_STKALIGN_Msk               (1UL << SCB_CCR_STKALIGN_Pos)                  /*!< SCB 
 451:Generated_Source\PSoC6\pdl\cmsis/include/core_cm0plus.h **** 
 452:Generated_Source\PSoC6\pdl\cmsis/include/core_cm0plus.h **** #define SCB_CCR_UNALIGN_TRP_Pos             3U                                            /*!< SCB 
 453:Generated_Source\PSoC6\pdl\cmsis/include/core_cm0plus.h **** #define SCB_CCR_UNALIGN_TRP_Msk            (1UL << SCB_CCR_UNALIGN_TRP_Pos)               /*!< SCB 
 454:Generated_Source\PSoC6\pdl\cmsis/include/core_cm0plus.h **** 
 455:Generated_Source\PSoC6\pdl\cmsis/include/core_cm0plus.h **** /* SCB System Handler Control and State Register Definitions */
 456:Generated_Source\PSoC6\pdl\cmsis/include/core_cm0plus.h **** #define SCB_SHCSR_SVCALLPENDED_Pos         15U                                            /*!< SCB 
 457:Generated_Source\PSoC6\pdl\cmsis/include/core_cm0plus.h **** #define SCB_SHCSR_SVCALLPENDED_Msk         (1UL << SCB_SHCSR_SVCALLPENDED_Pos)            /*!< SCB 
 458:Generated_Source\PSoC6\pdl\cmsis/include/core_cm0plus.h **** 
 459:Generated_Source\PSoC6\pdl\cmsis/include/core_cm0plus.h **** /*@} end of group CMSIS_SCB */
 460:Generated_Source\PSoC6\pdl\cmsis/include/core_cm0plus.h **** 
 461:Generated_Source\PSoC6\pdl\cmsis/include/core_cm0plus.h **** 
 462:Generated_Source\PSoC6\pdl\cmsis/include/core_cm0plus.h **** /**
 463:Generated_Source\PSoC6\pdl\cmsis/include/core_cm0plus.h ****   \ingroup  CMSIS_core_register
 464:Generated_Source\PSoC6\pdl\cmsis/include/core_cm0plus.h ****   \defgroup CMSIS_SysTick     System Tick Timer (SysTick)
 465:Generated_Source\PSoC6\pdl\cmsis/include/core_cm0plus.h ****   \brief    Type definitions for the System Timer Registers.
 466:Generated_Source\PSoC6\pdl\cmsis/include/core_cm0plus.h ****   @{
 467:Generated_Source\PSoC6\pdl\cmsis/include/core_cm0plus.h ****  */
 468:Generated_Source\PSoC6\pdl\cmsis/include/core_cm0plus.h **** 
 469:Generated_Source\PSoC6\pdl\cmsis/include/core_cm0plus.h **** /**
 470:Generated_Source\PSoC6\pdl\cmsis/include/core_cm0plus.h ****   \brief  Structure type to access the System Timer (SysTick).
 471:Generated_Source\PSoC6\pdl\cmsis/include/core_cm0plus.h ****  */
 472:Generated_Source\PSoC6\pdl\cmsis/include/core_cm0plus.h **** typedef struct
 473:Generated_Source\PSoC6\pdl\cmsis/include/core_cm0plus.h **** {
 474:Generated_Source\PSoC6\pdl\cmsis/include/core_cm0plus.h ****   __IOM uint32_t CTRL;                   /*!< Offset: 0x000 (R/W)  SysTick Control and Status Regis
 475:Generated_Source\PSoC6\pdl\cmsis/include/core_cm0plus.h ****   __IOM uint32_t LOAD;                   /*!< Offset: 0x004 (R/W)  SysTick Reload Value Register */
 476:Generated_Source\PSoC6\pdl\cmsis/include/core_cm0plus.h ****   __IOM uint32_t VAL;                    /*!< Offset: 0x008 (R/W)  SysTick Current Value Register *
 477:Generated_Source\PSoC6\pdl\cmsis/include/core_cm0plus.h ****   __IM  uint32_t CALIB;                  /*!< Offset: 0x00C (R/ )  SysTick Calibration Register */
 478:Generated_Source\PSoC6\pdl\cmsis/include/core_cm0plus.h **** } SysTick_Type;
 479:Generated_Source\PSoC6\pdl\cmsis/include/core_cm0plus.h **** 
 480:Generated_Source\PSoC6\pdl\cmsis/include/core_cm0plus.h **** /* SysTick Control / Status Register Definitions */
 481:Generated_Source\PSoC6\pdl\cmsis/include/core_cm0plus.h **** #define SysTick_CTRL_COUNTFLAG_Pos         16U                                            /*!< SysT
 482:Generated_Source\PSoC6\pdl\cmsis/include/core_cm0plus.h **** #define SysTick_CTRL_COUNTFLAG_Msk         (1UL << SysTick_CTRL_COUNTFLAG_Pos)            /*!< SysT
 483:Generated_Source\PSoC6\pdl\cmsis/include/core_cm0plus.h **** 
 484:Generated_Source\PSoC6\pdl\cmsis/include/core_cm0plus.h **** #define SysTick_CTRL_CLKSOURCE_Pos          2U                                            /*!< SysT
 485:Generated_Source\PSoC6\pdl\cmsis/include/core_cm0plus.h **** #define SysTick_CTRL_CLKSOURCE_Msk         (1UL << SysTick_CTRL_CLKSOURCE_Pos)            /*!< SysT
 486:Generated_Source\PSoC6\pdl\cmsis/include/core_cm0plus.h **** 
 487:Generated_Source\PSoC6\pdl\cmsis/include/core_cm0plus.h **** #define SysTick_CTRL_TICKINT_Pos            1U                                            /*!< SysT
 488:Generated_Source\PSoC6\pdl\cmsis/include/core_cm0plus.h **** #define SysTick_CTRL_TICKINT_Msk           (1UL << SysTick_CTRL_TICKINT_Pos)              /*!< SysT
 489:Generated_Source\PSoC6\pdl\cmsis/include/core_cm0plus.h **** 
ARM GAS  C:\Users\mattma1\AppData\Local\Temp\ccEG71GX.s 			page 29


 490:Generated_Source\PSoC6\pdl\cmsis/include/core_cm0plus.h **** #define SysTick_CTRL_ENABLE_Pos             0U                                            /*!< SysT
 491:Generated_Source\PSoC6\pdl\cmsis/include/core_cm0plus.h **** #define SysTick_CTRL_ENABLE_Msk            (1UL /*<< SysTick_CTRL_ENABLE_Pos*/)           /*!< SysT
 492:Generated_Source\PSoC6\pdl\cmsis/include/core_cm0plus.h **** 
 493:Generated_Source\PSoC6\pdl\cmsis/include/core_cm0plus.h **** /* SysTick Reload Register Definitions */
 494:Generated_Source\PSoC6\pdl\cmsis/include/core_cm0plus.h **** #define SysTick_LOAD_RELOAD_Pos             0U                                            /*!< SysT
 495:Generated_Source\PSoC6\pdl\cmsis/include/core_cm0plus.h **** #define SysTick_LOAD_RELOAD_Msk            (0xFFFFFFUL /*<< SysTick_LOAD_RELOAD_Pos*/)    /*!< SysT
 496:Generated_Source\PSoC6\pdl\cmsis/include/core_cm0plus.h **** 
 497:Generated_Source\PSoC6\pdl\cmsis/include/core_cm0plus.h **** /* SysTick Current Register Definitions */
 498:Generated_Source\PSoC6\pdl\cmsis/include/core_cm0plus.h **** #define SysTick_VAL_CURRENT_Pos             0U                                            /*!< SysT
 499:Generated_Source\PSoC6\pdl\cmsis/include/core_cm0plus.h **** #define SysTick_VAL_CURRENT_Msk            (0xFFFFFFUL /*<< SysTick_VAL_CURRENT_Pos*/)    /*!< SysT
 500:Generated_Source\PSoC6\pdl\cmsis/include/core_cm0plus.h **** 
 501:Generated_Source\PSoC6\pdl\cmsis/include/core_cm0plus.h **** /* SysTick Calibration Register Definitions */
 502:Generated_Source\PSoC6\pdl\cmsis/include/core_cm0plus.h **** #define SysTick_CALIB_NOREF_Pos            31U                                            /*!< SysT
 503:Generated_Source\PSoC6\pdl\cmsis/include/core_cm0plus.h **** #define SysTick_CALIB_NOREF_Msk            (1UL << SysTick_CALIB_NOREF_Pos)               /*!< SysT
 504:Generated_Source\PSoC6\pdl\cmsis/include/core_cm0plus.h **** 
 505:Generated_Source\PSoC6\pdl\cmsis/include/core_cm0plus.h **** #define SysTick_CALIB_SKEW_Pos             30U                                            /*!< SysT
 506:Generated_Source\PSoC6\pdl\cmsis/include/core_cm0plus.h **** #define SysTick_CALIB_SKEW_Msk             (1UL << SysTick_CALIB_SKEW_Pos)                /*!< SysT
 507:Generated_Source\PSoC6\pdl\cmsis/include/core_cm0plus.h **** 
 508:Generated_Source\PSoC6\pdl\cmsis/include/core_cm0plus.h **** #define SysTick_CALIB_TENMS_Pos             0U                                            /*!< SysT
 509:Generated_Source\PSoC6\pdl\cmsis/include/core_cm0plus.h **** #define SysTick_CALIB_TENMS_Msk            (0xFFFFFFUL /*<< SysTick_CALIB_TENMS_Pos*/)    /*!< SysT
 510:Generated_Source\PSoC6\pdl\cmsis/include/core_cm0plus.h **** 
 511:Generated_Source\PSoC6\pdl\cmsis/include/core_cm0plus.h **** /*@} end of group CMSIS_SysTick */
 512:Generated_Source\PSoC6\pdl\cmsis/include/core_cm0plus.h **** 
 513:Generated_Source\PSoC6\pdl\cmsis/include/core_cm0plus.h **** #if defined (__MPU_PRESENT) && (__MPU_PRESENT == 1U)
 514:Generated_Source\PSoC6\pdl\cmsis/include/core_cm0plus.h **** /**
 515:Generated_Source\PSoC6\pdl\cmsis/include/core_cm0plus.h ****   \ingroup  CMSIS_core_register
 516:Generated_Source\PSoC6\pdl\cmsis/include/core_cm0plus.h ****   \defgroup CMSIS_MPU     Memory Protection Unit (MPU)
 517:Generated_Source\PSoC6\pdl\cmsis/include/core_cm0plus.h ****   \brief    Type definitions for the Memory Protection Unit (MPU)
 518:Generated_Source\PSoC6\pdl\cmsis/include/core_cm0plus.h ****   @{
 519:Generated_Source\PSoC6\pdl\cmsis/include/core_cm0plus.h ****  */
 520:Generated_Source\PSoC6\pdl\cmsis/include/core_cm0plus.h **** 
 521:Generated_Source\PSoC6\pdl\cmsis/include/core_cm0plus.h **** /**
 522:Generated_Source\PSoC6\pdl\cmsis/include/core_cm0plus.h ****   \brief  Structure type to access the Memory Protection Unit (MPU).
 523:Generated_Source\PSoC6\pdl\cmsis/include/core_cm0plus.h ****  */
 524:Generated_Source\PSoC6\pdl\cmsis/include/core_cm0plus.h **** typedef struct
 525:Generated_Source\PSoC6\pdl\cmsis/include/core_cm0plus.h **** {
 526:Generated_Source\PSoC6\pdl\cmsis/include/core_cm0plus.h ****   __IM  uint32_t TYPE;                   /*!< Offset: 0x000 (R/ )  MPU Type Register */
 527:Generated_Source\PSoC6\pdl\cmsis/include/core_cm0plus.h ****   __IOM uint32_t CTRL;                   /*!< Offset: 0x004 (R/W)  MPU Control Register */
 528:Generated_Source\PSoC6\pdl\cmsis/include/core_cm0plus.h ****   __IOM uint32_t RNR;                    /*!< Offset: 0x008 (R/W)  MPU Region RNRber Register */
 529:Generated_Source\PSoC6\pdl\cmsis/include/core_cm0plus.h ****   __IOM uint32_t RBAR;                   /*!< Offset: 0x00C (R/W)  MPU Region Base Address Register
 530:Generated_Source\PSoC6\pdl\cmsis/include/core_cm0plus.h ****   __IOM uint32_t RASR;                   /*!< Offset: 0x010 (R/W)  MPU Region Attribute and Size Re
 531:Generated_Source\PSoC6\pdl\cmsis/include/core_cm0plus.h **** } MPU_Type;
 532:Generated_Source\PSoC6\pdl\cmsis/include/core_cm0plus.h **** 
 533:Generated_Source\PSoC6\pdl\cmsis/include/core_cm0plus.h **** #define MPU_TYPE_RALIASES                  1U
 534:Generated_Source\PSoC6\pdl\cmsis/include/core_cm0plus.h **** 
 535:Generated_Source\PSoC6\pdl\cmsis/include/core_cm0plus.h **** /* MPU Type Register Definitions */
 536:Generated_Source\PSoC6\pdl\cmsis/include/core_cm0plus.h **** #define MPU_TYPE_IREGION_Pos               16U                                            /*!< MPU 
 537:Generated_Source\PSoC6\pdl\cmsis/include/core_cm0plus.h **** #define MPU_TYPE_IREGION_Msk               (0xFFUL << MPU_TYPE_IREGION_Pos)               /*!< MPU 
 538:Generated_Source\PSoC6\pdl\cmsis/include/core_cm0plus.h **** 
 539:Generated_Source\PSoC6\pdl\cmsis/include/core_cm0plus.h **** #define MPU_TYPE_DREGION_Pos                8U                                            /*!< MPU 
 540:Generated_Source\PSoC6\pdl\cmsis/include/core_cm0plus.h **** #define MPU_TYPE_DREGION_Msk               (0xFFUL << MPU_TYPE_DREGION_Pos)               /*!< MPU 
 541:Generated_Source\PSoC6\pdl\cmsis/include/core_cm0plus.h **** 
 542:Generated_Source\PSoC6\pdl\cmsis/include/core_cm0plus.h **** #define MPU_TYPE_SEPARATE_Pos               0U                                            /*!< MPU 
 543:Generated_Source\PSoC6\pdl\cmsis/include/core_cm0plus.h **** #define MPU_TYPE_SEPARATE_Msk              (1UL /*<< MPU_TYPE_SEPARATE_Pos*/)             /*!< MPU 
 544:Generated_Source\PSoC6\pdl\cmsis/include/core_cm0plus.h **** 
 545:Generated_Source\PSoC6\pdl\cmsis/include/core_cm0plus.h **** /* MPU Control Register Definitions */
 546:Generated_Source\PSoC6\pdl\cmsis/include/core_cm0plus.h **** #define MPU_CTRL_PRIVDEFENA_Pos             2U                                            /*!< MPU 
ARM GAS  C:\Users\mattma1\AppData\Local\Temp\ccEG71GX.s 			page 30


 547:Generated_Source\PSoC6\pdl\cmsis/include/core_cm0plus.h **** #define MPU_CTRL_PRIVDEFENA_Msk            (1UL << MPU_CTRL_PRIVDEFENA_Pos)               /*!< MPU 
 548:Generated_Source\PSoC6\pdl\cmsis/include/core_cm0plus.h **** 
 549:Generated_Source\PSoC6\pdl\cmsis/include/core_cm0plus.h **** #define MPU_CTRL_HFNMIENA_Pos               1U                                            /*!< MPU 
 550:Generated_Source\PSoC6\pdl\cmsis/include/core_cm0plus.h **** #define MPU_CTRL_HFNMIENA_Msk              (1UL << MPU_CTRL_HFNMIENA_Pos)                 /*!< MPU 
 551:Generated_Source\PSoC6\pdl\cmsis/include/core_cm0plus.h **** 
 552:Generated_Source\PSoC6\pdl\cmsis/include/core_cm0plus.h **** #define MPU_CTRL_ENABLE_Pos                 0U                                            /*!< MPU 
 553:Generated_Source\PSoC6\pdl\cmsis/include/core_cm0plus.h **** #define MPU_CTRL_ENABLE_Msk                (1UL /*<< MPU_CTRL_ENABLE_Pos*/)               /*!< MPU 
 554:Generated_Source\PSoC6\pdl\cmsis/include/core_cm0plus.h **** 
 555:Generated_Source\PSoC6\pdl\cmsis/include/core_cm0plus.h **** /* MPU Region Number Register Definitions */
 556:Generated_Source\PSoC6\pdl\cmsis/include/core_cm0plus.h **** #define MPU_RNR_REGION_Pos                  0U                                            /*!< MPU 
 557:Generated_Source\PSoC6\pdl\cmsis/include/core_cm0plus.h **** #define MPU_RNR_REGION_Msk                 (0xFFUL /*<< MPU_RNR_REGION_Pos*/)             /*!< MPU 
 558:Generated_Source\PSoC6\pdl\cmsis/include/core_cm0plus.h **** 
 559:Generated_Source\PSoC6\pdl\cmsis/include/core_cm0plus.h **** /* MPU Region Base Address Register Definitions */
 560:Generated_Source\PSoC6\pdl\cmsis/include/core_cm0plus.h **** #define MPU_RBAR_ADDR_Pos                   8U                                            /*!< MPU 
 561:Generated_Source\PSoC6\pdl\cmsis/include/core_cm0plus.h **** #define MPU_RBAR_ADDR_Msk                  (0xFFFFFFUL << MPU_RBAR_ADDR_Pos)              /*!< MPU 
 562:Generated_Source\PSoC6\pdl\cmsis/include/core_cm0plus.h **** 
 563:Generated_Source\PSoC6\pdl\cmsis/include/core_cm0plus.h **** #define MPU_RBAR_VALID_Pos                  4U                                            /*!< MPU 
 564:Generated_Source\PSoC6\pdl\cmsis/include/core_cm0plus.h **** #define MPU_RBAR_VALID_Msk                 (1UL << MPU_RBAR_VALID_Pos)                    /*!< MPU 
 565:Generated_Source\PSoC6\pdl\cmsis/include/core_cm0plus.h **** 
 566:Generated_Source\PSoC6\pdl\cmsis/include/core_cm0plus.h **** #define MPU_RBAR_REGION_Pos                 0U                                            /*!< MPU 
 567:Generated_Source\PSoC6\pdl\cmsis/include/core_cm0plus.h **** #define MPU_RBAR_REGION_Msk                (0xFUL /*<< MPU_RBAR_REGION_Pos*/)             /*!< MPU 
 568:Generated_Source\PSoC6\pdl\cmsis/include/core_cm0plus.h **** 
 569:Generated_Source\PSoC6\pdl\cmsis/include/core_cm0plus.h **** /* MPU Region Attribute and Size Register Definitions */
 570:Generated_Source\PSoC6\pdl\cmsis/include/core_cm0plus.h **** #define MPU_RASR_ATTRS_Pos                 16U                                            /*!< MPU 
 571:Generated_Source\PSoC6\pdl\cmsis/include/core_cm0plus.h **** #define MPU_RASR_ATTRS_Msk                 (0xFFFFUL << MPU_RASR_ATTRS_Pos)               /*!< MPU 
 572:Generated_Source\PSoC6\pdl\cmsis/include/core_cm0plus.h **** 
 573:Generated_Source\PSoC6\pdl\cmsis/include/core_cm0plus.h **** #define MPU_RASR_XN_Pos                    28U                                            /*!< MPU 
 574:Generated_Source\PSoC6\pdl\cmsis/include/core_cm0plus.h **** #define MPU_RASR_XN_Msk                    (1UL << MPU_RASR_XN_Pos)                       /*!< MPU 
 575:Generated_Source\PSoC6\pdl\cmsis/include/core_cm0plus.h **** 
 576:Generated_Source\PSoC6\pdl\cmsis/include/core_cm0plus.h **** #define MPU_RASR_AP_Pos                    24U                                            /*!< MPU 
 577:Generated_Source\PSoC6\pdl\cmsis/include/core_cm0plus.h **** #define MPU_RASR_AP_Msk                    (0x7UL << MPU_RASR_AP_Pos)                     /*!< MPU 
 578:Generated_Source\PSoC6\pdl\cmsis/include/core_cm0plus.h **** 
 579:Generated_Source\PSoC6\pdl\cmsis/include/core_cm0plus.h **** #define MPU_RASR_TEX_Pos                   19U                                            /*!< MPU 
 580:Generated_Source\PSoC6\pdl\cmsis/include/core_cm0plus.h **** #define MPU_RASR_TEX_Msk                   (0x7UL << MPU_RASR_TEX_Pos)                    /*!< MPU 
 581:Generated_Source\PSoC6\pdl\cmsis/include/core_cm0plus.h **** 
 582:Generated_Source\PSoC6\pdl\cmsis/include/core_cm0plus.h **** #define MPU_RASR_S_Pos                     18U                                            /*!< MPU 
 583:Generated_Source\PSoC6\pdl\cmsis/include/core_cm0plus.h **** #define MPU_RASR_S_Msk                     (1UL << MPU_RASR_S_Pos)                        /*!< MPU 
 584:Generated_Source\PSoC6\pdl\cmsis/include/core_cm0plus.h **** 
 585:Generated_Source\PSoC6\pdl\cmsis/include/core_cm0plus.h **** #define MPU_RASR_C_Pos                     17U                                            /*!< MPU 
 586:Generated_Source\PSoC6\pdl\cmsis/include/core_cm0plus.h **** #define MPU_RASR_C_Msk                     (1UL << MPU_RASR_C_Pos)                        /*!< MPU 
 587:Generated_Source\PSoC6\pdl\cmsis/include/core_cm0plus.h **** 
 588:Generated_Source\PSoC6\pdl\cmsis/include/core_cm0plus.h **** #define MPU_RASR_B_Pos                     16U                                            /*!< MPU 
 589:Generated_Source\PSoC6\pdl\cmsis/include/core_cm0plus.h **** #define MPU_RASR_B_Msk                     (1UL << MPU_RASR_B_Pos)                        /*!< MPU 
 590:Generated_Source\PSoC6\pdl\cmsis/include/core_cm0plus.h **** 
 591:Generated_Source\PSoC6\pdl\cmsis/include/core_cm0plus.h **** #define MPU_RASR_SRD_Pos                    8U                                            /*!< MPU 
 592:Generated_Source\PSoC6\pdl\cmsis/include/core_cm0plus.h **** #define MPU_RASR_SRD_Msk                   (0xFFUL << MPU_RASR_SRD_Pos)                   /*!< MPU 
 593:Generated_Source\PSoC6\pdl\cmsis/include/core_cm0plus.h **** 
 594:Generated_Source\PSoC6\pdl\cmsis/include/core_cm0plus.h **** #define MPU_RASR_SIZE_Pos                   1U                                            /*!< MPU 
 595:Generated_Source\PSoC6\pdl\cmsis/include/core_cm0plus.h **** #define MPU_RASR_SIZE_Msk                  (0x1FUL << MPU_RASR_SIZE_Pos)                  /*!< MPU 
 596:Generated_Source\PSoC6\pdl\cmsis/include/core_cm0plus.h **** 
 597:Generated_Source\PSoC6\pdl\cmsis/include/core_cm0plus.h **** #define MPU_RASR_ENABLE_Pos                 0U                                            /*!< MPU 
 598:Generated_Source\PSoC6\pdl\cmsis/include/core_cm0plus.h **** #define MPU_RASR_ENABLE_Msk                (1UL /*<< MPU_RASR_ENABLE_Pos*/)               /*!< MPU 
 599:Generated_Source\PSoC6\pdl\cmsis/include/core_cm0plus.h **** 
 600:Generated_Source\PSoC6\pdl\cmsis/include/core_cm0plus.h **** /*@} end of group CMSIS_MPU */
 601:Generated_Source\PSoC6\pdl\cmsis/include/core_cm0plus.h **** #endif
 602:Generated_Source\PSoC6\pdl\cmsis/include/core_cm0plus.h **** 
 603:Generated_Source\PSoC6\pdl\cmsis/include/core_cm0plus.h **** 
ARM GAS  C:\Users\mattma1\AppData\Local\Temp\ccEG71GX.s 			page 31


 604:Generated_Source\PSoC6\pdl\cmsis/include/core_cm0plus.h **** /**
 605:Generated_Source\PSoC6\pdl\cmsis/include/core_cm0plus.h ****   \ingroup  CMSIS_core_register
 606:Generated_Source\PSoC6\pdl\cmsis/include/core_cm0plus.h ****   \defgroup CMSIS_CoreDebug       Core Debug Registers (CoreDebug)
 607:Generated_Source\PSoC6\pdl\cmsis/include/core_cm0plus.h ****   \brief    Cortex-M0+ Core Debug Registers (DCB registers, SHCSR, and DFSR) are only accessible ov
 608:Generated_Source\PSoC6\pdl\cmsis/include/core_cm0plus.h ****             Therefore they are not covered by the Cortex-M0+ header file.
 609:Generated_Source\PSoC6\pdl\cmsis/include/core_cm0plus.h ****   @{
 610:Generated_Source\PSoC6\pdl\cmsis/include/core_cm0plus.h ****  */
 611:Generated_Source\PSoC6\pdl\cmsis/include/core_cm0plus.h **** /*@} end of group CMSIS_CoreDebug */
 612:Generated_Source\PSoC6\pdl\cmsis/include/core_cm0plus.h **** 
 613:Generated_Source\PSoC6\pdl\cmsis/include/core_cm0plus.h **** 
 614:Generated_Source\PSoC6\pdl\cmsis/include/core_cm0plus.h **** /**
 615:Generated_Source\PSoC6\pdl\cmsis/include/core_cm0plus.h ****   \ingroup    CMSIS_core_register
 616:Generated_Source\PSoC6\pdl\cmsis/include/core_cm0plus.h ****   \defgroup   CMSIS_core_bitfield     Core register bit field macros
 617:Generated_Source\PSoC6\pdl\cmsis/include/core_cm0plus.h ****   \brief      Macros for use with bit field definitions (xxx_Pos, xxx_Msk).
 618:Generated_Source\PSoC6\pdl\cmsis/include/core_cm0plus.h ****   @{
 619:Generated_Source\PSoC6\pdl\cmsis/include/core_cm0plus.h ****  */
 620:Generated_Source\PSoC6\pdl\cmsis/include/core_cm0plus.h **** 
 621:Generated_Source\PSoC6\pdl\cmsis/include/core_cm0plus.h **** /**
 622:Generated_Source\PSoC6\pdl\cmsis/include/core_cm0plus.h ****   \brief   Mask and shift a bit field value for use in a register bit range.
 623:Generated_Source\PSoC6\pdl\cmsis/include/core_cm0plus.h ****   \param[in] field  Name of the register bit field.
 624:Generated_Source\PSoC6\pdl\cmsis/include/core_cm0plus.h ****   \param[in] value  Value of the bit field. This parameter is interpreted as an uint32_t type.
 625:Generated_Source\PSoC6\pdl\cmsis/include/core_cm0plus.h ****   \return           Masked and shifted value.
 626:Generated_Source\PSoC6\pdl\cmsis/include/core_cm0plus.h **** */
 627:Generated_Source\PSoC6\pdl\cmsis/include/core_cm0plus.h **** #define _VAL2FLD(field, value)    (((uint32_t)(value) << field ## _Pos) & field ## _Msk)
 628:Generated_Source\PSoC6\pdl\cmsis/include/core_cm0plus.h **** 
 629:Generated_Source\PSoC6\pdl\cmsis/include/core_cm0plus.h **** /**
 630:Generated_Source\PSoC6\pdl\cmsis/include/core_cm0plus.h ****   \brief     Mask and shift a register value to extract a bit filed value.
 631:Generated_Source\PSoC6\pdl\cmsis/include/core_cm0plus.h ****   \param[in] field  Name of the register bit field.
 632:Generated_Source\PSoC6\pdl\cmsis/include/core_cm0plus.h ****   \param[in] value  Value of register. This parameter is interpreted as an uint32_t type.
 633:Generated_Source\PSoC6\pdl\cmsis/include/core_cm0plus.h ****   \return           Masked and shifted bit field value.
 634:Generated_Source\PSoC6\pdl\cmsis/include/core_cm0plus.h **** */
 635:Generated_Source\PSoC6\pdl\cmsis/include/core_cm0plus.h **** #define _FLD2VAL(field, value)    (((uint32_t)(value) & field ## _Msk) >> field ## _Pos)
 636:Generated_Source\PSoC6\pdl\cmsis/include/core_cm0plus.h **** 
 637:Generated_Source\PSoC6\pdl\cmsis/include/core_cm0plus.h **** /*@} end of group CMSIS_core_bitfield */
 638:Generated_Source\PSoC6\pdl\cmsis/include/core_cm0plus.h **** 
 639:Generated_Source\PSoC6\pdl\cmsis/include/core_cm0plus.h **** 
 640:Generated_Source\PSoC6\pdl\cmsis/include/core_cm0plus.h **** /**
 641:Generated_Source\PSoC6\pdl\cmsis/include/core_cm0plus.h ****   \ingroup    CMSIS_core_register
 642:Generated_Source\PSoC6\pdl\cmsis/include/core_cm0plus.h ****   \defgroup   CMSIS_core_base     Core Definitions
 643:Generated_Source\PSoC6\pdl\cmsis/include/core_cm0plus.h ****   \brief      Definitions for base addresses, unions, and structures.
 644:Generated_Source\PSoC6\pdl\cmsis/include/core_cm0plus.h ****   @{
 645:Generated_Source\PSoC6\pdl\cmsis/include/core_cm0plus.h ****  */
 646:Generated_Source\PSoC6\pdl\cmsis/include/core_cm0plus.h **** 
 647:Generated_Source\PSoC6\pdl\cmsis/include/core_cm0plus.h **** /* Memory mapping of Core Hardware */
 648:Generated_Source\PSoC6\pdl\cmsis/include/core_cm0plus.h **** #define SCS_BASE            (0xE000E000UL)                            /*!< System Control Space Bas
 649:Generated_Source\PSoC6\pdl\cmsis/include/core_cm0plus.h **** #define SysTick_BASE        (SCS_BASE +  0x0010UL)                    /*!< SysTick Base Address */
 650:Generated_Source\PSoC6\pdl\cmsis/include/core_cm0plus.h **** #define NVIC_BASE           (SCS_BASE +  0x0100UL)                    /*!< NVIC Base Address */
 651:Generated_Source\PSoC6\pdl\cmsis/include/core_cm0plus.h **** #define SCB_BASE            (SCS_BASE +  0x0D00UL)                    /*!< System Control Block Bas
 652:Generated_Source\PSoC6\pdl\cmsis/include/core_cm0plus.h **** 
 653:Generated_Source\PSoC6\pdl\cmsis/include/core_cm0plus.h **** #define SCB                 ((SCB_Type       *)     SCB_BASE      )   /*!< SCB configuration struct
 654:Generated_Source\PSoC6\pdl\cmsis/include/core_cm0plus.h **** #define SysTick             ((SysTick_Type   *)     SysTick_BASE  )   /*!< SysTick configuration st
 655:Generated_Source\PSoC6\pdl\cmsis/include/core_cm0plus.h **** #define NVIC                ((NVIC_Type      *)     NVIC_BASE     )   /*!< NVIC configuration struc
 656:Generated_Source\PSoC6\pdl\cmsis/include/core_cm0plus.h **** 
 657:Generated_Source\PSoC6\pdl\cmsis/include/core_cm0plus.h **** #if defined (__MPU_PRESENT) && (__MPU_PRESENT == 1U)
 658:Generated_Source\PSoC6\pdl\cmsis/include/core_cm0plus.h ****   #define MPU_BASE          (SCS_BASE +  0x0D90UL)                    /*!< Memory Protection Unit *
 659:Generated_Source\PSoC6\pdl\cmsis/include/core_cm0plus.h ****   #define MPU               ((MPU_Type       *)     MPU_BASE      )   /*!< Memory Protection Unit *
 660:Generated_Source\PSoC6\pdl\cmsis/include/core_cm0plus.h **** #endif
ARM GAS  C:\Users\mattma1\AppData\Local\Temp\ccEG71GX.s 			page 32


 661:Generated_Source\PSoC6\pdl\cmsis/include/core_cm0plus.h **** 
 662:Generated_Source\PSoC6\pdl\cmsis/include/core_cm0plus.h **** /*@} */
 663:Generated_Source\PSoC6\pdl\cmsis/include/core_cm0plus.h **** 
 664:Generated_Source\PSoC6\pdl\cmsis/include/core_cm0plus.h **** 
 665:Generated_Source\PSoC6\pdl\cmsis/include/core_cm0plus.h **** 
 666:Generated_Source\PSoC6\pdl\cmsis/include/core_cm0plus.h **** /*******************************************************************************
 667:Generated_Source\PSoC6\pdl\cmsis/include/core_cm0plus.h ****  *                Hardware Abstraction Layer
 668:Generated_Source\PSoC6\pdl\cmsis/include/core_cm0plus.h ****   Core Function Interface contains:
 669:Generated_Source\PSoC6\pdl\cmsis/include/core_cm0plus.h ****   - Core NVIC Functions
 670:Generated_Source\PSoC6\pdl\cmsis/include/core_cm0plus.h ****   - Core SysTick Functions
 671:Generated_Source\PSoC6\pdl\cmsis/include/core_cm0plus.h ****   - Core Register Access Functions
 672:Generated_Source\PSoC6\pdl\cmsis/include/core_cm0plus.h ****  ******************************************************************************/
 673:Generated_Source\PSoC6\pdl\cmsis/include/core_cm0plus.h **** /**
 674:Generated_Source\PSoC6\pdl\cmsis/include/core_cm0plus.h ****   \defgroup CMSIS_Core_FunctionInterface Functions and Instructions Reference
 675:Generated_Source\PSoC6\pdl\cmsis/include/core_cm0plus.h **** */
 676:Generated_Source\PSoC6\pdl\cmsis/include/core_cm0plus.h **** 
 677:Generated_Source\PSoC6\pdl\cmsis/include/core_cm0plus.h **** 
 678:Generated_Source\PSoC6\pdl\cmsis/include/core_cm0plus.h **** 
 679:Generated_Source\PSoC6\pdl\cmsis/include/core_cm0plus.h **** /* ##########################   NVIC functions  #################################### */
 680:Generated_Source\PSoC6\pdl\cmsis/include/core_cm0plus.h **** /**
 681:Generated_Source\PSoC6\pdl\cmsis/include/core_cm0plus.h ****   \ingroup  CMSIS_Core_FunctionInterface
 682:Generated_Source\PSoC6\pdl\cmsis/include/core_cm0plus.h ****   \defgroup CMSIS_Core_NVICFunctions NVIC Functions
 683:Generated_Source\PSoC6\pdl\cmsis/include/core_cm0plus.h ****   \brief    Functions that manage interrupts and exceptions via the NVIC.
 684:Generated_Source\PSoC6\pdl\cmsis/include/core_cm0plus.h ****   @{
 685:Generated_Source\PSoC6\pdl\cmsis/include/core_cm0plus.h ****  */
 686:Generated_Source\PSoC6\pdl\cmsis/include/core_cm0plus.h **** 
 687:Generated_Source\PSoC6\pdl\cmsis/include/core_cm0plus.h **** #ifdef CMSIS_NVIC_VIRTUAL
 688:Generated_Source\PSoC6\pdl\cmsis/include/core_cm0plus.h ****   #ifndef CMSIS_NVIC_VIRTUAL_HEADER_FILE
 689:Generated_Source\PSoC6\pdl\cmsis/include/core_cm0plus.h ****     #define CMSIS_NVIC_VIRTUAL_HEADER_FILE "cmsis_nvic_virtual.h"
 690:Generated_Source\PSoC6\pdl\cmsis/include/core_cm0plus.h ****   #endif
 691:Generated_Source\PSoC6\pdl\cmsis/include/core_cm0plus.h ****   #include CMSIS_NVIC_VIRTUAL_HEADER_FILE
 692:Generated_Source\PSoC6\pdl\cmsis/include/core_cm0plus.h **** #else
 693:Generated_Source\PSoC6\pdl\cmsis/include/core_cm0plus.h **** /*#define NVIC_SetPriorityGrouping    __NVIC_SetPriorityGrouping   not available for Cortex-M0+ */
 694:Generated_Source\PSoC6\pdl\cmsis/include/core_cm0plus.h **** /*#define NVIC_GetPriorityGrouping    __NVIC_GetPriorityGrouping   not available for Cortex-M0+ */
 695:Generated_Source\PSoC6\pdl\cmsis/include/core_cm0plus.h ****   #define NVIC_EnableIRQ              __NVIC_EnableIRQ
 696:Generated_Source\PSoC6\pdl\cmsis/include/core_cm0plus.h ****   #define NVIC_GetEnableIRQ           __NVIC_GetEnableIRQ
 697:Generated_Source\PSoC6\pdl\cmsis/include/core_cm0plus.h ****   #define NVIC_DisableIRQ             __NVIC_DisableIRQ
 698:Generated_Source\PSoC6\pdl\cmsis/include/core_cm0plus.h ****   #define NVIC_GetPendingIRQ          __NVIC_GetPendingIRQ
 699:Generated_Source\PSoC6\pdl\cmsis/include/core_cm0plus.h ****   #define NVIC_SetPendingIRQ          __NVIC_SetPendingIRQ
 700:Generated_Source\PSoC6\pdl\cmsis/include/core_cm0plus.h ****   #define NVIC_ClearPendingIRQ        __NVIC_ClearPendingIRQ
 701:Generated_Source\PSoC6\pdl\cmsis/include/core_cm0plus.h **** /*#define NVIC_GetActive              __NVIC_GetActive             not available for Cortex-M0+ */
 702:Generated_Source\PSoC6\pdl\cmsis/include/core_cm0plus.h ****   #define NVIC_SetPriority            __NVIC_SetPriority
 703:Generated_Source\PSoC6\pdl\cmsis/include/core_cm0plus.h ****   #define NVIC_GetPriority            __NVIC_GetPriority
 704:Generated_Source\PSoC6\pdl\cmsis/include/core_cm0plus.h ****   #define NVIC_SystemReset            __NVIC_SystemReset
 705:Generated_Source\PSoC6\pdl\cmsis/include/core_cm0plus.h **** #endif /* CMSIS_NVIC_VIRTUAL */
 706:Generated_Source\PSoC6\pdl\cmsis/include/core_cm0plus.h **** 
 707:Generated_Source\PSoC6\pdl\cmsis/include/core_cm0plus.h **** #ifdef CMSIS_VECTAB_VIRTUAL
 708:Generated_Source\PSoC6\pdl\cmsis/include/core_cm0plus.h ****   #ifndef CMSIS_VECTAB_VIRTUAL_HEADER_FILE
 709:Generated_Source\PSoC6\pdl\cmsis/include/core_cm0plus.h ****     #define CMSIS_VECTAB_VIRTUAL_HEADER_FILE "cmsis_vectab_virtual.h"
 710:Generated_Source\PSoC6\pdl\cmsis/include/core_cm0plus.h ****   #endif
 711:Generated_Source\PSoC6\pdl\cmsis/include/core_cm0plus.h ****   #include CMSIS_VECTAB_VIRTUAL_HEADER_FILE
 712:Generated_Source\PSoC6\pdl\cmsis/include/core_cm0plus.h **** #else
 713:Generated_Source\PSoC6\pdl\cmsis/include/core_cm0plus.h ****   #define NVIC_SetVector              __NVIC_SetVector
 714:Generated_Source\PSoC6\pdl\cmsis/include/core_cm0plus.h ****   #define NVIC_GetVector              __NVIC_GetVector
 715:Generated_Source\PSoC6\pdl\cmsis/include/core_cm0plus.h **** #endif  /* (CMSIS_VECTAB_VIRTUAL) */
 716:Generated_Source\PSoC6\pdl\cmsis/include/core_cm0plus.h **** 
 717:Generated_Source\PSoC6\pdl\cmsis/include/core_cm0plus.h **** #define NVIC_USER_IRQ_OFFSET          16
ARM GAS  C:\Users\mattma1\AppData\Local\Temp\ccEG71GX.s 			page 33


 718:Generated_Source\PSoC6\pdl\cmsis/include/core_cm0plus.h **** 
 719:Generated_Source\PSoC6\pdl\cmsis/include/core_cm0plus.h **** 
 720:Generated_Source\PSoC6\pdl\cmsis/include/core_cm0plus.h **** /* Interrupt Priorities are WORD accessible only under Armv6-M                  */
 721:Generated_Source\PSoC6\pdl\cmsis/include/core_cm0plus.h **** /* The following MACROS handle generation of the register offset and byte masks */
 722:Generated_Source\PSoC6\pdl\cmsis/include/core_cm0plus.h **** #define _BIT_SHIFT(IRQn)         (  ((((uint32_t)(int32_t)(IRQn))         )      &  0x03UL) * 8UL)
 723:Generated_Source\PSoC6\pdl\cmsis/include/core_cm0plus.h **** #define _SHP_IDX(IRQn)           ( (((((uint32_t)(int32_t)(IRQn)) & 0x0FUL)-8UL) >>    2UL)      )
 724:Generated_Source\PSoC6\pdl\cmsis/include/core_cm0plus.h **** #define _IP_IDX(IRQn)            (   (((uint32_t)(int32_t)(IRQn))                >>    2UL)      )
 725:Generated_Source\PSoC6\pdl\cmsis/include/core_cm0plus.h **** 
 726:Generated_Source\PSoC6\pdl\cmsis/include/core_cm0plus.h **** 
 727:Generated_Source\PSoC6\pdl\cmsis/include/core_cm0plus.h **** /**
 728:Generated_Source\PSoC6\pdl\cmsis/include/core_cm0plus.h ****   \brief   Enable Interrupt
 729:Generated_Source\PSoC6\pdl\cmsis/include/core_cm0plus.h ****   \details Enables a device specific interrupt in the NVIC interrupt controller.
 730:Generated_Source\PSoC6\pdl\cmsis/include/core_cm0plus.h ****   \param [in]      IRQn  Device specific interrupt number.
 731:Generated_Source\PSoC6\pdl\cmsis/include/core_cm0plus.h ****   \note    IRQn must not be negative.
 732:Generated_Source\PSoC6\pdl\cmsis/include/core_cm0plus.h ****  */
 733:Generated_Source\PSoC6\pdl\cmsis/include/core_cm0plus.h **** __STATIC_INLINE void __NVIC_EnableIRQ(IRQn_Type IRQn)
 734:Generated_Source\PSoC6\pdl\cmsis/include/core_cm0plus.h **** {
 735:Generated_Source\PSoC6\pdl\cmsis/include/core_cm0plus.h ****   if ((int32_t)(IRQn) >= 0)
 368              		.loc 3 735 0
 369 009c 002A     		cmp	r2, #0
 370 009e 05DB     		blt	.L14
 736:Generated_Source\PSoC6\pdl\cmsis/include/core_cm0plus.h ****   {
 737:Generated_Source\PSoC6\pdl\cmsis/include/core_cm0plus.h ****     NVIC->ISER[0U] = (uint32_t)(1UL << (((uint32_t)IRQn) & 0x1FUL));
 371              		.loc 3 737 0
 372 00a0 1F23     		movs	r3, #31
 373 00a2 1A40     		ands	r2, r3
 374              	.LVL33:
 375 00a4 1E3B     		subs	r3, r3, #30
 376 00a6 9340     		lsls	r3, r3, r2
 377 00a8 034A     		ldr	r2, .L20+8
 378 00aa 1360     		str	r3, [r2]
 379              	.LVL34:
 380              	.L14:
 381              	.LBE53:
 382              	.LBE52:
 129:Generated_Source\PSoC6\pdl\drivers\peripheral\ipc/cy_ipc_pipe.c **** 
 383              		.loc 1 129 0
 384 00ac 0FB0     		add	sp, sp, #60
 385              		@ sp needed
 386              	.LVL35:
 387 00ae F0BD     		pop	{r4, r5, r6, r7, pc}
 388              	.L21:
 389              		.align	2
 390              	.L20:
 391 00b0 00000000 		.word	.LC2
 392 00b4 00000000 		.word	cy_device
 393 00b8 00E100E0 		.word	-536813312
 394              		.cfi_endproc
 395              	.LFE67:
 396              		.size	Cy_IPC_Pipe_Init, .-Cy_IPC_Pipe_Init
 397              		.section	.text.Cy_IPC_Pipe_SendMessage,"ax",%progbits
 398              		.align	2
 399              		.global	Cy_IPC_Pipe_SendMessage
 400              		.code	16
 401              		.thumb_func
 402              		.type	Cy_IPC_Pipe_SendMessage, %function
 403              	Cy_IPC_Pipe_SendMessage:
ARM GAS  C:\Users\mattma1\AppData\Local\Temp\ccEG71GX.s 			page 34


 404              	.LFB69:
 209:Generated_Source\PSoC6\pdl\drivers\peripheral\ipc/cy_ipc_pipe.c **** 
 210:Generated_Source\PSoC6\pdl\drivers\peripheral\ipc/cy_ipc_pipe.c **** 
 211:Generated_Source\PSoC6\pdl\drivers\peripheral\ipc/cy_ipc_pipe.c **** /*******************************************************************************
 212:Generated_Source\PSoC6\pdl\drivers\peripheral\ipc/cy_ipc_pipe.c **** * Function Name: Cy_IPC_Pipe_SendMessage
 213:Generated_Source\PSoC6\pdl\drivers\peripheral\ipc/cy_ipc_pipe.c **** ****************************************************************************//**
 214:Generated_Source\PSoC6\pdl\drivers\peripheral\ipc/cy_ipc_pipe.c **** *
 215:Generated_Source\PSoC6\pdl\drivers\peripheral\ipc/cy_ipc_pipe.c **** * This function is used to send a message from one endpoint to another.  It
 216:Generated_Source\PSoC6\pdl\drivers\peripheral\ipc/cy_ipc_pipe.c **** * generates an interrupt on the endpoint that receives the message and a
 217:Generated_Source\PSoC6\pdl\drivers\peripheral\ipc/cy_ipc_pipe.c **** * release interrupt to the sender to acknowledge the message has been processed.
 218:Generated_Source\PSoC6\pdl\drivers\peripheral\ipc/cy_ipc_pipe.c **** *
 219:Generated_Source\PSoC6\pdl\drivers\peripheral\ipc/cy_ipc_pipe.c **** * \param toAddr
 220:Generated_Source\PSoC6\pdl\drivers\peripheral\ipc/cy_ipc_pipe.c **** * This parameter is the address (or index in the array of endpoint structures)
 221:Generated_Source\PSoC6\pdl\drivers\peripheral\ipc/cy_ipc_pipe.c **** * of the endpoint to which you are sending the message.
 222:Generated_Source\PSoC6\pdl\drivers\peripheral\ipc/cy_ipc_pipe.c **** *
 223:Generated_Source\PSoC6\pdl\drivers\peripheral\ipc/cy_ipc_pipe.c **** * \param fromAddr
 224:Generated_Source\PSoC6\pdl\drivers\peripheral\ipc/cy_ipc_pipe.c **** * This parameter is the address (or index in the array of endpoint structures)
 225:Generated_Source\PSoC6\pdl\drivers\peripheral\ipc/cy_ipc_pipe.c **** * of the endpoint from which the message is being sent.
 226:Generated_Source\PSoC6\pdl\drivers\peripheral\ipc/cy_ipc_pipe.c **** *
 227:Generated_Source\PSoC6\pdl\drivers\peripheral\ipc/cy_ipc_pipe.c **** * \param msgPtr
 228:Generated_Source\PSoC6\pdl\drivers\peripheral\ipc/cy_ipc_pipe.c **** * Pointer to the message structure to be sent.
 229:Generated_Source\PSoC6\pdl\drivers\peripheral\ipc/cy_ipc_pipe.c **** *
 230:Generated_Source\PSoC6\pdl\drivers\peripheral\ipc/cy_ipc_pipe.c **** * \param callBackPtr
 231:Generated_Source\PSoC6\pdl\drivers\peripheral\ipc/cy_ipc_pipe.c **** * Pointer to the Release callback function.
 232:Generated_Source\PSoC6\pdl\drivers\peripheral\ipc/cy_ipc_pipe.c **** *
 233:Generated_Source\PSoC6\pdl\drivers\peripheral\ipc/cy_ipc_pipe.c **** * \return
 234:Generated_Source\PSoC6\pdl\drivers\peripheral\ipc/cy_ipc_pipe.c **** *    CY_IPC_PIPE_SUCCESS:          Message was sent to the other end of the pipe
 235:Generated_Source\PSoC6\pdl\drivers\peripheral\ipc/cy_ipc_pipe.c **** *    CY_IPC_PIPE_ERROR_BAD_HANDLE: The handle provided for the pipe was not valid
 236:Generated_Source\PSoC6\pdl\drivers\peripheral\ipc/cy_ipc_pipe.c **** *    CY_IPC_PIPE_ERROR_SEND_BUSY:  The pipe is already busy sending a message
 237:Generated_Source\PSoC6\pdl\drivers\peripheral\ipc/cy_ipc_pipe.c **** *
 238:Generated_Source\PSoC6\pdl\drivers\peripheral\ipc/cy_ipc_pipe.c **** * \funcusage
 239:Generated_Source\PSoC6\pdl\drivers\peripheral\ipc/cy_ipc_pipe.c **** * \snippet IPC_sut_01.cydsn/main_cm4.c snippet_myReleaseCallback
 240:Generated_Source\PSoC6\pdl\drivers\peripheral\ipc/cy_ipc_pipe.c **** * \snippet IPC_sut_01.cydsn/main_cm4.c snippet_Cy_IPC_Pipe_SendMessage
 241:Generated_Source\PSoC6\pdl\drivers\peripheral\ipc/cy_ipc_pipe.c **** *
 242:Generated_Source\PSoC6\pdl\drivers\peripheral\ipc/cy_ipc_pipe.c **** *******************************************************************************/
 243:Generated_Source\PSoC6\pdl\drivers\peripheral\ipc/cy_ipc_pipe.c **** cy_en_ipc_pipe_status_t Cy_IPC_Pipe_SendMessage(uint32_t toAddr, uint32_t fromAddr,
 244:Generated_Source\PSoC6\pdl\drivers\peripheral\ipc/cy_ipc_pipe.c ****                                                 void * msgPtr, cy_ipc_pipe_relcallback_ptr_t callBa
 245:Generated_Source\PSoC6\pdl\drivers\peripheral\ipc/cy_ipc_pipe.c **** {
 405              		.loc 1 245 0
 406              		.cfi_startproc
 407              		@ args = 0, pretend = 0, frame = 0
 408              		@ frame_needed = 0, uses_anonymous_args = 0
 409              	.LVL36:
 410 0000 F8B5     		push	{r3, r4, r5, r6, r7, lr}
 411              		.cfi_def_cfa_offset 24
 412              		.cfi_offset 3, -24
 413              		.cfi_offset 4, -20
 414              		.cfi_offset 5, -16
 415              		.cfi_offset 6, -12
 416              		.cfi_offset 7, -8
 417              		.cfi_offset 14, -4
 418 0002 0500     		movs	r5, r0
 419 0004 0F00     		movs	r7, r1
 420 0006 1600     		movs	r6, r2
 421 0008 1C00     		movs	r4, r3
 246:Generated_Source\PSoC6\pdl\drivers\peripheral\ipc/cy_ipc_pipe.c ****     cy_en_ipc_pipe_status_t  returnStatus;
 247:Generated_Source\PSoC6\pdl\drivers\peripheral\ipc/cy_ipc_pipe.c ****     uint32_t releaseMask;
ARM GAS  C:\Users\mattma1\AppData\Local\Temp\ccEG71GX.s 			page 35


 248:Generated_Source\PSoC6\pdl\drivers\peripheral\ipc/cy_ipc_pipe.c ****     uint32_t notifyMask;
 249:Generated_Source\PSoC6\pdl\drivers\peripheral\ipc/cy_ipc_pipe.c **** 
 250:Generated_Source\PSoC6\pdl\drivers\peripheral\ipc/cy_ipc_pipe.c ****     cy_stc_ipc_pipe_ep_t * fromEp;
 251:Generated_Source\PSoC6\pdl\drivers\peripheral\ipc/cy_ipc_pipe.c ****     cy_stc_ipc_pipe_ep_t * toEp;
 252:Generated_Source\PSoC6\pdl\drivers\peripheral\ipc/cy_ipc_pipe.c **** 
 253:Generated_Source\PSoC6\pdl\drivers\peripheral\ipc/cy_ipc_pipe.c ****     CY_ASSERT_L1(NULL != msgPtr);
 422              		.loc 1 253 0
 423 000a 002A     		cmp	r2, #0
 424 000c 03D1     		bne	.L23
 425              		.loc 1 253 0 is_stmt 0 discriminator 1
 426 000e FD21     		movs	r1, #253
 427              	.LVL37:
 428 0010 2248     		ldr	r0, .L32
 429              	.LVL38:
 430 0012 FFF7FEFF 		bl	Cy_SysLib_AssertFailed
 431              	.LVL39:
 432              	.L23:
 254:Generated_Source\PSoC6\pdl\drivers\peripheral\ipc/cy_ipc_pipe.c ****     CY_ASSERT_L1(NULL != cy_ipc_pipe_epArray);
 433              		.loc 1 254 0 is_stmt 1
 434 0016 224B     		ldr	r3, .L32+4
 435 0018 1B68     		ldr	r3, [r3]
 436 001a 002B     		cmp	r3, #0
 437 001c 03D1     		bne	.L24
 438              		.loc 1 254 0 is_stmt 0 discriminator 1
 439 001e FE21     		movs	r1, #254
 440 0020 1E48     		ldr	r0, .L32
 441 0022 FFF7FEFF 		bl	Cy_SysLib_AssertFailed
 442              	.LVL40:
 443              	.L24:
 255:Generated_Source\PSoC6\pdl\drivers\peripheral\ipc/cy_ipc_pipe.c **** 
 256:Generated_Source\PSoC6\pdl\drivers\peripheral\ipc/cy_ipc_pipe.c ****     toEp   = &(cy_ipc_pipe_epArray[toAddr]);
 444              		.loc 1 256 0 is_stmt 1
 445 0026 1E4B     		ldr	r3, .L32+4
 446 0028 1B68     		ldr	r3, [r3]
 447 002a 2C21     		movs	r1, #44
 448 002c 2800     		movs	r0, r5
 449 002e 4843     		muls	r0, r1
 450 0030 1818     		adds	r0, r3, r0
 451              	.LVL41:
 257:Generated_Source\PSoC6\pdl\drivers\peripheral\ipc/cy_ipc_pipe.c ****     fromEp = &cy_ipc_pipe_epArray[fromAddr];
 452              		.loc 1 257 0
 453 0032 7943     		muls	r1, r7
 454 0034 5918     		adds	r1, r3, r1
 455              	.LVL42:
 258:Generated_Source\PSoC6\pdl\drivers\peripheral\ipc/cy_ipc_pipe.c **** 
 259:Generated_Source\PSoC6\pdl\drivers\peripheral\ipc/cy_ipc_pipe.c ****     /* Create the release mask for the "fromAddr" channel's interrupt channel */
 260:Generated_Source\PSoC6\pdl\drivers\peripheral\ipc/cy_ipc_pipe.c ****     releaseMask =  (uint32_t)(1ul << (fromEp->intrChan));
 456              		.loc 1 260 0
 457 0036 0122     		movs	r2, #1
 458 0038 1300     		movs	r3, r2
 459 003a 4D68     		ldr	r5, [r1, #4]
 460              	.LVL43:
 461 003c AB40     		lsls	r3, r3, r5
 462              	.LVL44:
 261:Generated_Source\PSoC6\pdl\drivers\peripheral\ipc/cy_ipc_pipe.c **** 
 262:Generated_Source\PSoC6\pdl\drivers\peripheral\ipc/cy_ipc_pipe.c ****     /* Shift into position */
 263:Generated_Source\PSoC6\pdl\drivers\peripheral\ipc/cy_ipc_pipe.c ****     releaseMask = _VAL2FLD(CY_IPC_PIPE_MSG_RELEASE, releaseMask);
ARM GAS  C:\Users\mattma1\AppData\Local\Temp\ccEG71GX.s 			page 36


 463              		.loc 1 263 0
 464 003e 1B04     		lsls	r3, r3, #16
 465              	.LVL45:
 264:Generated_Source\PSoC6\pdl\drivers\peripheral\ipc/cy_ipc_pipe.c **** 
 265:Generated_Source\PSoC6\pdl\drivers\peripheral\ipc/cy_ipc_pipe.c ****     /* Create the notify mask for the "toAddr" channel's interrupt channel */
 266:Generated_Source\PSoC6\pdl\drivers\peripheral\ipc/cy_ipc_pipe.c ****     notifyMask  =  (uint32_t)(1ul << (toEp->intrChan));
 466              		.loc 1 266 0
 467 0040 4568     		ldr	r5, [r0, #4]
 468 0042 AA40     		lsls	r2, r2, r5
 469 0044 1500     		movs	r5, r2
 470              	.LVL46:
 267:Generated_Source\PSoC6\pdl\drivers\peripheral\ipc/cy_ipc_pipe.c **** 
 268:Generated_Source\PSoC6\pdl\drivers\peripheral\ipc/cy_ipc_pipe.c ****     /* Check if IPC channel valid */
 269:Generated_Source\PSoC6\pdl\drivers\peripheral\ipc/cy_ipc_pipe.c ****     if( toEp->ipcPtr != NULL)
 471              		.loc 1 269 0
 472 0046 0269     		ldr	r2, [r0, #16]
 473              	.LVL47:
 474 0048 002A     		cmp	r2, #0
 475 004a 20D0     		beq	.L28
 270:Generated_Source\PSoC6\pdl\drivers\peripheral\ipc/cy_ipc_pipe.c ****     {
 271:Generated_Source\PSoC6\pdl\drivers\peripheral\ipc/cy_ipc_pipe.c ****         if(fromEp->busy == CY_IPC_PIPE_ENDPOINT_NOTBUSY)
 476              		.loc 1 271 0
 477 004c 8F69     		ldr	r7, [r1, #24]
 478              	.LVL48:
 479 004e 002F     		cmp	r7, #0
 480 0050 1FD1     		bne	.L29
 481              	.LVL49:
 482              	.LBB54:
 483              	.LBB55:
 514:Generated_Source\PSoC6\pdl\drivers\peripheral\ipc/cy_ipc_drv.h **** }
 515:Generated_Source\PSoC6\pdl\drivers\peripheral\ipc/cy_ipc_drv.h **** 
 516:Generated_Source\PSoC6\pdl\drivers\peripheral\ipc/cy_ipc_drv.h **** 
 517:Generated_Source\PSoC6\pdl\drivers\peripheral\ipc/cy_ipc_drv.h **** /*******************************************************************************
 518:Generated_Source\PSoC6\pdl\drivers\peripheral\ipc/cy_ipc_drv.h **** * Function Name: Cy_IPC_Drv_GetInterruptMask
 519:Generated_Source\PSoC6\pdl\drivers\peripheral\ipc/cy_ipc_drv.h **** ****************************************************************************//**
 520:Generated_Source\PSoC6\pdl\drivers\peripheral\ipc/cy_ipc_drv.h **** *
 521:Generated_Source\PSoC6\pdl\drivers\peripheral\ipc/cy_ipc_drv.h **** * This function is used to read the interrupt mask.
 522:Generated_Source\PSoC6\pdl\drivers\peripheral\ipc/cy_ipc_drv.h **** *
 523:Generated_Source\PSoC6\pdl\drivers\peripheral\ipc/cy_ipc_drv.h **** * \param base
 524:Generated_Source\PSoC6\pdl\drivers\peripheral\ipc/cy_ipc_drv.h **** * This is a handle to the IPC interrupt. This handle can be calculated from
 525:Generated_Source\PSoC6\pdl\drivers\peripheral\ipc/cy_ipc_drv.h **** * the IPC interrupt number using \ref Cy_IPC_Drv_GetIntrBaseAddr.
 526:Generated_Source\PSoC6\pdl\drivers\peripheral\ipc/cy_ipc_drv.h **** *
 527:Generated_Source\PSoC6\pdl\drivers\peripheral\ipc/cy_ipc_drv.h **** * \return
 528:Generated_Source\PSoC6\pdl\drivers\peripheral\ipc/cy_ipc_drv.h **** *   The return value is encoded as follows
 529:Generated_Source\PSoC6\pdl\drivers\peripheral\ipc/cy_ipc_drv.h **** *   <table>
 530:Generated_Source\PSoC6\pdl\drivers\peripheral\ipc/cy_ipc_drv.h **** *   <tr><th>Interrupt sources   <th>Value
 531:Generated_Source\PSoC6\pdl\drivers\peripheral\ipc/cy_ipc_drv.h **** *   <tr><td>Ipc_PORTX_RELEASE   <td>Xth bit set
 532:Generated_Source\PSoC6\pdl\drivers\peripheral\ipc/cy_ipc_drv.h **** *   <tr><td>Ipc_PORTX_NOTIFY    <td>X+16th bit set
 533:Generated_Source\PSoC6\pdl\drivers\peripheral\ipc/cy_ipc_drv.h **** *   </table>
 534:Generated_Source\PSoC6\pdl\drivers\peripheral\ipc/cy_ipc_drv.h **** *
 535:Generated_Source\PSoC6\pdl\drivers\peripheral\ipc/cy_ipc_drv.h **** * \funcusage
 536:Generated_Source\PSoC6\pdl\drivers\peripheral\ipc/cy_ipc_drv.h **** * \snippet IPC_sut_01.cydsn/main_cm4.c snippet_Cy_IPC_Drv_GetInterruptStatusMasked
 537:Generated_Source\PSoC6\pdl\drivers\peripheral\ipc/cy_ipc_drv.h **** *
 538:Generated_Source\PSoC6\pdl\drivers\peripheral\ipc/cy_ipc_drv.h **** *******************************************************************************/
 539:Generated_Source\PSoC6\pdl\drivers\peripheral\ipc/cy_ipc_drv.h **** __STATIC_INLINE uint32_t Cy_IPC_Drv_GetInterruptMask(IPC_INTR_STRUCT_Type const * base)
 540:Generated_Source\PSoC6\pdl\drivers\peripheral\ipc/cy_ipc_drv.h **** {
 541:Generated_Source\PSoC6\pdl\drivers\peripheral\ipc/cy_ipc_drv.h ****     return REG_IPC_INTR_STRUCT_INTR_MASK(base);
ARM GAS  C:\Users\mattma1\AppData\Local\Temp\ccEG71GX.s 			page 37


 542:Generated_Source\PSoC6\pdl\drivers\peripheral\ipc/cy_ipc_drv.h **** }
 543:Generated_Source\PSoC6\pdl\drivers\peripheral\ipc/cy_ipc_drv.h **** 
 544:Generated_Source\PSoC6\pdl\drivers\peripheral\ipc/cy_ipc_drv.h **** 
 545:Generated_Source\PSoC6\pdl\drivers\peripheral\ipc/cy_ipc_drv.h **** /*******************************************************************************
 546:Generated_Source\PSoC6\pdl\drivers\peripheral\ipc/cy_ipc_drv.h **** * Function Name: Cy_IPC_Drv_GetInterruptStatusMasked
 547:Generated_Source\PSoC6\pdl\drivers\peripheral\ipc/cy_ipc_drv.h **** ****************************************************************************//**
 548:Generated_Source\PSoC6\pdl\drivers\peripheral\ipc/cy_ipc_drv.h **** *
 549:Generated_Source\PSoC6\pdl\drivers\peripheral\ipc/cy_ipc_drv.h **** * This function is used to read the active unmasked interrupt. This function
 550:Generated_Source\PSoC6\pdl\drivers\peripheral\ipc/cy_ipc_drv.h **** * can be used in the interrupt service routine to find which source triggered
 551:Generated_Source\PSoC6\pdl\drivers\peripheral\ipc/cy_ipc_drv.h **** * the interrupt.
 552:Generated_Source\PSoC6\pdl\drivers\peripheral\ipc/cy_ipc_drv.h **** *
 553:Generated_Source\PSoC6\pdl\drivers\peripheral\ipc/cy_ipc_drv.h **** * \param base
 554:Generated_Source\PSoC6\pdl\drivers\peripheral\ipc/cy_ipc_drv.h **** * This is a handle to the IPC interrupt. This handle can be calculated from the
 555:Generated_Source\PSoC6\pdl\drivers\peripheral\ipc/cy_ipc_drv.h **** * IPC interrupt number using \ref Cy_IPC_Drv_GetIntrBaseAddr.
 556:Generated_Source\PSoC6\pdl\drivers\peripheral\ipc/cy_ipc_drv.h **** *
 557:Generated_Source\PSoC6\pdl\drivers\peripheral\ipc/cy_ipc_drv.h **** * \return
 558:Generated_Source\PSoC6\pdl\drivers\peripheral\ipc/cy_ipc_drv.h **** *   The return value is encoded as follows
 559:Generated_Source\PSoC6\pdl\drivers\peripheral\ipc/cy_ipc_drv.h **** *   <table>
 560:Generated_Source\PSoC6\pdl\drivers\peripheral\ipc/cy_ipc_drv.h **** *   <tr><th>Interrupt sources   <th>Value
 561:Generated_Source\PSoC6\pdl\drivers\peripheral\ipc/cy_ipc_drv.h **** *   <tr><td>Ipc_PORTX_RELEASE   <td>Xth bit set
 562:Generated_Source\PSoC6\pdl\drivers\peripheral\ipc/cy_ipc_drv.h **** *   <tr><td>Ipc_PORTX_NOTIFY    <td>X+16th bit set
 563:Generated_Source\PSoC6\pdl\drivers\peripheral\ipc/cy_ipc_drv.h **** *   </table>
 564:Generated_Source\PSoC6\pdl\drivers\peripheral\ipc/cy_ipc_drv.h **** *
