ARM GAS  C:\Users\mattma1\AppData\Local\Temp\ccEtVk7e.s 			page 1


   1              		.syntax unified
   2              		.cpu cortex-m0plus
   3              		.fpu softvfp
   4              		.eabi_attribute 20, 1
   5              		.eabi_attribute 21, 1
   6              		.eabi_attribute 23, 3
   7              		.eabi_attribute 24, 1
   8              		.eabi_attribute 25, 1
   9              		.eabi_attribute 26, 1
  10              		.eabi_attribute 30, 1
  11              		.eabi_attribute 34, 0
  12              		.eabi_attribute 18, 4
  13              		.thumb
  14              		.syntax unified
  15              		.file	"cy_tcpwm_counter.c"
  16              		.text
  17              	.Ltext0:
  18              		.cfi_sections	.debug_frame
  19              		.section	.text.Cy_TCPWM_Counter_Init,"ax",%progbits
  20              		.align	2
  21              		.global	Cy_TCPWM_Counter_Init
  22              		.code	16
  23              		.thumb_func
  24              		.type	Cy_TCPWM_Counter_Init, %function
  25              	Cy_TCPWM_Counter_Init:
  26              	.LFB71:
  27              		.file 1 "Generated_Source\\PSoC6\\pdl\\drivers\\peripheral\\tcpwm\\cy_tcpwm_counter.c"
   1:Generated_Source\PSoC6\pdl\drivers\peripheral\tcpwm/cy_tcpwm_counter.c **** /***************************************************************************//**
   2:Generated_Source\PSoC6\pdl\drivers\peripheral\tcpwm/cy_tcpwm_counter.c **** * \file cy_tcpwm_counter.c
   3:Generated_Source\PSoC6\pdl\drivers\peripheral\tcpwm/cy_tcpwm_counter.c **** * \version 1.10
   4:Generated_Source\PSoC6\pdl\drivers\peripheral\tcpwm/cy_tcpwm_counter.c **** *
   5:Generated_Source\PSoC6\pdl\drivers\peripheral\tcpwm/cy_tcpwm_counter.c **** * \brief
   6:Generated_Source\PSoC6\pdl\drivers\peripheral\tcpwm/cy_tcpwm_counter.c **** *  The source file of the tcpwm driver.
   7:Generated_Source\PSoC6\pdl\drivers\peripheral\tcpwm/cy_tcpwm_counter.c **** *
   8:Generated_Source\PSoC6\pdl\drivers\peripheral\tcpwm/cy_tcpwm_counter.c **** ********************************************************************************
   9:Generated_Source\PSoC6\pdl\drivers\peripheral\tcpwm/cy_tcpwm_counter.c **** * \copyright
  10:Generated_Source\PSoC6\pdl\drivers\peripheral\tcpwm/cy_tcpwm_counter.c **** * Copyright 2016-2018, Cypress Semiconductor Corporation.  All rights reserved.
  11:Generated_Source\PSoC6\pdl\drivers\peripheral\tcpwm/cy_tcpwm_counter.c **** * You may use this file only in accordance with the license, terms, conditions,
  12:Generated_Source\PSoC6\pdl\drivers\peripheral\tcpwm/cy_tcpwm_counter.c **** * disclaimers, and limitations in the end user license agreement accompanying
  13:Generated_Source\PSoC6\pdl\drivers\peripheral\tcpwm/cy_tcpwm_counter.c **** * the software package with which this file was provided.
  14:Generated_Source\PSoC6\pdl\drivers\peripheral\tcpwm/cy_tcpwm_counter.c **** *******************************************************************************/
  15:Generated_Source\PSoC6\pdl\drivers\peripheral\tcpwm/cy_tcpwm_counter.c **** 
  16:Generated_Source\PSoC6\pdl\drivers\peripheral\tcpwm/cy_tcpwm_counter.c **** #include "cy_tcpwm_counter.h"
  17:Generated_Source\PSoC6\pdl\drivers\peripheral\tcpwm/cy_tcpwm_counter.c **** 
  18:Generated_Source\PSoC6\pdl\drivers\peripheral\tcpwm/cy_tcpwm_counter.c **** #ifdef CY_IP_MXTCPWM
  19:Generated_Source\PSoC6\pdl\drivers\peripheral\tcpwm/cy_tcpwm_counter.c **** 
  20:Generated_Source\PSoC6\pdl\drivers\peripheral\tcpwm/cy_tcpwm_counter.c **** #if defined(__cplusplus)
  21:Generated_Source\PSoC6\pdl\drivers\peripheral\tcpwm/cy_tcpwm_counter.c **** extern "C" {
  22:Generated_Source\PSoC6\pdl\drivers\peripheral\tcpwm/cy_tcpwm_counter.c **** #endif
  23:Generated_Source\PSoC6\pdl\drivers\peripheral\tcpwm/cy_tcpwm_counter.c **** 
  24:Generated_Source\PSoC6\pdl\drivers\peripheral\tcpwm/cy_tcpwm_counter.c **** 
  25:Generated_Source\PSoC6\pdl\drivers\peripheral\tcpwm/cy_tcpwm_counter.c **** /*******************************************************************************
  26:Generated_Source\PSoC6\pdl\drivers\peripheral\tcpwm/cy_tcpwm_counter.c **** * Function Name: Cy_TCPWM_Counter_Init
  27:Generated_Source\PSoC6\pdl\drivers\peripheral\tcpwm/cy_tcpwm_counter.c **** ****************************************************************************//**
  28:Generated_Source\PSoC6\pdl\drivers\peripheral\tcpwm/cy_tcpwm_counter.c **** *
  29:Generated_Source\PSoC6\pdl\drivers\peripheral\tcpwm/cy_tcpwm_counter.c **** * Initializes the counter in the TCPWM block for the Counter operation.
  30:Generated_Source\PSoC6\pdl\drivers\peripheral\tcpwm/cy_tcpwm_counter.c **** *
ARM GAS  C:\Users\mattma1\AppData\Local\Temp\ccEtVk7e.s 			page 2


  31:Generated_Source\PSoC6\pdl\drivers\peripheral\tcpwm/cy_tcpwm_counter.c **** * \param base
  32:Generated_Source\PSoC6\pdl\drivers\peripheral\tcpwm/cy_tcpwm_counter.c **** * The pointer to a TCPWM instance.
  33:Generated_Source\PSoC6\pdl\drivers\peripheral\tcpwm/cy_tcpwm_counter.c **** *
  34:Generated_Source\PSoC6\pdl\drivers\peripheral\tcpwm/cy_tcpwm_counter.c **** * \param cntNum
  35:Generated_Source\PSoC6\pdl\drivers\peripheral\tcpwm/cy_tcpwm_counter.c **** * The Counter instance number in the selected TCPWM.
  36:Generated_Source\PSoC6\pdl\drivers\peripheral\tcpwm/cy_tcpwm_counter.c **** *
  37:Generated_Source\PSoC6\pdl\drivers\peripheral\tcpwm/cy_tcpwm_counter.c **** * \param config
  38:Generated_Source\PSoC6\pdl\drivers\peripheral\tcpwm/cy_tcpwm_counter.c **** * The pointer to configuration structure. See \ref cy_stc_tcpwm_counter_config_t.
  39:Generated_Source\PSoC6\pdl\drivers\peripheral\tcpwm/cy_tcpwm_counter.c **** *
  40:Generated_Source\PSoC6\pdl\drivers\peripheral\tcpwm/cy_tcpwm_counter.c **** * \return error / status code. See \ref cy_en_tcpwm_status_t.
  41:Generated_Source\PSoC6\pdl\drivers\peripheral\tcpwm/cy_tcpwm_counter.c **** *
  42:Generated_Source\PSoC6\pdl\drivers\peripheral\tcpwm/cy_tcpwm_counter.c **** * \funcusage
  43:Generated_Source\PSoC6\pdl\drivers\peripheral\tcpwm/cy_tcpwm_counter.c **** * \snippet tcpwm\1.10\counter\snippet\main.c snippet_Cy_TCPWM_Counter_Config
  44:Generated_Source\PSoC6\pdl\drivers\peripheral\tcpwm/cy_tcpwm_counter.c **** * \snippet tcpwm\1.10\counter\snippet\main.c snippet_Cy_TCPWM_Counter_Init
  45:Generated_Source\PSoC6\pdl\drivers\peripheral\tcpwm/cy_tcpwm_counter.c **** *
  46:Generated_Source\PSoC6\pdl\drivers\peripheral\tcpwm/cy_tcpwm_counter.c **** *******************************************************************************/
  47:Generated_Source\PSoC6\pdl\drivers\peripheral\tcpwm/cy_tcpwm_counter.c **** cy_en_tcpwm_status_t Cy_TCPWM_Counter_Init(TCPWM_Type *base, uint32_t cntNum, 
  48:Generated_Source\PSoC6\pdl\drivers\peripheral\tcpwm/cy_tcpwm_counter.c ****                                            cy_stc_tcpwm_counter_config_t const *config)
  49:Generated_Source\PSoC6\pdl\drivers\peripheral\tcpwm/cy_tcpwm_counter.c **** {
  28              		.loc 1 49 0
  29              		.cfi_startproc
  30              		@ args = 0, pretend = 0, frame = 0
  31              		@ frame_needed = 0, uses_anonymous_args = 0
  32              	.LVL0:
  33 0000 70B5     		push	{r4, r5, r6, lr}
  34              		.cfi_def_cfa_offset 16
  35              		.cfi_offset 4, -16
  36              		.cfi_offset 5, -12
  37              		.cfi_offset 6, -8
  38              		.cfi_offset 14, -4
  39              	.LVL1:
  50:Generated_Source\PSoC6\pdl\drivers\peripheral\tcpwm/cy_tcpwm_counter.c ****     cy_en_tcpwm_status_t status = CY_TCPWM_BAD_PARAM;
  51:Generated_Source\PSoC6\pdl\drivers\peripheral\tcpwm/cy_tcpwm_counter.c **** 
  52:Generated_Source\PSoC6\pdl\drivers\peripheral\tcpwm/cy_tcpwm_counter.c ****     if ((NULL != base) && (NULL != config))
  40              		.loc 1 52 0
  41 0002 0028     		cmp	r0, #0
  42 0004 00D1     		bne	.LCB15
  43 0006 93E0     		b	.L9	@long jump
  44              	.LCB15:
  45              		.loc 1 52 0 is_stmt 0 discriminator 1
  46 0008 002A     		cmp	r2, #0
  47 000a 00D1     		bne	.LCB17
  48 000c 92E0     		b	.L10	@long jump
  49              	.LCB17:
  53:Generated_Source\PSoC6\pdl\drivers\peripheral\tcpwm/cy_tcpwm_counter.c ****     {
  54:Generated_Source\PSoC6\pdl\drivers\peripheral\tcpwm/cy_tcpwm_counter.c ****         TCPWM_CNT_CTRL(base, cntNum) = (_VAL2FLD(TCPWM_CNT_CTRL_GENERIC, config->clockPrescaler) |
  50              		.loc 1 54 0 is_stmt 1
  51 000e 5368     		ldr	r3, [r2, #4]
  52 0010 1B06     		lsls	r3, r3, #24
  53 0012 1D0C     		lsrs	r5, r3, #16
  55:Generated_Source\PSoC6\pdl\drivers\peripheral\tcpwm/cy_tcpwm_counter.c ****                                       _VAL2FLD(TCPWM_CNT_CTRL_ONE_SHOT, config->runMode) |
  54              		.loc 1 55 0
  55 0014 9368     		ldr	r3, [r2, #8]
  56 0016 9B04     		lsls	r3, r3, #18
  57 0018 8024     		movs	r4, #128
  58 001a E402     		lsls	r4, r4, #11
  59 001c 2340     		ands	r3, r4
ARM GAS  C:\Users\mattma1\AppData\Local\Temp\ccEtVk7e.s 			page 3


  54:Generated_Source\PSoC6\pdl\drivers\peripheral\tcpwm/cy_tcpwm_counter.c ****                                       _VAL2FLD(TCPWM_CNT_CTRL_ONE_SHOT, config->runMode) |
  60              		.loc 1 54 0
  61 001e 2B43     		orrs	r3, r5
  56:Generated_Source\PSoC6\pdl\drivers\peripheral\tcpwm/cy_tcpwm_counter.c ****                                       _VAL2FLD(TCPWM_CNT_CTRL_UP_DOWN_MODE, config->countDirection)
  62              		.loc 1 56 0
  63 0020 D468     		ldr	r4, [r2, #12]
  64 0022 2504     		lsls	r5, r4, #16
  65 0024 C024     		movs	r4, #192
  66 0026 A402     		lsls	r4, r4, #10
  67 0028 2C40     		ands	r4, r5
  55:Generated_Source\PSoC6\pdl\drivers\peripheral\tcpwm/cy_tcpwm_counter.c ****                                       _VAL2FLD(TCPWM_CNT_CTRL_ONE_SHOT, config->runMode) |
  68              		.loc 1 55 0
  69 002a 2343     		orrs	r3, r4
  57:Generated_Source\PSoC6\pdl\drivers\peripheral\tcpwm/cy_tcpwm_counter.c ****                                       _VAL2FLD(TCPWM_CNT_CTRL_MODE, config->compareOrCapture) |
  70              		.loc 1 57 0
  71 002c 1469     		ldr	r4, [r2, #16]
  72 002e 2506     		lsls	r5, r4, #24
  73 0030 E024     		movs	r4, #224
  74 0032 E404     		lsls	r4, r4, #19
  75 0034 2C40     		ands	r4, r5
  56:Generated_Source\PSoC6\pdl\drivers\peripheral\tcpwm/cy_tcpwm_counter.c ****                                       _VAL2FLD(TCPWM_CNT_CTRL_UP_DOWN_MODE, config->countDirection)
  76              		.loc 1 56 0
  77 0036 2343     		orrs	r3, r4
  58:Generated_Source\PSoC6\pdl\drivers\peripheral\tcpwm/cy_tcpwm_counter.c ****                                       (config->enableCompareSwap ? TCPWM_CNT_CTRL_AUTO_RELOAD_CC_Ms
  78              		.loc 1 58 0
  79 0038 147F     		ldrb	r4, [r2, #28]
  80 003a 002C     		cmp	r4, #0
  81 003c 01D0     		beq	.L11
  82 003e 0124     		movs	r4, #1
  83 0040 00E0     		b	.L3
  84              	.L11:
  85 0042 0024     		movs	r4, #0
  86              	.L3:
  57:Generated_Source\PSoC6\pdl\drivers\peripheral\tcpwm/cy_tcpwm_counter.c ****                                       _VAL2FLD(TCPWM_CNT_CTRL_MODE, config->compareOrCapture) |
  87              		.loc 1 57 0
  88 0044 2343     		orrs	r3, r4
  54:Generated_Source\PSoC6\pdl\drivers\peripheral\tcpwm/cy_tcpwm_counter.c ****                                       _VAL2FLD(TCPWM_CNT_CTRL_ONE_SHOT, config->runMode) |
  89              		.loc 1 54 0
  90 0046 0C1D     		adds	r4, r1, #4
  91 0048 A401     		lsls	r4, r4, #6
  92 004a 2350     		str	r3, [r4, r0]
  59:Generated_Source\PSoC6\pdl\drivers\peripheral\tcpwm/cy_tcpwm_counter.c **** 
  60:Generated_Source\PSoC6\pdl\drivers\peripheral\tcpwm/cy_tcpwm_counter.c ****         if (CY_TCPWM_COUNTER_COUNT_UP == config->countDirection)
  93              		.loc 1 60 0
  94 004c D368     		ldr	r3, [r2, #12]
  95 004e 002B     		cmp	r3, #0
  96 0050 06D1     		bne	.L4
  61:Generated_Source\PSoC6\pdl\drivers\peripheral\tcpwm/cy_tcpwm_counter.c ****         {
  62:Generated_Source\PSoC6\pdl\drivers\peripheral\tcpwm/cy_tcpwm_counter.c ****             TCPWM_CNT_COUNTER(base, cntNum) = CY_TCPWM_CNT_UP_INIT_VAL;
  97              		.loc 1 62 0
  98 0052 8B01     		lsls	r3, r1, #6
  99 0054 C318     		adds	r3, r0, r3
 100 0056 0933     		adds	r3, r3, #9
 101 0058 FF33     		adds	r3, r3, #255
 102 005a 0024     		movs	r4, #0
 103 005c 1C60     		str	r4, [r3]
 104 005e 0EE0     		b	.L5
ARM GAS  C:\Users\mattma1\AppData\Local\Temp\ccEtVk7e.s 			page 4


 105              	.L4:
  63:Generated_Source\PSoC6\pdl\drivers\peripheral\tcpwm/cy_tcpwm_counter.c ****         }
  64:Generated_Source\PSoC6\pdl\drivers\peripheral\tcpwm/cy_tcpwm_counter.c ****         else if (CY_TCPWM_COUNTER_COUNT_DOWN == config->countDirection)
 106              		.loc 1 64 0
 107 0060 012B     		cmp	r3, #1
 108 0062 06D1     		bne	.L6
  65:Generated_Source\PSoC6\pdl\drivers\peripheral\tcpwm/cy_tcpwm_counter.c ****         {
  66:Generated_Source\PSoC6\pdl\drivers\peripheral\tcpwm/cy_tcpwm_counter.c ****             TCPWM_CNT_COUNTER(base, cntNum) = config->period;
 109              		.loc 1 66 0
 110 0064 8B01     		lsls	r3, r1, #6
 111 0066 C318     		adds	r3, r0, r3
 112 0068 0933     		adds	r3, r3, #9
 113 006a FF33     		adds	r3, r3, #255
 114 006c 1468     		ldr	r4, [r2]
 115 006e 1C60     		str	r4, [r3]
 116 0070 05E0     		b	.L5
 117              	.L6:
  67:Generated_Source\PSoC6\pdl\drivers\peripheral\tcpwm/cy_tcpwm_counter.c ****         }
  68:Generated_Source\PSoC6\pdl\drivers\peripheral\tcpwm/cy_tcpwm_counter.c ****         else
  69:Generated_Source\PSoC6\pdl\drivers\peripheral\tcpwm/cy_tcpwm_counter.c ****         {
  70:Generated_Source\PSoC6\pdl\drivers\peripheral\tcpwm/cy_tcpwm_counter.c ****             TCPWM_CNT_COUNTER(base, cntNum) = CY_TCPWM_CNT_UP_DOWN_INIT_VAL;
 118              		.loc 1 70 0
 119 0072 8B01     		lsls	r3, r1, #6
 120 0074 C318     		adds	r3, r0, r3
 121 0076 0933     		adds	r3, r3, #9
 122 0078 FF33     		adds	r3, r3, #255
 123 007a 0124     		movs	r4, #1
 124 007c 1C60     		str	r4, [r3]
 125              	.L5:
  71:Generated_Source\PSoC6\pdl\drivers\peripheral\tcpwm/cy_tcpwm_counter.c ****         }
  72:Generated_Source\PSoC6\pdl\drivers\peripheral\tcpwm/cy_tcpwm_counter.c **** 
  73:Generated_Source\PSoC6\pdl\drivers\peripheral\tcpwm/cy_tcpwm_counter.c ****         if (CY_TCPWM_COUNTER_MODE_COMPARE == config->compareOrCapture)
 126              		.loc 1 73 0
 127 007e 1369     		ldr	r3, [r2, #16]
 128 0080 002B     		cmp	r3, #0
 129 0082 0AD1     		bne	.L7
  74:Generated_Source\PSoC6\pdl\drivers\peripheral\tcpwm/cy_tcpwm_counter.c ****         {
  75:Generated_Source\PSoC6\pdl\drivers\peripheral\tcpwm/cy_tcpwm_counter.c ****             TCPWM_CNT_CC(base, cntNum) = config->compare0;
 130              		.loc 1 75 0
 131 0084 8B01     		lsls	r3, r1, #6
 132 0086 C318     		adds	r3, r0, r3
 133 0088 1C00     		movs	r4, r3
 134 008a 0D34     		adds	r4, r4, #13
 135 008c FF34     		adds	r4, r4, #255
 136 008e 5569     		ldr	r5, [r2, #20]
 137 0090 2560     		str	r5, [r4]
  76:Generated_Source\PSoC6\pdl\drivers\peripheral\tcpwm/cy_tcpwm_counter.c ****             TCPWM_CNT_CC_BUFF(base, cntNum) = config->compare1;
 138              		.loc 1 76 0
 139 0092 1133     		adds	r3, r3, #17
 140 0094 FF33     		adds	r3, r3, #255
 141 0096 9469     		ldr	r4, [r2, #24]
 142 0098 1C60     		str	r4, [r3]
 143              	.L7:
  77:Generated_Source\PSoC6\pdl\drivers\peripheral\tcpwm/cy_tcpwm_counter.c ****         }
  78:Generated_Source\PSoC6\pdl\drivers\peripheral\tcpwm/cy_tcpwm_counter.c **** 
  79:Generated_Source\PSoC6\pdl\drivers\peripheral\tcpwm/cy_tcpwm_counter.c ****         TCPWM_CNT_PERIOD(base, cntNum) = config->period;
 144              		.loc 1 79 0
ARM GAS  C:\Users\mattma1\AppData\Local\Temp\ccEtVk7e.s 			page 5


 145 009a 8B01     		lsls	r3, r1, #6
 146 009c C318     		adds	r3, r0, r3
 147 009e 1533     		adds	r3, r3, #21
 148 00a0 FF33     		adds	r3, r3, #255
 149 00a2 1468     		ldr	r4, [r2]
 150 00a4 1C60     		str	r4, [r3]
  80:Generated_Source\PSoC6\pdl\drivers\peripheral\tcpwm/cy_tcpwm_counter.c **** 
  81:Generated_Source\PSoC6\pdl\drivers\peripheral\tcpwm/cy_tcpwm_counter.c ****         if (CY_TCPWM_INPUT_CREATOR != config->countInput)
 151              		.loc 1 81 0
 152 00a6 936C     		ldr	r3, [r2, #72]
 153 00a8 5C1C     		adds	r4, r3, #1
 154 00aa 1BD0     		beq	.L8
  82:Generated_Source\PSoC6\pdl\drivers\peripheral\tcpwm/cy_tcpwm_counter.c ****         {
  83:Generated_Source\PSoC6\pdl\drivers\peripheral\tcpwm/cy_tcpwm_counter.c ****             TCPWM_CNT_TR_CTRL0(base, cntNum) = (_VAL2FLD(TCPWM_CNT_TR_CTRL0_CAPTURE_SEL, config->ca
 155              		.loc 1 83 0
 156 00ac 0F25     		movs	r5, #15
 157 00ae 966A     		ldr	r6, [r2, #40]
 158 00b0 2E40     		ands	r6, r5
  84:Generated_Source\PSoC6\pdl\drivers\peripheral\tcpwm/cy_tcpwm_counter.c ****                                               _VAL2FLD(TCPWM_CNT_TR_CTRL0_RELOAD_SEL, config->reloa
 159              		.loc 1 84 0
 160 00b2 146B     		ldr	r4, [r2, #48]
 161 00b4 2502     		lsls	r5, r4, #8
 162 00b6 F024     		movs	r4, #240
 163 00b8 2401     		lsls	r4, r4, #4
 164 00ba 2540     		ands	r5, r4
  83:Generated_Source\PSoC6\pdl\drivers\peripheral\tcpwm/cy_tcpwm_counter.c ****                                               _VAL2FLD(TCPWM_CNT_TR_CTRL0_RELOAD_SEL, config->reloa
 165              		.loc 1 83 0
 166 00bc 3543     		orrs	r5, r6
  85:Generated_Source\PSoC6\pdl\drivers\peripheral\tcpwm/cy_tcpwm_counter.c ****                                               _VAL2FLD(TCPWM_CNT_TR_CTRL0_START_SEL, config->startI
 167              		.loc 1 85 0
 168 00be 946B     		ldr	r4, [r2, #56]
 169 00c0 2604     		lsls	r6, r4, #16
 170 00c2 F024     		movs	r4, #240
 171 00c4 2403     		lsls	r4, r4, #12
 172 00c6 3440     		ands	r4, r6
  84:Generated_Source\PSoC6\pdl\drivers\peripheral\tcpwm/cy_tcpwm_counter.c ****                                               _VAL2FLD(TCPWM_CNT_TR_CTRL0_RELOAD_SEL, config->reloa
 173              		.loc 1 84 0
 174 00c8 2543     		orrs	r5, r4
  86:Generated_Source\PSoC6\pdl\drivers\peripheral\tcpwm/cy_tcpwm_counter.c ****                                               _VAL2FLD(TCPWM_CNT_TR_CTRL0_STOP_SEL, config->stopInp
 175              		.loc 1 86 0
 176 00ca 146C     		ldr	r4, [r2, #64]
 177 00cc 2407     		lsls	r4, r4, #28
 178 00ce 240C     		lsrs	r4, r4, #16
  85:Generated_Source\PSoC6\pdl\drivers\peripheral\tcpwm/cy_tcpwm_counter.c ****                                               _VAL2FLD(TCPWM_CNT_TR_CTRL0_START_SEL, config->startI
 179              		.loc 1 85 0
 180 00d0 2543     		orrs	r5, r4
  87:Generated_Source\PSoC6\pdl\drivers\peripheral\tcpwm/cy_tcpwm_counter.c ****                                               _VAL2FLD(TCPWM_CNT_TR_CTRL0_COUNT_SEL, config->countI
 181              		.loc 1 87 0
 182 00d2 1C01     		lsls	r4, r3, #4
 183 00d4 FF23     		movs	r3, #255
 184 00d6 2340     		ands	r3, r4
  86:Generated_Source\PSoC6\pdl\drivers\peripheral\tcpwm/cy_tcpwm_counter.c ****                                               _VAL2FLD(TCPWM_CNT_TR_CTRL0_STOP_SEL, config->stopInp
 185              		.loc 1 86 0
 186 00d8 2B43     		orrs	r3, r5
  83:Generated_Source\PSoC6\pdl\drivers\peripheral\tcpwm/cy_tcpwm_counter.c ****                                               _VAL2FLD(TCPWM_CNT_TR_CTRL0_RELOAD_SEL, config->reloa
 187              		.loc 1 83 0
 188 00da 8C01     		lsls	r4, r1, #6
ARM GAS  C:\Users\mattma1\AppData\Local\Temp\ccEtVk7e.s 			page 6


 189 00dc 0419     		adds	r4, r0, r4
 190 00de 2134     		adds	r4, r4, #33
 191 00e0 FF34     		adds	r4, r4, #255
 192 00e2 2360     		str	r3, [r4]
 193              	.L8:
  88:Generated_Source\PSoC6\pdl\drivers\peripheral\tcpwm/cy_tcpwm_counter.c ****         }
  89:Generated_Source\PSoC6\pdl\drivers\peripheral\tcpwm/cy_tcpwm_counter.c **** 
  90:Generated_Source\PSoC6\pdl\drivers\peripheral\tcpwm/cy_tcpwm_counter.c ****         TCPWM_CNT_TR_CTRL1(base, cntNum) = (_VAL2FLD(TCPWM_CNT_TR_CTRL1_CAPTURE_EDGE, config->captu
 194              		.loc 1 90 0
 195 00e4 0324     		movs	r4, #3
 196 00e6 556A     		ldr	r5, [r2, #36]
 197 00e8 2540     		ands	r5, r4
  91:Generated_Source\PSoC6\pdl\drivers\peripheral\tcpwm/cy_tcpwm_counter.c ****                                           _VAL2FLD(TCPWM_CNT_TR_CTRL1_RELOAD_EDGE, config->reloadIn
 198              		.loc 1 91 0
 199 00ea D36A     		ldr	r3, [r2, #44]
 200 00ec 1E01     		lsls	r6, r3, #4
 201 00ee 2D34     		adds	r4, r4, #45
 202 00f0 3440     		ands	r4, r6
  90:Generated_Source\PSoC6\pdl\drivers\peripheral\tcpwm/cy_tcpwm_counter.c ****                                           _VAL2FLD(TCPWM_CNT_TR_CTRL1_RELOAD_EDGE, config->reloadIn
 203              		.loc 1 90 0
 204 00f2 2C43     		orrs	r4, r5
  92:Generated_Source\PSoC6\pdl\drivers\peripheral\tcpwm/cy_tcpwm_counter.c ****                                           _VAL2FLD(TCPWM_CNT_TR_CTRL1_START_EDGE, config->startInpu
 205              		.loc 1 92 0
 206 00f4 536B     		ldr	r3, [r2, #52]
 207 00f6 1D02     		lsls	r5, r3, #8
 208 00f8 C023     		movs	r3, #192
 209 00fa 9B00     		lsls	r3, r3, #2
 210 00fc 2B40     		ands	r3, r5
  91:Generated_Source\PSoC6\pdl\drivers\peripheral\tcpwm/cy_tcpwm_counter.c ****                                           _VAL2FLD(TCPWM_CNT_TR_CTRL1_RELOAD_EDGE, config->reloadIn
 211              		.loc 1 91 0
 212 00fe 2343     		orrs	r3, r4
  93:Generated_Source\PSoC6\pdl\drivers\peripheral\tcpwm/cy_tcpwm_counter.c ****                                           _VAL2FLD(TCPWM_CNT_TR_CTRL1_STOP_EDGE, config->stopInputM
 213              		.loc 1 93 0
 214 0100 D46B     		ldr	r4, [r2, #60]
 215 0102 A401     		lsls	r4, r4, #6
 216 0104 FF25     		movs	r5, #255
 217 0106 2C40     		ands	r4, r5
  92:Generated_Source\PSoC6\pdl\drivers\peripheral\tcpwm/cy_tcpwm_counter.c ****                                           _VAL2FLD(TCPWM_CNT_TR_CTRL1_START_EDGE, config->startInpu
 218              		.loc 1 92 0
 219 0108 2343     		orrs	r3, r4
 220 010a 1D00     		movs	r5, r3
  94:Generated_Source\PSoC6\pdl\drivers\peripheral\tcpwm/cy_tcpwm_counter.c ****                                           _VAL2FLD(TCPWM_CNT_TR_CTRL1_COUNT_EDGE, config->countInpu
 221              		.loc 1 94 0
 222 010c 536C     		ldr	r3, [r2, #68]
 223 010e 9C00     		lsls	r4, r3, #2
 224 0110 0C23     		movs	r3, #12
 225 0112 1C40     		ands	r4, r3
  93:Generated_Source\PSoC6\pdl\drivers\peripheral\tcpwm/cy_tcpwm_counter.c ****                                           _VAL2FLD(TCPWM_CNT_TR_CTRL1_STOP_EDGE, config->stopInputM
 226              		.loc 1 93 0
 227 0114 2B00     		movs	r3, r5
 228 0116 2343     		orrs	r3, r4
  90:Generated_Source\PSoC6\pdl\drivers\peripheral\tcpwm/cy_tcpwm_counter.c ****                                           _VAL2FLD(TCPWM_CNT_TR_CTRL1_RELOAD_EDGE, config->reloadIn
 229              		.loc 1 90 0
 230 0118 8901     		lsls	r1, r1, #6
 231              	.LVL2:
 232 011a 4118     		adds	r1, r0, r1
 233 011c 0800     		movs	r0, r1
ARM GAS  C:\Users\mattma1\AppData\Local\Temp\ccEtVk7e.s 			page 7


 234              	.LVL3:
 235 011e 2530     		adds	r0, r0, #37
 236 0120 FF30     		adds	r0, r0, #255
 237 0122 0360     		str	r3, [r0]
  95:Generated_Source\PSoC6\pdl\drivers\peripheral\tcpwm/cy_tcpwm_counter.c **** 
  96:Generated_Source\PSoC6\pdl\drivers\peripheral\tcpwm/cy_tcpwm_counter.c ****         TCPWM_CNT_INTR_MASK(base, cntNum) = config->interruptSources;
 238              		.loc 1 96 0
 239 0124 136A     		ldr	r3, [r2, #32]
 240 0126 3931     		adds	r1, r1, #57
 241 0128 FF31     		adds	r1, r1, #255
 242 012a 0B60     		str	r3, [r1]
 243              	.LVL4:
  97:Generated_Source\PSoC6\pdl\drivers\peripheral\tcpwm/cy_tcpwm_counter.c **** 
  98:Generated_Source\PSoC6\pdl\drivers\peripheral\tcpwm/cy_tcpwm_counter.c ****         status = CY_TCPWM_SUCCESS;
 244              		.loc 1 98 0
 245 012c 0020     		movs	r0, #0
 246 012e 02E0     		b	.L2
 247              	.LVL5:
 248              	.L9:
  50:Generated_Source\PSoC6\pdl\drivers\peripheral\tcpwm/cy_tcpwm_counter.c **** 
 249              		.loc 1 50 0
 250 0130 0148     		ldr	r0, .L12
 251              	.LVL6:
 252 0132 00E0     		b	.L2
 253              	.LVL7:
 254              	.L10:
 255 0134 0048     		ldr	r0, .L12
 256              	.LVL8:
 257              	.L2:
  99:Generated_Source\PSoC6\pdl\drivers\peripheral\tcpwm/cy_tcpwm_counter.c ****     }
 100:Generated_Source\PSoC6\pdl\drivers\peripheral\tcpwm/cy_tcpwm_counter.c **** 
 101:Generated_Source\PSoC6\pdl\drivers\peripheral\tcpwm/cy_tcpwm_counter.c ****     return(status);
 102:Generated_Source\PSoC6\pdl\drivers\peripheral\tcpwm/cy_tcpwm_counter.c **** }
 258              		.loc 1 102 0
 259              		@ sp needed
 260 0136 70BD     		pop	{r4, r5, r6, pc}
 261              	.L13:
 262              		.align	2
 263              	.L12:
 264 0138 0100B600 		.word	11927553
 265              		.cfi_endproc
 266              	.LFE71:
 267              		.size	Cy_TCPWM_Counter_Init, .-Cy_TCPWM_Counter_Init
 268              		.section	.text.Cy_TCPWM_Counter_DeInit,"ax",%progbits
 269              		.align	2
 270              		.global	Cy_TCPWM_Counter_DeInit
 271              		.code	16
 272              		.thumb_func
 273              		.type	Cy_TCPWM_Counter_DeInit, %function
 274              	Cy_TCPWM_Counter_DeInit:
 275              	.LFB72:
 103:Generated_Source\PSoC6\pdl\drivers\peripheral\tcpwm/cy_tcpwm_counter.c **** 
 104:Generated_Source\PSoC6\pdl\drivers\peripheral\tcpwm/cy_tcpwm_counter.c **** 
 105:Generated_Source\PSoC6\pdl\drivers\peripheral\tcpwm/cy_tcpwm_counter.c **** /*******************************************************************************
 106:Generated_Source\PSoC6\pdl\drivers\peripheral\tcpwm/cy_tcpwm_counter.c **** * Function Name: Cy_TCPWM_Counter_DeInit
 107:Generated_Source\PSoC6\pdl\drivers\peripheral\tcpwm/cy_tcpwm_counter.c **** ****************************************************************************//**
 108:Generated_Source\PSoC6\pdl\drivers\peripheral\tcpwm/cy_tcpwm_counter.c **** *
ARM GAS  C:\Users\mattma1\AppData\Local\Temp\ccEtVk7e.s 			page 8


 109:Generated_Source\PSoC6\pdl\drivers\peripheral\tcpwm/cy_tcpwm_counter.c **** * De-initializes the counter in the TCPWM block, returns register values to 
 110:Generated_Source\PSoC6\pdl\drivers\peripheral\tcpwm/cy_tcpwm_counter.c **** * default.
 111:Generated_Source\PSoC6\pdl\drivers\peripheral\tcpwm/cy_tcpwm_counter.c **** *
 112:Generated_Source\PSoC6\pdl\drivers\peripheral\tcpwm/cy_tcpwm_counter.c **** * \param base
 113:Generated_Source\PSoC6\pdl\drivers\peripheral\tcpwm/cy_tcpwm_counter.c **** * The pointer to a TCPWM instance.
 114:Generated_Source\PSoC6\pdl\drivers\peripheral\tcpwm/cy_tcpwm_counter.c **** *
 115:Generated_Source\PSoC6\pdl\drivers\peripheral\tcpwm/cy_tcpwm_counter.c **** * \param cntNum
 116:Generated_Source\PSoC6\pdl\drivers\peripheral\tcpwm/cy_tcpwm_counter.c **** * The Counter instance number in the selected TCPWM.
 117:Generated_Source\PSoC6\pdl\drivers\peripheral\tcpwm/cy_tcpwm_counter.c **** *
 118:Generated_Source\PSoC6\pdl\drivers\peripheral\tcpwm/cy_tcpwm_counter.c **** * \param config
 119:Generated_Source\PSoC6\pdl\drivers\peripheral\tcpwm/cy_tcpwm_counter.c **** * The pointer to configuration structure. See \ref cy_stc_tcpwm_counter_config_t.
 120:Generated_Source\PSoC6\pdl\drivers\peripheral\tcpwm/cy_tcpwm_counter.c **** *
 121:Generated_Source\PSoC6\pdl\drivers\peripheral\tcpwm/cy_tcpwm_counter.c **** * \funcusage
 122:Generated_Source\PSoC6\pdl\drivers\peripheral\tcpwm/cy_tcpwm_counter.c **** * \snippet tcpwm\1.10\counter\snippet\main.c snippet_Cy_TCPWM_Counter_DeInit
 123:Generated_Source\PSoC6\pdl\drivers\peripheral\tcpwm/cy_tcpwm_counter.c **** *
 124:Generated_Source\PSoC6\pdl\drivers\peripheral\tcpwm/cy_tcpwm_counter.c **** *******************************************************************************/
 125:Generated_Source\PSoC6\pdl\drivers\peripheral\tcpwm/cy_tcpwm_counter.c **** void Cy_TCPWM_Counter_DeInit(TCPWM_Type *base, uint32_t cntNum, cy_stc_tcpwm_counter_config_t const
 126:Generated_Source\PSoC6\pdl\drivers\peripheral\tcpwm/cy_tcpwm_counter.c **** {
 276              		.loc 1 126 0
 277              		.cfi_startproc
 278              		@ args = 0, pretend = 0, frame = 0
 279              		@ frame_needed = 0, uses_anonymous_args = 0
 280              	.LVL9:
 281 0000 70B5     		push	{r4, r5, r6, lr}
 282              		.cfi_def_cfa_offset 16
 283              		.cfi_offset 4, -16
 284              		.cfi_offset 5, -12
 285              		.cfi_offset 6, -8
 286              		.cfi_offset 14, -4
 127:Generated_Source\PSoC6\pdl\drivers\peripheral\tcpwm/cy_tcpwm_counter.c ****     TCPWM_CNT_CTRL(base, cntNum) = CY_TCPWM_CNT_CTRL_DEFAULT;
 287              		.loc 1 127 0
 288 0002 0B1D     		adds	r3, r1, #4
 289 0004 9B01     		lsls	r3, r3, #6
 290 0006 0024     		movs	r4, #0
 291 0008 1C50     		str	r4, [r3, r0]
 128:Generated_Source\PSoC6\pdl\drivers\peripheral\tcpwm/cy_tcpwm_counter.c ****     TCPWM_CNT_COUNTER(base, cntNum) = CY_TCPWM_CNT_COUNTER_DEFAULT;
 292              		.loc 1 128 0
 293 000a 8B01     		lsls	r3, r1, #6
 294 000c C318     		adds	r3, r0, r3
 295 000e 1D00     		movs	r5, r3
 296 0010 0935     		adds	r5, r5, #9
 297 0012 FF35     		adds	r5, r5, #255
 298 0014 2C60     		str	r4, [r5]
 129:Generated_Source\PSoC6\pdl\drivers\peripheral\tcpwm/cy_tcpwm_counter.c ****     TCPWM_CNT_CC(base, cntNum) = CY_TCPWM_CNT_CC_DEFAULT;
 299              		.loc 1 129 0
 300 0016 1E00     		movs	r6, r3
 301 0018 0D36     		adds	r6, r6, #13
 302 001a FF36     		adds	r6, r6, #255
 303 001c 0125     		movs	r5, #1
 304 001e 6D42     		rsbs	r5, r5, #0
 305 0020 3560     		str	r5, [r6]
 130:Generated_Source\PSoC6\pdl\drivers\peripheral\tcpwm/cy_tcpwm_counter.c ****     TCPWM_CNT_CC_BUFF(base, cntNum) = CY_TCPWM_CNT_CC_BUFF_DEFAULT;
 306              		.loc 1 130 0
 307 0022 0436     		adds	r6, r6, #4
 308 0024 3560     		str	r5, [r6]
 131:Generated_Source\PSoC6\pdl\drivers\peripheral\tcpwm/cy_tcpwm_counter.c ****     TCPWM_CNT_PERIOD(base, cntNum) = CY_TCPWM_CNT_PERIOD_DEFAULT;
 309              		.loc 1 131 0
ARM GAS  C:\Users\mattma1\AppData\Local\Temp\ccEtVk7e.s 			page 9


 310 0026 0436     		adds	r6, r6, #4
 311 0028 3560     		str	r5, [r6]
 132:Generated_Source\PSoC6\pdl\drivers\peripheral\tcpwm/cy_tcpwm_counter.c ****     TCPWM_CNT_PERIOD_BUFF(base, cntNum) = CY_TCPWM_CNT_PERIOD_BUFF_DEFAULT;
 312              		.loc 1 132 0
 313 002a 0436     		adds	r6, r6, #4
 314 002c 3560     		str	r5, [r6]
 133:Generated_Source\PSoC6\pdl\drivers\peripheral\tcpwm/cy_tcpwm_counter.c ****     TCPWM_CNT_TR_CTRL1(base, cntNum) = CY_TCPWM_CNT_TR_CTRL1_DEFAULT;
 315              		.loc 1 133 0
 316 002e 1D00     		movs	r5, r3
 317 0030 2535     		adds	r5, r5, #37
 318 0032 FF35     		adds	r5, r5, #255
 319 0034 0B4E     		ldr	r6, .L16
 320 0036 2E60     		str	r6, [r5]
 134:Generated_Source\PSoC6\pdl\drivers\peripheral\tcpwm/cy_tcpwm_counter.c ****     TCPWM_CNT_TR_CTRL2(base, cntNum) = CY_TCPWM_CNT_TR_CTRL2_DEFAULT;
 321              		.loc 1 134 0
 322 0038 0435     		adds	r5, r5, #4
 323 003a 3F26     		movs	r6, #63
 324 003c 2E60     		str	r6, [r5]
 135:Generated_Source\PSoC6\pdl\drivers\peripheral\tcpwm/cy_tcpwm_counter.c ****     TCPWM_CNT_INTR(base, cntNum) = CY_TCPWM_CNT_INTR_DEFAULT;
 325              		.loc 1 135 0
 326 003e 0835     		adds	r5, r5, #8
 327 0040 3C3E     		subs	r6, r6, #60
 328 0042 2E60     		str	r6, [r5]
 136:Generated_Source\PSoC6\pdl\drivers\peripheral\tcpwm/cy_tcpwm_counter.c ****     TCPWM_CNT_INTR_SET(base, cntNum) = CY_TCPWM_CNT_INTR_SET_DEFAULT;
 329              		.loc 1 136 0
 330 0044 0435     		adds	r5, r5, #4
 331 0046 2C60     		str	r4, [r5]
 137:Generated_Source\PSoC6\pdl\drivers\peripheral\tcpwm/cy_tcpwm_counter.c ****     TCPWM_CNT_INTR_MASK(base, cntNum) = CY_TCPWM_CNT_INTR_MASK_DEFAULT;
 332              		.loc 1 137 0
 333 0048 3933     		adds	r3, r3, #57
 334 004a FF33     		adds	r3, r3, #255
 335 004c 1C60     		str	r4, [r3]
 138:Generated_Source\PSoC6\pdl\drivers\peripheral\tcpwm/cy_tcpwm_counter.c ****     
 139:Generated_Source\PSoC6\pdl\drivers\peripheral\tcpwm/cy_tcpwm_counter.c ****     if (CY_TCPWM_INPUT_CREATOR != config->countInput)
 336              		.loc 1 139 0
 337 004e 936C     		ldr	r3, [r2, #72]
 338 0050 0133     		adds	r3, r3, #1
 339 0052 05D0     		beq	.L14
 140:Generated_Source\PSoC6\pdl\drivers\peripheral\tcpwm/cy_tcpwm_counter.c ****     {
 141:Generated_Source\PSoC6\pdl\drivers\peripheral\tcpwm/cy_tcpwm_counter.c ****         TCPWM_CNT_TR_CTRL0(base, cntNum) = CY_TCPWM_CNT_TR_CTRL0_DEFAULT;
 340              		.loc 1 141 0
 341 0054 8901     		lsls	r1, r1, #6
 342              	.LVL10:
 343 0056 4118     		adds	r1, r0, r1
 344 0058 2131     		adds	r1, r1, #33
 345 005a FF31     		adds	r1, r1, #255
 346 005c 1023     		movs	r3, #16
 347 005e 0B60     		str	r3, [r1]
 348              	.L14:
 142:Generated_Source\PSoC6\pdl\drivers\peripheral\tcpwm/cy_tcpwm_counter.c ****     }
 143:Generated_Source\PSoC6\pdl\drivers\peripheral\tcpwm/cy_tcpwm_counter.c **** }
 349              		.loc 1 143 0
 350              		@ sp needed
 351 0060 70BD     		pop	{r4, r5, r6, pc}
 352              	.L17:
 353 0062 C046     		.align	2
 354              	.L16:
ARM GAS  C:\Users\mattma1\AppData\Local\Temp\ccEtVk7e.s 			page 10


 355 0064 FF030000 		.word	1023
 356              		.cfi_endproc
 357              	.LFE72:
 358              		.size	Cy_TCPWM_Counter_DeInit, .-Cy_TCPWM_Counter_DeInit
 359              		.text
 360              	.Letext0:
 361              		.file 2 "c:\\program files (x86)\\cypress\\psoc creator\\4.3\\psoc creator\\import\\gnu\\arm\\5.4.
 362              		.file 3 "c:\\program files (x86)\\cypress\\psoc creator\\4.3\\psoc creator\\import\\gnu\\arm\\5.4.
 363              		.file 4 "Generated_Source\\PSoC6\\pdl\\devices/psoc6/include/ip/cyip_tcpwm.h"
 364              		.file 5 "Generated_Source\\PSoC6\\pdl\\devices/psoc6/include/psoc6_01_config.h"
 365              		.file 6 "Generated_Source\\PSoC6\\pdl\\drivers\\peripheral\\tcpwm\\cy_tcpwm.h"
 366              		.file 7 "Generated_Source\\PSoC6\\pdl\\drivers\\peripheral\\tcpwm\\cy_tcpwm_counter.h"
