ARM GAS  C:\Users\mattma1\AppData\Local\Temp\cchZ2NYx.s 			page 1


   1              		.syntax unified
   2              		.cpu cortex-m0plus
   3              		.fpu softvfp
   4              		.eabi_attribute 20, 1
   5              		.eabi_attribute 21, 1
   6              		.eabi_attribute 23, 3
   7              		.eabi_attribute 24, 1
   8              		.eabi_attribute 25, 1
   9              		.eabi_attribute 26, 1
  10              		.eabi_attribute 30, 1
  11              		.eabi_attribute 34, 0
  12              		.eabi_attribute 18, 4
  13              		.thumb
  14              		.syntax unified
  15              		.file	"cy_ipc_sema.c"
  16              		.text
  17              	.Ltext0:
  18              		.cfi_sections	.debug_frame
  19              		.section	.text.Cy_IPC_Sema_InitExt,"ax",%progbits
  20              		.align	2
  21              		.global	Cy_IPC_Sema_InitExt
  22              		.code	16
  23              		.thumb_func
  24              		.type	Cy_IPC_Sema_InitExt, %function
  25              	Cy_IPC_Sema_InitExt:
  26              	.LFB65:
  27              		.file 1 "Generated_Source\\PSoC6\\pdl\\drivers\\peripheral\\ipc\\cy_ipc_sema.c"
   1:Generated_Source\PSoC6\pdl\drivers\peripheral\ipc/cy_ipc_sema.c **** /***************************************************************************//**
   2:Generated_Source\PSoC6\pdl\drivers\peripheral\ipc/cy_ipc_sema.c **** * \file cy_ipc_sema.c
   3:Generated_Source\PSoC6\pdl\drivers\peripheral\ipc/cy_ipc_sema.c **** * \version 1.30
   4:Generated_Source\PSoC6\pdl\drivers\peripheral\ipc/cy_ipc_sema.c **** *
   5:Generated_Source\PSoC6\pdl\drivers\peripheral\ipc/cy_ipc_sema.c **** *  Description:
   6:Generated_Source\PSoC6\pdl\drivers\peripheral\ipc/cy_ipc_sema.c **** *   IPC Semaphore Driver - This source file contains the source code for the
   7:Generated_Source\PSoC6\pdl\drivers\peripheral\ipc/cy_ipc_sema.c **** *   semaphore level APIs for the IPC interface.
   8:Generated_Source\PSoC6\pdl\drivers\peripheral\ipc/cy_ipc_sema.c **** *
   9:Generated_Source\PSoC6\pdl\drivers\peripheral\ipc/cy_ipc_sema.c **** ********************************************************************************
  10:Generated_Source\PSoC6\pdl\drivers\peripheral\ipc/cy_ipc_sema.c **** * Copyright 2016-2018, Cypress Semiconductor Corporation.  All rights reserved.
  11:Generated_Source\PSoC6\pdl\drivers\peripheral\ipc/cy_ipc_sema.c **** * You may use this file only in accordance with the license, terms, conditions,
  12:Generated_Source\PSoC6\pdl\drivers\peripheral\ipc/cy_ipc_sema.c **** * disclaimers, and limitations in the end user license agreement accompanying
  13:Generated_Source\PSoC6\pdl\drivers\peripheral\ipc/cy_ipc_sema.c **** * the software package with which this file was provided.
  14:Generated_Source\PSoC6\pdl\drivers\peripheral\ipc/cy_ipc_sema.c **** *******************************************************************************/
  15:Generated_Source\PSoC6\pdl\drivers\peripheral\ipc/cy_ipc_sema.c **** 
  16:Generated_Source\PSoC6\pdl\drivers\peripheral\ipc/cy_ipc_sema.c **** #include "cy_ipc_drv.h"
  17:Generated_Source\PSoC6\pdl\drivers\peripheral\ipc/cy_ipc_sema.c **** #include "cy_ipc_sema.h"
  18:Generated_Source\PSoC6\pdl\drivers\peripheral\ipc/cy_ipc_sema.c **** #include "cy_syslib.h"
  19:Generated_Source\PSoC6\pdl\drivers\peripheral\ipc/cy_ipc_sema.c **** #include <string.h> /* The memset() definition */
  20:Generated_Source\PSoC6\pdl\drivers\peripheral\ipc/cy_ipc_sema.c **** 
  21:Generated_Source\PSoC6\pdl\drivers\peripheral\ipc/cy_ipc_sema.c **** /* Defines a mask to Check if semaphore count is a multiple of 32 */
  22:Generated_Source\PSoC6\pdl\drivers\peripheral\ipc/cy_ipc_sema.c **** #define CY_IPC_SEMA_PER_WORD_MASK    (CY_IPC_SEMA_PER_WORD - 1ul)
  23:Generated_Source\PSoC6\pdl\drivers\peripheral\ipc/cy_ipc_sema.c **** 
  24:Generated_Source\PSoC6\pdl\drivers\peripheral\ipc/cy_ipc_sema.c **** /* Pointer to IPC structure used for semaphores */
  25:Generated_Source\PSoC6\pdl\drivers\peripheral\ipc/cy_ipc_sema.c **** static IPC_STRUCT_Type* cy_semaIpcStruct;
  26:Generated_Source\PSoC6\pdl\drivers\peripheral\ipc/cy_ipc_sema.c **** 
  27:Generated_Source\PSoC6\pdl\drivers\peripheral\ipc/cy_ipc_sema.c **** 
  28:Generated_Source\PSoC6\pdl\drivers\peripheral\ipc/cy_ipc_sema.c **** /*******************************************************************************
  29:Generated_Source\PSoC6\pdl\drivers\peripheral\ipc/cy_ipc_sema.c **** * Function Name: Cy_IPC_Sema_Init
  30:Generated_Source\PSoC6\pdl\drivers\peripheral\ipc/cy_ipc_sema.c **** ****************************************************************************//**
ARM GAS  C:\Users\mattma1\AppData\Local\Temp\cchZ2NYx.s 			page 2


  31:Generated_Source\PSoC6\pdl\drivers\peripheral\ipc/cy_ipc_sema.c **** *
  32:Generated_Source\PSoC6\pdl\drivers\peripheral\ipc/cy_ipc_sema.c **** * This function initializes the semaphores subsystem. The user must create an
  33:Generated_Source\PSoC6\pdl\drivers\peripheral\ipc/cy_ipc_sema.c **** * array of unsigned 32-bit words to hold the semaphore bits. The number
  34:Generated_Source\PSoC6\pdl\drivers\peripheral\ipc/cy_ipc_sema.c **** * of semaphores will be the size of the array * 32. The total semaphores count
  35:Generated_Source\PSoC6\pdl\drivers\peripheral\ipc/cy_ipc_sema.c **** * will always be a multiple of 32.
  36:Generated_Source\PSoC6\pdl\drivers\peripheral\ipc/cy_ipc_sema.c **** *
  37:Generated_Source\PSoC6\pdl\drivers\peripheral\ipc/cy_ipc_sema.c **** * \note In a multi-CPU system this init function should be called with all
  38:Generated_Source\PSoC6\pdl\drivers\peripheral\ipc/cy_ipc_sema.c **** * initialized parameters on one CPU only to provide a pointer to SRAM that can
  39:Generated_Source\PSoC6\pdl\drivers\peripheral\ipc/cy_ipc_sema.c **** * be shared between all the CPUs in the system that will use semaphores.
  40:Generated_Source\PSoC6\pdl\drivers\peripheral\ipc/cy_ipc_sema.c **** * On other CPUs user must specify the IPC semaphores channel and pass 0 / NULL
  41:Generated_Source\PSoC6\pdl\drivers\peripheral\ipc/cy_ipc_sema.c **** * to count and memPtr parameters correspondingly.
  42:Generated_Source\PSoC6\pdl\drivers\peripheral\ipc/cy_ipc_sema.c **** *
  43:Generated_Source\PSoC6\pdl\drivers\peripheral\ipc/cy_ipc_sema.c **** * \param ipcChannel
  44:Generated_Source\PSoC6\pdl\drivers\peripheral\ipc/cy_ipc_sema.c **** * The IPC channel number used for semaphores
  45:Generated_Source\PSoC6\pdl\drivers\peripheral\ipc/cy_ipc_sema.c **** *
  46:Generated_Source\PSoC6\pdl\drivers\peripheral\ipc/cy_ipc_sema.c **** * \param count
  47:Generated_Source\PSoC6\pdl\drivers\peripheral\ipc/cy_ipc_sema.c **** *  The maximum number of semaphores to be supported (multiple of 32).
  48:Generated_Source\PSoC6\pdl\drivers\peripheral\ipc/cy_ipc_sema.c **** *
  49:Generated_Source\PSoC6\pdl\drivers\peripheral\ipc/cy_ipc_sema.c **** * \param memPtr
  50:Generated_Source\PSoC6\pdl\drivers\peripheral\ipc/cy_ipc_sema.c **** *  This points to the array of (count/32) words that contain the semaphore data.
  51:Generated_Source\PSoC6\pdl\drivers\peripheral\ipc/cy_ipc_sema.c **** *
  52:Generated_Source\PSoC6\pdl\drivers\peripheral\ipc/cy_ipc_sema.c **** * \return Status of the operation
  53:Generated_Source\PSoC6\pdl\drivers\peripheral\ipc/cy_ipc_sema.c **** *    \retval CY_IPC_SEMA_SUCCESS: Successfully initialized
  54:Generated_Source\PSoC6\pdl\drivers\peripheral\ipc/cy_ipc_sema.c **** *    \retval CY_IPC_SEMA_BAD_PARAM:     Memory pointer is NULL and count is not zero,
  55:Generated_Source\PSoC6\pdl\drivers\peripheral\ipc/cy_ipc_sema.c **** *                             or count not multiple of 32
  56:Generated_Source\PSoC6\pdl\drivers\peripheral\ipc/cy_ipc_sema.c **** *    \retval CY_IPC_SEMA_ERROR_LOCKED:  Could not acquire semaphores IPC channel
  57:Generated_Source\PSoC6\pdl\drivers\peripheral\ipc/cy_ipc_sema.c **** *
  58:Generated_Source\PSoC6\pdl\drivers\peripheral\ipc/cy_ipc_sema.c **** * \funcusage
  59:Generated_Source\PSoC6\pdl\drivers\peripheral\ipc/cy_ipc_sema.c **** * \snippet IPC_sut_01.cydsn/main_cm4.c snippet_Cy_IPC_Sema_Init
  60:Generated_Source\PSoC6\pdl\drivers\peripheral\ipc/cy_ipc_sema.c **** *
  61:Generated_Source\PSoC6\pdl\drivers\peripheral\ipc/cy_ipc_sema.c **** *******************************************************************************/
  62:Generated_Source\PSoC6\pdl\drivers\peripheral\ipc/cy_ipc_sema.c **** cy_en_ipcsema_status_t Cy_IPC_Sema_Init(uint32_t ipcChannel,
  63:Generated_Source\PSoC6\pdl\drivers\peripheral\ipc/cy_ipc_sema.c ****                                         uint32_t count, uint32_t memPtr[])
  64:Generated_Source\PSoC6\pdl\drivers\peripheral\ipc/cy_ipc_sema.c **** {
  65:Generated_Source\PSoC6\pdl\drivers\peripheral\ipc/cy_ipc_sema.c ****     /* Structure containing semaphores control data */
  66:Generated_Source\PSoC6\pdl\drivers\peripheral\ipc/cy_ipc_sema.c ****     static cy_stc_ipc_sema_t       cy_semaData;
  67:Generated_Source\PSoC6\pdl\drivers\peripheral\ipc/cy_ipc_sema.c **** 
  68:Generated_Source\PSoC6\pdl\drivers\peripheral\ipc/cy_ipc_sema.c ****     cy_en_ipcsema_status_t retStatus = CY_IPC_SEMA_BAD_PARAM;
  69:Generated_Source\PSoC6\pdl\drivers\peripheral\ipc/cy_ipc_sema.c **** 
  70:Generated_Source\PSoC6\pdl\drivers\peripheral\ipc/cy_ipc_sema.c ****     if( (NULL == memPtr) && (0u == count))
  71:Generated_Source\PSoC6\pdl\drivers\peripheral\ipc/cy_ipc_sema.c ****     {
  72:Generated_Source\PSoC6\pdl\drivers\peripheral\ipc/cy_ipc_sema.c ****         cy_semaIpcStruct = Cy_IPC_Drv_GetIpcBaseAddress(ipcChannel);
  73:Generated_Source\PSoC6\pdl\drivers\peripheral\ipc/cy_ipc_sema.c **** 
  74:Generated_Source\PSoC6\pdl\drivers\peripheral\ipc/cy_ipc_sema.c ****         retStatus = CY_IPC_SEMA_SUCCESS;
  75:Generated_Source\PSoC6\pdl\drivers\peripheral\ipc/cy_ipc_sema.c ****     }
  76:Generated_Source\PSoC6\pdl\drivers\peripheral\ipc/cy_ipc_sema.c **** 
  77:Generated_Source\PSoC6\pdl\drivers\peripheral\ipc/cy_ipc_sema.c ****     /* Check for non Null pointers and count value */
  78:Generated_Source\PSoC6\pdl\drivers\peripheral\ipc/cy_ipc_sema.c ****     else if ((NULL != memPtr) && (0u != count))
  79:Generated_Source\PSoC6\pdl\drivers\peripheral\ipc/cy_ipc_sema.c ****     {
  80:Generated_Source\PSoC6\pdl\drivers\peripheral\ipc/cy_ipc_sema.c ****         cy_semaData.maxSema  = count;
  81:Generated_Source\PSoC6\pdl\drivers\peripheral\ipc/cy_ipc_sema.c ****         cy_semaData.arrayPtr = memPtr;
  82:Generated_Source\PSoC6\pdl\drivers\peripheral\ipc/cy_ipc_sema.c **** 
  83:Generated_Source\PSoC6\pdl\drivers\peripheral\ipc/cy_ipc_sema.c ****         retStatus = Cy_IPC_Sema_InitExt(ipcChannel, &cy_semaData);
  84:Generated_Source\PSoC6\pdl\drivers\peripheral\ipc/cy_ipc_sema.c ****     }
  85:Generated_Source\PSoC6\pdl\drivers\peripheral\ipc/cy_ipc_sema.c ****     
  86:Generated_Source\PSoC6\pdl\drivers\peripheral\ipc/cy_ipc_sema.c ****     else
  87:Generated_Source\PSoC6\pdl\drivers\peripheral\ipc/cy_ipc_sema.c ****     {
ARM GAS  C:\Users\mattma1\AppData\Local\Temp\cchZ2NYx.s 			page 3


  88:Generated_Source\PSoC6\pdl\drivers\peripheral\ipc/cy_ipc_sema.c ****         retStatus = CY_IPC_SEMA_BAD_PARAM;
  89:Generated_Source\PSoC6\pdl\drivers\peripheral\ipc/cy_ipc_sema.c ****     }
  90:Generated_Source\PSoC6\pdl\drivers\peripheral\ipc/cy_ipc_sema.c **** 
  91:Generated_Source\PSoC6\pdl\drivers\peripheral\ipc/cy_ipc_sema.c ****     return(retStatus);
  92:Generated_Source\PSoC6\pdl\drivers\peripheral\ipc/cy_ipc_sema.c **** }
  93:Generated_Source\PSoC6\pdl\drivers\peripheral\ipc/cy_ipc_sema.c **** 
  94:Generated_Source\PSoC6\pdl\drivers\peripheral\ipc/cy_ipc_sema.c **** 
  95:Generated_Source\PSoC6\pdl\drivers\peripheral\ipc/cy_ipc_sema.c **** /*******************************************************************************
  96:Generated_Source\PSoC6\pdl\drivers\peripheral\ipc/cy_ipc_sema.c **** * Function Name: Cy_IPC_Sema_InitExt
  97:Generated_Source\PSoC6\pdl\drivers\peripheral\ipc/cy_ipc_sema.c **** ****************************************************************************//**
  98:Generated_Source\PSoC6\pdl\drivers\peripheral\ipc/cy_ipc_sema.c **** * This function initializes the semaphores subsystem. The user must create an
  99:Generated_Source\PSoC6\pdl\drivers\peripheral\ipc/cy_ipc_sema.c **** * array of unsigned 32-bit words to hold the semaphore bits. The number
 100:Generated_Source\PSoC6\pdl\drivers\peripheral\ipc/cy_ipc_sema.c **** * of semaphores will be the size of the array * 32. The total semaphores count
 101:Generated_Source\PSoC6\pdl\drivers\peripheral\ipc/cy_ipc_sema.c **** * will always be a multiple of 32.
 102:Generated_Source\PSoC6\pdl\drivers\peripheral\ipc/cy_ipc_sema.c **** *
 103:Generated_Source\PSoC6\pdl\drivers\peripheral\ipc/cy_ipc_sema.c **** * \note In a multi-CPU system this init function should be called with all
 104:Generated_Source\PSoC6\pdl\drivers\peripheral\ipc/cy_ipc_sema.c **** * initialized parameters on one CPU only to provide a pointer to SRAM that can
 105:Generated_Source\PSoC6\pdl\drivers\peripheral\ipc/cy_ipc_sema.c **** * be shared between all the CPUs in the system that will use semaphores.
 106:Generated_Source\PSoC6\pdl\drivers\peripheral\ipc/cy_ipc_sema.c **** * On other CPUs user must specify the IPC semaphores channel and pass 0 / NULL
 107:Generated_Source\PSoC6\pdl\drivers\peripheral\ipc/cy_ipc_sema.c **** * to count and memPtr parameters correspondingly.
 108:Generated_Source\PSoC6\pdl\drivers\peripheral\ipc/cy_ipc_sema.c **** *
 109:Generated_Source\PSoC6\pdl\drivers\peripheral\ipc/cy_ipc_sema.c **** * \param ipcChannel
 110:Generated_Source\PSoC6\pdl\drivers\peripheral\ipc/cy_ipc_sema.c **** * The IPC channel number used for semaphores
 111:Generated_Source\PSoC6\pdl\drivers\peripheral\ipc/cy_ipc_sema.c **** *
 112:Generated_Source\PSoC6\pdl\drivers\peripheral\ipc/cy_ipc_sema.c **** * \param ipcSema
 113:Generated_Source\PSoC6\pdl\drivers\peripheral\ipc/cy_ipc_sema.c **** *  This is configuration structure of the IPC semaphore. 
 114:Generated_Source\PSoC6\pdl\drivers\peripheral\ipc/cy_ipc_sema.c **** *  See \ref cy_stc_ipc_sema_t.
 115:Generated_Source\PSoC6\pdl\drivers\peripheral\ipc/cy_ipc_sema.c **** *
 116:Generated_Source\PSoC6\pdl\drivers\peripheral\ipc/cy_ipc_sema.c **** * \return Status of the operation
 117:Generated_Source\PSoC6\pdl\drivers\peripheral\ipc/cy_ipc_sema.c **** *    \retval CY_IPC_SEMA_SUCCESS: Successfully initialized
 118:Generated_Source\PSoC6\pdl\drivers\peripheral\ipc/cy_ipc_sema.c **** *    \retval CY_IPC_SEMA_BAD_PARAM:     Memory pointer is NULL and count is not zero,
 119:Generated_Source\PSoC6\pdl\drivers\peripheral\ipc/cy_ipc_sema.c **** *                             or count not multiple of 32
 120:Generated_Source\PSoC6\pdl\drivers\peripheral\ipc/cy_ipc_sema.c **** *    \retval CY_IPC_SEMA_ERROR_LOCKED:  Could not acquire semaphores IPC channel
 121:Generated_Source\PSoC6\pdl\drivers\peripheral\ipc/cy_ipc_sema.c **** * 
 122:Generated_Source\PSoC6\pdl\drivers\peripheral\ipc/cy_ipc_sema.c **** *******************************************************************************/
 123:Generated_Source\PSoC6\pdl\drivers\peripheral\ipc/cy_ipc_sema.c **** cy_en_ipcsema_status_t Cy_IPC_Sema_InitExt(uint32_t ipcChannel, cy_stc_ipc_sema_t *ipcSema)
 124:Generated_Source\PSoC6\pdl\drivers\peripheral\ipc/cy_ipc_sema.c **** {
  28              		.loc 1 124 0
  29              		.cfi_startproc
  30              		@ args = 0, pretend = 0, frame = 0
  31              		@ frame_needed = 0, uses_anonymous_args = 0
  32              	.LVL0:
  33 0000 70B5     		push	{r4, r5, r6, lr}
  34              		.cfi_def_cfa_offset 16
  35              		.cfi_offset 4, -16
  36              		.cfi_offset 5, -12
  37              		.cfi_offset 6, -8
  38              		.cfi_offset 14, -4
  39 0002 0400     		movs	r4, r0
  40 0004 0D00     		movs	r5, r1
  41              	.LVL1:
 125:Generated_Source\PSoC6\pdl\drivers\peripheral\ipc/cy_ipc_sema.c ****     cy_en_ipcsema_status_t retStatus = CY_IPC_SEMA_BAD_PARAM;
 126:Generated_Source\PSoC6\pdl\drivers\peripheral\ipc/cy_ipc_sema.c **** 
 127:Generated_Source\PSoC6\pdl\drivers\peripheral\ipc/cy_ipc_sema.c ****     if (ipcChannel >= CY_IPC_CHANNELS)
  42              		.loc 1 127 0
  43 0006 234B     		ldr	r3, .L10
  44 0008 1A68     		ldr	r2, [r3]
ARM GAS  C:\Users\mattma1\AppData\Local\Temp\cchZ2NYx.s 			page 4


  45 000a 3123     		movs	r3, #49
  46 000c D35C     		ldrb	r3, [r2, r3]
  47 000e 8342     		cmp	r3, r0
  48 0010 36D9     		bls	.L5
 128:Generated_Source\PSoC6\pdl\drivers\peripheral\ipc/cy_ipc_sema.c ****     {
 129:Generated_Source\PSoC6\pdl\drivers\peripheral\ipc/cy_ipc_sema.c ****         retStatus = CY_IPC_SEMA_BAD_PARAM;
 130:Generated_Source\PSoC6\pdl\drivers\peripheral\ipc/cy_ipc_sema.c ****     }
 131:Generated_Source\PSoC6\pdl\drivers\peripheral\ipc/cy_ipc_sema.c ****     else
 132:Generated_Source\PSoC6\pdl\drivers\peripheral\ipc/cy_ipc_sema.c ****     {
 133:Generated_Source\PSoC6\pdl\drivers\peripheral\ipc/cy_ipc_sema.c ****         if(NULL != ipcSema)
  49              		.loc 1 133 0
  50 0012 0029     		cmp	r1, #0
  51 0014 36D0     		beq	.L6
 134:Generated_Source\PSoC6\pdl\drivers\peripheral\ipc/cy_ipc_sema.c ****         {
 135:Generated_Source\PSoC6\pdl\drivers\peripheral\ipc/cy_ipc_sema.c ****             /* Check if semaphore count is a multiple of 32 */
 136:Generated_Source\PSoC6\pdl\drivers\peripheral\ipc/cy_ipc_sema.c ****             if( 0ul == (ipcSema->maxSema & CY_IPC_SEMA_PER_WORD_MASK))
  52              		.loc 1 136 0
  53 0016 0B68     		ldr	r3, [r1]
  54 0018 DB06     		lsls	r3, r3, #27
  55 001a 35D1     		bne	.L7
  56              	.LVL2:
  57              	.LBB18:
  58              	.LBB19:
  59              		.file 2 "Generated_Source\\PSoC6\\pdl\\drivers\\peripheral\\ipc\\cy_ipc_drv.h"
   1:Generated_Source\PSoC6\pdl\drivers\peripheral\ipc/cy_ipc_drv.h **** /***************************************************************************//**
   2:Generated_Source\PSoC6\pdl\drivers\peripheral\ipc/cy_ipc_drv.h **** * \file cy_ipc_drv.h
   3:Generated_Source\PSoC6\pdl\drivers\peripheral\ipc/cy_ipc_drv.h **** * \version 1.30
   4:Generated_Source\PSoC6\pdl\drivers\peripheral\ipc/cy_ipc_drv.h **** *
   5:Generated_Source\PSoC6\pdl\drivers\peripheral\ipc/cy_ipc_drv.h **** * Provides an API declaration of the IPC driver.
   6:Generated_Source\PSoC6\pdl\drivers\peripheral\ipc/cy_ipc_drv.h **** *
   7:Generated_Source\PSoC6\pdl\drivers\peripheral\ipc/cy_ipc_drv.h **** ********************************************************************************
   8:Generated_Source\PSoC6\pdl\drivers\peripheral\ipc/cy_ipc_drv.h **** * \copyright
   9:Generated_Source\PSoC6\pdl\drivers\peripheral\ipc/cy_ipc_drv.h **** * Copyright 2016-2018, Cypress Semiconductor Corporation. All rights reserved.
  10:Generated_Source\PSoC6\pdl\drivers\peripheral\ipc/cy_ipc_drv.h **** * You may use this file only in accordance with the license, terms, conditions,
  11:Generated_Source\PSoC6\pdl\drivers\peripheral\ipc/cy_ipc_drv.h **** * disclaimers, and limitations in the end user license agreement accompanying
  12:Generated_Source\PSoC6\pdl\drivers\peripheral\ipc/cy_ipc_drv.h **** * the software package with which this file was provided.
  13:Generated_Source\PSoC6\pdl\drivers\peripheral\ipc/cy_ipc_drv.h **** *******************************************************************************/
  14:Generated_Source\PSoC6\pdl\drivers\peripheral\ipc/cy_ipc_drv.h **** 
  15:Generated_Source\PSoC6\pdl\drivers\peripheral\ipc/cy_ipc_drv.h **** #ifndef CY_IPC_DRV_H
  16:Generated_Source\PSoC6\pdl\drivers\peripheral\ipc/cy_ipc_drv.h **** #define CY_IPC_DRV_H
  17:Generated_Source\PSoC6\pdl\drivers\peripheral\ipc/cy_ipc_drv.h **** 
  18:Generated_Source\PSoC6\pdl\drivers\peripheral\ipc/cy_ipc_drv.h **** 
  19:Generated_Source\PSoC6\pdl\drivers\peripheral\ipc/cy_ipc_drv.h **** /**
  20:Generated_Source\PSoC6\pdl\drivers\peripheral\ipc/cy_ipc_drv.h **** * \addtogroup group_ipc
  21:Generated_Source\PSoC6\pdl\drivers\peripheral\ipc/cy_ipc_drv.h **** * \{
  22:Generated_Source\PSoC6\pdl\drivers\peripheral\ipc/cy_ipc_drv.h **** * The inter-processor communication (IPC) driver provides a safe and reliable
  23:Generated_Source\PSoC6\pdl\drivers\peripheral\ipc/cy_ipc_drv.h **** * method to transfer data between CPUs. Hardware locking ensures that only one
  24:Generated_Source\PSoC6\pdl\drivers\peripheral\ipc/cy_ipc_drv.h **** * device can acquire and transfer data at a time so no data is lost or
  25:Generated_Source\PSoC6\pdl\drivers\peripheral\ipc/cy_ipc_drv.h **** * overwritten by asynchronous processes or CPUs.
  26:Generated_Source\PSoC6\pdl\drivers\peripheral\ipc/cy_ipc_drv.h **** *
  27:Generated_Source\PSoC6\pdl\drivers\peripheral\ipc/cy_ipc_drv.h **** * Include either cy_ipc_pipe.h or cy_ipc_sema.h. Alternatively include cy_pdl.h 
  28:Generated_Source\PSoC6\pdl\drivers\peripheral\ipc/cy_ipc_drv.h **** * (ModusToolbox only) to get access to all functions and declarations in the PDL.
  29:Generated_Source\PSoC6\pdl\drivers\peripheral\ipc/cy_ipc_drv.h **** *
  30:Generated_Source\PSoC6\pdl\drivers\peripheral\ipc/cy_ipc_drv.h **** * There are three parts to the API:
  31:Generated_Source\PSoC6\pdl\drivers\peripheral\ipc/cy_ipc_drv.h **** *     - Driver-level (DRV) API - used internally by Semaphore and Pipe levels
  32:Generated_Source\PSoC6\pdl\drivers\peripheral\ipc/cy_ipc_drv.h **** *     - Pipe-level (PIPE) API - establishes a communication channel between
  33:Generated_Source\PSoC6\pdl\drivers\peripheral\ipc/cy_ipc_drv.h **** *       processors
ARM GAS  C:\Users\mattma1\AppData\Local\Temp\cchZ2NYx.s 			page 5


  34:Generated_Source\PSoC6\pdl\drivers\peripheral\ipc/cy_ipc_drv.h **** *     - Semaphore-level (SEMA) API - enables users to set and clear flags to
  35:Generated_Source\PSoC6\pdl\drivers\peripheral\ipc/cy_ipc_drv.h **** *       synchronize operations.
  36:Generated_Source\PSoC6\pdl\drivers\peripheral\ipc/cy_ipc_drv.h **** *
  37:Generated_Source\PSoC6\pdl\drivers\peripheral\ipc/cy_ipc_drv.h **** * Firmware does not need to use the DRV API. It can implement IPC functionality
  38:Generated_Source\PSoC6\pdl\drivers\peripheral\ipc/cy_ipc_drv.h **** * entirely with the PIPE and SEMA APIs.
  39:Generated_Source\PSoC6\pdl\drivers\peripheral\ipc/cy_ipc_drv.h **** *
  40:Generated_Source\PSoC6\pdl\drivers\peripheral\ipc/cy_ipc_drv.h **** * \section group_ipc_background Background
  41:Generated_Source\PSoC6\pdl\drivers\peripheral\ipc/cy_ipc_drv.h **** *
  42:Generated_Source\PSoC6\pdl\drivers\peripheral\ipc/cy_ipc_drv.h **** * IPC is implemented in hardware as a collection of individual communication
  43:Generated_Source\PSoC6\pdl\drivers\peripheral\ipc/cy_ipc_drv.h **** * channels, each with a set of 32-bit registers. The IPC design implements a set
  44:Generated_Source\PSoC6\pdl\drivers\peripheral\ipc/cy_ipc_drv.h **** * of interrupts that enable each processor to notify the other that data is
  45:Generated_Source\PSoC6\pdl\drivers\peripheral\ipc/cy_ipc_drv.h **** * available, or has been processed. There is also a locking mechanism that
  46:Generated_Source\PSoC6\pdl\drivers\peripheral\ipc/cy_ipc_drv.h **** * allows only one CPU to gain access at a time.
  47:Generated_Source\PSoC6\pdl\drivers\peripheral\ipc/cy_ipc_drv.h **** *
  48:Generated_Source\PSoC6\pdl\drivers\peripheral\ipc/cy_ipc_drv.h **** * The Driver-level API manages each channel's registers to implement IPC
  49:Generated_Source\PSoC6\pdl\drivers\peripheral\ipc/cy_ipc_drv.h **** * functionality. For information on the IPC registers, see the IPC chapter of
  50:Generated_Source\PSoC6\pdl\drivers\peripheral\ipc/cy_ipc_drv.h **** * the Technical Reference Manual (TRM).
  51:Generated_Source\PSoC6\pdl\drivers\peripheral\ipc/cy_ipc_drv.h **** *
  52:Generated_Source\PSoC6\pdl\drivers\peripheral\ipc/cy_ipc_drv.h **** * At the hardware level, communication is a five-step process.
  53:Generated_Source\PSoC6\pdl\drivers\peripheral\ipc/cy_ipc_drv.h **** *     -#  The sending processor acquires a channel
  54:Generated_Source\PSoC6\pdl\drivers\peripheral\ipc/cy_ipc_drv.h **** *     -#  It puts data into the channel
  55:Generated_Source\PSoC6\pdl\drivers\peripheral\ipc/cy_ipc_drv.h **** *     -#  The sender generates a notify event (interrupt)
  56:Generated_Source\PSoC6\pdl\drivers\peripheral\ipc/cy_ipc_drv.h **** *     -#  The receiving processor identifies the sender and retrieves the data
  57:Generated_Source\PSoC6\pdl\drivers\peripheral\ipc/cy_ipc_drv.h **** *     -#  The receiving processor generates a release event (interrupt)
  58:Generated_Source\PSoC6\pdl\drivers\peripheral\ipc/cy_ipc_drv.h **** *
  59:Generated_Source\PSoC6\pdl\drivers\peripheral\ipc/cy_ipc_drv.h **** * \image html ipc_driver.png
  60:Generated_Source\PSoC6\pdl\drivers\peripheral\ipc/cy_ipc_drv.h **** *
  61:Generated_Source\PSoC6\pdl\drivers\peripheral\ipc/cy_ipc_drv.h **** * These transactions are handled transparently by the DRV-level API. Use the
  62:Generated_Source\PSoC6\pdl\drivers\peripheral\ipc/cy_ipc_drv.h **** * PIPE and SEMA layers of the API to implement communication in your application.
  63:Generated_Source\PSoC6\pdl\drivers\peripheral\ipc/cy_ipc_drv.h **** * The data transferred is limited to a single 32-bit value. As implemented by
  64:Generated_Source\PSoC6\pdl\drivers\peripheral\ipc/cy_ipc_drv.h **** * the PIPE API, that value is a pointer to a data structure of arbitrary size
  65:Generated_Source\PSoC6\pdl\drivers\peripheral\ipc/cy_ipc_drv.h **** * and complexity.
  66:Generated_Source\PSoC6\pdl\drivers\peripheral\ipc/cy_ipc_drv.h **** *
  67:Generated_Source\PSoC6\pdl\drivers\peripheral\ipc/cy_ipc_drv.h **** * \section group_ipc_overview Overview
  68:Generated_Source\PSoC6\pdl\drivers\peripheral\ipc/cy_ipc_drv.h **** *
  69:Generated_Source\PSoC6\pdl\drivers\peripheral\ipc/cy_ipc_drv.h **** * The Pipe is the key element in the PDL design. A pipe is typically a
  70:Generated_Source\PSoC6\pdl\drivers\peripheral\ipc/cy_ipc_drv.h **** * full-duplex communication channel between CPU cores. A pipe allows a single
  71:Generated_Source\PSoC6\pdl\drivers\peripheral\ipc/cy_ipc_drv.h **** * conduit to transfer messages or data to and from multiple processes or CPUs.
  72:Generated_Source\PSoC6\pdl\drivers\peripheral\ipc/cy_ipc_drv.h **** *
  73:Generated_Source\PSoC6\pdl\drivers\peripheral\ipc/cy_ipc_drv.h **** * A pipe has two endpoints, one on each core. Each endpoint contains a dedicated
  74:Generated_Source\PSoC6\pdl\drivers\peripheral\ipc/cy_ipc_drv.h **** * IPC channel and an interrupt. IPC channels 0-7 and IPC interrupts 0-7 are
  75:Generated_Source\PSoC6\pdl\drivers\peripheral\ipc/cy_ipc_drv.h **** * reserved for system use.
  76:Generated_Source\PSoC6\pdl\drivers\peripheral\ipc/cy_ipc_drv.h **** *
  77:Generated_Source\PSoC6\pdl\drivers\peripheral\ipc/cy_ipc_drv.h **** * The pipe also contains the number of clients it supports, and for each client
  78:Generated_Source\PSoC6\pdl\drivers\peripheral\ipc/cy_ipc_drv.h **** * a callback function. So the pipe can service a number of clients, each with a
  79:Generated_Source\PSoC6\pdl\drivers\peripheral\ipc/cy_ipc_drv.h **** * separate callback function, on either endpoint. The number of clients a pipe
  80:Generated_Source\PSoC6\pdl\drivers\peripheral\ipc/cy_ipc_drv.h **** * supports is the sum of each endpoint's clients.
  81:Generated_Source\PSoC6\pdl\drivers\peripheral\ipc/cy_ipc_drv.h **** *
  82:Generated_Source\PSoC6\pdl\drivers\peripheral\ipc/cy_ipc_drv.h **** * This design enables any number of processes on the sending core to put
  83:Generated_Source\PSoC6\pdl\drivers\peripheral\ipc/cy_ipc_drv.h **** * arbitrary data into a single pipe. The first element of that data is the
  84:Generated_Source\PSoC6\pdl\drivers\peripheral\ipc/cy_ipc_drv.h **** * client ID of the client that should handle the data.
  85:Generated_Source\PSoC6\pdl\drivers\peripheral\ipc/cy_ipc_drv.h **** *
  86:Generated_Source\PSoC6\pdl\drivers\peripheral\ipc/cy_ipc_drv.h **** * An interrupt notifies the receiving core that data is available. The receiving
  87:Generated_Source\PSoC6\pdl\drivers\peripheral\ipc/cy_ipc_drv.h **** * core parses the data to identify the client, and then dispatches the event to
  88:Generated_Source\PSoC6\pdl\drivers\peripheral\ipc/cy_ipc_drv.h **** * the appropriate client via the client callback function. An interrupt notifies
  89:Generated_Source\PSoC6\pdl\drivers\peripheral\ipc/cy_ipc_drv.h **** * the sending core that the receiver is finished. In this way a single pipe can
  90:Generated_Source\PSoC6\pdl\drivers\peripheral\ipc/cy_ipc_drv.h **** * manage arbitrary data transfers between cores with data flowing in either
ARM GAS  C:\Users\mattma1\AppData\Local\Temp\cchZ2NYx.s 			page 6


  91:Generated_Source\PSoC6\pdl\drivers\peripheral\ipc/cy_ipc_drv.h **** * direction.
  92:Generated_Source\PSoC6\pdl\drivers\peripheral\ipc/cy_ipc_drv.h **** *
  93:Generated_Source\PSoC6\pdl\drivers\peripheral\ipc/cy_ipc_drv.h **** * \image html ipc_ints.png
  94:Generated_Source\PSoC6\pdl\drivers\peripheral\ipc/cy_ipc_drv.h **** *
  95:Generated_Source\PSoC6\pdl\drivers\peripheral\ipc/cy_ipc_drv.h **** * The application can use semaphores to control access to shared resources, as
  96:Generated_Source\PSoC6\pdl\drivers\peripheral\ipc/cy_ipc_drv.h **** * required by the application's logic.
  97:Generated_Source\PSoC6\pdl\drivers\peripheral\ipc/cy_ipc_drv.h **** *
  98:Generated_Source\PSoC6\pdl\drivers\peripheral\ipc/cy_ipc_drv.h **** * The PDL provides specific files that set up default IPC functionality.
  99:Generated_Source\PSoC6\pdl\drivers\peripheral\ipc/cy_ipc_drv.h **** * They are system_psoc6.h, system_psoc6_cm0plus.c and system_psoc6_cm4.c. You 
 100:Generated_Source\PSoC6\pdl\drivers\peripheral\ipc/cy_ipc_drv.h **** * can modify these files based on the requirements of your design. 
 101:Generated_Source\PSoC6\pdl\drivers\peripheral\ipc/cy_ipc_drv.h **** * If you use PSoC Creator as a development environment, it will not overwrite 
 102:Generated_Source\PSoC6\pdl\drivers\peripheral\ipc/cy_ipc_drv.h **** * your changes when you generate the application or build your code.
 103:Generated_Source\PSoC6\pdl\drivers\peripheral\ipc/cy_ipc_drv.h **** *
 104:Generated_Source\PSoC6\pdl\drivers\peripheral\ipc/cy_ipc_drv.h **** * \section group_ipc_pipe_layer PIPE layer
 105:Generated_Source\PSoC6\pdl\drivers\peripheral\ipc/cy_ipc_drv.h **** *
 106:Generated_Source\PSoC6\pdl\drivers\peripheral\ipc/cy_ipc_drv.h **** * A pipe is a communication channel between two endpoints. PSoC 6 devices support
 107:Generated_Source\PSoC6\pdl\drivers\peripheral\ipc/cy_ipc_drv.h **** * 16 IPC channels, and 16 IPC interrupts, each numbered 0-15. IPC Channels 0-7
 108:Generated_Source\PSoC6\pdl\drivers\peripheral\ipc/cy_ipc_drv.h **** * and IPC interrupts 0-7 are reserved for system use. Channels 8-15 and
 109:Generated_Source\PSoC6\pdl\drivers\peripheral\ipc/cy_ipc_drv.h **** * interrupts 8-15 are available for application use.
 110:Generated_Source\PSoC6\pdl\drivers\peripheral\ipc/cy_ipc_drv.h **** *
 111:Generated_Source\PSoC6\pdl\drivers\peripheral\ipc/cy_ipc_drv.h **** * A full duplex pipe uses two IPC channels, one per endpoint. Each endpoint
 112:Generated_Source\PSoC6\pdl\drivers\peripheral\ipc/cy_ipc_drv.h **** * specifies all the information required to process a message (either sent or
 113:Generated_Source\PSoC6\pdl\drivers\peripheral\ipc/cy_ipc_drv.h **** * received). Each endpoint is configured to use an IPC channel, and an IPC
 114:Generated_Source\PSoC6\pdl\drivers\peripheral\ipc/cy_ipc_drv.h **** * interrupt. Common practice is to use the interrupt with the same number as
 115:Generated_Source\PSoC6\pdl\drivers\peripheral\ipc/cy_ipc_drv.h **** * the IPC channel. However, IPC Interrupts are not directly associated with the
 116:Generated_Source\PSoC6\pdl\drivers\peripheral\ipc/cy_ipc_drv.h **** * IPC channels, so any channel can use any interrupt.  Any IPC channel can
 117:Generated_Source\PSoC6\pdl\drivers\peripheral\ipc/cy_ipc_drv.h **** * trigger 0, 1 or all the IPC interrupts at once, depending on the Notify or
 118:Generated_Source\PSoC6\pdl\drivers\peripheral\ipc/cy_ipc_drv.h **** * Release masks used.
 119:Generated_Source\PSoC6\pdl\drivers\peripheral\ipc/cy_ipc_drv.h **** *
 120:Generated_Source\PSoC6\pdl\drivers\peripheral\ipc/cy_ipc_drv.h **** * It is also possible to set up a one-directional pipe, using a single IPC
 121:Generated_Source\PSoC6\pdl\drivers\peripheral\ipc/cy_ipc_drv.h **** * channel. In this design one processor is always the sender, and the other is
 122:Generated_Source\PSoC6\pdl\drivers\peripheral\ipc/cy_ipc_drv.h **** * always the receiver. However, there are still two endpoints.
 123:Generated_Source\PSoC6\pdl\drivers\peripheral\ipc/cy_ipc_drv.h **** *
 124:Generated_Source\PSoC6\pdl\drivers\peripheral\ipc/cy_ipc_drv.h **** * A pipe supports an arbitrary number of clients with an array of callback
 125:Generated_Source\PSoC6\pdl\drivers\peripheral\ipc/cy_ipc_drv.h **** * functions, one per client. The client ID is the index number into the array
 126:Generated_Source\PSoC6\pdl\drivers\peripheral\ipc/cy_ipc_drv.h **** * for the client. After a pipe is configured and initialized, the application
 127:Generated_Source\PSoC6\pdl\drivers\peripheral\ipc/cy_ipc_drv.h **** * calls Cy_IPC_Pipe_RegisterCallback() once per client to register each client's
 128:Generated_Source\PSoC6\pdl\drivers\peripheral\ipc/cy_ipc_drv.h **** * callback function. Multiple clients can use the same callback function. The
 129:Generated_Source\PSoC6\pdl\drivers\peripheral\ipc/cy_ipc_drv.h **** * endpoints in a pipe share the callback array.
 130:Generated_Source\PSoC6\pdl\drivers\peripheral\ipc/cy_ipc_drv.h **** *
 131:Generated_Source\PSoC6\pdl\drivers\peripheral\ipc/cy_ipc_drv.h **** * Use Cy_IPC_Pipe_SendMessage() to send data. You specify both the "to" and
 132:Generated_Source\PSoC6\pdl\drivers\peripheral\ipc/cy_ipc_drv.h **** * "from" endpoints, and a callback function to be used when the data transfer is
 133:Generated_Source\PSoC6\pdl\drivers\peripheral\ipc/cy_ipc_drv.h **** * complete. The data is a 32-bit void pointer. The data pointed to is arbitrary,
 134:Generated_Source\PSoC6\pdl\drivers\peripheral\ipc/cy_ipc_drv.h **** * and can be an array, a structure, or a location in memory. The only limitation
 135:Generated_Source\PSoC6\pdl\drivers\peripheral\ipc/cy_ipc_drv.h **** * is that the first element of the data must be a 32-bit unsigned word containing
 136:Generated_Source\PSoC6\pdl\drivers\peripheral\ipc/cy_ipc_drv.h **** * a client ID number. The ID number is the index into the callback array.
 137:Generated_Source\PSoC6\pdl\drivers\peripheral\ipc/cy_ipc_drv.h **** *
 138:Generated_Source\PSoC6\pdl\drivers\peripheral\ipc/cy_ipc_drv.h **** * When a message is sent, the receiving endpoint's interrupt handler is called.
 139:Generated_Source\PSoC6\pdl\drivers\peripheral\ipc/cy_ipc_drv.h **** * The ISR can perform any task required by the design. However, as part of its
 140:Generated_Source\PSoC6\pdl\drivers\peripheral\ipc/cy_ipc_drv.h **** * function it calls \ref Cy_IPC_Pipe_ExecCallback. This function retrieves the
 141:Generated_Source\PSoC6\pdl\drivers\peripheral\ipc/cy_ipc_drv.h **** * client ID from the data and calls the associated callback function.
 142:Generated_Source\PSoC6\pdl\drivers\peripheral\ipc/cy_ipc_drv.h **** * The user-supplied callback function handles the data in whatever way is
 143:Generated_Source\PSoC6\pdl\drivers\peripheral\ipc/cy_ipc_drv.h **** * appropriate based on the application logic.
 144:Generated_Source\PSoC6\pdl\drivers\peripheral\ipc/cy_ipc_drv.h **** *
 145:Generated_Source\PSoC6\pdl\drivers\peripheral\ipc/cy_ipc_drv.h **** * After the callback function is returned by the receiver, it invokes the release
 146:Generated_Source\PSoC6\pdl\drivers\peripheral\ipc/cy_ipc_drv.h **** * callback function defined by the sender of the message.
 147:Generated_Source\PSoC6\pdl\drivers\peripheral\ipc/cy_ipc_drv.h **** *
ARM GAS  C:\Users\mattma1\AppData\Local\Temp\cchZ2NYx.s 			page 7


 148:Generated_Source\PSoC6\pdl\drivers\peripheral\ipc/cy_ipc_drv.h **** * \section group_ipc_sema_layer SEMA Layer
 149:Generated_Source\PSoC6\pdl\drivers\peripheral\ipc/cy_ipc_drv.h **** *
 150:Generated_Source\PSoC6\pdl\drivers\peripheral\ipc/cy_ipc_drv.h **** * A semaphore is a flag the application uses to control access to a shared
 151:Generated_Source\PSoC6\pdl\drivers\peripheral\ipc/cy_ipc_drv.h **** * resource. The SEMA-level API uses an IPC channel to implement
 152:Generated_Source\PSoC6\pdl\drivers\peripheral\ipc/cy_ipc_drv.h **** * semaphores. Startup code sets up a default semaphore system. The
 153:Generated_Source\PSoC6\pdl\drivers\peripheral\ipc/cy_ipc_drv.h **** * default system creates an array of 128 semaphores (four 32-bit values).
 154:Generated_Source\PSoC6\pdl\drivers\peripheral\ipc/cy_ipc_drv.h **** * Semaphores 0-15 are reserved for system use. See
 155:Generated_Source\PSoC6\pdl\drivers\peripheral\ipc/cy_ipc_drv.h **** * Configuration Considerations - SEMA.
 156:Generated_Source\PSoC6\pdl\drivers\peripheral\ipc/cy_ipc_drv.h **** *
 157:Generated_Source\PSoC6\pdl\drivers\peripheral\ipc/cy_ipc_drv.h **** * Functions are available to initialize the semaphore system, to set or
 158:Generated_Source\PSoC6\pdl\drivers\peripheral\ipc/cy_ipc_drv.h **** * clear a semaphore, or to get the semaphore's current status. Application
 159:Generated_Source\PSoC6\pdl\drivers\peripheral\ipc/cy_ipc_drv.h **** * logic uses SEMA functions to relate a particular semaphore to a particular
 160:Generated_Source\PSoC6\pdl\drivers\peripheral\ipc/cy_ipc_drv.h **** * shared resource, and set, clear, or check the flag when accessing the
 161:Generated_Source\PSoC6\pdl\drivers\peripheral\ipc/cy_ipc_drv.h **** * shared resource.
 162:Generated_Source\PSoC6\pdl\drivers\peripheral\ipc/cy_ipc_drv.h **** *
 163:Generated_Source\PSoC6\pdl\drivers\peripheral\ipc/cy_ipc_drv.h **** * \section group_ipc_configuration_cypipe Configuration Considerations - CYPIPE
 164:Generated_Source\PSoC6\pdl\drivers\peripheral\ipc/cy_ipc_drv.h **** *
 165:Generated_Source\PSoC6\pdl\drivers\peripheral\ipc/cy_ipc_drv.h **** * There are none. The startup files set up the required CYPIPE for system
 166:Generated_Source\PSoC6\pdl\drivers\peripheral\ipc/cy_ipc_drv.h **** * use. Do not modify the CYPIPE. It uses IPC channels 5 and 6 to implement full
 167:Generated_Source\PSoC6\pdl\drivers\peripheral\ipc/cy_ipc_drv.h **** * duplex communication between cores. See System Interrupt (SysInt) for background.
 168:Generated_Source\PSoC6\pdl\drivers\peripheral\ipc/cy_ipc_drv.h **** *
 169:Generated_Source\PSoC6\pdl\drivers\peripheral\ipc/cy_ipc_drv.h **** * To create your own pipe (<b>USRPIPE</b>) you should edit startup files
 170:Generated_Source\PSoC6\pdl\drivers\peripheral\ipc/cy_ipc_drv.h **** * and take 4 steps:
 171:Generated_Source\PSoC6\pdl\drivers\peripheral\ipc/cy_ipc_drv.h **** *   -# Define a pipe callbacks processing interrupt handler
 172:Generated_Source\PSoC6\pdl\drivers\peripheral\ipc/cy_ipc_drv.h **** *      (similar to <b>Cy_SysIpcPipeIsrCm0</b> or <b>Cy_SysIpcPipeIsrCm4</b>)
 173:Generated_Source\PSoC6\pdl\drivers\peripheral\ipc/cy_ipc_drv.h **** *   -# Define a callbacks array (similar to <b>systemIpcPipeSysCbArray</b>)
 174:Generated_Source\PSoC6\pdl\drivers\peripheral\ipc/cy_ipc_drv.h **** *   -# Define your pipe configuration with a cy_stc_ipc_pipe_config_t type structure
 175:Generated_Source\PSoC6\pdl\drivers\peripheral\ipc/cy_ipc_drv.h **** *      (similar to <b>systemIpcPipeConfigCm0</b> and <b>systemIpcPipeConfigCm4</b>)
 176:Generated_Source\PSoC6\pdl\drivers\peripheral\ipc/cy_ipc_drv.h **** *   -# Call Cy_IPC_Pipe_Init() from each core to initialize your pipe (similar
 177:Generated_Source\PSoC6\pdl\drivers\peripheral\ipc/cy_ipc_drv.h **** *      to call in the <b>SystemInit</b>)
 178:Generated_Source\PSoC6\pdl\drivers\peripheral\ipc/cy_ipc_drv.h **** *
 179:Generated_Source\PSoC6\pdl\drivers\peripheral\ipc/cy_ipc_drv.h **** * \section group_ipc_configuration_sema Configuration Considerations - SEMA
 180:Generated_Source\PSoC6\pdl\drivers\peripheral\ipc/cy_ipc_drv.h **** *
 181:Generated_Source\PSoC6\pdl\drivers\peripheral\ipc/cy_ipc_drv.h **** * Startup code calls Cy_IPC_Sema_Init() with default values to set up semaphore 
 182:Generated_Source\PSoC6\pdl\drivers\peripheral\ipc/cy_ipc_drv.h **** * functionality. By default the semaphore system uses IPC channel 4, and 
 183:Generated_Source\PSoC6\pdl\drivers\peripheral\ipc/cy_ipc_drv.h **** * creates 128 semaphores. Do <b>not</b> change the IPC channel. 
 184:Generated_Source\PSoC6\pdl\drivers\peripheral\ipc/cy_ipc_drv.h **** * You can change the number of semaphores.
 185:Generated_Source\PSoC6\pdl\drivers\peripheral\ipc/cy_ipc_drv.h **** *
 186:Generated_Source\PSoC6\pdl\drivers\peripheral\ipc/cy_ipc_drv.h **** * To change the number of semaphores, modify this line of code in system_psoc6.h.
 187:Generated_Source\PSoC6\pdl\drivers\peripheral\ipc/cy_ipc_drv.h **** *
 188:Generated_Source\PSoC6\pdl\drivers\peripheral\ipc/cy_ipc_drv.h **** * \code
 189:Generated_Source\PSoC6\pdl\drivers\peripheral\ipc/cy_ipc_drv.h **** * #define CY_IPC_SEMA_COUNT               (uint32_t)(128u)
 190:Generated_Source\PSoC6\pdl\drivers\peripheral\ipc/cy_ipc_drv.h **** * \endcode
 191:Generated_Source\PSoC6\pdl\drivers\peripheral\ipc/cy_ipc_drv.h **** *
 192:Generated_Source\PSoC6\pdl\drivers\peripheral\ipc/cy_ipc_drv.h **** * Startup also declares array ipcSemaArray to hold the semaphore
 193:Generated_Source\PSoC6\pdl\drivers\peripheral\ipc/cy_ipc_drv.h **** * flags based on the size defined for this symbol. Use increments of 32. You
 194:Generated_Source\PSoC6\pdl\drivers\peripheral\ipc/cy_ipc_drv.h **** * must have at least 32 semaphores. Semaphores 0-15 are reserved for
 195:Generated_Source\PSoC6\pdl\drivers\peripheral\ipc/cy_ipc_drv.h **** * system use. Your application can use semaphores greater than 15.
 196:Generated_Source\PSoC6\pdl\drivers\peripheral\ipc/cy_ipc_drv.h **** *
 197:Generated_Source\PSoC6\pdl\drivers\peripheral\ipc/cy_ipc_drv.h **** * \section group_ipc_more_information More Information
 198:Generated_Source\PSoC6\pdl\drivers\peripheral\ipc/cy_ipc_drv.h **** *
 199:Generated_Source\PSoC6\pdl\drivers\peripheral\ipc/cy_ipc_drv.h **** * If the default startup file is not used, or SystemInit() is not called in your 
 200:Generated_Source\PSoC6\pdl\drivers\peripheral\ipc/cy_ipc_drv.h **** * project, call the following three functions prior to executing any flash or 
 201:Generated_Source\PSoC6\pdl\drivers\peripheral\ipc/cy_ipc_drv.h **** * EmEEPROM write or erase operation:
 202:Generated_Source\PSoC6\pdl\drivers\peripheral\ipc/cy_ipc_drv.h **** *  -# Cy_IPC_Sema_Init()
 203:Generated_Source\PSoC6\pdl\drivers\peripheral\ipc/cy_ipc_drv.h **** *  -# Cy_IPC_Pipe_Config()
 204:Generated_Source\PSoC6\pdl\drivers\peripheral\ipc/cy_ipc_drv.h **** *  -# Cy_IPC_Pipe_Init()
ARM GAS  C:\Users\mattma1\AppData\Local\Temp\cchZ2NYx.s 			page 8


 205:Generated_Source\PSoC6\pdl\drivers\peripheral\ipc/cy_ipc_drv.h **** *  -# Cy_Flash_Init()
 206:Generated_Source\PSoC6\pdl\drivers\peripheral\ipc/cy_ipc_drv.h **** *
 207:Generated_Source\PSoC6\pdl\drivers\peripheral\ipc/cy_ipc_drv.h **** * See the technical reference manual(TRM) for more information on the IPC.
 208:Generated_Source\PSoC6\pdl\drivers\peripheral\ipc/cy_ipc_drv.h **** *
 209:Generated_Source\PSoC6\pdl\drivers\peripheral\ipc/cy_ipc_drv.h **** * \section group_ipc_MISRA MISRA-C Compliance
 210:Generated_Source\PSoC6\pdl\drivers\peripheral\ipc/cy_ipc_drv.h **** *
 211:Generated_Source\PSoC6\pdl\drivers\peripheral\ipc/cy_ipc_drv.h **** * <table class="doxtable">
 212:Generated_Source\PSoC6\pdl\drivers\peripheral\ipc/cy_ipc_drv.h **** *   <tr>
 213:Generated_Source\PSoC6\pdl\drivers\peripheral\ipc/cy_ipc_drv.h **** *     <th>MISRA Rule</th>
 214:Generated_Source\PSoC6\pdl\drivers\peripheral\ipc/cy_ipc_drv.h **** *     <th>Rule Class (Required/Advisory)</th>
 215:Generated_Source\PSoC6\pdl\drivers\peripheral\ipc/cy_ipc_drv.h **** *     <th>Rule Description</th>
 216:Generated_Source\PSoC6\pdl\drivers\peripheral\ipc/cy_ipc_drv.h **** *     <th style="width: 50%;">Description of Deviation(s)</th>
 217:Generated_Source\PSoC6\pdl\drivers\peripheral\ipc/cy_ipc_drv.h **** *   </tr>
 218:Generated_Source\PSoC6\pdl\drivers\peripheral\ipc/cy_ipc_drv.h **** *   <tr>
 219:Generated_Source\PSoC6\pdl\drivers\peripheral\ipc/cy_ipc_drv.h **** *     <td>10.3</td>
 220:Generated_Source\PSoC6\pdl\drivers\peripheral\ipc/cy_ipc_drv.h **** *     <td>R</td>
 221:Generated_Source\PSoC6\pdl\drivers\peripheral\ipc/cy_ipc_drv.h **** *     <td>The value of a complex expression of integer type shall be cast
 222:Generated_Source\PSoC6\pdl\drivers\peripheral\ipc/cy_ipc_drv.h **** *         only to a type of the same signedness that is no wider than the underlying
 223:Generated_Source\PSoC6\pdl\drivers\peripheral\ipc/cy_ipc_drv.h **** *         type of the expression.</td>
 224:Generated_Source\PSoC6\pdl\drivers\peripheral\ipc/cy_ipc_drv.h **** *     <td>The cast from integer to enumeration value is used to calculate
 225:Generated_Source\PSoC6\pdl\drivers\peripheral\ipc/cy_ipc_drv.h **** *         the interrupt vector source from the integer number of the IPC interrupt
 226:Generated_Source\PSoC6\pdl\drivers\peripheral\ipc/cy_ipc_drv.h **** *         structure, so there is no way to avoid this cast.</td>
 227:Generated_Source\PSoC6\pdl\drivers\peripheral\ipc/cy_ipc_drv.h **** *   </tr>
 228:Generated_Source\PSoC6\pdl\drivers\peripheral\ipc/cy_ipc_drv.h **** *   <tr>
 229:Generated_Source\PSoC6\pdl\drivers\peripheral\ipc/cy_ipc_drv.h **** *     <td>11.4</td>
 230:Generated_Source\PSoC6\pdl\drivers\peripheral\ipc/cy_ipc_drv.h **** *     <td>A</td>
 231:Generated_Source\PSoC6\pdl\drivers\peripheral\ipc/cy_ipc_drv.h **** *     <td>A cast should not be performed between a pointer to the void to a
 232:Generated_Source\PSoC6\pdl\drivers\peripheral\ipc/cy_ipc_drv.h **** *         pointer to the object type.</td>
 233:Generated_Source\PSoC6\pdl\drivers\peripheral\ipc/cy_ipc_drv.h **** *     <td>The cast from the void to pointer and vice versa is used to transmit
 234:Generated_Source\PSoC6\pdl\drivers\peripheral\ipc/cy_ipc_drv.h **** *         data via the \ref group_ipc channel by exchanging the pointer. We
 235:Generated_Source\PSoC6\pdl\drivers\peripheral\ipc/cy_ipc_drv.h **** *         exchange only one pointer, so there is no way to avoid this cast.</td>
 236:Generated_Source\PSoC6\pdl\drivers\peripheral\ipc/cy_ipc_drv.h **** *   </tr>
 237:Generated_Source\PSoC6\pdl\drivers\peripheral\ipc/cy_ipc_drv.h **** * </table>
 238:Generated_Source\PSoC6\pdl\drivers\peripheral\ipc/cy_ipc_drv.h **** *
 239:Generated_Source\PSoC6\pdl\drivers\peripheral\ipc/cy_ipc_drv.h **** * \section group_ipc_changelog Changelog
 240:Generated_Source\PSoC6\pdl\drivers\peripheral\ipc/cy_ipc_drv.h **** *
 241:Generated_Source\PSoC6\pdl\drivers\peripheral\ipc/cy_ipc_drv.h **** * <table class="doxtable">
 242:Generated_Source\PSoC6\pdl\drivers\peripheral\ipc/cy_ipc_drv.h **** *   <tr><th>Version</th><th>Changes</th><th>Reason for Change</th></tr>
 243:Generated_Source\PSoC6\pdl\drivers\peripheral\ipc/cy_ipc_drv.h **** *   <tr>
 244:Generated_Source\PSoC6\pdl\drivers\peripheral\ipc/cy_ipc_drv.h **** *     <td rowspan="3">1.30</td>
 245:Generated_Source\PSoC6\pdl\drivers\peripheral\ipc/cy_ipc_drv.h **** *     <td>Flattened the organization of the driver source code into the single source directory and
 246:Generated_Source\PSoC6\pdl\drivers\peripheral\ipc/cy_ipc_drv.h **** *     <td>Driver library directory-structure simplification.</td>
 247:Generated_Source\PSoC6\pdl\drivers\peripheral\ipc/cy_ipc_drv.h **** *   </tr>
 248:Generated_Source\PSoC6\pdl\drivers\peripheral\ipc/cy_ipc_drv.h **** *   <tr>
 249:Generated_Source\PSoC6\pdl\drivers\peripheral\ipc/cy_ipc_drv.h **** *     <td>Moved the Cy_IPC_SystemSemaInit(), Cy_IPC_SystemPipeInit() functions implementation from 
 250:Generated_Source\PSoC6\pdl\drivers\peripheral\ipc/cy_ipc_drv.h **** *     <td>Changed IPC driver configuration method from compile time to run time.</td>
 251:Generated_Source\PSoC6\pdl\drivers\peripheral\ipc/cy_ipc_drv.h **** *   </tr>
 252:Generated_Source\PSoC6\pdl\drivers\peripheral\ipc/cy_ipc_drv.h **** *   <tr>
 253:Generated_Source\PSoC6\pdl\drivers\peripheral\ipc/cy_ipc_drv.h **** *     <td>Added register access layer. Use register access macros instead
 254:Generated_Source\PSoC6\pdl\drivers\peripheral\ipc/cy_ipc_drv.h **** *         of direct register access using dereferenced pointers.</td>
 255:Generated_Source\PSoC6\pdl\drivers\peripheral\ipc/cy_ipc_drv.h **** *     <td>Makes register access device-independent, so that the PDL does 
 256:Generated_Source\PSoC6\pdl\drivers\peripheral\ipc/cy_ipc_drv.h **** *         not need to be recompiled for each supported part number.</td>
 257:Generated_Source\PSoC6\pdl\drivers\peripheral\ipc/cy_ipc_drv.h **** *   </tr>
 258:Generated_Source\PSoC6\pdl\drivers\peripheral\ipc/cy_ipc_drv.h **** *   <tr>
 259:Generated_Source\PSoC6\pdl\drivers\peripheral\ipc/cy_ipc_drv.h **** *     <td>1.20</td>
 260:Generated_Source\PSoC6\pdl\drivers\peripheral\ipc/cy_ipc_drv.h **** *     <td>Added \ref Cy_IPC_Pipe_ExecuteCallback function.
 261:Generated_Source\PSoC6\pdl\drivers\peripheral\ipc/cy_ipc_drv.h **** *         Updated documentation about user pipe initialization.
ARM GAS  C:\Users\mattma1\AppData\Local\Temp\cchZ2NYx.s 			page 9


 262:Generated_Source\PSoC6\pdl\drivers\peripheral\ipc/cy_ipc_drv.h **** *     </td>
 263:Generated_Source\PSoC6\pdl\drivers\peripheral\ipc/cy_ipc_drv.h **** *     <td>Interface improvement, documentation update</td>
 264:Generated_Source\PSoC6\pdl\drivers\peripheral\ipc/cy_ipc_drv.h **** *   </tr>
 265:Generated_Source\PSoC6\pdl\drivers\peripheral\ipc/cy_ipc_drv.h **** *   <tr>
 266:Generated_Source\PSoC6\pdl\drivers\peripheral\ipc/cy_ipc_drv.h **** *     <td>1.10.1</td>
 267:Generated_Source\PSoC6\pdl\drivers\peripheral\ipc/cy_ipc_drv.h **** *     <td>Updated description of the \ref Cy_IPC_Pipe_Init,
 268:Generated_Source\PSoC6\pdl\drivers\peripheral\ipc/cy_ipc_drv.h **** *         \ref Cy_IPC_Pipe_EndpointInit, \ref Cy_IPC_Sema_Set functions.
 269:Generated_Source\PSoC6\pdl\drivers\peripheral\ipc/cy_ipc_drv.h **** *         Added / updated code snippets.
 270:Generated_Source\PSoC6\pdl\drivers\peripheral\ipc/cy_ipc_drv.h **** *     </td>
 271:Generated_Source\PSoC6\pdl\drivers\peripheral\ipc/cy_ipc_drv.h **** *     <td>Documentation update and clarification</td>
 272:Generated_Source\PSoC6\pdl\drivers\peripheral\ipc/cy_ipc_drv.h **** *   </tr>
 273:Generated_Source\PSoC6\pdl\drivers\peripheral\ipc/cy_ipc_drv.h **** *   <tr>
 274:Generated_Source\PSoC6\pdl\drivers\peripheral\ipc/cy_ipc_drv.h **** *     <td>1.10</td>
 275:Generated_Source\PSoC6\pdl\drivers\peripheral\ipc/cy_ipc_drv.h **** *     <td>Added support for more IPC structures</td>
 276:Generated_Source\PSoC6\pdl\drivers\peripheral\ipc/cy_ipc_drv.h **** *     <td>New device support</td>
 277:Generated_Source\PSoC6\pdl\drivers\peripheral\ipc/cy_ipc_drv.h **** *   </tr>
 278:Generated_Source\PSoC6\pdl\drivers\peripheral\ipc/cy_ipc_drv.h **** *   <tr>
 279:Generated_Source\PSoC6\pdl\drivers\peripheral\ipc/cy_ipc_drv.h **** *     <td>1.0</td>
 280:Generated_Source\PSoC6\pdl\drivers\peripheral\ipc/cy_ipc_drv.h **** *     <td>Initial version</td>
 281:Generated_Source\PSoC6\pdl\drivers\peripheral\ipc/cy_ipc_drv.h **** *     <td></td>
 282:Generated_Source\PSoC6\pdl\drivers\peripheral\ipc/cy_ipc_drv.h **** *   </tr>
 283:Generated_Source\PSoC6\pdl\drivers\peripheral\ipc/cy_ipc_drv.h **** * </table>
 284:Generated_Source\PSoC6\pdl\drivers\peripheral\ipc/cy_ipc_drv.h **** *
 285:Generated_Source\PSoC6\pdl\drivers\peripheral\ipc/cy_ipc_drv.h **** * \defgroup group_ipc_drv IPC driver layer (IPC_DRV)
 286:Generated_Source\PSoC6\pdl\drivers\peripheral\ipc/cy_ipc_drv.h **** * \{
 287:Generated_Source\PSoC6\pdl\drivers\peripheral\ipc/cy_ipc_drv.h **** *   The functions of this layer are used in the higher IPC levels
 288:Generated_Source\PSoC6\pdl\drivers\peripheral\ipc/cy_ipc_drv.h **** *   (Semaphores and Pipes).
 289:Generated_Source\PSoC6\pdl\drivers\peripheral\ipc/cy_ipc_drv.h **** *   Users are not expected to call any of these IPC functions directly (cy_ipc_drv.h). 
 290:Generated_Source\PSoC6\pdl\drivers\peripheral\ipc/cy_ipc_drv.h **** *   Instead include either of cy_ipc_sema.h or cy_ipc_pipe.h. 
 291:Generated_Source\PSoC6\pdl\drivers\peripheral\ipc/cy_ipc_drv.h **** *   Alternatively include cy_pdl.h to get access to all functions and declarations in the PDL.
 292:Generated_Source\PSoC6\pdl\drivers\peripheral\ipc/cy_ipc_drv.h **** *
 293:Generated_Source\PSoC6\pdl\drivers\peripheral\ipc/cy_ipc_drv.h **** *   \defgroup group_ipc_macros Macros
 294:Generated_Source\PSoC6\pdl\drivers\peripheral\ipc/cy_ipc_drv.h **** *       Macro definitions are used in the driver
 295:Generated_Source\PSoC6\pdl\drivers\peripheral\ipc/cy_ipc_drv.h **** *
 296:Generated_Source\PSoC6\pdl\drivers\peripheral\ipc/cy_ipc_drv.h **** *   \defgroup group_ipc_functions Functions
 297:Generated_Source\PSoC6\pdl\drivers\peripheral\ipc/cy_ipc_drv.h **** *       Functions are used in the driver
 298:Generated_Source\PSoC6\pdl\drivers\peripheral\ipc/cy_ipc_drv.h **** *
 299:Generated_Source\PSoC6\pdl\drivers\peripheral\ipc/cy_ipc_drv.h **** *   \defgroup group_ipc_data_structures Data Structures
 300:Generated_Source\PSoC6\pdl\drivers\peripheral\ipc/cy_ipc_drv.h **** *       Data structures are used in the driver
 301:Generated_Source\PSoC6\pdl\drivers\peripheral\ipc/cy_ipc_drv.h **** *
 302:Generated_Source\PSoC6\pdl\drivers\peripheral\ipc/cy_ipc_drv.h **** *   \defgroup group_ipc_enums Enumerated Types
 303:Generated_Source\PSoC6\pdl\drivers\peripheral\ipc/cy_ipc_drv.h **** *       Enumerations are used in the driver
 304:Generated_Source\PSoC6\pdl\drivers\peripheral\ipc/cy_ipc_drv.h **** * \}
 305:Generated_Source\PSoC6\pdl\drivers\peripheral\ipc/cy_ipc_drv.h **** *
 306:Generated_Source\PSoC6\pdl\drivers\peripheral\ipc/cy_ipc_drv.h **** * \defgroup group_ipc_sema IPC semaphores layer (IPC_SEMA)
 307:Generated_Source\PSoC6\pdl\drivers\peripheral\ipc/cy_ipc_drv.h **** * \defgroup group_ipc_pipe IPC pipes layer (IPC_PIPE)
 308:Generated_Source\PSoC6\pdl\drivers\peripheral\ipc/cy_ipc_drv.h **** *
 309:Generated_Source\PSoC6\pdl\drivers\peripheral\ipc/cy_ipc_drv.h **** */
 310:Generated_Source\PSoC6\pdl\drivers\peripheral\ipc/cy_ipc_drv.h **** 
 311:Generated_Source\PSoC6\pdl\drivers\peripheral\ipc/cy_ipc_drv.h **** 
 312:Generated_Source\PSoC6\pdl\drivers\peripheral\ipc/cy_ipc_drv.h **** /******************************************************************************/
 313:Generated_Source\PSoC6\pdl\drivers\peripheral\ipc/cy_ipc_drv.h **** /* Include files                                                              */
 314:Generated_Source\PSoC6\pdl\drivers\peripheral\ipc/cy_ipc_drv.h **** /******************************************************************************/
 315:Generated_Source\PSoC6\pdl\drivers\peripheral\ipc/cy_ipc_drv.h **** 
 316:Generated_Source\PSoC6\pdl\drivers\peripheral\ipc/cy_ipc_drv.h **** #include "cy_device.h"
 317:Generated_Source\PSoC6\pdl\drivers\peripheral\ipc/cy_ipc_drv.h **** #include "cy_device_headers.h"
 318:Generated_Source\PSoC6\pdl\drivers\peripheral\ipc/cy_ipc_drv.h **** #include "cy_syslib.h"
ARM GAS  C:\Users\mattma1\AppData\Local\Temp\cchZ2NYx.s 			page 10


 319:Generated_Source\PSoC6\pdl\drivers\peripheral\ipc/cy_ipc_drv.h **** #include <stddef.h>
 320:Generated_Source\PSoC6\pdl\drivers\peripheral\ipc/cy_ipc_drv.h **** 
 321:Generated_Source\PSoC6\pdl\drivers\peripheral\ipc/cy_ipc_drv.h **** 
 322:Generated_Source\PSoC6\pdl\drivers\peripheral\ipc/cy_ipc_drv.h **** /**
 323:Generated_Source\PSoC6\pdl\drivers\peripheral\ipc/cy_ipc_drv.h **** * \addtogroup group_ipc_macros
 324:Generated_Source\PSoC6\pdl\drivers\peripheral\ipc/cy_ipc_drv.h **** * \{
 325:Generated_Source\PSoC6\pdl\drivers\peripheral\ipc/cy_ipc_drv.h **** */
 326:Generated_Source\PSoC6\pdl\drivers\peripheral\ipc/cy_ipc_drv.h **** 
 327:Generated_Source\PSoC6\pdl\drivers\peripheral\ipc/cy_ipc_drv.h **** /** Driver major version */
 328:Generated_Source\PSoC6\pdl\drivers\peripheral\ipc/cy_ipc_drv.h **** #define CY_IPC_DRV_VERSION_MAJOR       1
 329:Generated_Source\PSoC6\pdl\drivers\peripheral\ipc/cy_ipc_drv.h **** 
 330:Generated_Source\PSoC6\pdl\drivers\peripheral\ipc/cy_ipc_drv.h **** /** Driver minor version */
 331:Generated_Source\PSoC6\pdl\drivers\peripheral\ipc/cy_ipc_drv.h **** #define CY_IPC_DRV_VERSION_MINOR       30
 332:Generated_Source\PSoC6\pdl\drivers\peripheral\ipc/cy_ipc_drv.h **** 
 333:Generated_Source\PSoC6\pdl\drivers\peripheral\ipc/cy_ipc_drv.h **** /** Defines a value to indicate that no notification events are needed */
 334:Generated_Source\PSoC6\pdl\drivers\peripheral\ipc/cy_ipc_drv.h **** #define CY_IPC_NO_NOTIFICATION         (uint32_t)(0x00000000ul)
 335:Generated_Source\PSoC6\pdl\drivers\peripheral\ipc/cy_ipc_drv.h **** 
 336:Generated_Source\PSoC6\pdl\drivers\peripheral\ipc/cy_ipc_drv.h **** /* Error Code constants */
 337:Generated_Source\PSoC6\pdl\drivers\peripheral\ipc/cy_ipc_drv.h **** #define CY_IPC_ID CY_PDL_DRV_ID(0x22u)  /**< Software PDL driver ID for IPC */
 338:Generated_Source\PSoC6\pdl\drivers\peripheral\ipc/cy_ipc_drv.h **** 
 339:Generated_Source\PSoC6\pdl\drivers\peripheral\ipc/cy_ipc_drv.h **** /** Return prefix for IPC driver function status codes */
 340:Generated_Source\PSoC6\pdl\drivers\peripheral\ipc/cy_ipc_drv.h **** #define CY_IPC_ID_INFO    (uint32_t)( CY_IPC_ID | CY_PDL_STATUS_INFO )
 341:Generated_Source\PSoC6\pdl\drivers\peripheral\ipc/cy_ipc_drv.h **** /** Return prefix for IPC driver function warning return values */
 342:Generated_Source\PSoC6\pdl\drivers\peripheral\ipc/cy_ipc_drv.h **** #define CY_IPC_ID_WARNING (uint32_t)( CY_IPC_ID | CY_PDL_STATUS_WARNING)
 343:Generated_Source\PSoC6\pdl\drivers\peripheral\ipc/cy_ipc_drv.h **** /** Return prefix for IPC driver function error return values */
 344:Generated_Source\PSoC6\pdl\drivers\peripheral\ipc/cy_ipc_drv.h **** #define CY_IPC_ID_ERROR   (uint32_t)( CY_IPC_ID | CY_PDL_STATUS_ERROR)
 345:Generated_Source\PSoC6\pdl\drivers\peripheral\ipc/cy_ipc_drv.h **** 
 346:Generated_Source\PSoC6\pdl\drivers\peripheral\ipc/cy_ipc_drv.h **** /** Converts the IPC interrupt channel number to interrupt vector */
 347:Generated_Source\PSoC6\pdl\drivers\peripheral\ipc/cy_ipc_drv.h **** #define CY_IPC_INTR_NUM_TO_VECT(x)         ((int32_t) cy_device->cpussIpc0Irq + (x))
 348:Generated_Source\PSoC6\pdl\drivers\peripheral\ipc/cy_ipc_drv.h **** 
 349:Generated_Source\PSoC6\pdl\drivers\peripheral\ipc/cy_ipc_drv.h **** /** \} group_ipc_macros */
 350:Generated_Source\PSoC6\pdl\drivers\peripheral\ipc/cy_ipc_drv.h **** 
 351:Generated_Source\PSoC6\pdl\drivers\peripheral\ipc/cy_ipc_drv.h **** /* end of definition in device.h */
 352:Generated_Source\PSoC6\pdl\drivers\peripheral\ipc/cy_ipc_drv.h **** 
 353:Generated_Source\PSoC6\pdl\drivers\peripheral\ipc/cy_ipc_drv.h **** /** \cond INTERNAL */
 354:Generated_Source\PSoC6\pdl\drivers\peripheral\ipc/cy_ipc_drv.h **** #if (CY_CPU_CORTEX_M0P)
 355:Generated_Source\PSoC6\pdl\drivers\peripheral\ipc/cy_ipc_drv.h ****     #define CY_IPC_CHAN_SYSCALL         CY_IPC_CHAN_SYSCALL_CM0
 356:Generated_Source\PSoC6\pdl\drivers\peripheral\ipc/cy_ipc_drv.h **** #else
 357:Generated_Source\PSoC6\pdl\drivers\peripheral\ipc/cy_ipc_drv.h ****     #define CY_IPC_CHAN_SYSCALL         CY_IPC_CHAN_SYSCALL_CM4
 358:Generated_Source\PSoC6\pdl\drivers\peripheral\ipc/cy_ipc_drv.h **** #endif  /* (CY_CPU_CORTEX_M0P) */
 359:Generated_Source\PSoC6\pdl\drivers\peripheral\ipc/cy_ipc_drv.h **** /** \endcond */
 360:Generated_Source\PSoC6\pdl\drivers\peripheral\ipc/cy_ipc_drv.h **** 
 361:Generated_Source\PSoC6\pdl\drivers\peripheral\ipc/cy_ipc_drv.h **** /**
 362:Generated_Source\PSoC6\pdl\drivers\peripheral\ipc/cy_ipc_drv.h **** * \addtogroup group_ipc_enums
 363:Generated_Source\PSoC6\pdl\drivers\peripheral\ipc/cy_ipc_drv.h **** * \{
 364:Generated_Source\PSoC6\pdl\drivers\peripheral\ipc/cy_ipc_drv.h **** */
 365:Generated_Source\PSoC6\pdl\drivers\peripheral\ipc/cy_ipc_drv.h **** 
 366:Generated_Source\PSoC6\pdl\drivers\peripheral\ipc/cy_ipc_drv.h **** /**
 367:Generated_Source\PSoC6\pdl\drivers\peripheral\ipc/cy_ipc_drv.h **** * This is a list of ENUMs used for function return status.
 368:Generated_Source\PSoC6\pdl\drivers\peripheral\ipc/cy_ipc_drv.h **** */
 369:Generated_Source\PSoC6\pdl\drivers\peripheral\ipc/cy_ipc_drv.h **** typedef enum
 370:Generated_Source\PSoC6\pdl\drivers\peripheral\ipc/cy_ipc_drv.h **** {
 371:Generated_Source\PSoC6\pdl\drivers\peripheral\ipc/cy_ipc_drv.h ****     /** Function was successfully executed */
 372:Generated_Source\PSoC6\pdl\drivers\peripheral\ipc/cy_ipc_drv.h ****     CY_IPC_DRV_SUCCESS      = (0x00u),
 373:Generated_Source\PSoC6\pdl\drivers\peripheral\ipc/cy_ipc_drv.h ****     /** Function was not executed due to an error.
 374:Generated_Source\PSoC6\pdl\drivers\peripheral\ipc/cy_ipc_drv.h ****         Typical conditions for the error explained
 375:Generated_Source\PSoC6\pdl\drivers\peripheral\ipc/cy_ipc_drv.h ****         in the function description */
ARM GAS  C:\Users\mattma1\AppData\Local\Temp\cchZ2NYx.s 			page 11


 376:Generated_Source\PSoC6\pdl\drivers\peripheral\ipc/cy_ipc_drv.h ****     CY_IPC_DRV_ERROR        = ( CY_IPC_ID_ERROR + 1ul),
 377:Generated_Source\PSoC6\pdl\drivers\peripheral\ipc/cy_ipc_drv.h **** } cy_en_ipcdrv_status_t;
 378:Generated_Source\PSoC6\pdl\drivers\peripheral\ipc/cy_ipc_drv.h **** 
 379:Generated_Source\PSoC6\pdl\drivers\peripheral\ipc/cy_ipc_drv.h **** /** \} group_ipc_enums */
 380:Generated_Source\PSoC6\pdl\drivers\peripheral\ipc/cy_ipc_drv.h **** 
 381:Generated_Source\PSoC6\pdl\drivers\peripheral\ipc/cy_ipc_drv.h **** 
 382:Generated_Source\PSoC6\pdl\drivers\peripheral\ipc/cy_ipc_drv.h **** #ifdef __cplusplus
 383:Generated_Source\PSoC6\pdl\drivers\peripheral\ipc/cy_ipc_drv.h **** extern "C" {
 384:Generated_Source\PSoC6\pdl\drivers\peripheral\ipc/cy_ipc_drv.h **** #endif
 385:Generated_Source\PSoC6\pdl\drivers\peripheral\ipc/cy_ipc_drv.h **** 
 386:Generated_Source\PSoC6\pdl\drivers\peripheral\ipc/cy_ipc_drv.h **** /** \cond INTERNAL */
 387:Generated_Source\PSoC6\pdl\drivers\peripheral\ipc/cy_ipc_drv.h **** 
 388:Generated_Source\PSoC6\pdl\drivers\peripheral\ipc/cy_ipc_drv.h **** __STATIC_INLINE void     Cy_IPC_Drv_WriteDataValue (IPC_STRUCT_Type* base, uint32_t dataValue);
 389:Generated_Source\PSoC6\pdl\drivers\peripheral\ipc/cy_ipc_drv.h **** __STATIC_INLINE uint32_t Cy_IPC_Drv_ReadDataValue (IPC_STRUCT_Type const * base);
 390:Generated_Source\PSoC6\pdl\drivers\peripheral\ipc/cy_ipc_drv.h **** 
 391:Generated_Source\PSoC6\pdl\drivers\peripheral\ipc/cy_ipc_drv.h **** __STATIC_INLINE uint32_t Cy_IPC_Drv_ExtractAcquireMask (uint32_t intMask);
 392:Generated_Source\PSoC6\pdl\drivers\peripheral\ipc/cy_ipc_drv.h **** __STATIC_INLINE uint32_t Cy_IPC_Drv_ExtractReleaseMask (uint32_t intMask);
 393:Generated_Source\PSoC6\pdl\drivers\peripheral\ipc/cy_ipc_drv.h **** 
 394:Generated_Source\PSoC6\pdl\drivers\peripheral\ipc/cy_ipc_drv.h **** /** \endcond */
 395:Generated_Source\PSoC6\pdl\drivers\peripheral\ipc/cy_ipc_drv.h **** 
 396:Generated_Source\PSoC6\pdl\drivers\peripheral\ipc/cy_ipc_drv.h **** /**
 397:Generated_Source\PSoC6\pdl\drivers\peripheral\ipc/cy_ipc_drv.h **** * \addtogroup group_ipc_functions
 398:Generated_Source\PSoC6\pdl\drivers\peripheral\ipc/cy_ipc_drv.h **** * \{
 399:Generated_Source\PSoC6\pdl\drivers\peripheral\ipc/cy_ipc_drv.h **** */
 400:Generated_Source\PSoC6\pdl\drivers\peripheral\ipc/cy_ipc_drv.h **** 
 401:Generated_Source\PSoC6\pdl\drivers\peripheral\ipc/cy_ipc_drv.h **** __STATIC_INLINE IPC_STRUCT_Type*       Cy_IPC_Drv_GetIpcBaseAddress (uint32_t ipcIndex);
 402:Generated_Source\PSoC6\pdl\drivers\peripheral\ipc/cy_ipc_drv.h **** __STATIC_INLINE IPC_INTR_STRUCT_Type*  Cy_IPC_Drv_GetIntrBaseAddr (uint32_t ipcIntrIndex);
 403:Generated_Source\PSoC6\pdl\drivers\peripheral\ipc/cy_ipc_drv.h **** 
 404:Generated_Source\PSoC6\pdl\drivers\peripheral\ipc/cy_ipc_drv.h **** __STATIC_INLINE void     Cy_IPC_Drv_AcquireNotify (IPC_STRUCT_Type * base, uint32_t notifyEventIntr
 405:Generated_Source\PSoC6\pdl\drivers\peripheral\ipc/cy_ipc_drv.h **** __STATIC_INLINE void     Cy_IPC_Drv_ReleaseNotify (IPC_STRUCT_Type * base, uint32_t notifyEventIntr
 406:Generated_Source\PSoC6\pdl\drivers\peripheral\ipc/cy_ipc_drv.h **** 
 407:Generated_Source\PSoC6\pdl\drivers\peripheral\ipc/cy_ipc_drv.h **** __STATIC_INLINE  cy_en_ipcdrv_status_t Cy_IPC_Drv_LockAcquire (IPC_STRUCT_Type const * base);
 408:Generated_Source\PSoC6\pdl\drivers\peripheral\ipc/cy_ipc_drv.h **** cy_en_ipcdrv_status_t    Cy_IPC_Drv_LockRelease (IPC_STRUCT_Type * base, uint32_t releaseEventIntr)
 409:Generated_Source\PSoC6\pdl\drivers\peripheral\ipc/cy_ipc_drv.h **** __STATIC_INLINE bool     Cy_IPC_Drv_IsLockAcquired (IPC_STRUCT_Type const * base);
 410:Generated_Source\PSoC6\pdl\drivers\peripheral\ipc/cy_ipc_drv.h **** __STATIC_INLINE uint32_t Cy_IPC_Drv_GetLockStatus (IPC_STRUCT_Type const * base);
 411:Generated_Source\PSoC6\pdl\drivers\peripheral\ipc/cy_ipc_drv.h **** 
 412:Generated_Source\PSoC6\pdl\drivers\peripheral\ipc/cy_ipc_drv.h **** cy_en_ipcdrv_status_t    Cy_IPC_Drv_SendMsgWord (IPC_STRUCT_Type * base, uint32_t notifyEventIntr, 
 413:Generated_Source\PSoC6\pdl\drivers\peripheral\ipc/cy_ipc_drv.h **** cy_en_ipcdrv_status_t    Cy_IPC_Drv_ReadMsgWord (IPC_STRUCT_Type const * base, uint32_t * message);
 414:Generated_Source\PSoC6\pdl\drivers\peripheral\ipc/cy_ipc_drv.h **** __STATIC_INLINE cy_en_ipcdrv_status_t Cy_IPC_Drv_SendMsgPtr (IPC_STRUCT_Type* base, uint32_t notify
 415:Generated_Source\PSoC6\pdl\drivers\peripheral\ipc/cy_ipc_drv.h **** __STATIC_INLINE cy_en_ipcdrv_status_t Cy_IPC_Drv_ReadMsgPtr (IPC_STRUCT_Type const * base, void ** 
 416:Generated_Source\PSoC6\pdl\drivers\peripheral\ipc/cy_ipc_drv.h **** 
 417:Generated_Source\PSoC6\pdl\drivers\peripheral\ipc/cy_ipc_drv.h **** __STATIC_INLINE void     Cy_IPC_Drv_SetInterruptMask (IPC_INTR_STRUCT_Type * base,
 418:Generated_Source\PSoC6\pdl\drivers\peripheral\ipc/cy_ipc_drv.h ****                                                       uint32_t ipcReleaseMask, uint32_t ipcAcquireM
 419:Generated_Source\PSoC6\pdl\drivers\peripheral\ipc/cy_ipc_drv.h **** __STATIC_INLINE uint32_t Cy_IPC_Drv_GetInterruptMask (IPC_INTR_STRUCT_Type const * base);
 420:Generated_Source\PSoC6\pdl\drivers\peripheral\ipc/cy_ipc_drv.h **** __STATIC_INLINE uint32_t Cy_IPC_Drv_GetInterruptStatusMasked (IPC_INTR_STRUCT_Type const * base);
 421:Generated_Source\PSoC6\pdl\drivers\peripheral\ipc/cy_ipc_drv.h **** __STATIC_INLINE uint32_t Cy_IPC_Drv_GetInterruptStatus (IPC_INTR_STRUCT_Type const * base);
 422:Generated_Source\PSoC6\pdl\drivers\peripheral\ipc/cy_ipc_drv.h **** __STATIC_INLINE void     Cy_IPC_Drv_SetInterrupt (IPC_INTR_STRUCT_Type * base,
 423:Generated_Source\PSoC6\pdl\drivers\peripheral\ipc/cy_ipc_drv.h ****                                                       uint32_t ipcReleaseMask, uint32_t ipcAcquireM
 424:Generated_Source\PSoC6\pdl\drivers\peripheral\ipc/cy_ipc_drv.h **** __STATIC_INLINE void     Cy_IPC_Drv_ClearInterrupt (IPC_INTR_STRUCT_Type * base,
 425:Generated_Source\PSoC6\pdl\drivers\peripheral\ipc/cy_ipc_drv.h ****                                                       uint32_t ipcReleaseMask, uint32_t ipcAcquireM
 426:Generated_Source\PSoC6\pdl\drivers\peripheral\ipc/cy_ipc_drv.h **** 
 427:Generated_Source\PSoC6\pdl\drivers\peripheral\ipc/cy_ipc_drv.h **** 
 428:Generated_Source\PSoC6\pdl\drivers\peripheral\ipc/cy_ipc_drv.h **** /*******************************************************************************
 429:Generated_Source\PSoC6\pdl\drivers\peripheral\ipc/cy_ipc_drv.h **** * Function Name: Cy_IPC_Drv_GetIpcBaseAddress
 430:Generated_Source\PSoC6\pdl\drivers\peripheral\ipc/cy_ipc_drv.h **** ****************************************************************************//**
 431:Generated_Source\PSoC6\pdl\drivers\peripheral\ipc/cy_ipc_drv.h **** *
 432:Generated_Source\PSoC6\pdl\drivers\peripheral\ipc/cy_ipc_drv.h **** * This function takes an IPC channel index as a parameter and returns the base
ARM GAS  C:\Users\mattma1\AppData\Local\Temp\cchZ2NYx.s 			page 12


 433:Generated_Source\PSoC6\pdl\drivers\peripheral\ipc/cy_ipc_drv.h **** * address the IPC registers corresponding to the IPC channel.
 434:Generated_Source\PSoC6\pdl\drivers\peripheral\ipc/cy_ipc_drv.h **** *
 435:Generated_Source\PSoC6\pdl\drivers\peripheral\ipc/cy_ipc_drv.h **** * \note The user is responsible for ensuring that ipcIndex does not exceed the
 436:Generated_Source\PSoC6\pdl\drivers\peripheral\ipc/cy_ipc_drv.h **** * limits.
 437:Generated_Source\PSoC6\pdl\drivers\peripheral\ipc/cy_ipc_drv.h **** *
 438:Generated_Source\PSoC6\pdl\drivers\peripheral\ipc/cy_ipc_drv.h **** * \param ipcIndex
 439:Generated_Source\PSoC6\pdl\drivers\peripheral\ipc/cy_ipc_drv.h **** * Represents the number of IPC structure. This is converted to the base address of
 440:Generated_Source\PSoC6\pdl\drivers\peripheral\ipc/cy_ipc_drv.h **** * the IPC channel registers.
 441:Generated_Source\PSoC6\pdl\drivers\peripheral\ipc/cy_ipc_drv.h **** *
 442:Generated_Source\PSoC6\pdl\drivers\peripheral\ipc/cy_ipc_drv.h **** * \return
 443:Generated_Source\PSoC6\pdl\drivers\peripheral\ipc/cy_ipc_drv.h **** * Returns a pointer to the base of the IPC registers.
 444:Generated_Source\PSoC6\pdl\drivers\peripheral\ipc/cy_ipc_drv.h **** *
 445:Generated_Source\PSoC6\pdl\drivers\peripheral\ipc/cy_ipc_drv.h **** * \funcusage
 446:Generated_Source\PSoC6\pdl\drivers\peripheral\ipc/cy_ipc_drv.h **** * \snippet IPC_sut_01.cydsn/main_cm4.c snippet_Cy_IPC_Drv_SendMsgWord
 447:Generated_Source\PSoC6\pdl\drivers\peripheral\ipc/cy_ipc_drv.h **** *
 448:Generated_Source\PSoC6\pdl\drivers\peripheral\ipc/cy_ipc_drv.h **** *******************************************************************************/
 449:Generated_Source\PSoC6\pdl\drivers\peripheral\ipc/cy_ipc_drv.h **** __STATIC_INLINE IPC_STRUCT_Type* Cy_IPC_Drv_GetIpcBaseAddress (uint32_t ipcIndex)
 450:Generated_Source\PSoC6\pdl\drivers\peripheral\ipc/cy_ipc_drv.h **** {
 451:Generated_Source\PSoC6\pdl\drivers\peripheral\ipc/cy_ipc_drv.h ****     CY_ASSERT_L1(CY_IPC_CHANNELS > ipcIndex);
  60              		.loc 2 451 0
  61 001c 3123     		movs	r3, #49
  62 001e D35C     		ldrb	r3, [r2, r3]
  63 0020 9842     		cmp	r0, r3
  64 0022 04D3     		bcc	.L3
  65 0024 C421     		movs	r1, #196
  66              	.LVL3:
  67 0026 FF31     		adds	r1, r1, #255
  68 0028 1B48     		ldr	r0, .L10+4
  69              	.LVL4:
  70 002a FFF7FEFF 		bl	Cy_SysLib_AssertFailed
  71              	.LVL5:
  72              	.L3:
 452:Generated_Source\PSoC6\pdl\drivers\peripheral\ipc/cy_ipc_drv.h ****     return ( (IPC_STRUCT_Type*) CY_IPC_STRUCT_PTR(ipcIndex));
  73              		.loc 2 452 0
  74 002e 194B     		ldr	r3, .L10
  75 0030 1B68     		ldr	r3, [r3]
  76 0032 1A6A     		ldr	r2, [r3, #32]
  77 0034 B021     		movs	r1, #176
  78 0036 5B5A     		ldrh	r3, [r3, r1]
  79 0038 5C43     		muls	r4, r3
  80              	.LVL6:
  81 003a 1419     		adds	r4, r2, r4
  82              	.LVL7:
  83              	.LBE19:
  84              	.LBE18:
 137:Generated_Source\PSoC6\pdl\drivers\peripheral\ipc/cy_ipc_sema.c ****             {
 138:Generated_Source\PSoC6\pdl\drivers\peripheral\ipc/cy_ipc_sema.c ****                 cy_semaIpcStruct = Cy_IPC_Drv_GetIpcBaseAddress(ipcChannel);
  85              		.loc 1 138 0
  86 003c 174E     		ldr	r6, .L10+8
  87 003e 3460     		str	r4, [r6]
 139:Generated_Source\PSoC6\pdl\drivers\peripheral\ipc/cy_ipc_sema.c **** 
 140:Generated_Source\PSoC6\pdl\drivers\peripheral\ipc/cy_ipc_sema.c ****                 /* Initialize all semaphores to released */
 141:Generated_Source\PSoC6\pdl\drivers\peripheral\ipc/cy_ipc_sema.c ****                 (void)memset(ipcSema->arrayPtr, 0, (ipcSema->maxSema /8u));
  88              		.loc 1 141 0
  89 0040 2B68     		ldr	r3, [r5]
  90 0042 DA08     		lsrs	r2, r3, #3
  91 0044 0021     		movs	r1, #0
ARM GAS  C:\Users\mattma1\AppData\Local\Temp\cchZ2NYx.s 			page 13


  92 0046 6868     		ldr	r0, [r5, #4]
  93 0048 FFF7FEFF 		bl	memset
  94              	.LVL8:
 142:Generated_Source\PSoC6\pdl\drivers\peripheral\ipc/cy_ipc_sema.c **** 
 143:Generated_Source\PSoC6\pdl\drivers\peripheral\ipc/cy_ipc_sema.c ****                 /* Make sure semaphores start out released.  */
 144:Generated_Source\PSoC6\pdl\drivers\peripheral\ipc/cy_ipc_sema.c ****                 /* Ignore the return value since it is OK if it was already released. */
 145:Generated_Source\PSoC6\pdl\drivers\peripheral\ipc/cy_ipc_sema.c ****                 (void) Cy_IPC_Drv_LockRelease (cy_semaIpcStruct, CY_IPC_NO_NOTIFICATION);
  95              		.loc 1 145 0
  96 004c 0021     		movs	r1, #0
  97 004e 2000     		movs	r0, r4
  98 0050 FFF7FEFF 		bl	Cy_IPC_Drv_LockRelease
  99              	.LVL9:
 146:Generated_Source\PSoC6\pdl\drivers\peripheral\ipc/cy_ipc_sema.c **** 
 147:Generated_Source\PSoC6\pdl\drivers\peripheral\ipc/cy_ipc_sema.c ****                  /* Set the IPC Data with the pointer to the array. */
 148:Generated_Source\PSoC6\pdl\drivers\peripheral\ipc/cy_ipc_sema.c ****                 if( CY_IPC_DRV_SUCCESS == Cy_IPC_Drv_SendMsgPtr (cy_semaIpcStruct, CY_IPC_NO_NOTIFI
 100              		.loc 1 148 0
 101 0054 3468     		ldr	r4, [r6]
 102              	.LVL10:
 103              	.LBB20:
 104              	.LBB21:
 453:Generated_Source\PSoC6\pdl\drivers\peripheral\ipc/cy_ipc_drv.h **** }
 454:Generated_Source\PSoC6\pdl\drivers\peripheral\ipc/cy_ipc_drv.h **** 
 455:Generated_Source\PSoC6\pdl\drivers\peripheral\ipc/cy_ipc_drv.h **** 
 456:Generated_Source\PSoC6\pdl\drivers\peripheral\ipc/cy_ipc_drv.h **** /*******************************************************************************
 457:Generated_Source\PSoC6\pdl\drivers\peripheral\ipc/cy_ipc_drv.h **** * Function Name: Cy_IPC_Drv_GetIntrBaseAddr
 458:Generated_Source\PSoC6\pdl\drivers\peripheral\ipc/cy_ipc_drv.h **** ****************************************************************************//**
 459:Generated_Source\PSoC6\pdl\drivers\peripheral\ipc/cy_ipc_drv.h **** *
 460:Generated_Source\PSoC6\pdl\drivers\peripheral\ipc/cy_ipc_drv.h **** * This function takes an IPC interrupt structure index and returns the base
 461:Generated_Source\PSoC6\pdl\drivers\peripheral\ipc/cy_ipc_drv.h **** * address of the IPC interrupt registers corresponding to the IPC Interrupt.
 462:Generated_Source\PSoC6\pdl\drivers\peripheral\ipc/cy_ipc_drv.h **** *
 463:Generated_Source\PSoC6\pdl\drivers\peripheral\ipc/cy_ipc_drv.h **** * \note The user is responsible for ensuring that ipcIntrIndex does not exceed the
 464:Generated_Source\PSoC6\pdl\drivers\peripheral\ipc/cy_ipc_drv.h **** * limits.
 465:Generated_Source\PSoC6\pdl\drivers\peripheral\ipc/cy_ipc_drv.h **** *
 466:Generated_Source\PSoC6\pdl\drivers\peripheral\ipc/cy_ipc_drv.h **** * \param ipcIntrIndex
 467:Generated_Source\PSoC6\pdl\drivers\peripheral\ipc/cy_ipc_drv.h **** * Represents the number of IPC interrupt structure. This is converted to the
 468:Generated_Source\PSoC6\pdl\drivers\peripheral\ipc/cy_ipc_drv.h **** * base address of the IPC interrupt registers.
 469:Generated_Source\PSoC6\pdl\drivers\peripheral\ipc/cy_ipc_drv.h **** *
 470:Generated_Source\PSoC6\pdl\drivers\peripheral\ipc/cy_ipc_drv.h **** * \return
 471:Generated_Source\PSoC6\pdl\drivers\peripheral\ipc/cy_ipc_drv.h **** * Returns a pointer to the base of the IPC interrupt registers.
 472:Generated_Source\PSoC6\pdl\drivers\peripheral\ipc/cy_ipc_drv.h **** *
 473:Generated_Source\PSoC6\pdl\drivers\peripheral\ipc/cy_ipc_drv.h **** * \funcusage
 474:Generated_Source\PSoC6\pdl\drivers\peripheral\ipc/cy_ipc_drv.h **** * \snippet IPC_sut_01.cydsn/main_cm4.c snippet_Cy_IPC_Drv_GetInterruptStatus
 475:Generated_Source\PSoC6\pdl\drivers\peripheral\ipc/cy_ipc_drv.h **** *
 476:Generated_Source\PSoC6\pdl\drivers\peripheral\ipc/cy_ipc_drv.h **** *******************************************************************************/
 477:Generated_Source\PSoC6\pdl\drivers\peripheral\ipc/cy_ipc_drv.h **** __STATIC_INLINE IPC_INTR_STRUCT_Type* Cy_IPC_Drv_GetIntrBaseAddr (uint32_t ipcIntrIndex)
 478:Generated_Source\PSoC6\pdl\drivers\peripheral\ipc/cy_ipc_drv.h **** {
 479:Generated_Source\PSoC6\pdl\drivers\peripheral\ipc/cy_ipc_drv.h ****     CY_ASSERT_L1(CY_IPC_INTERRUPTS > ipcIntrIndex);
 480:Generated_Source\PSoC6\pdl\drivers\peripheral\ipc/cy_ipc_drv.h ****     return ( (IPC_INTR_STRUCT_Type*) &(((IPC_Type *)cy_device->ipcBase)->INTR_STRUCT[ipcIntrIndex])
 481:Generated_Source\PSoC6\pdl\drivers\peripheral\ipc/cy_ipc_drv.h **** }
 482:Generated_Source\PSoC6\pdl\drivers\peripheral\ipc/cy_ipc_drv.h **** 
 483:Generated_Source\PSoC6\pdl\drivers\peripheral\ipc/cy_ipc_drv.h **** 
 484:Generated_Source\PSoC6\pdl\drivers\peripheral\ipc/cy_ipc_drv.h **** /*******************************************************************************
 485:Generated_Source\PSoC6\pdl\drivers\peripheral\ipc/cy_ipc_drv.h **** * Function Name: Cy_IPC_Drv_SetInterruptMask
 486:Generated_Source\PSoC6\pdl\drivers\peripheral\ipc/cy_ipc_drv.h **** ****************************************************************************//**
 487:Generated_Source\PSoC6\pdl\drivers\peripheral\ipc/cy_ipc_drv.h **** *
 488:Generated_Source\PSoC6\pdl\drivers\peripheral\ipc/cy_ipc_drv.h **** * This function is used to set the interrupt mask for an IPC Interrupt.
 489:Generated_Source\PSoC6\pdl\drivers\peripheral\ipc/cy_ipc_drv.h **** * The mask sets release or acquire notification events for all IPC channels.
ARM GAS  C:\Users\mattma1\AppData\Local\Temp\cchZ2NYx.s 			page 14


 490:Generated_Source\PSoC6\pdl\drivers\peripheral\ipc/cy_ipc_drv.h **** *
 491:Generated_Source\PSoC6\pdl\drivers\peripheral\ipc/cy_ipc_drv.h **** * \param base
 492:Generated_Source\PSoC6\pdl\drivers\peripheral\ipc/cy_ipc_drv.h **** * This is a handle to the IPC interrupt. This handle can be calculated from the
 493:Generated_Source\PSoC6\pdl\drivers\peripheral\ipc/cy_ipc_drv.h **** * IPC interrupt number using \ref Cy_IPC_Drv_GetIntrBaseAddr.
 494:Generated_Source\PSoC6\pdl\drivers\peripheral\ipc/cy_ipc_drv.h **** *
 495:Generated_Source\PSoC6\pdl\drivers\peripheral\ipc/cy_ipc_drv.h **** * \param ipcReleaseMask
 496:Generated_Source\PSoC6\pdl\drivers\peripheral\ipc/cy_ipc_drv.h **** * An encoded list of all IPC channels that can trigger the interrupt on a
 497:Generated_Source\PSoC6\pdl\drivers\peripheral\ipc/cy_ipc_drv.h **** * release event.
 498:Generated_Source\PSoC6\pdl\drivers\peripheral\ipc/cy_ipc_drv.h **** *
 499:Generated_Source\PSoC6\pdl\drivers\peripheral\ipc/cy_ipc_drv.h **** * \param ipcAcquireMask
 500:Generated_Source\PSoC6\pdl\drivers\peripheral\ipc/cy_ipc_drv.h **** * An encoded list of all IPC channels that can trigger the interrupt on a
 501:Generated_Source\PSoC6\pdl\drivers\peripheral\ipc/cy_ipc_drv.h **** * notify event.
 502:Generated_Source\PSoC6\pdl\drivers\peripheral\ipc/cy_ipc_drv.h **** *
 503:Generated_Source\PSoC6\pdl\drivers\peripheral\ipc/cy_ipc_drv.h **** * \funcusage
 504:Generated_Source\PSoC6\pdl\drivers\peripheral\ipc/cy_ipc_drv.h **** * \snippet IPC_sut_01.cydsn/main_cm4.c snippet_Cy_IPC_Drv_GetInterruptStatusMasked
 505:Generated_Source\PSoC6\pdl\drivers\peripheral\ipc/cy_ipc_drv.h **** *
 506:Generated_Source\PSoC6\pdl\drivers\peripheral\ipc/cy_ipc_drv.h **** *******************************************************************************/
 507:Generated_Source\PSoC6\pdl\drivers\peripheral\ipc/cy_ipc_drv.h **** __STATIC_INLINE void  Cy_IPC_Drv_SetInterruptMask (IPC_INTR_STRUCT_Type* base,
 508:Generated_Source\PSoC6\pdl\drivers\peripheral\ipc/cy_ipc_drv.h ****                                               uint32_t ipcReleaseMask, uint32_t ipcAcquireMask)
 509:Generated_Source\PSoC6\pdl\drivers\peripheral\ipc/cy_ipc_drv.h **** {
 510:Generated_Source\PSoC6\pdl\drivers\peripheral\ipc/cy_ipc_drv.h ****     CY_ASSERT_L1(0ul == (ipcAcquireMask & ~(uint32_t)(IPC_STRUCT_NOTIFY_INTR_NOTIFY_Msk)));
 511:Generated_Source\PSoC6\pdl\drivers\peripheral\ipc/cy_ipc_drv.h ****     CY_ASSERT_L1(0ul == (ipcReleaseMask & ~(uint32_t)(IPC_STRUCT_RELEASE_INTR_RELEASE_Msk)));
 512:Generated_Source\PSoC6\pdl\drivers\peripheral\ipc/cy_ipc_drv.h ****     REG_IPC_INTR_STRUCT_INTR_MASK(base) = _VAL2FLD( IPC_INTR_STRUCT_INTR_MASK_NOTIFY,  ipcAcquireMa
 513:Generated_Source\PSoC6\pdl\drivers\peripheral\ipc/cy_ipc_drv.h ****                       _VAL2FLD( IPC_INTR_STRUCT_INTR_MASK_RELEASE, ipcReleaseMask);
 514:Generated_Source\PSoC6\pdl\drivers\peripheral\ipc/cy_ipc_drv.h **** }
 515:Generated_Source\PSoC6\pdl\drivers\peripheral\ipc/cy_ipc_drv.h **** 
 516:Generated_Source\PSoC6\pdl\drivers\peripheral\ipc/cy_ipc_drv.h **** 
 517:Generated_Source\PSoC6\pdl\drivers\peripheral\ipc/cy_ipc_drv.h **** /*******************************************************************************
 518:Generated_Source\PSoC6\pdl\drivers\peripheral\ipc/cy_ipc_drv.h **** * Function Name: Cy_IPC_Drv_GetInterruptMask
 519:Generated_Source\PSoC6\pdl\drivers\peripheral\ipc/cy_ipc_drv.h **** ****************************************************************************//**
 520:Generated_Source\PSoC6\pdl\drivers\peripheral\ipc/cy_ipc_drv.h **** *
 521:Generated_Source\PSoC6\pdl\drivers\peripheral\ipc/cy_ipc_drv.h **** * This function is used to read the interrupt mask.
 522:Generated_Source\PSoC6\pdl\drivers\peripheral\ipc/cy_ipc_drv.h **** *
 523:Generated_Source\PSoC6\pdl\drivers\peripheral\ipc/cy_ipc_drv.h **** * \param base
 524:Generated_Source\PSoC6\pdl\drivers\peripheral\ipc/cy_ipc_drv.h **** * This is a handle to the IPC interrupt. This handle can be calculated from
 525:Generated_Source\PSoC6\pdl\drivers\peripheral\ipc/cy_ipc_drv.h **** * the IPC interrupt number using \ref Cy_IPC_Drv_GetIntrBaseAddr.
 526:Generated_Source\PSoC6\pdl\drivers\peripheral\ipc/cy_ipc_drv.h **** *
 527:Generated_Source\PSoC6\pdl\drivers\peripheral\ipc/cy_ipc_drv.h **** * \return
 528:Generated_Source\PSoC6\pdl\drivers\peripheral\ipc/cy_ipc_drv.h **** *   The return value is encoded as follows
 529:Generated_Source\PSoC6\pdl\drivers\peripheral\ipc/cy_ipc_drv.h **** *   <table>
 530:Generated_Source\PSoC6\pdl\drivers\peripheral\ipc/cy_ipc_drv.h **** *   <tr><th>Interrupt sources   <th>Value
 531:Generated_Source\PSoC6\pdl\drivers\peripheral\ipc/cy_ipc_drv.h **** *   <tr><td>Ipc_PORTX_RELEASE   <td>Xth bit set
 532:Generated_Source\PSoC6\pdl\drivers\peripheral\ipc/cy_ipc_drv.h **** *   <tr><td>Ipc_PORTX_NOTIFY    <td>X+16th bit set
 533:Generated_Source\PSoC6\pdl\drivers\peripheral\ipc/cy_ipc_drv.h **** *   </table>
 534:Generated_Source\PSoC6\pdl\drivers\peripheral\ipc/cy_ipc_drv.h **** *
 535:Generated_Source\PSoC6\pdl\drivers\peripheral\ipc/cy_ipc_drv.h **** * \funcusage
 536:Generated_Source\PSoC6\pdl\drivers\peripheral\ipc/cy_ipc_drv.h **** * \snippet IPC_sut_01.cydsn/main_cm4.c snippet_Cy_IPC_Drv_GetInterruptStatusMasked
 537:Generated_Source\PSoC6\pdl\drivers\peripheral\ipc/cy_ipc_drv.h **** *
 538:Generated_Source\PSoC6\pdl\drivers\peripheral\ipc/cy_ipc_drv.h **** *******************************************************************************/
 539:Generated_Source\PSoC6\pdl\drivers\peripheral\ipc/cy_ipc_drv.h **** __STATIC_INLINE uint32_t Cy_IPC_Drv_GetInterruptMask(IPC_INTR_STRUCT_Type const * base)
 540:Generated_Source\PSoC6\pdl\drivers\peripheral\ipc/cy_ipc_drv.h **** {
 541:Generated_Source\PSoC6\pdl\drivers\peripheral\ipc/cy_ipc_drv.h ****     return REG_IPC_INTR_STRUCT_INTR_MASK(base);
 542:Generated_Source\PSoC6\pdl\drivers\peripheral\ipc/cy_ipc_drv.h **** }
 543:Generated_Source\PSoC6\pdl\drivers\peripheral\ipc/cy_ipc_drv.h **** 
 544:Generated_Source\PSoC6\pdl\drivers\peripheral\ipc/cy_ipc_drv.h **** 
 545:Generated_Source\PSoC6\pdl\drivers\peripheral\ipc/cy_ipc_drv.h **** /*******************************************************************************
 546:Generated_Source\PSoC6\pdl\drivers\peripheral\ipc/cy_ipc_drv.h **** * Function Name: Cy_IPC_Drv_GetInterruptStatusMasked
ARM GAS  C:\Users\mattma1\AppData\Local\Temp\cchZ2NYx.s 			page 15


 547:Generated_Source\PSoC6\pdl\drivers\peripheral\ipc/cy_ipc_drv.h **** ****************************************************************************//**
 548:Generated_Source\PSoC6\pdl\drivers\peripheral\ipc/cy_ipc_drv.h **** *
 549:Generated_Source\PSoC6\pdl\drivers\peripheral\ipc/cy_ipc_drv.h **** * This function is used to read the active unmasked interrupt. This function
 550:Generated_Source\PSoC6\pdl\drivers\peripheral\ipc/cy_ipc_drv.h **** * can be used in the interrupt service routine to find which source triggered
 551:Generated_Source\PSoC6\pdl\drivers\peripheral\ipc/cy_ipc_drv.h **** * the interrupt.
 552:Generated_Source\PSoC6\pdl\drivers\peripheral\ipc/cy_ipc_drv.h **** *
 553:Generated_Source\PSoC6\pdl\drivers\peripheral\ipc/cy_ipc_drv.h **** * \param base
 554:Generated_Source\PSoC6\pdl\drivers\peripheral\ipc/cy_ipc_drv.h **** * This is a handle to the IPC interrupt. This handle can be calculated from the
 555:Generated_Source\PSoC6\pdl\drivers\peripheral\ipc/cy_ipc_drv.h **** * IPC interrupt number using \ref Cy_IPC_Drv_GetIntrBaseAddr.
 556:Generated_Source\PSoC6\pdl\drivers\peripheral\ipc/cy_ipc_drv.h **** *
 557:Generated_Source\PSoC6\pdl\drivers\peripheral\ipc/cy_ipc_drv.h **** * \return
 558:Generated_Source\PSoC6\pdl\drivers\peripheral\ipc/cy_ipc_drv.h **** *   The return value is encoded as follows
 559:Generated_Source\PSoC6\pdl\drivers\peripheral\ipc/cy_ipc_drv.h **** *   <table>
 560:Generated_Source\PSoC6\pdl\drivers\peripheral\ipc/cy_ipc_drv.h **** *   <tr><th>Interrupt sources   <th>Value
 561:Generated_Source\PSoC6\pdl\drivers\peripheral\ipc/cy_ipc_drv.h **** *   <tr><td>Ipc_PORTX_RELEASE   <td>Xth bit set
 562:Generated_Source\PSoC6\pdl\drivers\peripheral\ipc/cy_ipc_drv.h **** *   <tr><td>Ipc_PORTX_NOTIFY    <td>X+16th bit set
 563:Generated_Source\PSoC6\pdl\drivers\peripheral\ipc/cy_ipc_drv.h **** *   </table>
 564:Generated_Source\PSoC6\pdl\drivers\peripheral\ipc/cy_ipc_drv.h **** *
 565:Generated_Source\PSoC6\pdl\drivers\peripheral\ipc/cy_ipc_drv.h **** * \funcusage
 566:Generated_Source\PSoC6\pdl\drivers\peripheral\ipc/cy_ipc_drv.h **** * \snippet IPC_sut_01.cydsn/main_cm4.c snippet_Cy_IPC_Drv_GetInterruptStatusMasked
 567:Generated_Source\PSoC6\pdl\drivers\peripheral\ipc/cy_ipc_drv.h **** *
 568:Generated_Source\PSoC6\pdl\drivers\peripheral\ipc/cy_ipc_drv.h **** *******************************************************************************/
 569:Generated_Source\PSoC6\pdl\drivers\peripheral\ipc/cy_ipc_drv.h **** __STATIC_INLINE uint32_t Cy_IPC_Drv_GetInterruptStatusMasked (IPC_INTR_STRUCT_Type const * base)
 570:Generated_Source\PSoC6\pdl\drivers\peripheral\ipc/cy_ipc_drv.h **** {
 571:Generated_Source\PSoC6\pdl\drivers\peripheral\ipc/cy_ipc_drv.h ****     return REG_IPC_INTR_STRUCT_INTR_MASKED(base);
 572:Generated_Source\PSoC6\pdl\drivers\peripheral\ipc/cy_ipc_drv.h **** }
 573:Generated_Source\PSoC6\pdl\drivers\peripheral\ipc/cy_ipc_drv.h **** 
 574:Generated_Source\PSoC6\pdl\drivers\peripheral\ipc/cy_ipc_drv.h **** 
 575:Generated_Source\PSoC6\pdl\drivers\peripheral\ipc/cy_ipc_drv.h **** /*******************************************************************************
 576:Generated_Source\PSoC6\pdl\drivers\peripheral\ipc/cy_ipc_drv.h **** * Function Name: Cy_IPC_Drv_GetInterruptStatus
 577:Generated_Source\PSoC6\pdl\drivers\peripheral\ipc/cy_ipc_drv.h **** ****************************************************************************//**
 578:Generated_Source\PSoC6\pdl\drivers\peripheral\ipc/cy_ipc_drv.h **** *
 579:Generated_Source\PSoC6\pdl\drivers\peripheral\ipc/cy_ipc_drv.h **** * This function is used to read the pending interrupts. Note that this read is
 580:Generated_Source\PSoC6\pdl\drivers\peripheral\ipc/cy_ipc_drv.h **** * an unmasked read of the interrupt status. Interrupt sources read as active by
 581:Generated_Source\PSoC6\pdl\drivers\peripheral\ipc/cy_ipc_drv.h **** * this function would generate interrupts only if they were not masked.
 582:Generated_Source\PSoC6\pdl\drivers\peripheral\ipc/cy_ipc_drv.h **** *
 583:Generated_Source\PSoC6\pdl\drivers\peripheral\ipc/cy_ipc_drv.h **** * \param base
 584:Generated_Source\PSoC6\pdl\drivers\peripheral\ipc/cy_ipc_drv.h **** * This is a handle to the IPC interrupt. This handle can be calculated from the
 585:Generated_Source\PSoC6\pdl\drivers\peripheral\ipc/cy_ipc_drv.h **** * IPC interrupt number using \ref Cy_IPC_Drv_GetIntrBaseAddr.
 586:Generated_Source\PSoC6\pdl\drivers\peripheral\ipc/cy_ipc_drv.h **** *
 587:Generated_Source\PSoC6\pdl\drivers\peripheral\ipc/cy_ipc_drv.h **** * \return
 588:Generated_Source\PSoC6\pdl\drivers\peripheral\ipc/cy_ipc_drv.h **** *   The return value is encoded as follows
 589:Generated_Source\PSoC6\pdl\drivers\peripheral\ipc/cy_ipc_drv.h **** *   <table>
 590:Generated_Source\PSoC6\pdl\drivers\peripheral\ipc/cy_ipc_drv.h **** *   <tr><th>Interrupt sources   <th>Value
 591:Generated_Source\PSoC6\pdl\drivers\peripheral\ipc/cy_ipc_drv.h **** *   <tr><td>Ipc_PORTX_RELEASE   <td>Xth bit set
 592:Generated_Source\PSoC6\pdl\drivers\peripheral\ipc/cy_ipc_drv.h **** *   <tr><td>Ipc_PORTX_NOTIFY    <td>X+16th bit set
 593:Generated_Source\PSoC6\pdl\drivers\peripheral\ipc/cy_ipc_drv.h **** *   </table>
 594:Generated_Source\PSoC6\pdl\drivers\peripheral\ipc/cy_ipc_drv.h **** *
 595:Generated_Source\PSoC6\pdl\drivers\peripheral\ipc/cy_ipc_drv.h **** * \funcusage
 596:Generated_Source\PSoC6\pdl\drivers\peripheral\ipc/cy_ipc_drv.h **** * \snippet IPC_sut_01.cydsn/main_cm4.c snippet_Cy_IPC_Drv_GetInterruptStatus
 597:Generated_Source\PSoC6\pdl\drivers\peripheral\ipc/cy_ipc_drv.h **** *
 598:Generated_Source\PSoC6\pdl\drivers\peripheral\ipc/cy_ipc_drv.h **** *******************************************************************************/
 599:Generated_Source\PSoC6\pdl\drivers\peripheral\ipc/cy_ipc_drv.h **** __STATIC_INLINE uint32_t Cy_IPC_Drv_GetInterruptStatus(IPC_INTR_STRUCT_Type const * base)
 600:Generated_Source\PSoC6\pdl\drivers\peripheral\ipc/cy_ipc_drv.h **** {
 601:Generated_Source\PSoC6\pdl\drivers\peripheral\ipc/cy_ipc_drv.h ****     return REG_IPC_INTR_STRUCT_INTR(base);
 602:Generated_Source\PSoC6\pdl\drivers\peripheral\ipc/cy_ipc_drv.h **** }
 603:Generated_Source\PSoC6\pdl\drivers\peripheral\ipc/cy_ipc_drv.h **** 
ARM GAS  C:\Users\mattma1\AppData\Local\Temp\cchZ2NYx.s 			page 16


 604:Generated_Source\PSoC6\pdl\drivers\peripheral\ipc/cy_ipc_drv.h **** 
 605:Generated_Source\PSoC6\pdl\drivers\peripheral\ipc/cy_ipc_drv.h **** /*******************************************************************************
 606:Generated_Source\PSoC6\pdl\drivers\peripheral\ipc/cy_ipc_drv.h **** * Function Name: Cy_IPC_Drv_SetInterrupt
 607:Generated_Source\PSoC6\pdl\drivers\peripheral\ipc/cy_ipc_drv.h **** ****************************************************************************//**
 608:Generated_Source\PSoC6\pdl\drivers\peripheral\ipc/cy_ipc_drv.h **** *
 609:Generated_Source\PSoC6\pdl\drivers\peripheral\ipc/cy_ipc_drv.h **** * This function is used to set the interrupt source. This function can be used
 610:Generated_Source\PSoC6\pdl\drivers\peripheral\ipc/cy_ipc_drv.h **** * to activate interrupts through software.
 611:Generated_Source\PSoC6\pdl\drivers\peripheral\ipc/cy_ipc_drv.h **** * \note That interrupt sources set using this interrupt would generate interrupts
 612:Generated_Source\PSoC6\pdl\drivers\peripheral\ipc/cy_ipc_drv.h **** * only if they are not masked.
 613:Generated_Source\PSoC6\pdl\drivers\peripheral\ipc/cy_ipc_drv.h **** *
 614:Generated_Source\PSoC6\pdl\drivers\peripheral\ipc/cy_ipc_drv.h **** * \param base
 615:Generated_Source\PSoC6\pdl\drivers\peripheral\ipc/cy_ipc_drv.h **** * This is a handle to the IPC interrupt. This handle can be calculated from the
 616:Generated_Source\PSoC6\pdl\drivers\peripheral\ipc/cy_ipc_drv.h **** * IPC interrupt number using \ref Cy_IPC_Drv_GetIntrBaseAddr.
 617:Generated_Source\PSoC6\pdl\drivers\peripheral\ipc/cy_ipc_drv.h **** *
 618:Generated_Source\PSoC6\pdl\drivers\peripheral\ipc/cy_ipc_drv.h **** * \param ipcReleaseMask
 619:Generated_Source\PSoC6\pdl\drivers\peripheral\ipc/cy_ipc_drv.h **** * An encoded list of all IPC channels that can trigger the interrupt on a
 620:Generated_Source\PSoC6\pdl\drivers\peripheral\ipc/cy_ipc_drv.h **** * release event.
 621:Generated_Source\PSoC6\pdl\drivers\peripheral\ipc/cy_ipc_drv.h **** *
 622:Generated_Source\PSoC6\pdl\drivers\peripheral\ipc/cy_ipc_drv.h **** * \param ipcAcquireMask
 623:Generated_Source\PSoC6\pdl\drivers\peripheral\ipc/cy_ipc_drv.h **** * An encoded list of all IPC channels that can trigger the interrupt on a
 624:Generated_Source\PSoC6\pdl\drivers\peripheral\ipc/cy_ipc_drv.h **** * notify event.
 625:Generated_Source\PSoC6\pdl\drivers\peripheral\ipc/cy_ipc_drv.h **** *
 626:Generated_Source\PSoC6\pdl\drivers\peripheral\ipc/cy_ipc_drv.h **** * \funcusage
 627:Generated_Source\PSoC6\pdl\drivers\peripheral\ipc/cy_ipc_drv.h **** * \snippet IPC_sut_01.cydsn/main_cm4.c snippet_Cy_IPC_Drv_SetInterrupt
 628:Generated_Source\PSoC6\pdl\drivers\peripheral\ipc/cy_ipc_drv.h **** *
 629:Generated_Source\PSoC6\pdl\drivers\peripheral\ipc/cy_ipc_drv.h **** *******************************************************************************/
 630:Generated_Source\PSoC6\pdl\drivers\peripheral\ipc/cy_ipc_drv.h **** __STATIC_INLINE void  Cy_IPC_Drv_SetInterrupt(IPC_INTR_STRUCT_Type* base, uint32_t ipcReleaseMask, 
 631:Generated_Source\PSoC6\pdl\drivers\peripheral\ipc/cy_ipc_drv.h **** {
 632:Generated_Source\PSoC6\pdl\drivers\peripheral\ipc/cy_ipc_drv.h ****     CY_ASSERT_L1(0ul == (ipcAcquireMask  & ~(uint32_t)(IPC_STRUCT_NOTIFY_INTR_NOTIFY_Msk)));
 633:Generated_Source\PSoC6\pdl\drivers\peripheral\ipc/cy_ipc_drv.h ****     CY_ASSERT_L1(0ul == (ipcReleaseMask & ~(uint32_t)(IPC_STRUCT_RELEASE_INTR_RELEASE_Msk)));
 634:Generated_Source\PSoC6\pdl\drivers\peripheral\ipc/cy_ipc_drv.h ****     REG_IPC_INTR_STRUCT_INTR_SET(base) =  _VAL2FLD( IPC_INTR_STRUCT_INTR_NOTIFY,  ipcAcquireMask ) 
 635:Generated_Source\PSoC6\pdl\drivers\peripheral\ipc/cy_ipc_drv.h ****                       _VAL2FLD( IPC_INTR_STRUCT_INTR_RELEASE, ipcReleaseMask );
 636:Generated_Source\PSoC6\pdl\drivers\peripheral\ipc/cy_ipc_drv.h **** }
 637:Generated_Source\PSoC6\pdl\drivers\peripheral\ipc/cy_ipc_drv.h **** 
 638:Generated_Source\PSoC6\pdl\drivers\peripheral\ipc/cy_ipc_drv.h **** 
 639:Generated_Source\PSoC6\pdl\drivers\peripheral\ipc/cy_ipc_drv.h **** /*******************************************************************************
 640:Generated_Source\PSoC6\pdl\drivers\peripheral\ipc/cy_ipc_drv.h **** * Function Name: Cy_IPC_Drv_ClearInterrupt
 641:Generated_Source\PSoC6\pdl\drivers\peripheral\ipc/cy_ipc_drv.h **** ****************************************************************************//**
 642:Generated_Source\PSoC6\pdl\drivers\peripheral\ipc/cy_ipc_drv.h **** *
 643:Generated_Source\PSoC6\pdl\drivers\peripheral\ipc/cy_ipc_drv.h **** * This function is used to clear the interrupt source. Use this function to clear
 644:Generated_Source\PSoC6\pdl\drivers\peripheral\ipc/cy_ipc_drv.h **** * a pending interrupt source in the interrupt status.
 645:Generated_Source\PSoC6\pdl\drivers\peripheral\ipc/cy_ipc_drv.h **** *
 646:Generated_Source\PSoC6\pdl\drivers\peripheral\ipc/cy_ipc_drv.h **** * \param base
 647:Generated_Source\PSoC6\pdl\drivers\peripheral\ipc/cy_ipc_drv.h **** * This is a handle to the IPC interrupt. This handle can be calculated from the
 648:Generated_Source\PSoC6\pdl\drivers\peripheral\ipc/cy_ipc_drv.h **** * IPC interrupt number using \ref Cy_IPC_Drv_GetIntrBaseAddr.
 649:Generated_Source\PSoC6\pdl\drivers\peripheral\ipc/cy_ipc_drv.h **** *
 650:Generated_Source\PSoC6\pdl\drivers\peripheral\ipc/cy_ipc_drv.h **** * \param ipcReleaseMask
 651:Generated_Source\PSoC6\pdl\drivers\peripheral\ipc/cy_ipc_drv.h **** * An encoded list of all IPC channels that can trigger the interrupt on a
 652:Generated_Source\PSoC6\pdl\drivers\peripheral\ipc/cy_ipc_drv.h **** * release event.
 653:Generated_Source\PSoC6\pdl\drivers\peripheral\ipc/cy_ipc_drv.h **** *
 654:Generated_Source\PSoC6\pdl\drivers\peripheral\ipc/cy_ipc_drv.h **** * \param ipcAcquireMask
 655:Generated_Source\PSoC6\pdl\drivers\peripheral\ipc/cy_ipc_drv.h **** * An encoded list of all IPC channels that can trigger the interrupt on a
 656:Generated_Source\PSoC6\pdl\drivers\peripheral\ipc/cy_ipc_drv.h **** * notify event.
 657:Generated_Source\PSoC6\pdl\drivers\peripheral\ipc/cy_ipc_drv.h **** *
 658:Generated_Source\PSoC6\pdl\drivers\peripheral\ipc/cy_ipc_drv.h **** * \funcusage
 659:Generated_Source\PSoC6\pdl\drivers\peripheral\ipc/cy_ipc_drv.h **** * \snippet IPC_sut_01.cydsn/main_cm4.c snippet_Cy_IPC_Drv_GetInterruptStatusMasked
 660:Generated_Source\PSoC6\pdl\drivers\peripheral\ipc/cy_ipc_drv.h **** *
ARM GAS  C:\Users\mattma1\AppData\Local\Temp\cchZ2NYx.s 			page 17


 661:Generated_Source\PSoC6\pdl\drivers\peripheral\ipc/cy_ipc_drv.h **** *******************************************************************************/
 662:Generated_Source\PSoC6\pdl\drivers\peripheral\ipc/cy_ipc_drv.h **** __STATIC_INLINE void  Cy_IPC_Drv_ClearInterrupt(IPC_INTR_STRUCT_Type* base, uint32_t ipcReleaseMask
 663:Generated_Source\PSoC6\pdl\drivers\peripheral\ipc/cy_ipc_drv.h **** {
 664:Generated_Source\PSoC6\pdl\drivers\peripheral\ipc/cy_ipc_drv.h ****     CY_ASSERT_L1(0ul == (ipcAcquireMask  & ~(uint32_t)(IPC_STRUCT_NOTIFY_INTR_NOTIFY_Msk)));
 665:Generated_Source\PSoC6\pdl\drivers\peripheral\ipc/cy_ipc_drv.h ****     CY_ASSERT_L1(0ul == (ipcReleaseMask & ~(uint32_t)(IPC_STRUCT_RELEASE_INTR_RELEASE_Msk)));
 666:Generated_Source\PSoC6\pdl\drivers\peripheral\ipc/cy_ipc_drv.h ****     REG_IPC_INTR_STRUCT_INTR(base) =  _VAL2FLD(IPC_INTR_STRUCT_INTR_NOTIFY,  ipcAcquireMask) |
 667:Generated_Source\PSoC6\pdl\drivers\peripheral\ipc/cy_ipc_drv.h ****                   _VAL2FLD(IPC_INTR_STRUCT_INTR_RELEASE, ipcReleaseMask);
 668:Generated_Source\PSoC6\pdl\drivers\peripheral\ipc/cy_ipc_drv.h ****     (void)REG_IPC_INTR_STRUCT_INTR(base);  /* Read the register to flush the cache */
 669:Generated_Source\PSoC6\pdl\drivers\peripheral\ipc/cy_ipc_drv.h **** }
 670:Generated_Source\PSoC6\pdl\drivers\peripheral\ipc/cy_ipc_drv.h **** 
 671:Generated_Source\PSoC6\pdl\drivers\peripheral\ipc/cy_ipc_drv.h **** /** \} group_ipc_functions */
 672:Generated_Source\PSoC6\pdl\drivers\peripheral\ipc/cy_ipc_drv.h **** 
 673:Generated_Source\PSoC6\pdl\drivers\peripheral\ipc/cy_ipc_drv.h **** /** \} group_ipc */
 674:Generated_Source\PSoC6\pdl\drivers\peripheral\ipc/cy_ipc_drv.h **** 
 675:Generated_Source\PSoC6\pdl\drivers\peripheral\ipc/cy_ipc_drv.h **** 
 676:Generated_Source\PSoC6\pdl\drivers\peripheral\ipc/cy_ipc_drv.h **** /*******************************************************************************
 677:Generated_Source\PSoC6\pdl\drivers\peripheral\ipc/cy_ipc_drv.h **** * Function Name: Cy_IPC_Drv_AcquireNotify
 678:Generated_Source\PSoC6\pdl\drivers\peripheral\ipc/cy_ipc_drv.h **** ****************************************************************************//**
 679:Generated_Source\PSoC6\pdl\drivers\peripheral\ipc/cy_ipc_drv.h **** *
 680:Generated_Source\PSoC6\pdl\drivers\peripheral\ipc/cy_ipc_drv.h **** * The function generates a acquire notification event by IPC interrupt structure.
 681:Generated_Source\PSoC6\pdl\drivers\peripheral\ipc/cy_ipc_drv.h **** *
 682:Generated_Source\PSoC6\pdl\drivers\peripheral\ipc/cy_ipc_drv.h **** * \param base
 683:Generated_Source\PSoC6\pdl\drivers\peripheral\ipc/cy_ipc_drv.h **** * This parameter is a handle that represents the base address of the registers
 684:Generated_Source\PSoC6\pdl\drivers\peripheral\ipc/cy_ipc_drv.h **** * of the IPC channel.
 685:Generated_Source\PSoC6\pdl\drivers\peripheral\ipc/cy_ipc_drv.h **** * The parameter is generally returned from a call to the \ref
 686:Generated_Source\PSoC6\pdl\drivers\peripheral\ipc/cy_ipc_drv.h **** * Cy_IPC_Drv_GetIpcBaseAddress.
 687:Generated_Source\PSoC6\pdl\drivers\peripheral\ipc/cy_ipc_drv.h **** *
 688:Generated_Source\PSoC6\pdl\drivers\peripheral\ipc/cy_ipc_drv.h **** * \param notifyEventIntr
 689:Generated_Source\PSoC6\pdl\drivers\peripheral\ipc/cy_ipc_drv.h **** * Bit encoded list of IPC interrupt structures that are triggered
 690:Generated_Source\PSoC6\pdl\drivers\peripheral\ipc/cy_ipc_drv.h **** * by a notification. Bit number correspond to number of the IPC interrupt
 691:Generated_Source\PSoC6\pdl\drivers\peripheral\ipc/cy_ipc_drv.h **** * structure.
 692:Generated_Source\PSoC6\pdl\drivers\peripheral\ipc/cy_ipc_drv.h **** *
 693:Generated_Source\PSoC6\pdl\drivers\peripheral\ipc/cy_ipc_drv.h **** * \funcusage
 694:Generated_Source\PSoC6\pdl\drivers\peripheral\ipc/cy_ipc_drv.h **** * \snippet IPC_sut_01.cydsn/main_cm4.c snippet_Cy_IPC_Drv_LockAcquire
 695:Generated_Source\PSoC6\pdl\drivers\peripheral\ipc/cy_ipc_drv.h **** *
 696:Generated_Source\PSoC6\pdl\drivers\peripheral\ipc/cy_ipc_drv.h **** *******************************************************************************/
 697:Generated_Source\PSoC6\pdl\drivers\peripheral\ipc/cy_ipc_drv.h **** __STATIC_INLINE void  Cy_IPC_Drv_AcquireNotify (IPC_STRUCT_Type* base, uint32_t notifyEventIntr)
 698:Generated_Source\PSoC6\pdl\drivers\peripheral\ipc/cy_ipc_drv.h **** {
 699:Generated_Source\PSoC6\pdl\drivers\peripheral\ipc/cy_ipc_drv.h ****     CY_ASSERT_L1(0ul == (notifyEventIntr  & ~(uint32_t)(IPC_STRUCT_NOTIFY_INTR_NOTIFY_Msk)));
 700:Generated_Source\PSoC6\pdl\drivers\peripheral\ipc/cy_ipc_drv.h ****     REG_IPC_STRUCT_NOTIFY(base) = _VAL2FLD(IPC_STRUCT_NOTIFY_INTR_NOTIFY, notifyEventIntr);
 701:Generated_Source\PSoC6\pdl\drivers\peripheral\ipc/cy_ipc_drv.h **** }
 702:Generated_Source\PSoC6\pdl\drivers\peripheral\ipc/cy_ipc_drv.h **** 
 703:Generated_Source\PSoC6\pdl\drivers\peripheral\ipc/cy_ipc_drv.h **** 
 704:Generated_Source\PSoC6\pdl\drivers\peripheral\ipc/cy_ipc_drv.h **** /*******************************************************************************
 705:Generated_Source\PSoC6\pdl\drivers\peripheral\ipc/cy_ipc_drv.h **** * Function Name: Cy_IPC_Drv_ReleaseNotify
 706:Generated_Source\PSoC6\pdl\drivers\peripheral\ipc/cy_ipc_drv.h **** ****************************************************************************//**
 707:Generated_Source\PSoC6\pdl\drivers\peripheral\ipc/cy_ipc_drv.h **** *
 708:Generated_Source\PSoC6\pdl\drivers\peripheral\ipc/cy_ipc_drv.h **** * The function generates a release notification event by IPC interrupt structure.
 709:Generated_Source\PSoC6\pdl\drivers\peripheral\ipc/cy_ipc_drv.h **** *
 710:Generated_Source\PSoC6\pdl\drivers\peripheral\ipc/cy_ipc_drv.h **** * \param base
 711:Generated_Source\PSoC6\pdl\drivers\peripheral\ipc/cy_ipc_drv.h **** * This parameter is a handle that represents the base address of the registers
 712:Generated_Source\PSoC6\pdl\drivers\peripheral\ipc/cy_ipc_drv.h **** * of the IPC channel.
 713:Generated_Source\PSoC6\pdl\drivers\peripheral\ipc/cy_ipc_drv.h **** * The parameter is generally returned from a call to the \ref
 714:Generated_Source\PSoC6\pdl\drivers\peripheral\ipc/cy_ipc_drv.h **** * Cy_IPC_Drv_GetIpcBaseAddress.
 715:Generated_Source\PSoC6\pdl\drivers\peripheral\ipc/cy_ipc_drv.h **** *
 716:Generated_Source\PSoC6\pdl\drivers\peripheral\ipc/cy_ipc_drv.h **** * \param notifyEventIntr
 717:Generated_Source\PSoC6\pdl\drivers\peripheral\ipc/cy_ipc_drv.h **** * Bit encoded list of IPC interrupt lines that are triggered by a notification.
ARM GAS  C:\Users\mattma1\AppData\Local\Temp\cchZ2NYx.s 			page 18


 718:Generated_Source\PSoC6\pdl\drivers\peripheral\ipc/cy_ipc_drv.h **** *
 719:Generated_Source\PSoC6\pdl\drivers\peripheral\ipc/cy_ipc_drv.h **** * \funcusage
 720:Generated_Source\PSoC6\pdl\drivers\peripheral\ipc/cy_ipc_drv.h **** * \snippet IPC_sut_01.cydsn/main_cm4.c snippet_Cy_IPC_Drv_ReadMsgWord
 721:Generated_Source\PSoC6\pdl\drivers\peripheral\ipc/cy_ipc_drv.h **** *
 722:Generated_Source\PSoC6\pdl\drivers\peripheral\ipc/cy_ipc_drv.h **** *******************************************************************************/
 723:Generated_Source\PSoC6\pdl\drivers\peripheral\ipc/cy_ipc_drv.h **** __STATIC_INLINE void  Cy_IPC_Drv_ReleaseNotify (IPC_STRUCT_Type* base, uint32_t notifyEventIntr)
 724:Generated_Source\PSoC6\pdl\drivers\peripheral\ipc/cy_ipc_drv.h **** {
 725:Generated_Source\PSoC6\pdl\drivers\peripheral\ipc/cy_ipc_drv.h ****     CY_ASSERT_L1(0ul == (notifyEventIntr  & ~(uint32_t)(IPC_INTR_STRUCT_INTR_RELEASE_Msk)));
 726:Generated_Source\PSoC6\pdl\drivers\peripheral\ipc/cy_ipc_drv.h ****     REG_IPC_STRUCT_RELEASE(base) = _VAL2FLD(IPC_INTR_STRUCT_INTR_RELEASE, notifyEventIntr);
 727:Generated_Source\PSoC6\pdl\drivers\peripheral\ipc/cy_ipc_drv.h **** }
 728:Generated_Source\PSoC6\pdl\drivers\peripheral\ipc/cy_ipc_drv.h **** 
 729:Generated_Source\PSoC6\pdl\drivers\peripheral\ipc/cy_ipc_drv.h **** 
 730:Generated_Source\PSoC6\pdl\drivers\peripheral\ipc/cy_ipc_drv.h **** /*******************************************************************************
 731:Generated_Source\PSoC6\pdl\drivers\peripheral\ipc/cy_ipc_drv.h **** * Function Name: Cy_IPC_Drv_WriteDataValue
 732:Generated_Source\PSoC6\pdl\drivers\peripheral\ipc/cy_ipc_drv.h **** ****************************************************************************//**
 733:Generated_Source\PSoC6\pdl\drivers\peripheral\ipc/cy_ipc_drv.h **** *
 734:Generated_Source\PSoC6\pdl\drivers\peripheral\ipc/cy_ipc_drv.h **** * The function writes a value to the DATA register of the IPC channel.
 735:Generated_Source\PSoC6\pdl\drivers\peripheral\ipc/cy_ipc_drv.h **** *
 736:Generated_Source\PSoC6\pdl\drivers\peripheral\ipc/cy_ipc_drv.h **** * This function is internal and should not be called directly by user
 737:Generated_Source\PSoC6\pdl\drivers\peripheral\ipc/cy_ipc_drv.h **** * software.
 738:Generated_Source\PSoC6\pdl\drivers\peripheral\ipc/cy_ipc_drv.h **** *
 739:Generated_Source\PSoC6\pdl\drivers\peripheral\ipc/cy_ipc_drv.h **** * \param base
 740:Generated_Source\PSoC6\pdl\drivers\peripheral\ipc/cy_ipc_drv.h **** * This parameter is a handle that represents the base address of the registers
 741:Generated_Source\PSoC6\pdl\drivers\peripheral\ipc/cy_ipc_drv.h **** * of the IPC channel.
 742:Generated_Source\PSoC6\pdl\drivers\peripheral\ipc/cy_ipc_drv.h **** * The parameter is generally returned from a call to the \ref
 743:Generated_Source\PSoC6\pdl\drivers\peripheral\ipc/cy_ipc_drv.h **** * Cy_IPC_Drv_GetIpcBaseAddress.
 744:Generated_Source\PSoC6\pdl\drivers\peripheral\ipc/cy_ipc_drv.h **** *
 745:Generated_Source\PSoC6\pdl\drivers\peripheral\ipc/cy_ipc_drv.h **** * \param dataValue
 746:Generated_Source\PSoC6\pdl\drivers\peripheral\ipc/cy_ipc_drv.h **** * Value to be written.
 747:Generated_Source\PSoC6\pdl\drivers\peripheral\ipc/cy_ipc_drv.h **** *
 748:Generated_Source\PSoC6\pdl\drivers\peripheral\ipc/cy_ipc_drv.h **** *******************************************************************************/
 749:Generated_Source\PSoC6\pdl\drivers\peripheral\ipc/cy_ipc_drv.h **** __STATIC_INLINE void     Cy_IPC_Drv_WriteDataValue (IPC_STRUCT_Type* base, uint32_t dataValue)
 750:Generated_Source\PSoC6\pdl\drivers\peripheral\ipc/cy_ipc_drv.h **** {
 751:Generated_Source\PSoC6\pdl\drivers\peripheral\ipc/cy_ipc_drv.h ****     REG_IPC_STRUCT_DATA(base) = dataValue;
 752:Generated_Source\PSoC6\pdl\drivers\peripheral\ipc/cy_ipc_drv.h **** }
 753:Generated_Source\PSoC6\pdl\drivers\peripheral\ipc/cy_ipc_drv.h **** 
 754:Generated_Source\PSoC6\pdl\drivers\peripheral\ipc/cy_ipc_drv.h **** 
 755:Generated_Source\PSoC6\pdl\drivers\peripheral\ipc/cy_ipc_drv.h **** /*******************************************************************************
 756:Generated_Source\PSoC6\pdl\drivers\peripheral\ipc/cy_ipc_drv.h **** * Function Name: Cy_IPC_Drv_ReadDataValue
 757:Generated_Source\PSoC6\pdl\drivers\peripheral\ipc/cy_ipc_drv.h **** ****************************************************************************//**
 758:Generated_Source\PSoC6\pdl\drivers\peripheral\ipc/cy_ipc_drv.h **** *
 759:Generated_Source\PSoC6\pdl\drivers\peripheral\ipc/cy_ipc_drv.h **** * The function reads a value from the DATA register of the IPC channel.
 760:Generated_Source\PSoC6\pdl\drivers\peripheral\ipc/cy_ipc_drv.h **** *
 761:Generated_Source\PSoC6\pdl\drivers\peripheral\ipc/cy_ipc_drv.h **** * This function is internal and should not be called directly by user
 762:Generated_Source\PSoC6\pdl\drivers\peripheral\ipc/cy_ipc_drv.h **** * software.
 763:Generated_Source\PSoC6\pdl\drivers\peripheral\ipc/cy_ipc_drv.h **** *
 764:Generated_Source\PSoC6\pdl\drivers\peripheral\ipc/cy_ipc_drv.h **** * \param base
 765:Generated_Source\PSoC6\pdl\drivers\peripheral\ipc/cy_ipc_drv.h **** * This parameter is a handle that represents the base address of the registers
 766:Generated_Source\PSoC6\pdl\drivers\peripheral\ipc/cy_ipc_drv.h **** * of the IPC channel.
 767:Generated_Source\PSoC6\pdl\drivers\peripheral\ipc/cy_ipc_drv.h **** * The parameter is generally returned from a call to the \ref
 768:Generated_Source\PSoC6\pdl\drivers\peripheral\ipc/cy_ipc_drv.h **** * Cy_IPC_Drv_GetIpcBaseAddress.
 769:Generated_Source\PSoC6\pdl\drivers\peripheral\ipc/cy_ipc_drv.h **** *
 770:Generated_Source\PSoC6\pdl\drivers\peripheral\ipc/cy_ipc_drv.h **** * \return
 771:Generated_Source\PSoC6\pdl\drivers\peripheral\ipc/cy_ipc_drv.h **** * Value from DATA register.
 772:Generated_Source\PSoC6\pdl\drivers\peripheral\ipc/cy_ipc_drv.h **** *
 773:Generated_Source\PSoC6\pdl\drivers\peripheral\ipc/cy_ipc_drv.h **** *******************************************************************************/
 774:Generated_Source\PSoC6\pdl\drivers\peripheral\ipc/cy_ipc_drv.h **** __STATIC_INLINE uint32_t Cy_IPC_Drv_ReadDataValue (IPC_STRUCT_Type const * base)
ARM GAS  C:\Users\mattma1\AppData\Local\Temp\cchZ2NYx.s 			page 19


 775:Generated_Source\PSoC6\pdl\drivers\peripheral\ipc/cy_ipc_drv.h **** {
 776:Generated_Source\PSoC6\pdl\drivers\peripheral\ipc/cy_ipc_drv.h ****     return REG_IPC_STRUCT_DATA(base);
 777:Generated_Source\PSoC6\pdl\drivers\peripheral\ipc/cy_ipc_drv.h **** }
 778:Generated_Source\PSoC6\pdl\drivers\peripheral\ipc/cy_ipc_drv.h **** 
 779:Generated_Source\PSoC6\pdl\drivers\peripheral\ipc/cy_ipc_drv.h **** 
 780:Generated_Source\PSoC6\pdl\drivers\peripheral\ipc/cy_ipc_drv.h **** /*******************************************************************************
 781:Generated_Source\PSoC6\pdl\drivers\peripheral\ipc/cy_ipc_drv.h **** * Function Name: Cy_IPC_Drv_IsLockAcquired
 782:Generated_Source\PSoC6\pdl\drivers\peripheral\ipc/cy_ipc_drv.h **** ****************************************************************************//**
 783:Generated_Source\PSoC6\pdl\drivers\peripheral\ipc/cy_ipc_drv.h **** *
 784:Generated_Source\PSoC6\pdl\drivers\peripheral\ipc/cy_ipc_drv.h **** * The function is used to test the status of an IPC channel. The function
 785:Generated_Source\PSoC6\pdl\drivers\peripheral\ipc/cy_ipc_drv.h **** * tells the reader if the IPC channel was in the locked or released state.
 786:Generated_Source\PSoC6\pdl\drivers\peripheral\ipc/cy_ipc_drv.h **** *
 787:Generated_Source\PSoC6\pdl\drivers\peripheral\ipc/cy_ipc_drv.h **** * \param base
 788:Generated_Source\PSoC6\pdl\drivers\peripheral\ipc/cy_ipc_drv.h **** * This parameter is a handle that represents the base address of the registers
 789:Generated_Source\PSoC6\pdl\drivers\peripheral\ipc/cy_ipc_drv.h **** * of the IPC channel.
 790:Generated_Source\PSoC6\pdl\drivers\peripheral\ipc/cy_ipc_drv.h **** * The parameter is generally returned from a call to the \ref
 791:Generated_Source\PSoC6\pdl\drivers\peripheral\ipc/cy_ipc_drv.h **** * Cy_IPC_Drv_GetIpcBaseAddress.
 792:Generated_Source\PSoC6\pdl\drivers\peripheral\ipc/cy_ipc_drv.h **** *
 793:Generated_Source\PSoC6\pdl\drivers\peripheral\ipc/cy_ipc_drv.h **** * \return
 794:Generated_Source\PSoC6\pdl\drivers\peripheral\ipc/cy_ipc_drv.h **** *   Status for the function:
 795:Generated_Source\PSoC6\pdl\drivers\peripheral\ipc/cy_ipc_drv.h **** *   true:  The IPC channel is in the Locked state.
 796:Generated_Source\PSoC6\pdl\drivers\peripheral\ipc/cy_ipc_drv.h **** *   false: The IPC channel is in the Released state.
 797:Generated_Source\PSoC6\pdl\drivers\peripheral\ipc/cy_ipc_drv.h **** *
 798:Generated_Source\PSoC6\pdl\drivers\peripheral\ipc/cy_ipc_drv.h **** * \funcusage
 799:Generated_Source\PSoC6\pdl\drivers\peripheral\ipc/cy_ipc_drv.h **** * \snippet IPC_sut_01.cydsn/main_cm4.c snippet_Cy_IPC_Drv_LockAcquire
 800:Generated_Source\PSoC6\pdl\drivers\peripheral\ipc/cy_ipc_drv.h **** *
 801:Generated_Source\PSoC6\pdl\drivers\peripheral\ipc/cy_ipc_drv.h **** *******************************************************************************/
 802:Generated_Source\PSoC6\pdl\drivers\peripheral\ipc/cy_ipc_drv.h **** __STATIC_INLINE bool Cy_IPC_Drv_IsLockAcquired (IPC_STRUCT_Type const * base)
 803:Generated_Source\PSoC6\pdl\drivers\peripheral\ipc/cy_ipc_drv.h **** {
 804:Generated_Source\PSoC6\pdl\drivers\peripheral\ipc/cy_ipc_drv.h ****     return ( 0u != _FLD2VAL(IPC_STRUCT_ACQUIRE_SUCCESS, REG_IPC_STRUCT_LOCK_STATUS(base)) );
 805:Generated_Source\PSoC6\pdl\drivers\peripheral\ipc/cy_ipc_drv.h **** }
 806:Generated_Source\PSoC6\pdl\drivers\peripheral\ipc/cy_ipc_drv.h **** 
 807:Generated_Source\PSoC6\pdl\drivers\peripheral\ipc/cy_ipc_drv.h **** 
 808:Generated_Source\PSoC6\pdl\drivers\peripheral\ipc/cy_ipc_drv.h **** /*******************************************************************************
 809:Generated_Source\PSoC6\pdl\drivers\peripheral\ipc/cy_ipc_drv.h **** * Function Name: Cy_IPC_Drv_GetLockStatus
 810:Generated_Source\PSoC6\pdl\drivers\peripheral\ipc/cy_ipc_drv.h **** ****************************************************************************//**
 811:Generated_Source\PSoC6\pdl\drivers\peripheral\ipc/cy_ipc_drv.h **** *
 812:Generated_Source\PSoC6\pdl\drivers\peripheral\ipc/cy_ipc_drv.h **** * The function is used to get the status of an IPC channel.
 813:Generated_Source\PSoC6\pdl\drivers\peripheral\ipc/cy_ipc_drv.h **** *
 814:Generated_Source\PSoC6\pdl\drivers\peripheral\ipc/cy_ipc_drv.h **** * \param base
 815:Generated_Source\PSoC6\pdl\drivers\peripheral\ipc/cy_ipc_drv.h **** * This parameter is a handle that represents the base address of the registers
 816:Generated_Source\PSoC6\pdl\drivers\peripheral\ipc/cy_ipc_drv.h **** * of the IPC channel.
 817:Generated_Source\PSoC6\pdl\drivers\peripheral\ipc/cy_ipc_drv.h **** * The parameter is generally returned from a call to the \ref
 818:Generated_Source\PSoC6\pdl\drivers\peripheral\ipc/cy_ipc_drv.h **** * Cy_IPC_Drv_GetIpcBaseAddress.
 819:Generated_Source\PSoC6\pdl\drivers\peripheral\ipc/cy_ipc_drv.h **** *
 820:Generated_Source\PSoC6\pdl\drivers\peripheral\ipc/cy_ipc_drv.h **** * \return
 821:Generated_Source\PSoC6\pdl\drivers\peripheral\ipc/cy_ipc_drv.h **** * Value from LOCK_STATUS register.
 822:Generated_Source\PSoC6\pdl\drivers\peripheral\ipc/cy_ipc_drv.h **** *
 823:Generated_Source\PSoC6\pdl\drivers\peripheral\ipc/cy_ipc_drv.h **** * \funcusage
 824:Generated_Source\PSoC6\pdl\drivers\peripheral\ipc/cy_ipc_drv.h **** * \snippet IPC_sut_01.cydsn/main_cm4.c snippet_Cy_IPC_Drv_GetLockStatus
 825:Generated_Source\PSoC6\pdl\drivers\peripheral\ipc/cy_ipc_drv.h **** *
 826:Generated_Source\PSoC6\pdl\drivers\peripheral\ipc/cy_ipc_drv.h **** *******************************************************************************/
 827:Generated_Source\PSoC6\pdl\drivers\peripheral\ipc/cy_ipc_drv.h **** __STATIC_INLINE uint32_t Cy_IPC_Drv_GetLockStatus (IPC_STRUCT_Type const * base)
 828:Generated_Source\PSoC6\pdl\drivers\peripheral\ipc/cy_ipc_drv.h **** {
 829:Generated_Source\PSoC6\pdl\drivers\peripheral\ipc/cy_ipc_drv.h ****     return REG_IPC_STRUCT_LOCK_STATUS(base);
 830:Generated_Source\PSoC6\pdl\drivers\peripheral\ipc/cy_ipc_drv.h **** }
 831:Generated_Source\PSoC6\pdl\drivers\peripheral\ipc/cy_ipc_drv.h **** 
ARM GAS  C:\Users\mattma1\AppData\Local\Temp\cchZ2NYx.s 			page 20


 832:Generated_Source\PSoC6\pdl\drivers\peripheral\ipc/cy_ipc_drv.h **** 
 833:Generated_Source\PSoC6\pdl\drivers\peripheral\ipc/cy_ipc_drv.h **** /*******************************************************************************
 834:Generated_Source\PSoC6\pdl\drivers\peripheral\ipc/cy_ipc_drv.h **** * Function Name: Cy_IPC_Drv_ExtractAcquireMask
 835:Generated_Source\PSoC6\pdl\drivers\peripheral\ipc/cy_ipc_drv.h **** ****************************************************************************//**
 836:Generated_Source\PSoC6\pdl\drivers\peripheral\ipc/cy_ipc_drv.h **** *
 837:Generated_Source\PSoC6\pdl\drivers\peripheral\ipc/cy_ipc_drv.h **** * The function extracts an Acquire mask part from full interrupt mask value.
 838:Generated_Source\PSoC6\pdl\drivers\peripheral\ipc/cy_ipc_drv.h **** *
 839:Generated_Source\PSoC6\pdl\drivers\peripheral\ipc/cy_ipc_drv.h **** * This function is internal and should not be called directly by user
 840:Generated_Source\PSoC6\pdl\drivers\peripheral\ipc/cy_ipc_drv.h **** * software.
 841:Generated_Source\PSoC6\pdl\drivers\peripheral\ipc/cy_ipc_drv.h **** *
 842:Generated_Source\PSoC6\pdl\drivers\peripheral\ipc/cy_ipc_drv.h **** * \param intMask
 843:Generated_Source\PSoC6\pdl\drivers\peripheral\ipc/cy_ipc_drv.h **** * Interrupt mask value to be processed.
 844:Generated_Source\PSoC6\pdl\drivers\peripheral\ipc/cy_ipc_drv.h **** *
 845:Generated_Source\PSoC6\pdl\drivers\peripheral\ipc/cy_ipc_drv.h **** * \return
 846:Generated_Source\PSoC6\pdl\drivers\peripheral\ipc/cy_ipc_drv.h **** * Acquire mask value.
 847:Generated_Source\PSoC6\pdl\drivers\peripheral\ipc/cy_ipc_drv.h **** *
 848:Generated_Source\PSoC6\pdl\drivers\peripheral\ipc/cy_ipc_drv.h **** *******************************************************************************/
 849:Generated_Source\PSoC6\pdl\drivers\peripheral\ipc/cy_ipc_drv.h **** __STATIC_INLINE uint32_t Cy_IPC_Drv_ExtractAcquireMask (uint32_t intMask)
 850:Generated_Source\PSoC6\pdl\drivers\peripheral\ipc/cy_ipc_drv.h **** {
 851:Generated_Source\PSoC6\pdl\drivers\peripheral\ipc/cy_ipc_drv.h ****     return _FLD2VAL(IPC_INTR_STRUCT_INTR_MASK_NOTIFY, intMask);
 852:Generated_Source\PSoC6\pdl\drivers\peripheral\ipc/cy_ipc_drv.h **** }
 853:Generated_Source\PSoC6\pdl\drivers\peripheral\ipc/cy_ipc_drv.h **** 
 854:Generated_Source\PSoC6\pdl\drivers\peripheral\ipc/cy_ipc_drv.h **** 
 855:Generated_Source\PSoC6\pdl\drivers\peripheral\ipc/cy_ipc_drv.h **** /*******************************************************************************
 856:Generated_Source\PSoC6\pdl\drivers\peripheral\ipc/cy_ipc_drv.h **** * Function Name: Cy_IPC_Drv_ExtractReleaseMask
 857:Generated_Source\PSoC6\pdl\drivers\peripheral\ipc/cy_ipc_drv.h **** ****************************************************************************//**
 858:Generated_Source\PSoC6\pdl\drivers\peripheral\ipc/cy_ipc_drv.h **** *
 859:Generated_Source\PSoC6\pdl\drivers\peripheral\ipc/cy_ipc_drv.h **** * The function extracts a Release mask part from full interrupt mask value.
 860:Generated_Source\PSoC6\pdl\drivers\peripheral\ipc/cy_ipc_drv.h **** *
 861:Generated_Source\PSoC6\pdl\drivers\peripheral\ipc/cy_ipc_drv.h **** * This function is internal and should not be called directly by user
 862:Generated_Source\PSoC6\pdl\drivers\peripheral\ipc/cy_ipc_drv.h **** * software.
 863:Generated_Source\PSoC6\pdl\drivers\peripheral\ipc/cy_ipc_drv.h **** *
 864:Generated_Source\PSoC6\pdl\drivers\peripheral\ipc/cy_ipc_drv.h **** * \param intMask
 865:Generated_Source\PSoC6\pdl\drivers\peripheral\ipc/cy_ipc_drv.h **** * Interrupt mask value to be processed.
 866:Generated_Source\PSoC6\pdl\drivers\peripheral\ipc/cy_ipc_drv.h **** *
 867:Generated_Source\PSoC6\pdl\drivers\peripheral\ipc/cy_ipc_drv.h **** * \return
 868:Generated_Source\PSoC6\pdl\drivers\peripheral\ipc/cy_ipc_drv.h **** * Release mask value.
 869:Generated_Source\PSoC6\pdl\drivers\peripheral\ipc/cy_ipc_drv.h **** *
 870:Generated_Source\PSoC6\pdl\drivers\peripheral\ipc/cy_ipc_drv.h **** *******************************************************************************/
 871:Generated_Source\PSoC6\pdl\drivers\peripheral\ipc/cy_ipc_drv.h **** __STATIC_INLINE uint32_t Cy_IPC_Drv_ExtractReleaseMask (uint32_t intMask)
 872:Generated_Source\PSoC6\pdl\drivers\peripheral\ipc/cy_ipc_drv.h **** {
 873:Generated_Source\PSoC6\pdl\drivers\peripheral\ipc/cy_ipc_drv.h ****     return _FLD2VAL(IPC_INTR_STRUCT_INTR_MASK_RELEASE, intMask);
 874:Generated_Source\PSoC6\pdl\drivers\peripheral\ipc/cy_ipc_drv.h **** }
 875:Generated_Source\PSoC6\pdl\drivers\peripheral\ipc/cy_ipc_drv.h **** 
 876:Generated_Source\PSoC6\pdl\drivers\peripheral\ipc/cy_ipc_drv.h **** 
 877:Generated_Source\PSoC6\pdl\drivers\peripheral\ipc/cy_ipc_drv.h **** /*******************************************************************************
 878:Generated_Source\PSoC6\pdl\drivers\peripheral\ipc/cy_ipc_drv.h **** * Function Name: Cy_IPC_Drv_SendMsgPtr
 879:Generated_Source\PSoC6\pdl\drivers\peripheral\ipc/cy_ipc_drv.h **** ****************************************************************************//**
 880:Generated_Source\PSoC6\pdl\drivers\peripheral\ipc/cy_ipc_drv.h **** *
 881:Generated_Source\PSoC6\pdl\drivers\peripheral\ipc/cy_ipc_drv.h **** * This function is used to send a message pointer through an IPC channel.
 882:Generated_Source\PSoC6\pdl\drivers\peripheral\ipc/cy_ipc_drv.h **** * The message structure may hold a generic pointer that may contain the address
 883:Generated_Source\PSoC6\pdl\drivers\peripheral\ipc/cy_ipc_drv.h **** * of any user data type or structure. This parameter could be a pointer to a 32-bit
 884:Generated_Source\PSoC6\pdl\drivers\peripheral\ipc/cy_ipc_drv.h **** * integer, an array, or even a data structure defined in the user code. This
 885:Generated_Source\PSoC6\pdl\drivers\peripheral\ipc/cy_ipc_drv.h **** * function acts as a transfer engine for sending the pointer. Any memory
 886:Generated_Source\PSoC6\pdl\drivers\peripheral\ipc/cy_ipc_drv.h **** * management of the pointer allocation and deallocation is up to the application
 887:Generated_Source\PSoC6\pdl\drivers\peripheral\ipc/cy_ipc_drv.h **** * code.
 888:Generated_Source\PSoC6\pdl\drivers\peripheral\ipc/cy_ipc_drv.h **** * The function also has an associated notification field that will let the
ARM GAS  C:\Users\mattma1\AppData\Local\Temp\cchZ2NYx.s 			page 21


 889:Generated_Source\PSoC6\pdl\drivers\peripheral\ipc/cy_ipc_drv.h **** * message notify one or multiple interrupts.
 890:Generated_Source\PSoC6\pdl\drivers\peripheral\ipc/cy_ipc_drv.h **** *
 891:Generated_Source\PSoC6\pdl\drivers\peripheral\ipc/cy_ipc_drv.h **** * \param base
 892:Generated_Source\PSoC6\pdl\drivers\peripheral\ipc/cy_ipc_drv.h **** * This parameter is a handle that represents the base address of the registers
 893:Generated_Source\PSoC6\pdl\drivers\peripheral\ipc/cy_ipc_drv.h **** * of the IPC channel.
 894:Generated_Source\PSoC6\pdl\drivers\peripheral\ipc/cy_ipc_drv.h **** * The parameter is generally returned from a call to the \ref
 895:Generated_Source\PSoC6\pdl\drivers\peripheral\ipc/cy_ipc_drv.h **** * Cy_IPC_Drv_GetIpcBaseAddress.
 896:Generated_Source\PSoC6\pdl\drivers\peripheral\ipc/cy_ipc_drv.h **** *
 897:Generated_Source\PSoC6\pdl\drivers\peripheral\ipc/cy_ipc_drv.h **** * \param notifyEventIntr
 898:Generated_Source\PSoC6\pdl\drivers\peripheral\ipc/cy_ipc_drv.h **** * Bit encoded list of IPC interrupt lines that are triggered during the release
 899:Generated_Source\PSoC6\pdl\drivers\peripheral\ipc/cy_ipc_drv.h **** * action.
 900:Generated_Source\PSoC6\pdl\drivers\peripheral\ipc/cy_ipc_drv.h **** *
 901:Generated_Source\PSoC6\pdl\drivers\peripheral\ipc/cy_ipc_drv.h **** * \param msgPtr
 902:Generated_Source\PSoC6\pdl\drivers\peripheral\ipc/cy_ipc_drv.h **** * The message pointer that is being sent over the IPC channel.
 903:Generated_Source\PSoC6\pdl\drivers\peripheral\ipc/cy_ipc_drv.h **** *
 904:Generated_Source\PSoC6\pdl\drivers\peripheral\ipc/cy_ipc_drv.h **** * \return   Status of the operation:
 905:Generated_Source\PSoC6\pdl\drivers\peripheral\ipc/cy_ipc_drv.h **** *   \retval CY_IPC_DRV_SUCCESS: The send operation was successful.
 906:Generated_Source\PSoC6\pdl\drivers\peripheral\ipc/cy_ipc_drv.h **** *   \retval CY_IPC_DRV_ERROR:   The IPC channel is unavailable because
 907:Generated_Source\PSoC6\pdl\drivers\peripheral\ipc/cy_ipc_drv.h **** *                               it is already locked.
 908:Generated_Source\PSoC6\pdl\drivers\peripheral\ipc/cy_ipc_drv.h **** *
 909:Generated_Source\PSoC6\pdl\drivers\peripheral\ipc/cy_ipc_drv.h **** * \funcusage
 910:Generated_Source\PSoC6\pdl\drivers\peripheral\ipc/cy_ipc_drv.h **** * \snippet IPC_sut_01.cydsn/main_cm4.c snippet_Cy_IPC_Drv_SendMsgPtr
 911:Generated_Source\PSoC6\pdl\drivers\peripheral\ipc/cy_ipc_drv.h **** *
 912:Generated_Source\PSoC6\pdl\drivers\peripheral\ipc/cy_ipc_drv.h **** *******************************************************************************/
 913:Generated_Source\PSoC6\pdl\drivers\peripheral\ipc/cy_ipc_drv.h **** __STATIC_INLINE cy_en_ipcdrv_status_t  Cy_IPC_Drv_SendMsgPtr(IPC_STRUCT_Type* base, uint32_t notify
 914:Generated_Source\PSoC6\pdl\drivers\peripheral\ipc/cy_ipc_drv.h **** {
 915:Generated_Source\PSoC6\pdl\drivers\peripheral\ipc/cy_ipc_drv.h ****     CY_ASSERT_L1(NULL != msgPtr);
 105              		.loc 2 915 0
 106 0056 002D     		cmp	r5, #0
 107 0058 03D1     		bne	.L4
 108 005a 1149     		ldr	r1, .L10+12
 109 005c 0E48     		ldr	r0, .L10+4
 110 005e FFF7FEFF 		bl	Cy_SysLib_AssertFailed
 111              	.LVL11:
 112              	.L4:
 916:Generated_Source\PSoC6\pdl\drivers\peripheral\ipc/cy_ipc_drv.h ****     return Cy_IPC_Drv_SendMsgWord(base, notifyEventIntr, (uint32_t)msgPtr);
 113              		.loc 2 916 0
 114 0062 2A00     		movs	r2, r5
 115 0064 0021     		movs	r1, #0
 116 0066 2000     		movs	r0, r4
 117 0068 FFF7FEFF 		bl	Cy_IPC_Drv_SendMsgWord
 118              	.LVL12:
 119              	.LBE21:
 120              	.LBE20:
 121              		.loc 1 148 0
 122 006c 0028     		cmp	r0, #0
 123 006e 0DD1     		bne	.L8
 149:Generated_Source\PSoC6\pdl\drivers\peripheral\ipc/cy_ipc_sema.c ****                 {
 150:Generated_Source\PSoC6\pdl\drivers\peripheral\ipc/cy_ipc_sema.c ****                     if(CY_IPC_DRV_SUCCESS == Cy_IPC_Drv_LockRelease (cy_semaIpcStruct, CY_IPC_NO_NO
 124              		.loc 1 150 0
 125 0070 0A4B     		ldr	r3, .L10+8
 126 0072 1868     		ldr	r0, [r3]
 127 0074 0021     		movs	r1, #0
 128 0076 FFF7FEFF 		bl	Cy_IPC_Drv_LockRelease
 129              	.LVL13:
 130 007a 0028     		cmp	r0, #0
 131 007c 08D1     		bne	.L9
ARM GAS  C:\Users\mattma1\AppData\Local\Temp\cchZ2NYx.s 			page 22


 132 007e 08E0     		b	.L2
 133              	.LVL14:
 134              	.L5:
 129:Generated_Source\PSoC6\pdl\drivers\peripheral\ipc/cy_ipc_sema.c ****     }
 135              		.loc 1 129 0
 136 0080 0848     		ldr	r0, .L10+16
 137              	.LVL15:
 138 0082 06E0     		b	.L2
 139              	.LVL16:
 140              	.L6:
 151:Generated_Source\PSoC6\pdl\drivers\peripheral\ipc/cy_ipc_sema.c ****                     {
 152:Generated_Source\PSoC6\pdl\drivers\peripheral\ipc/cy_ipc_sema.c ****                         retStatus = CY_IPC_SEMA_SUCCESS;
 153:Generated_Source\PSoC6\pdl\drivers\peripheral\ipc/cy_ipc_sema.c ****                     }
 154:Generated_Source\PSoC6\pdl\drivers\peripheral\ipc/cy_ipc_sema.c ****                     else
 155:Generated_Source\PSoC6\pdl\drivers\peripheral\ipc/cy_ipc_sema.c ****                     {
 156:Generated_Source\PSoC6\pdl\drivers\peripheral\ipc/cy_ipc_sema.c ****                         /* IPC channel not released, still semaphored */
 157:Generated_Source\PSoC6\pdl\drivers\peripheral\ipc/cy_ipc_sema.c ****                         retStatus = CY_IPC_SEMA_ERROR_LOCKED;
 158:Generated_Source\PSoC6\pdl\drivers\peripheral\ipc/cy_ipc_sema.c ****                     }
 159:Generated_Source\PSoC6\pdl\drivers\peripheral\ipc/cy_ipc_sema.c ****                 }
 160:Generated_Source\PSoC6\pdl\drivers\peripheral\ipc/cy_ipc_sema.c ****                 else
 161:Generated_Source\PSoC6\pdl\drivers\peripheral\ipc/cy_ipc_sema.c ****                 {
 162:Generated_Source\PSoC6\pdl\drivers\peripheral\ipc/cy_ipc_sema.c ****                     /* Could not acquire semaphore channel */
 163:Generated_Source\PSoC6\pdl\drivers\peripheral\ipc/cy_ipc_sema.c ****                     retStatus = CY_IPC_SEMA_ERROR_LOCKED;
 164:Generated_Source\PSoC6\pdl\drivers\peripheral\ipc/cy_ipc_sema.c ****                 }
 165:Generated_Source\PSoC6\pdl\drivers\peripheral\ipc/cy_ipc_sema.c ****             }
 166:Generated_Source\PSoC6\pdl\drivers\peripheral\ipc/cy_ipc_sema.c ****             else
 167:Generated_Source\PSoC6\pdl\drivers\peripheral\ipc/cy_ipc_sema.c ****             {
 168:Generated_Source\PSoC6\pdl\drivers\peripheral\ipc/cy_ipc_sema.c ****                 retStatus = CY_IPC_SEMA_BAD_PARAM;
 169:Generated_Source\PSoC6\pdl\drivers\peripheral\ipc/cy_ipc_sema.c ****             }
 170:Generated_Source\PSoC6\pdl\drivers\peripheral\ipc/cy_ipc_sema.c ****         }
 171:Generated_Source\PSoC6\pdl\drivers\peripheral\ipc/cy_ipc_sema.c ****         else
 172:Generated_Source\PSoC6\pdl\drivers\peripheral\ipc/cy_ipc_sema.c ****         {
 173:Generated_Source\PSoC6\pdl\drivers\peripheral\ipc/cy_ipc_sema.c ****             retStatus = CY_IPC_SEMA_BAD_PARAM;
 141              		.loc 1 173 0
 142 0084 0748     		ldr	r0, .L10+16
 143              	.LVL17:
 144 0086 04E0     		b	.L2
 145              	.LVL18:
 146              	.L7:
 168:Generated_Source\PSoC6\pdl\drivers\peripheral\ipc/cy_ipc_sema.c ****             }
 147              		.loc 1 168 0
 148 0088 0648     		ldr	r0, .L10+16
 149              	.LVL19:
 150 008a 02E0     		b	.L2
 151              	.LVL20:
 152              	.L8:
 163:Generated_Source\PSoC6\pdl\drivers\peripheral\ipc/cy_ipc_sema.c ****                 }
 153              		.loc 1 163 0
 154 008c 0648     		ldr	r0, .L10+20
 155 008e 00E0     		b	.L2
 156              	.L9:
 157:Generated_Source\PSoC6\pdl\drivers\peripheral\ipc/cy_ipc_sema.c ****                     }
 157              		.loc 1 157 0
 158 0090 0548     		ldr	r0, .L10+20
 159              	.L2:
 160              	.LVL21:
 174:Generated_Source\PSoC6\pdl\drivers\peripheral\ipc/cy_ipc_sema.c ****         }
ARM GAS  C:\Users\mattma1\AppData\Local\Temp\cchZ2NYx.s 			page 23


 175:Generated_Source\PSoC6\pdl\drivers\peripheral\ipc/cy_ipc_sema.c ****     }
 176:Generated_Source\PSoC6\pdl\drivers\peripheral\ipc/cy_ipc_sema.c **** 
 177:Generated_Source\PSoC6\pdl\drivers\peripheral\ipc/cy_ipc_sema.c ****     return(retStatus);
 178:Generated_Source\PSoC6\pdl\drivers\peripheral\ipc/cy_ipc_sema.c **** }
 161              		.loc 1 178 0
 162              		@ sp needed
 163              	.LVL22:
 164 0092 70BD     		pop	{r4, r5, r6, pc}
 165              	.L11:
 166              		.align	2
 167              	.L10:
 168 0094 00000000 		.word	cy_device
 169 0098 00000000 		.word	.LC1
 170 009c 00000000 		.word	.LANCHOR0
 171 00a0 93030000 		.word	915
 172 00a4 03018A00 		.word	9044227
 173 00a8 01018A00 		.word	9044225
 174              		.cfi_endproc
 175              	.LFE65:
 176              		.size	Cy_IPC_Sema_InitExt, .-Cy_IPC_Sema_InitExt
 177              		.section	.text.Cy_IPC_Sema_Init,"ax",%progbits
 178              		.align	2
 179              		.global	Cy_IPC_Sema_Init
 180              		.code	16
 181              		.thumb_func
 182              		.type	Cy_IPC_Sema_Init, %function
 183              	Cy_IPC_Sema_Init:
 184              	.LFB64:
  64:Generated_Source\PSoC6\pdl\drivers\peripheral\ipc/cy_ipc_sema.c ****     /* Structure containing semaphores control data */
 185              		.loc 1 64 0
 186              		.cfi_startproc
 187              		@ args = 0, pretend = 0, frame = 0
 188              		@ frame_needed = 0, uses_anonymous_args = 0
 189              	.LVL23:
 190 0000 10B5     		push	{r4, lr}
 191              		.cfi_def_cfa_offset 8
 192              		.cfi_offset 4, -8
 193              		.cfi_offset 14, -4
 194 0002 0400     		movs	r4, r0
 195              	.LVL24:
  70:Generated_Source\PSoC6\pdl\drivers\peripheral\ipc/cy_ipc_sema.c ****     {
 196              		.loc 1 70 0
 197 0004 002A     		cmp	r2, #0
 198 0006 17D1     		bne	.L13
  70:Generated_Source\PSoC6\pdl\drivers\peripheral\ipc/cy_ipc_sema.c ****     {
 199              		.loc 1 70 0 is_stmt 0 discriminator 1
 200 0008 0029     		cmp	r1, #0
 201 000a 15D1     		bne	.L13
 202              	.LVL25:
 203              	.LBB24:
 204              	.LBB25:
 451:Generated_Source\PSoC6\pdl\drivers\peripheral\ipc/cy_ipc_drv.h ****     return ( (IPC_STRUCT_Type*) CY_IPC_STRUCT_PTR(ipcIndex));
 205              		.loc 2 451 0 is_stmt 1
 206 000c 124B     		ldr	r3, .L18
 207 000e 1A68     		ldr	r2, [r3]
 208              	.LVL26:
 209 0010 3123     		movs	r3, #49
ARM GAS  C:\Users\mattma1\AppData\Local\Temp\cchZ2NYx.s 			page 24


 210 0012 D35C     		ldrb	r3, [r2, r3]
 211 0014 9842     		cmp	r0, r3
 212 0016 04D3     		bcc	.L14
 213 0018 C421     		movs	r1, #196
 214              	.LVL27:
 215 001a FF31     		adds	r1, r1, #255
 216 001c 0F48     		ldr	r0, .L18+4
 217              	.LVL28:
 218 001e FFF7FEFF 		bl	Cy_SysLib_AssertFailed
 219              	.LVL29:
 220              	.L14:
 452:Generated_Source\PSoC6\pdl\drivers\peripheral\ipc/cy_ipc_drv.h **** }
 221              		.loc 2 452 0
 222 0022 0D4B     		ldr	r3, .L18
 223 0024 1B68     		ldr	r3, [r3]
 224 0026 1A6A     		ldr	r2, [r3, #32]
 225 0028 B021     		movs	r1, #176
 226 002a 5B5A     		ldrh	r3, [r3, r1]
 227 002c 5C43     		muls	r4, r3
 228              	.LVL30:
 229 002e 1419     		adds	r4, r2, r4
 230              	.LVL31:
 231              	.LBE25:
 232              	.LBE24:
  72:Generated_Source\PSoC6\pdl\drivers\peripheral\ipc/cy_ipc_sema.c **** 
 233              		.loc 1 72 0
 234 0030 0B4B     		ldr	r3, .L18+8
 235 0032 1C60     		str	r4, [r3]
 236              	.LVL32:
  74:Generated_Source\PSoC6\pdl\drivers\peripheral\ipc/cy_ipc_sema.c ****     }
 237              		.loc 1 74 0
 238 0034 0020     		movs	r0, #0
 239 0036 0EE0     		b	.L15
 240              	.LVL33:
 241              	.L13:
  78:Generated_Source\PSoC6\pdl\drivers\peripheral\ipc/cy_ipc_sema.c ****     {
 242              		.loc 1 78 0
 243 0038 002A     		cmp	r2, #0
 244 003a 09D0     		beq	.L16
  78:Generated_Source\PSoC6\pdl\drivers\peripheral\ipc/cy_ipc_sema.c ****     {
 245              		.loc 1 78 0 is_stmt 0 discriminator 1
 246 003c 0029     		cmp	r1, #0
 247 003e 09D0     		beq	.L17
  80:Generated_Source\PSoC6\pdl\drivers\peripheral\ipc/cy_ipc_sema.c ****         cy_semaData.arrayPtr = memPtr;
 248              		.loc 1 80 0 is_stmt 1
 249 0040 074B     		ldr	r3, .L18+8
 250 0042 5960     		str	r1, [r3, #4]
  81:Generated_Source\PSoC6\pdl\drivers\peripheral\ipc/cy_ipc_sema.c **** 
 251              		.loc 1 81 0
 252 0044 9A60     		str	r2, [r3, #8]
  83:Generated_Source\PSoC6\pdl\drivers\peripheral\ipc/cy_ipc_sema.c ****     }
 253              		.loc 1 83 0
 254 0046 191D     		adds	r1, r3, #4
 255              	.LVL34:
 256 0048 2000     		movs	r0, r4
 257              	.LVL35:
 258 004a FFF7FEFF 		bl	Cy_IPC_Sema_InitExt
ARM GAS  C:\Users\mattma1\AppData\Local\Temp\cchZ2NYx.s 			page 25


 259              	.LVL36:
 260 004e 02E0     		b	.L15
 261              	.LVL37:
 262              	.L16:
  88:Generated_Source\PSoC6\pdl\drivers\peripheral\ipc/cy_ipc_sema.c ****     }
 263              		.loc 1 88 0
 264 0050 0448     		ldr	r0, .L18+12
 265              	.LVL38:
 266 0052 00E0     		b	.L15
 267              	.LVL39:
 268              	.L17:
 269 0054 0348     		ldr	r0, .L18+12
 270              	.LVL40:
 271              	.L15:
  92:Generated_Source\PSoC6\pdl\drivers\peripheral\ipc/cy_ipc_sema.c **** 
 272              		.loc 1 92 0
 273              		@ sp needed
 274 0056 10BD     		pop	{r4, pc}
 275              	.L19:
 276              		.align	2
 277              	.L18:
 278 0058 00000000 		.word	cy_device
 279 005c 00000000 		.word	.LC1
 280 0060 00000000 		.word	.LANCHOR0
 281 0064 03018A00 		.word	9044227
 282              		.cfi_endproc
 283              	.LFE64:
 284              		.size	Cy_IPC_Sema_Init, .-Cy_IPC_Sema_Init
 285              		.section	.text.Cy_IPC_Sema_Set,"ax",%progbits
 286              		.align	2
 287              		.global	Cy_IPC_Sema_Set
 288              		.code	16
 289              		.thumb_func
 290              		.type	Cy_IPC_Sema_Set, %function
 291              	Cy_IPC_Sema_Set:
 292              	.LFB66:
 179:Generated_Source\PSoC6\pdl\drivers\peripheral\ipc/cy_ipc_sema.c **** 
 180:Generated_Source\PSoC6\pdl\drivers\peripheral\ipc/cy_ipc_sema.c **** 
 181:Generated_Source\PSoC6\pdl\drivers\peripheral\ipc/cy_ipc_sema.c **** /*******************************************************************************
 182:Generated_Source\PSoC6\pdl\drivers\peripheral\ipc/cy_ipc_sema.c **** * Function Name: Cy_IPC_Sema_Set
 183:Generated_Source\PSoC6\pdl\drivers\peripheral\ipc/cy_ipc_sema.c **** ****************************************************************************//**
 184:Generated_Source\PSoC6\pdl\drivers\peripheral\ipc/cy_ipc_sema.c **** *
 185:Generated_Source\PSoC6\pdl\drivers\peripheral\ipc/cy_ipc_sema.c **** * This function tries to acquire a semaphore. If the
 186:Generated_Source\PSoC6\pdl\drivers\peripheral\ipc/cy_ipc_sema.c **** * semaphore is not available, this function returns immediately with
 187:Generated_Source\PSoC6\pdl\drivers\peripheral\ipc/cy_ipc_sema.c **** * CY_IPC_SEMA_LOCKED.
 188:Generated_Source\PSoC6\pdl\drivers\peripheral\ipc/cy_ipc_sema.c **** *
 189:Generated_Source\PSoC6\pdl\drivers\peripheral\ipc/cy_ipc_sema.c **** * It first acquires the IPC channel that is used for all the semaphores, sets
 190:Generated_Source\PSoC6\pdl\drivers\peripheral\ipc/cy_ipc_sema.c **** * the semaphore if it is cleared, then releases the IPC channel used for the
 191:Generated_Source\PSoC6\pdl\drivers\peripheral\ipc/cy_ipc_sema.c **** * semaphore.
 192:Generated_Source\PSoC6\pdl\drivers\peripheral\ipc/cy_ipc_sema.c **** *
 193:Generated_Source\PSoC6\pdl\drivers\peripheral\ipc/cy_ipc_sema.c **** * \param semaNumber
 194:Generated_Source\PSoC6\pdl\drivers\peripheral\ipc/cy_ipc_sema.c **** *  The semaphore number to acquire.
 195:Generated_Source\PSoC6\pdl\drivers\peripheral\ipc/cy_ipc_sema.c **** *
 196:Generated_Source\PSoC6\pdl\drivers\peripheral\ipc/cy_ipc_sema.c **** * \param preemptable
 197:Generated_Source\PSoC6\pdl\drivers\peripheral\ipc/cy_ipc_sema.c **** *  When this parameter is enabled the function can be preempted by another
 198:Generated_Source\PSoC6\pdl\drivers\peripheral\ipc/cy_ipc_sema.c **** *  task or other forms of context switching in an RTOS environment.
 199:Generated_Source\PSoC6\pdl\drivers\peripheral\ipc/cy_ipc_sema.c **** *
ARM GAS  C:\Users\mattma1\AppData\Local\Temp\cchZ2NYx.s 			page 26


 200:Generated_Source\PSoC6\pdl\drivers\peripheral\ipc/cy_ipc_sema.c **** * \note
 201:Generated_Source\PSoC6\pdl\drivers\peripheral\ipc/cy_ipc_sema.c **** *  If <b>preemptable</b> is enabled (true), the user must ensure that there are
 202:Generated_Source\PSoC6\pdl\drivers\peripheral\ipc/cy_ipc_sema.c **** *  no deadlocks in the system, which can be caused by an interrupt that occurs
 203:Generated_Source\PSoC6\pdl\drivers\peripheral\ipc/cy_ipc_sema.c **** *  after the IPC channel is locked. Unless the user is ready to handle IPC
 204:Generated_Source\PSoC6\pdl\drivers\peripheral\ipc/cy_ipc_sema.c **** *  channel locks correctly at the application level, set <b>preemptable</b> to
 205:Generated_Source\PSoC6\pdl\drivers\peripheral\ipc/cy_ipc_sema.c **** *  false.
 206:Generated_Source\PSoC6\pdl\drivers\peripheral\ipc/cy_ipc_sema.c **** *
 207:Generated_Source\PSoC6\pdl\drivers\peripheral\ipc/cy_ipc_sema.c **** * \return Status of the operation
 208:Generated_Source\PSoC6\pdl\drivers\peripheral\ipc/cy_ipc_sema.c **** *    \retval CY_IPC_SEMA_SUCCESS:      The semaphore was set successfully
 209:Generated_Source\PSoC6\pdl\drivers\peripheral\ipc/cy_ipc_sema.c **** *    \retval CY_IPC_SEMA_LOCKED:       The semaphore channel is busy or locked
 210:Generated_Source\PSoC6\pdl\drivers\peripheral\ipc/cy_ipc_sema.c **** *                              by another process
 211:Generated_Source\PSoC6\pdl\drivers\peripheral\ipc/cy_ipc_sema.c **** *    \retval CY_IPC_SEMA_NOT_ACQUIRED: Semaphore was already set
 212:Generated_Source\PSoC6\pdl\drivers\peripheral\ipc/cy_ipc_sema.c **** *    \retval CY_IPC_SEMA_OUT_OF_RANGE: The semaphore number is not valid
 213:Generated_Source\PSoC6\pdl\drivers\peripheral\ipc/cy_ipc_sema.c **** *
 214:Generated_Source\PSoC6\pdl\drivers\peripheral\ipc/cy_ipc_sema.c **** * \funcusage
 215:Generated_Source\PSoC6\pdl\drivers\peripheral\ipc/cy_ipc_sema.c **** * \snippet IPC_sut_01.cydsn/main_cm4.c snippet_Cy_IPC_Sema_Set
 216:Generated_Source\PSoC6\pdl\drivers\peripheral\ipc/cy_ipc_sema.c **** *
 217:Generated_Source\PSoC6\pdl\drivers\peripheral\ipc/cy_ipc_sema.c **** *******************************************************************************/
 218:Generated_Source\PSoC6\pdl\drivers\peripheral\ipc/cy_ipc_sema.c **** cy_en_ipcsema_status_t Cy_IPC_Sema_Set(uint32_t semaNumber, bool preemptable)
 219:Generated_Source\PSoC6\pdl\drivers\peripheral\ipc/cy_ipc_sema.c **** {
 293              		.loc 1 219 0
 294              		.cfi_startproc
 295              		@ args = 0, pretend = 0, frame = 8
 296              		@ frame_needed = 0, uses_anonymous_args = 0
 297              	.LVL41:
 298 0000 F0B5     		push	{r4, r5, r6, r7, lr}
 299              		.cfi_def_cfa_offset 20
 300              		.cfi_offset 4, -20
 301              		.cfi_offset 5, -16
 302              		.cfi_offset 6, -12
 303              		.cfi_offset 7, -8
 304              		.cfi_offset 14, -4
 305 0002 83B0     		sub	sp, sp, #12
 306              		.cfi_def_cfa_offset 32
 307 0004 0D00     		movs	r5, r1
 308              	.LVL42:
 220:Generated_Source\PSoC6\pdl\drivers\peripheral\ipc/cy_ipc_sema.c ****     uint32_t semaIndex;
 221:Generated_Source\PSoC6\pdl\drivers\peripheral\ipc/cy_ipc_sema.c ****     uint32_t semaMask;
 222:Generated_Source\PSoC6\pdl\drivers\peripheral\ipc/cy_ipc_sema.c ****     uint32_t interruptState = 0ul;
 223:Generated_Source\PSoC6\pdl\drivers\peripheral\ipc/cy_ipc_sema.c **** 
 224:Generated_Source\PSoC6\pdl\drivers\peripheral\ipc/cy_ipc_sema.c ****     cy_stc_ipc_sema_t      *semaStruct;
 225:Generated_Source\PSoC6\pdl\drivers\peripheral\ipc/cy_ipc_sema.c ****     cy_en_ipcsema_status_t  retStatus = CY_IPC_SEMA_LOCKED;
 226:Generated_Source\PSoC6\pdl\drivers\peripheral\ipc/cy_ipc_sema.c **** 
 227:Generated_Source\PSoC6\pdl\drivers\peripheral\ipc/cy_ipc_sema.c ****     /* Get pointer to structure */
 228:Generated_Source\PSoC6\pdl\drivers\peripheral\ipc/cy_ipc_sema.c ****     semaStruct = (cy_stc_ipc_sema_t *)Cy_IPC_Drv_ReadDataValue(cy_semaIpcStruct);
 309              		.loc 1 228 0
 310 0006 1C4B     		ldr	r3, .L31
 311 0008 1B68     		ldr	r3, [r3]
 312              	.LVL43:
 313              	.LBB26:
 314              	.LBB27:
 776:Generated_Source\PSoC6\pdl\drivers\peripheral\ipc/cy_ipc_drv.h **** }
 315              		.loc 2 776 0
 316 000a DC68     		ldr	r4, [r3, #12]
 317              	.LVL44:
 318              	.LBE27:
 319              	.LBE26:
ARM GAS  C:\Users\mattma1\AppData\Local\Temp\cchZ2NYx.s 			page 27


 229:Generated_Source\PSoC6\pdl\drivers\peripheral\ipc/cy_ipc_sema.c **** 
 230:Generated_Source\PSoC6\pdl\drivers\peripheral\ipc/cy_ipc_sema.c ****     if (semaNumber < semaStruct->maxSema)
 320              		.loc 1 230 0
 321 000c 2368     		ldr	r3, [r4]
 322 000e 8342     		cmp	r3, r0
 323 0010 2DD9     		bls	.L26
 231:Generated_Source\PSoC6\pdl\drivers\peripheral\ipc/cy_ipc_sema.c ****     {
 232:Generated_Source\PSoC6\pdl\drivers\peripheral\ipc/cy_ipc_sema.c ****         semaIndex = semaNumber / CY_IPC_SEMA_PER_WORD;
 324              		.loc 1 232 0
 325 0012 4709     		lsrs	r7, r0, #5
 326              	.LVL45:
 233:Generated_Source\PSoC6\pdl\drivers\peripheral\ipc/cy_ipc_sema.c ****         semaMask = (uint32_t)(1ul << (semaNumber - (semaIndex * CY_IPC_SEMA_PER_WORD) ));
 327              		.loc 1 233 0
 328 0014 7B01     		lsls	r3, r7, #5
 329 0016 C01A     		subs	r0, r0, r3
 330              	.LVL46:
 331 0018 0123     		movs	r3, #1
 332 001a 8340     		lsls	r3, r3, r0
 333 001c 1E00     		movs	r6, r3
 334              	.LVL47:
 234:Generated_Source\PSoC6\pdl\drivers\peripheral\ipc/cy_ipc_sema.c **** 
 235:Generated_Source\PSoC6\pdl\drivers\peripheral\ipc/cy_ipc_sema.c ****         if (!preemptable)
 335              		.loc 1 235 0
 336 001e 0029     		cmp	r1, #0
 337 0020 03D1     		bne	.L27
 236:Generated_Source\PSoC6\pdl\drivers\peripheral\ipc/cy_ipc_sema.c ****         {
 237:Generated_Source\PSoC6\pdl\drivers\peripheral\ipc/cy_ipc_sema.c ****             interruptState = Cy_SysLib_EnterCriticalSection();
 338              		.loc 1 237 0
 339 0022 FFF7FEFF 		bl	Cy_SysLib_EnterCriticalSection
 340              	.LVL48:
 341 0026 0190     		str	r0, [sp, #4]
 342              	.LVL49:
 343 0028 01E0     		b	.L22
 344              	.LVL50:
 345              	.L27:
 222:Generated_Source\PSoC6\pdl\drivers\peripheral\ipc/cy_ipc_sema.c **** 
 346              		.loc 1 222 0
 347 002a 0023     		movs	r3, #0
 348              	.LVL51:
 349 002c 0193     		str	r3, [sp, #4]
 350              	.LVL52:
 351              	.L22:
 238:Generated_Source\PSoC6\pdl\drivers\peripheral\ipc/cy_ipc_sema.c ****         }
 239:Generated_Source\PSoC6\pdl\drivers\peripheral\ipc/cy_ipc_sema.c **** 
 240:Generated_Source\PSoC6\pdl\drivers\peripheral\ipc/cy_ipc_sema.c ****         /* Check to make sure the IPC channel is released
 241:Generated_Source\PSoC6\pdl\drivers\peripheral\ipc/cy_ipc_sema.c ****            If so, check if specific channel can be locked. */
 242:Generated_Source\PSoC6\pdl\drivers\peripheral\ipc/cy_ipc_sema.c ****         if(CY_IPC_DRV_SUCCESS == Cy_IPC_Drv_LockAcquire (cy_semaIpcStruct))
 352              		.loc 1 242 0
 353 002e 124B     		ldr	r3, .L31
 354 0030 1868     		ldr	r0, [r3]
 355              	.LVL53:
 356              	.LBB28:
 357              	.LBB29:
 917:Generated_Source\PSoC6\pdl\drivers\peripheral\ipc/cy_ipc_drv.h **** }
 918:Generated_Source\PSoC6\pdl\drivers\peripheral\ipc/cy_ipc_drv.h **** 
 919:Generated_Source\PSoC6\pdl\drivers\peripheral\ipc/cy_ipc_drv.h **** 
 920:Generated_Source\PSoC6\pdl\drivers\peripheral\ipc/cy_ipc_drv.h **** /*******************************************************************************
ARM GAS  C:\Users\mattma1\AppData\Local\Temp\cchZ2NYx.s 			page 28


 921:Generated_Source\PSoC6\pdl\drivers\peripheral\ipc/cy_ipc_drv.h **** * Function Name: Cy_IPC_Drv_ReadMsgPtr
 922:Generated_Source\PSoC6\pdl\drivers\peripheral\ipc/cy_ipc_drv.h **** ****************************************************************************//**
 923:Generated_Source\PSoC6\pdl\drivers\peripheral\ipc/cy_ipc_drv.h **** *
 924:Generated_Source\PSoC6\pdl\drivers\peripheral\ipc/cy_ipc_drv.h **** * This function is used to read a 32-bit pointer message through an IPC channel.
 925:Generated_Source\PSoC6\pdl\drivers\peripheral\ipc/cy_ipc_drv.h **** *
 926:Generated_Source\PSoC6\pdl\drivers\peripheral\ipc/cy_ipc_drv.h **** * \param base
 927:Generated_Source\PSoC6\pdl\drivers\peripheral\ipc/cy_ipc_drv.h **** * This parameter is a handle that represents the base address of the registers
 928:Generated_Source\PSoC6\pdl\drivers\peripheral\ipc/cy_ipc_drv.h **** * of the IPC channel.
 929:Generated_Source\PSoC6\pdl\drivers\peripheral\ipc/cy_ipc_drv.h **** * The parameter is generally returned from a call to the \ref
 930:Generated_Source\PSoC6\pdl\drivers\peripheral\ipc/cy_ipc_drv.h **** * Cy_IPC_Drv_GetIpcBaseAddress.
 931:Generated_Source\PSoC6\pdl\drivers\peripheral\ipc/cy_ipc_drv.h **** *
 932:Generated_Source\PSoC6\pdl\drivers\peripheral\ipc/cy_ipc_drv.h **** * \param msgPtr
 933:Generated_Source\PSoC6\pdl\drivers\peripheral\ipc/cy_ipc_drv.h **** * Pointer variable to hold the data pointer that is being read from the IPC
 934:Generated_Source\PSoC6\pdl\drivers\peripheral\ipc/cy_ipc_drv.h **** * channel.
 935:Generated_Source\PSoC6\pdl\drivers\peripheral\ipc/cy_ipc_drv.h **** *
 936:Generated_Source\PSoC6\pdl\drivers\peripheral\ipc/cy_ipc_drv.h **** *
 937:Generated_Source\PSoC6\pdl\drivers\peripheral\ipc/cy_ipc_drv.h **** * \return Status of the operation
 938:Generated_Source\PSoC6\pdl\drivers\peripheral\ipc/cy_ipc_drv.h **** *   \retval CY_IPC_DRV_SUCCESS: The function executed successfully and the IPC
 939:Generated_Source\PSoC6\pdl\drivers\peripheral\ipc/cy_ipc_drv.h **** *                       was acquired.
 940:Generated_Source\PSoC6\pdl\drivers\peripheral\ipc/cy_ipc_drv.h **** *   \retval CY_IPC_DRV_ERROR:   The function encountered an error because the IPC
 941:Generated_Source\PSoC6\pdl\drivers\peripheral\ipc/cy_ipc_drv.h **** *                       channel was already in a released state meaning the data
 942:Generated_Source\PSoC6\pdl\drivers\peripheral\ipc/cy_ipc_drv.h **** *                       in it is invalid.
 943:Generated_Source\PSoC6\pdl\drivers\peripheral\ipc/cy_ipc_drv.h **** *
 944:Generated_Source\PSoC6\pdl\drivers\peripheral\ipc/cy_ipc_drv.h **** * \funcusage
 945:Generated_Source\PSoC6\pdl\drivers\peripheral\ipc/cy_ipc_drv.h **** * \snippet IPC_sut_01.cydsn/main_cm4.c snippet_Cy_IPC_Drv_ReadMsgPtr
 946:Generated_Source\PSoC6\pdl\drivers\peripheral\ipc/cy_ipc_drv.h **** *
 947:Generated_Source\PSoC6\pdl\drivers\peripheral\ipc/cy_ipc_drv.h **** *******************************************************************************/
 948:Generated_Source\PSoC6\pdl\drivers\peripheral\ipc/cy_ipc_drv.h **** __STATIC_INLINE  cy_en_ipcdrv_status_t  Cy_IPC_Drv_ReadMsgPtr (IPC_STRUCT_Type const * base, void *
 949:Generated_Source\PSoC6\pdl\drivers\peripheral\ipc/cy_ipc_drv.h **** {
 950:Generated_Source\PSoC6\pdl\drivers\peripheral\ipc/cy_ipc_drv.h ****     CY_ASSERT_L1(NULL != msgPtr);
 951:Generated_Source\PSoC6\pdl\drivers\peripheral\ipc/cy_ipc_drv.h ****     return Cy_IPC_Drv_ReadMsgWord(base, (uint32_t *)msgPtr);
 952:Generated_Source\PSoC6\pdl\drivers\peripheral\ipc/cy_ipc_drv.h **** }
 953:Generated_Source\PSoC6\pdl\drivers\peripheral\ipc/cy_ipc_drv.h **** 
 954:Generated_Source\PSoC6\pdl\drivers\peripheral\ipc/cy_ipc_drv.h **** 
 955:Generated_Source\PSoC6\pdl\drivers\peripheral\ipc/cy_ipc_drv.h **** /*******************************************************************************
 956:Generated_Source\PSoC6\pdl\drivers\peripheral\ipc/cy_ipc_drv.h **** * Function Name: Cy_IPC_Drv_LockAcquire
 957:Generated_Source\PSoC6\pdl\drivers\peripheral\ipc/cy_ipc_drv.h **** ****************************************************************************//**
 958:Generated_Source\PSoC6\pdl\drivers\peripheral\ipc/cy_ipc_drv.h **** *
 959:Generated_Source\PSoC6\pdl\drivers\peripheral\ipc/cy_ipc_drv.h **** * This function is used to acquire the IPC channel.
 960:Generated_Source\PSoC6\pdl\drivers\peripheral\ipc/cy_ipc_drv.h **** *
 961:Generated_Source\PSoC6\pdl\drivers\peripheral\ipc/cy_ipc_drv.h **** * \param base
 962:Generated_Source\PSoC6\pdl\drivers\peripheral\ipc/cy_ipc_drv.h **** * This parameter is a handle that represents the base address of the registers
 963:Generated_Source\PSoC6\pdl\drivers\peripheral\ipc/cy_ipc_drv.h **** * of the IPC channel.
 964:Generated_Source\PSoC6\pdl\drivers\peripheral\ipc/cy_ipc_drv.h **** * The parameter is generally returned from a call to the \ref
 965:Generated_Source\PSoC6\pdl\drivers\peripheral\ipc/cy_ipc_drv.h **** * Cy_IPC_Drv_GetIpcBaseAddress
 966:Generated_Source\PSoC6\pdl\drivers\peripheral\ipc/cy_ipc_drv.h **** *
 967:Generated_Source\PSoC6\pdl\drivers\peripheral\ipc/cy_ipc_drv.h **** * \return   Status of the operation
 968:Generated_Source\PSoC6\pdl\drivers\peripheral\ipc/cy_ipc_drv.h **** *   \retval CY_IPC_DRV_SUCCESS: The IPC was successfully acquired
 969:Generated_Source\PSoC6\pdl\drivers\peripheral\ipc/cy_ipc_drv.h **** *   \retval CY_IPC_DRV_ERROR:   The IPC was not acquired because it was already acquired
 970:Generated_Source\PSoC6\pdl\drivers\peripheral\ipc/cy_ipc_drv.h **** *                       by another master
 971:Generated_Source\PSoC6\pdl\drivers\peripheral\ipc/cy_ipc_drv.h **** *
 972:Generated_Source\PSoC6\pdl\drivers\peripheral\ipc/cy_ipc_drv.h **** * \funcusage
 973:Generated_Source\PSoC6\pdl\drivers\peripheral\ipc/cy_ipc_drv.h **** * \snippet IPC_sut_01.cydsn/main_cm4.c snippet_Cy_IPC_Drv_LockAcquire
 974:Generated_Source\PSoC6\pdl\drivers\peripheral\ipc/cy_ipc_drv.h **** *
 975:Generated_Source\PSoC6\pdl\drivers\peripheral\ipc/cy_ipc_drv.h **** *******************************************************************************/
 976:Generated_Source\PSoC6\pdl\drivers\peripheral\ipc/cy_ipc_drv.h **** __STATIC_INLINE cy_en_ipcdrv_status_t Cy_IPC_Drv_LockAcquire (IPC_STRUCT_Type const * base)
 977:Generated_Source\PSoC6\pdl\drivers\peripheral\ipc/cy_ipc_drv.h **** {
ARM GAS  C:\Users\mattma1\AppData\Local\Temp\cchZ2NYx.s 			page 29


 978:Generated_Source\PSoC6\pdl\drivers\peripheral\ipc/cy_ipc_drv.h ****     return ( 0ul != _FLD2VAL(IPC_STRUCT_ACQUIRE_SUCCESS, REG_IPC_STRUCT_ACQUIRE(base))) ? CY_IPC_DR
 358              		.loc 2 978 0
 359 0032 0368     		ldr	r3, [r0]
 360 0034 002B     		cmp	r3, #0
 361 0036 01DA     		bge	.L28
 362 0038 0023     		movs	r3, #0
 363 003a 00E0     		b	.L23
 364              	.L28:
 365 003c 0F4B     		ldr	r3, .L31+4
 366              	.L23:
 367              	.LVL54:
 368              	.LBE29:
 369              	.LBE28:
 370              		.loc 1 242 0
 371 003e 002B     		cmp	r3, #0
 372 0040 0ED1     		bne	.L29
 243:Generated_Source\PSoC6\pdl\drivers\peripheral\ipc/cy_ipc_sema.c ****         {
 244:Generated_Source\PSoC6\pdl\drivers\peripheral\ipc/cy_ipc_sema.c ****             if((semaStruct->arrayPtr[semaIndex] & semaMask) == 0ul)
 373              		.loc 1 244 0
 374 0042 6368     		ldr	r3, [r4, #4]
 375 0044 BF00     		lsls	r7, r7, #2
 376              	.LVL55:
 377 0046 DF19     		adds	r7, r3, r7
 378 0048 3B68     		ldr	r3, [r7]
 379 004a 3342     		tst	r3, r6
 380 004c 03D1     		bne	.L30
 245:Generated_Source\PSoC6\pdl\drivers\peripheral\ipc/cy_ipc_sema.c ****             {
 246:Generated_Source\PSoC6\pdl\drivers\peripheral\ipc/cy_ipc_sema.c ****                 semaStruct->arrayPtr[semaIndex] |= semaMask;
 381              		.loc 1 246 0
 382 004e 3343     		orrs	r3, r6
 383 0050 3B60     		str	r3, [r7]
 384              	.LVL56:
 247:Generated_Source\PSoC6\pdl\drivers\peripheral\ipc/cy_ipc_sema.c ****                 retStatus = CY_IPC_SEMA_SUCCESS;
 385              		.loc 1 247 0
 386 0052 0024     		movs	r4, #0
 387              	.LVL57:
 388 0054 00E0     		b	.L25
 389              	.LVL58:
 390              	.L30:
 248:Generated_Source\PSoC6\pdl\drivers\peripheral\ipc/cy_ipc_sema.c ****             }
 249:Generated_Source\PSoC6\pdl\drivers\peripheral\ipc/cy_ipc_sema.c ****             else
 250:Generated_Source\PSoC6\pdl\drivers\peripheral\ipc/cy_ipc_sema.c ****             {
 251:Generated_Source\PSoC6\pdl\drivers\peripheral\ipc/cy_ipc_sema.c ****                 retStatus = CY_IPC_SEMA_NOT_ACQUIRED;
 391              		.loc 1 251 0
 392 0056 0A4C     		ldr	r4, .L31+8
 393              	.LVL59:
 394              	.L25:
 252:Generated_Source\PSoC6\pdl\drivers\peripheral\ipc/cy_ipc_sema.c ****             }
 253:Generated_Source\PSoC6\pdl\drivers\peripheral\ipc/cy_ipc_sema.c **** 
 254:Generated_Source\PSoC6\pdl\drivers\peripheral\ipc/cy_ipc_sema.c ****             /* Release, but do not trigger a release event */
 255:Generated_Source\PSoC6\pdl\drivers\peripheral\ipc/cy_ipc_sema.c ****             (void) Cy_IPC_Drv_LockRelease (cy_semaIpcStruct, CY_IPC_NO_NOTIFICATION);
 395              		.loc 1 255 0
 396 0058 0021     		movs	r1, #0
 397 005a FFF7FEFF 		bl	Cy_IPC_Drv_LockRelease
 398              	.LVL60:
 399 005e 00E0     		b	.L24
 400              	.LVL61:
ARM GAS  C:\Users\mattma1\AppData\Local\Temp\cchZ2NYx.s 			page 30


 401              	.L29:
 225:Generated_Source\PSoC6\pdl\drivers\peripheral\ipc/cy_ipc_sema.c **** 
 402              		.loc 1 225 0
 403 0060 084C     		ldr	r4, .L31+12
 404              	.LVL62:
 405              	.L24:
 256:Generated_Source\PSoC6\pdl\drivers\peripheral\ipc/cy_ipc_sema.c ****         }
 257:Generated_Source\PSoC6\pdl\drivers\peripheral\ipc/cy_ipc_sema.c **** 
 258:Generated_Source\PSoC6\pdl\drivers\peripheral\ipc/cy_ipc_sema.c ****         if (!preemptable)
 406              		.loc 1 258 0
 407 0062 002D     		cmp	r5, #0
 408 0064 04D1     		bne	.L21
 259:Generated_Source\PSoC6\pdl\drivers\peripheral\ipc/cy_ipc_sema.c ****         {
 260:Generated_Source\PSoC6\pdl\drivers\peripheral\ipc/cy_ipc_sema.c ****             Cy_SysLib_ExitCriticalSection(interruptState);
 409              		.loc 1 260 0
 410 0066 0198     		ldr	r0, [sp, #4]
 411 0068 FFF7FEFF 		bl	Cy_SysLib_ExitCriticalSection
 412              	.LVL63:
 413 006c 00E0     		b	.L21
 414              	.LVL64:
 415              	.L26:
 261:Generated_Source\PSoC6\pdl\drivers\peripheral\ipc/cy_ipc_sema.c ****         }
 262:Generated_Source\PSoC6\pdl\drivers\peripheral\ipc/cy_ipc_sema.c ****     }
 263:Generated_Source\PSoC6\pdl\drivers\peripheral\ipc/cy_ipc_sema.c ****     else
 264:Generated_Source\PSoC6\pdl\drivers\peripheral\ipc/cy_ipc_sema.c ****     {
 265:Generated_Source\PSoC6\pdl\drivers\peripheral\ipc/cy_ipc_sema.c ****         retStatus = CY_IPC_SEMA_OUT_OF_RANGE;
 416              		.loc 1 265 0
 417 006e 064C     		ldr	r4, .L31+16
 418              	.LVL65:
 419              	.L21:
 266:Generated_Source\PSoC6\pdl\drivers\peripheral\ipc/cy_ipc_sema.c ****     }
 267:Generated_Source\PSoC6\pdl\drivers\peripheral\ipc/cy_ipc_sema.c **** 
 268:Generated_Source\PSoC6\pdl\drivers\peripheral\ipc/cy_ipc_sema.c ****     return(retStatus);
 269:Generated_Source\PSoC6\pdl\drivers\peripheral\ipc/cy_ipc_sema.c **** }
 420              		.loc 1 269 0
 421 0070 2000     		movs	r0, r4
 422 0072 03B0     		add	sp, sp, #12
 423              		@ sp needed
 424              	.LVL66:
 425 0074 F0BD     		pop	{r4, r5, r6, r7, pc}
 426              	.L32:
 427 0076 C046     		.align	2
 428              	.L31:
 429 0078 00000000 		.word	.LANCHOR0
 430 007c 01008A00 		.word	9043969
 431 0080 02018800 		.word	8913154
 432 0084 03018800 		.word	8913155
 433 0088 04018A00 		.word	9044228
 434              		.cfi_endproc
 435              	.LFE66:
 436              		.size	Cy_IPC_Sema_Set, .-Cy_IPC_Sema_Set
 437              		.section	.text.Cy_IPC_Sema_Clear,"ax",%progbits
 438              		.align	2
 439              		.global	Cy_IPC_Sema_Clear
 440              		.code	16
 441              		.thumb_func
 442              		.type	Cy_IPC_Sema_Clear, %function
ARM GAS  C:\Users\mattma1\AppData\Local\Temp\cchZ2NYx.s 			page 31


 443              	Cy_IPC_Sema_Clear:
 444              	.LFB67:
 270:Generated_Source\PSoC6\pdl\drivers\peripheral\ipc/cy_ipc_sema.c **** 
 271:Generated_Source\PSoC6\pdl\drivers\peripheral\ipc/cy_ipc_sema.c **** 
 272:Generated_Source\PSoC6\pdl\drivers\peripheral\ipc/cy_ipc_sema.c **** /*******************************************************************************
 273:Generated_Source\PSoC6\pdl\drivers\peripheral\ipc/cy_ipc_sema.c **** * Function Name: Cy_IPC_Sema_Clear
 274:Generated_Source\PSoC6\pdl\drivers\peripheral\ipc/cy_ipc_sema.c **** ****************************************************************************//**
 275:Generated_Source\PSoC6\pdl\drivers\peripheral\ipc/cy_ipc_sema.c **** *
 276:Generated_Source\PSoC6\pdl\drivers\peripheral\ipc/cy_ipc_sema.c **** * This functions tries to releases a semaphore.
 277:Generated_Source\PSoC6\pdl\drivers\peripheral\ipc/cy_ipc_sema.c **** *
 278:Generated_Source\PSoC6\pdl\drivers\peripheral\ipc/cy_ipc_sema.c **** * It first acquires the IPC channel that is used for all the semaphores, clears
 279:Generated_Source\PSoC6\pdl\drivers\peripheral\ipc/cy_ipc_sema.c **** * the semaphore if it is set, then releases the IPC channel used for the
 280:Generated_Source\PSoC6\pdl\drivers\peripheral\ipc/cy_ipc_sema.c **** * semaphores.
 281:Generated_Source\PSoC6\pdl\drivers\peripheral\ipc/cy_ipc_sema.c **** *
 282:Generated_Source\PSoC6\pdl\drivers\peripheral\ipc/cy_ipc_sema.c **** * \param semaNumber
 283:Generated_Source\PSoC6\pdl\drivers\peripheral\ipc/cy_ipc_sema.c **** *  The index of the semaphore to release.
 284:Generated_Source\PSoC6\pdl\drivers\peripheral\ipc/cy_ipc_sema.c **** *
 285:Generated_Source\PSoC6\pdl\drivers\peripheral\ipc/cy_ipc_sema.c **** * \param preemptable
 286:Generated_Source\PSoC6\pdl\drivers\peripheral\ipc/cy_ipc_sema.c **** *  When this parameter is enabled the function can be preempted by another
 287:Generated_Source\PSoC6\pdl\drivers\peripheral\ipc/cy_ipc_sema.c **** *  task or other forms of context switching in an RTOS environment.
 288:Generated_Source\PSoC6\pdl\drivers\peripheral\ipc/cy_ipc_sema.c **** *
 289:Generated_Source\PSoC6\pdl\drivers\peripheral\ipc/cy_ipc_sema.c **** * \note
 290:Generated_Source\PSoC6\pdl\drivers\peripheral\ipc/cy_ipc_sema.c **** *  If <b>preemptable</b> is enabled (true), the user must ensure that there are
 291:Generated_Source\PSoC6\pdl\drivers\peripheral\ipc/cy_ipc_sema.c **** *  no deadlocks in the system, which can be caused by an interrupt that occurs
 292:Generated_Source\PSoC6\pdl\drivers\peripheral\ipc/cy_ipc_sema.c **** *  after the IPC channel is locked. Unless the user is ready to handle IPC
 293:Generated_Source\PSoC6\pdl\drivers\peripheral\ipc/cy_ipc_sema.c **** *  channel locks correctly at the application level, set <b>preemptable</b> to
 294:Generated_Source\PSoC6\pdl\drivers\peripheral\ipc/cy_ipc_sema.c **** *  false.
 295:Generated_Source\PSoC6\pdl\drivers\peripheral\ipc/cy_ipc_sema.c **** *
 296:Generated_Source\PSoC6\pdl\drivers\peripheral\ipc/cy_ipc_sema.c **** * \return Status of the operation
 297:Generated_Source\PSoC6\pdl\drivers\peripheral\ipc/cy_ipc_sema.c **** *    \retval CY_IPC_SEMA_SUCCESS:         The semaphore was cleared successfully
 298:Generated_Source\PSoC6\pdl\drivers\peripheral\ipc/cy_ipc_sema.c **** *    \retval CY_IPC_SEMA_NOT_ACQUIRED:    The semaphore was already cleared
 299:Generated_Source\PSoC6\pdl\drivers\peripheral\ipc/cy_ipc_sema.c **** *    \retval CY_IPC_SEMA_LOCKED:          The semaphore channel was semaphored or busy
 300:Generated_Source\PSoC6\pdl\drivers\peripheral\ipc/cy_ipc_sema.c **** *    \retval CY_IPC_SEMA_OUT_OF_RANGE:    The semaphore number is not valid
 301:Generated_Source\PSoC6\pdl\drivers\peripheral\ipc/cy_ipc_sema.c **** *
 302:Generated_Source\PSoC6\pdl\drivers\peripheral\ipc/cy_ipc_sema.c **** * \funcusage
 303:Generated_Source\PSoC6\pdl\drivers\peripheral\ipc/cy_ipc_sema.c **** * \snippet IPC_sut_01.cydsn/main_cm4.c snippet_Cy_IPC_Sema_Clear
 304:Generated_Source\PSoC6\pdl\drivers\peripheral\ipc/cy_ipc_sema.c **** *
 305:Generated_Source\PSoC6\pdl\drivers\peripheral\ipc/cy_ipc_sema.c **** *******************************************************************************/
 306:Generated_Source\PSoC6\pdl\drivers\peripheral\ipc/cy_ipc_sema.c **** cy_en_ipcsema_status_t Cy_IPC_Sema_Clear(uint32_t semaNumber, bool preemptable)
 307:Generated_Source\PSoC6\pdl\drivers\peripheral\ipc/cy_ipc_sema.c **** {
 445              		.loc 1 307 0
 446              		.cfi_startproc
 447              		@ args = 0, pretend = 0, frame = 8
 448              		@ frame_needed = 0, uses_anonymous_args = 0
 449              	.LVL67:
 450 0000 F0B5     		push	{r4, r5, r6, r7, lr}
 451              		.cfi_def_cfa_offset 20
 452              		.cfi_offset 4, -20
 453              		.cfi_offset 5, -16
 454              		.cfi_offset 6, -12
 455              		.cfi_offset 7, -8
 456              		.cfi_offset 14, -4
 457 0002 83B0     		sub	sp, sp, #12
 458              		.cfi_def_cfa_offset 32
 459 0004 0D00     		movs	r5, r1
 460              	.LVL68:
 308:Generated_Source\PSoC6\pdl\drivers\peripheral\ipc/cy_ipc_sema.c ****     uint32_t semaIndex;
ARM GAS  C:\Users\mattma1\AppData\Local\Temp\cchZ2NYx.s 			page 32


 309:Generated_Source\PSoC6\pdl\drivers\peripheral\ipc/cy_ipc_sema.c ****     uint32_t semaMask;
 310:Generated_Source\PSoC6\pdl\drivers\peripheral\ipc/cy_ipc_sema.c ****     uint32_t interruptState = 0ul;
 311:Generated_Source\PSoC6\pdl\drivers\peripheral\ipc/cy_ipc_sema.c **** 
 312:Generated_Source\PSoC6\pdl\drivers\peripheral\ipc/cy_ipc_sema.c ****     cy_stc_ipc_sema_t      *semaStruct;
 313:Generated_Source\PSoC6\pdl\drivers\peripheral\ipc/cy_ipc_sema.c ****     cy_en_ipcsema_status_t  retStatus = CY_IPC_SEMA_LOCKED;
 314:Generated_Source\PSoC6\pdl\drivers\peripheral\ipc/cy_ipc_sema.c **** 
 315:Generated_Source\PSoC6\pdl\drivers\peripheral\ipc/cy_ipc_sema.c ****     /* Get pointer to structure */
 316:Generated_Source\PSoC6\pdl\drivers\peripheral\ipc/cy_ipc_sema.c ****     semaStruct = (cy_stc_ipc_sema_t *)Cy_IPC_Drv_ReadDataValue(cy_semaIpcStruct);
 461              		.loc 1 316 0
 462 0006 1C4B     		ldr	r3, .L44
 463 0008 1B68     		ldr	r3, [r3]
 464              	.LVL69:
 465              	.LBB30:
 466              	.LBB31:
 776:Generated_Source\PSoC6\pdl\drivers\peripheral\ipc/cy_ipc_drv.h **** }
 467              		.loc 2 776 0
 468 000a DC68     		ldr	r4, [r3, #12]
 469              	.LVL70:
 470              	.LBE31:
 471              	.LBE30:
 317:Generated_Source\PSoC6\pdl\drivers\peripheral\ipc/cy_ipc_sema.c **** 
 318:Generated_Source\PSoC6\pdl\drivers\peripheral\ipc/cy_ipc_sema.c ****     if (semaNumber < semaStruct->maxSema)
 472              		.loc 1 318 0
 473 000c 2368     		ldr	r3, [r4]
 474 000e 8342     		cmp	r3, r0
 475 0010 2DD9     		bls	.L39
 319:Generated_Source\PSoC6\pdl\drivers\peripheral\ipc/cy_ipc_sema.c ****     {
 320:Generated_Source\PSoC6\pdl\drivers\peripheral\ipc/cy_ipc_sema.c ****         semaIndex = semaNumber / CY_IPC_SEMA_PER_WORD;
 476              		.loc 1 320 0
 477 0012 4709     		lsrs	r7, r0, #5
 478              	.LVL71:
 321:Generated_Source\PSoC6\pdl\drivers\peripheral\ipc/cy_ipc_sema.c ****         semaMask = (uint32_t)(1ul << (semaNumber - (semaIndex * CY_IPC_SEMA_PER_WORD) ));
 479              		.loc 1 321 0
 480 0014 7B01     		lsls	r3, r7, #5
 481 0016 C01A     		subs	r0, r0, r3
 482              	.LVL72:
 483 0018 0123     		movs	r3, #1
 484 001a 8340     		lsls	r3, r3, r0
 485 001c 1E00     		movs	r6, r3
 486              	.LVL73:
 322:Generated_Source\PSoC6\pdl\drivers\peripheral\ipc/cy_ipc_sema.c **** 
 323:Generated_Source\PSoC6\pdl\drivers\peripheral\ipc/cy_ipc_sema.c ****         if (!preemptable)
 487              		.loc 1 323 0
 488 001e 0029     		cmp	r1, #0
 489 0020 03D1     		bne	.L40
 324:Generated_Source\PSoC6\pdl\drivers\peripheral\ipc/cy_ipc_sema.c ****         {
 325:Generated_Source\PSoC6\pdl\drivers\peripheral\ipc/cy_ipc_sema.c ****             interruptState = Cy_SysLib_EnterCriticalSection();
 490              		.loc 1 325 0
 491 0022 FFF7FEFF 		bl	Cy_SysLib_EnterCriticalSection
 492              	.LVL74:
 493 0026 0190     		str	r0, [sp, #4]
 494              	.LVL75:
 495 0028 01E0     		b	.L35
 496              	.LVL76:
 497              	.L40:
 310:Generated_Source\PSoC6\pdl\drivers\peripheral\ipc/cy_ipc_sema.c **** 
 498              		.loc 1 310 0
ARM GAS  C:\Users\mattma1\AppData\Local\Temp\cchZ2NYx.s 			page 33


 499 002a 0023     		movs	r3, #0
 500              	.LVL77:
 501 002c 0193     		str	r3, [sp, #4]
 502              	.LVL78:
 503              	.L35:
 326:Generated_Source\PSoC6\pdl\drivers\peripheral\ipc/cy_ipc_sema.c ****         }
 327:Generated_Source\PSoC6\pdl\drivers\peripheral\ipc/cy_ipc_sema.c **** 
 328:Generated_Source\PSoC6\pdl\drivers\peripheral\ipc/cy_ipc_sema.c ****         /* Check to make sure the IPC channel is released
 329:Generated_Source\PSoC6\pdl\drivers\peripheral\ipc/cy_ipc_sema.c ****            If so, check if specific channel can be locked. */
 330:Generated_Source\PSoC6\pdl\drivers\peripheral\ipc/cy_ipc_sema.c ****         if(CY_IPC_DRV_SUCCESS == Cy_IPC_Drv_LockAcquire (cy_semaIpcStruct))
 504              		.loc 1 330 0
 505 002e 124B     		ldr	r3, .L44
 506 0030 1868     		ldr	r0, [r3]
 507              	.LVL79:
 508              	.LBB32:
 509              	.LBB33:
 510              		.loc 2 978 0
 511 0032 0368     		ldr	r3, [r0]
 512 0034 002B     		cmp	r3, #0
 513 0036 01DA     		bge	.L41
 514 0038 0023     		movs	r3, #0
 515 003a 00E0     		b	.L36
 516              	.L41:
 517 003c 0F4B     		ldr	r3, .L44+4
 518              	.L36:
 519              	.LVL80:
 520              	.LBE33:
 521              	.LBE32:
 522              		.loc 1 330 0
 523 003e 002B     		cmp	r3, #0
 524 0040 0ED1     		bne	.L42
 331:Generated_Source\PSoC6\pdl\drivers\peripheral\ipc/cy_ipc_sema.c ****         {
 332:Generated_Source\PSoC6\pdl\drivers\peripheral\ipc/cy_ipc_sema.c ****             if((semaStruct->arrayPtr[semaIndex] & semaMask) != 0ul)
 525              		.loc 1 332 0
 526 0042 6368     		ldr	r3, [r4, #4]
 527 0044 BF00     		lsls	r7, r7, #2
 528              	.LVL81:
 529 0046 DF19     		adds	r7, r3, r7
 530 0048 3B68     		ldr	r3, [r7]
 531 004a 3342     		tst	r3, r6
 532 004c 03D0     		beq	.L43
 333:Generated_Source\PSoC6\pdl\drivers\peripheral\ipc/cy_ipc_sema.c ****             {
 334:Generated_Source\PSoC6\pdl\drivers\peripheral\ipc/cy_ipc_sema.c ****                 semaStruct->arrayPtr[semaIndex] &= ~semaMask;
 533              		.loc 1 334 0
 534 004e B343     		bics	r3, r6
 535 0050 3B60     		str	r3, [r7]
 536              	.LVL82:
 335:Generated_Source\PSoC6\pdl\drivers\peripheral\ipc/cy_ipc_sema.c ****                 retStatus = CY_IPC_SEMA_SUCCESS;
 537              		.loc 1 335 0
 538 0052 0024     		movs	r4, #0
 539              	.LVL83:
 540 0054 00E0     		b	.L38
 541              	.LVL84:
 542              	.L43:
 336:Generated_Source\PSoC6\pdl\drivers\peripheral\ipc/cy_ipc_sema.c ****             }
 337:Generated_Source\PSoC6\pdl\drivers\peripheral\ipc/cy_ipc_sema.c ****             else
 338:Generated_Source\PSoC6\pdl\drivers\peripheral\ipc/cy_ipc_sema.c ****             {
ARM GAS  C:\Users\mattma1\AppData\Local\Temp\cchZ2NYx.s 			page 34


 339:Generated_Source\PSoC6\pdl\drivers\peripheral\ipc/cy_ipc_sema.c ****                 retStatus = CY_IPC_SEMA_NOT_ACQUIRED;
 543              		.loc 1 339 0
 544 0056 0A4C     		ldr	r4, .L44+8
 545              	.LVL85:
 546              	.L38:
 340:Generated_Source\PSoC6\pdl\drivers\peripheral\ipc/cy_ipc_sema.c ****             }
 341:Generated_Source\PSoC6\pdl\drivers\peripheral\ipc/cy_ipc_sema.c **** 
 342:Generated_Source\PSoC6\pdl\drivers\peripheral\ipc/cy_ipc_sema.c ****             /* Release, but do not trigger a release event */
 343:Generated_Source\PSoC6\pdl\drivers\peripheral\ipc/cy_ipc_sema.c ****             (void) Cy_IPC_Drv_LockRelease (cy_semaIpcStruct, CY_IPC_NO_NOTIFICATION);
 547              		.loc 1 343 0
 548 0058 0021     		movs	r1, #0
 549 005a FFF7FEFF 		bl	Cy_IPC_Drv_LockRelease
 550              	.LVL86:
 551 005e 00E0     		b	.L37
 552              	.LVL87:
 553              	.L42:
 313:Generated_Source\PSoC6\pdl\drivers\peripheral\ipc/cy_ipc_sema.c **** 
 554              		.loc 1 313 0
 555 0060 084C     		ldr	r4, .L44+12
 556              	.LVL88:
 557              	.L37:
 344:Generated_Source\PSoC6\pdl\drivers\peripheral\ipc/cy_ipc_sema.c ****         }
 345:Generated_Source\PSoC6\pdl\drivers\peripheral\ipc/cy_ipc_sema.c **** 
 346:Generated_Source\PSoC6\pdl\drivers\peripheral\ipc/cy_ipc_sema.c ****         if (!preemptable)
 558              		.loc 1 346 0
 559 0062 002D     		cmp	r5, #0
 560 0064 04D1     		bne	.L34
 347:Generated_Source\PSoC6\pdl\drivers\peripheral\ipc/cy_ipc_sema.c ****         {
 348:Generated_Source\PSoC6\pdl\drivers\peripheral\ipc/cy_ipc_sema.c ****             Cy_SysLib_ExitCriticalSection(interruptState);
 561              		.loc 1 348 0
 562 0066 0198     		ldr	r0, [sp, #4]
 563 0068 FFF7FEFF 		bl	Cy_SysLib_ExitCriticalSection
 564              	.LVL89:
 565 006c 00E0     		b	.L34
 566              	.LVL90:
 567              	.L39:
 349:Generated_Source\PSoC6\pdl\drivers\peripheral\ipc/cy_ipc_sema.c ****         }
 350:Generated_Source\PSoC6\pdl\drivers\peripheral\ipc/cy_ipc_sema.c ****     }
 351:Generated_Source\PSoC6\pdl\drivers\peripheral\ipc/cy_ipc_sema.c ****     else
 352:Generated_Source\PSoC6\pdl\drivers\peripheral\ipc/cy_ipc_sema.c ****     {
 353:Generated_Source\PSoC6\pdl\drivers\peripheral\ipc/cy_ipc_sema.c ****         retStatus = CY_IPC_SEMA_OUT_OF_RANGE;
 568              		.loc 1 353 0
 569 006e 064C     		ldr	r4, .L44+16
 570              	.LVL91:
 571              	.L34:
 354:Generated_Source\PSoC6\pdl\drivers\peripheral\ipc/cy_ipc_sema.c ****     }
 355:Generated_Source\PSoC6\pdl\drivers\peripheral\ipc/cy_ipc_sema.c ****     return(retStatus);
 356:Generated_Source\PSoC6\pdl\drivers\peripheral\ipc/cy_ipc_sema.c **** }
 572              		.loc 1 356 0
 573 0070 2000     		movs	r0, r4
 574 0072 03B0     		add	sp, sp, #12
 575              		@ sp needed
 576              	.LVL92:
 577 0074 F0BD     		pop	{r4, r5, r6, r7, pc}
 578              	.L45:
 579 0076 C046     		.align	2
 580              	.L44:
ARM GAS  C:\Users\mattma1\AppData\Local\Temp\cchZ2NYx.s 			page 35


 581 0078 00000000 		.word	.LANCHOR0
 582 007c 01008A00 		.word	9043969
 583 0080 02018800 		.word	8913154
 584 0084 03018800 		.word	8913155
 585 0088 04018A00 		.word	9044228
 586              		.cfi_endproc
 587              	.LFE67:
 588              		.size	Cy_IPC_Sema_Clear, .-Cy_IPC_Sema_Clear
 589              		.section	.text.Cy_IPC_Sema_Status,"ax",%progbits
 590              		.align	2
 591              		.global	Cy_IPC_Sema_Status
 592              		.code	16
 593              		.thumb_func
 594              		.type	Cy_IPC_Sema_Status, %function
 595              	Cy_IPC_Sema_Status:
 596              	.LFB68:
 357:Generated_Source\PSoC6\pdl\drivers\peripheral\ipc/cy_ipc_sema.c **** 
 358:Generated_Source\PSoC6\pdl\drivers\peripheral\ipc/cy_ipc_sema.c **** 
 359:Generated_Source\PSoC6\pdl\drivers\peripheral\ipc/cy_ipc_sema.c **** /*******************************************************************************
 360:Generated_Source\PSoC6\pdl\drivers\peripheral\ipc/cy_ipc_sema.c **** * Function Name: Cy_IPC_Sema_Status
 361:Generated_Source\PSoC6\pdl\drivers\peripheral\ipc/cy_ipc_sema.c **** ****************************************************************************//**
 362:Generated_Source\PSoC6\pdl\drivers\peripheral\ipc/cy_ipc_sema.c **** *
 363:Generated_Source\PSoC6\pdl\drivers\peripheral\ipc/cy_ipc_sema.c **** * This function returns the status of the semaphore.
 364:Generated_Source\PSoC6\pdl\drivers\peripheral\ipc/cy_ipc_sema.c **** *
 365:Generated_Source\PSoC6\pdl\drivers\peripheral\ipc/cy_ipc_sema.c **** * \param semaNumber
 366:Generated_Source\PSoC6\pdl\drivers\peripheral\ipc/cy_ipc_sema.c **** *  The index of the semaphore to return status.
 367:Generated_Source\PSoC6\pdl\drivers\peripheral\ipc/cy_ipc_sema.c **** *
 368:Generated_Source\PSoC6\pdl\drivers\peripheral\ipc/cy_ipc_sema.c **** * \return Status of the operation
 369:Generated_Source\PSoC6\pdl\drivers\peripheral\ipc/cy_ipc_sema.c **** *     \retval CY_IPC_SEMA_STATUS_LOCKED:    The semaphore is in the set state.
 370:Generated_Source\PSoC6\pdl\drivers\peripheral\ipc/cy_ipc_sema.c **** *     \retval CY_IPC_SEMA_STATUS_UNLOCKED:  The semaphore is in the cleared state.
 371:Generated_Source\PSoC6\pdl\drivers\peripheral\ipc/cy_ipc_sema.c **** *     \retval CY_IPC_SEMA_OUT_OF_RANGE:     The semaphore number is not valid
 372:Generated_Source\PSoC6\pdl\drivers\peripheral\ipc/cy_ipc_sema.c **** *
 373:Generated_Source\PSoC6\pdl\drivers\peripheral\ipc/cy_ipc_sema.c **** * \funcusage
 374:Generated_Source\PSoC6\pdl\drivers\peripheral\ipc/cy_ipc_sema.c **** * \snippet IPC_sut_01.cydsn/main_cm4.c snippet_Cy_IPC_Sema_Status
 375:Generated_Source\PSoC6\pdl\drivers\peripheral\ipc/cy_ipc_sema.c **** *
 376:Generated_Source\PSoC6\pdl\drivers\peripheral\ipc/cy_ipc_sema.c **** *******************************************************************************/
 377:Generated_Source\PSoC6\pdl\drivers\peripheral\ipc/cy_ipc_sema.c **** cy_en_ipcsema_status_t Cy_IPC_Sema_Status(uint32_t semaNumber)
 378:Generated_Source\PSoC6\pdl\drivers\peripheral\ipc/cy_ipc_sema.c **** {
 597              		.loc 1 378 0
 598              		.cfi_startproc
 599              		@ args = 0, pretend = 0, frame = 0
 600              		@ frame_needed = 0, uses_anonymous_args = 0
 601              		@ link register save eliminated.
 602              	.LVL93:
 379:Generated_Source\PSoC6\pdl\drivers\peripheral\ipc/cy_ipc_sema.c ****     cy_en_ipcsema_status_t   retStatus;
 380:Generated_Source\PSoC6\pdl\drivers\peripheral\ipc/cy_ipc_sema.c ****     uint32_t semaIndex;
 381:Generated_Source\PSoC6\pdl\drivers\peripheral\ipc/cy_ipc_sema.c ****     uint32_t semaMask;
 382:Generated_Source\PSoC6\pdl\drivers\peripheral\ipc/cy_ipc_sema.c ****     cy_stc_ipc_sema_t      *semaStruct;
 383:Generated_Source\PSoC6\pdl\drivers\peripheral\ipc/cy_ipc_sema.c **** 
 384:Generated_Source\PSoC6\pdl\drivers\peripheral\ipc/cy_ipc_sema.c ****     /* Get pointer to structure */
 385:Generated_Source\PSoC6\pdl\drivers\peripheral\ipc/cy_ipc_sema.c ****     semaStruct = (cy_stc_ipc_sema_t *)Cy_IPC_Drv_ReadDataValue(cy_semaIpcStruct);
 603              		.loc 1 385 0
 604 0000 0A4B     		ldr	r3, .L50
 605 0002 1B68     		ldr	r3, [r3]
 606              	.LVL94:
 607              	.LBB34:
 608              	.LBB35:
ARM GAS  C:\Users\mattma1\AppData\Local\Temp\cchZ2NYx.s 			page 36


 776:Generated_Source\PSoC6\pdl\drivers\peripheral\ipc/cy_ipc_drv.h **** }
 609              		.loc 2 776 0
 610 0004 DA68     		ldr	r2, [r3, #12]
 611              	.LVL95:
 612              	.LBE35:
 613              	.LBE34:
 386:Generated_Source\PSoC6\pdl\drivers\peripheral\ipc/cy_ipc_sema.c **** 
 387:Generated_Source\PSoC6\pdl\drivers\peripheral\ipc/cy_ipc_sema.c ****     if (semaNumber < semaStruct->maxSema)
 614              		.loc 1 387 0
 615 0006 1368     		ldr	r3, [r2]
 616 0008 8342     		cmp	r3, r0
 617 000a 0BD9     		bls	.L48
 388:Generated_Source\PSoC6\pdl\drivers\peripheral\ipc/cy_ipc_sema.c ****     {
 389:Generated_Source\PSoC6\pdl\drivers\peripheral\ipc/cy_ipc_sema.c ****         /* Get the index into the semaphore array and calculate the mask */
 390:Generated_Source\PSoC6\pdl\drivers\peripheral\ipc/cy_ipc_sema.c ****         semaIndex = semaNumber / CY_IPC_SEMA_PER_WORD;
 618              		.loc 1 390 0
 619 000c 4309     		lsrs	r3, r0, #5
 620              	.LVL96:
 391:Generated_Source\PSoC6\pdl\drivers\peripheral\ipc/cy_ipc_sema.c ****         semaMask = (uint32_t)(1ul << (semaNumber - (semaIndex * CY_IPC_SEMA_PER_WORD) ));
 621              		.loc 1 391 0
 622 000e 5901     		lsls	r1, r3, #5
 623 0010 401A     		subs	r0, r0, r1
 624              	.LVL97:
 625 0012 0121     		movs	r1, #1
 626 0014 8140     		lsls	r1, r1, r0
 627              	.LVL98:
 392:Generated_Source\PSoC6\pdl\drivers\peripheral\ipc/cy_ipc_sema.c **** 
 393:Generated_Source\PSoC6\pdl\drivers\peripheral\ipc/cy_ipc_sema.c ****         if((semaStruct->arrayPtr[semaIndex] & semaMask) != 0ul)
 628              		.loc 1 393 0
 629 0016 5268     		ldr	r2, [r2, #4]
 630              	.LVL99:
 631 0018 9B00     		lsls	r3, r3, #2
 632              	.LVL100:
 633 001a 9B58     		ldr	r3, [r3, r2]
 634 001c 0B42     		tst	r3, r1
 635 001e 03D0     		beq	.L49
 394:Generated_Source\PSoC6\pdl\drivers\peripheral\ipc/cy_ipc_sema.c ****         {
 395:Generated_Source\PSoC6\pdl\drivers\peripheral\ipc/cy_ipc_sema.c ****             retStatus =  CY_IPC_SEMA_STATUS_LOCKED;
 636              		.loc 1 395 0
 637 0020 0348     		ldr	r0, .L50+4
 638 0022 02E0     		b	.L47
 639              	.LVL101:
 640              	.L48:
 396:Generated_Source\PSoC6\pdl\drivers\peripheral\ipc/cy_ipc_sema.c ****         }
 397:Generated_Source\PSoC6\pdl\drivers\peripheral\ipc/cy_ipc_sema.c ****         else
 398:Generated_Source\PSoC6\pdl\drivers\peripheral\ipc/cy_ipc_sema.c ****         {
 399:Generated_Source\PSoC6\pdl\drivers\peripheral\ipc/cy_ipc_sema.c ****             retStatus =  CY_IPC_SEMA_STATUS_UNLOCKED;
 400:Generated_Source\PSoC6\pdl\drivers\peripheral\ipc/cy_ipc_sema.c ****         }
 401:Generated_Source\PSoC6\pdl\drivers\peripheral\ipc/cy_ipc_sema.c ****     }
 402:Generated_Source\PSoC6\pdl\drivers\peripheral\ipc/cy_ipc_sema.c ****     else
 403:Generated_Source\PSoC6\pdl\drivers\peripheral\ipc/cy_ipc_sema.c ****     {
 404:Generated_Source\PSoC6\pdl\drivers\peripheral\ipc/cy_ipc_sema.c ****         retStatus = CY_IPC_SEMA_OUT_OF_RANGE;
 641              		.loc 1 404 0
 642 0024 0348     		ldr	r0, .L50+8
 643              	.LVL102:
 644 0026 00E0     		b	.L47
 645              	.LVL103:
ARM GAS  C:\Users\mattma1\AppData\Local\Temp\cchZ2NYx.s 			page 37


 646              	.L49:
 399:Generated_Source\PSoC6\pdl\drivers\peripheral\ipc/cy_ipc_sema.c ****         }
 647              		.loc 1 399 0
 648 0028 0348     		ldr	r0, .L50+12
 649              	.LVL104:
 650              	.L47:
 405:Generated_Source\PSoC6\pdl\drivers\peripheral\ipc/cy_ipc_sema.c ****     }
 406:Generated_Source\PSoC6\pdl\drivers\peripheral\ipc/cy_ipc_sema.c ****     return(retStatus);
 407:Generated_Source\PSoC6\pdl\drivers\peripheral\ipc/cy_ipc_sema.c **** }
 651              		.loc 1 407 0
 652              		@ sp needed
 653 002a 7047     		bx	lr
 654              	.L51:
 655              		.align	2
 656              	.L50:
 657 002c 00000000 		.word	.LANCHOR0
 658 0030 01018800 		.word	8913153
 659 0034 04018A00 		.word	9044228
 660 0038 00018800 		.word	8913152
 661              		.cfi_endproc
 662              	.LFE68:
 663              		.size	Cy_IPC_Sema_Status, .-Cy_IPC_Sema_Status
 664              		.section	.text.Cy_IPC_Sema_GetMaxSems,"ax",%progbits
 665              		.align	2
 666              		.global	Cy_IPC_Sema_GetMaxSems
 667              		.code	16
 668              		.thumb_func
 669              		.type	Cy_IPC_Sema_GetMaxSems, %function
 670              	Cy_IPC_Sema_GetMaxSems:
 671              	.LFB69:
 408:Generated_Source\PSoC6\pdl\drivers\peripheral\ipc/cy_ipc_sema.c **** 
 409:Generated_Source\PSoC6\pdl\drivers\peripheral\ipc/cy_ipc_sema.c **** 
 410:Generated_Source\PSoC6\pdl\drivers\peripheral\ipc/cy_ipc_sema.c **** /*******************************************************************************
 411:Generated_Source\PSoC6\pdl\drivers\peripheral\ipc/cy_ipc_sema.c **** * Function Name: Cy_IPC_Sema_GetMaxSems
 412:Generated_Source\PSoC6\pdl\drivers\peripheral\ipc/cy_ipc_sema.c **** ****************************************************************************//**
 413:Generated_Source\PSoC6\pdl\drivers\peripheral\ipc/cy_ipc_sema.c **** *
 414:Generated_Source\PSoC6\pdl\drivers\peripheral\ipc/cy_ipc_sema.c **** * This function returns the number of semaphores in the semaphores subsystem.
 415:Generated_Source\PSoC6\pdl\drivers\peripheral\ipc/cy_ipc_sema.c **** *
 416:Generated_Source\PSoC6\pdl\drivers\peripheral\ipc/cy_ipc_sema.c **** * \return
 417:Generated_Source\PSoC6\pdl\drivers\peripheral\ipc/cy_ipc_sema.c **** *     Returns the semaphores quantity.
 418:Generated_Source\PSoC6\pdl\drivers\peripheral\ipc/cy_ipc_sema.c **** *
 419:Generated_Source\PSoC6\pdl\drivers\peripheral\ipc/cy_ipc_sema.c **** * \funcusage
 420:Generated_Source\PSoC6\pdl\drivers\peripheral\ipc/cy_ipc_sema.c **** * \snippet IPC_sut_01.cydsn/main_cm4.c snippet_Cy_IPC_Sema_GetMaxSems
 421:Generated_Source\PSoC6\pdl\drivers\peripheral\ipc/cy_ipc_sema.c **** *
 422:Generated_Source\PSoC6\pdl\drivers\peripheral\ipc/cy_ipc_sema.c **** *******************************************************************************/
 423:Generated_Source\PSoC6\pdl\drivers\peripheral\ipc/cy_ipc_sema.c **** uint32_t Cy_IPC_Sema_GetMaxSems(void)
 424:Generated_Source\PSoC6\pdl\drivers\peripheral\ipc/cy_ipc_sema.c **** {
 672              		.loc 1 424 0
 673              		.cfi_startproc
 674              		@ args = 0, pretend = 0, frame = 0
 675              		@ frame_needed = 0, uses_anonymous_args = 0
 676              		@ link register save eliminated.
 425:Generated_Source\PSoC6\pdl\drivers\peripheral\ipc/cy_ipc_sema.c ****     cy_stc_ipc_sema_t      *semaStruct;
 426:Generated_Source\PSoC6\pdl\drivers\peripheral\ipc/cy_ipc_sema.c **** 
 427:Generated_Source\PSoC6\pdl\drivers\peripheral\ipc/cy_ipc_sema.c ****     /* Get pointer to structure */
 428:Generated_Source\PSoC6\pdl\drivers\peripheral\ipc/cy_ipc_sema.c ****     semaStruct = (cy_stc_ipc_sema_t *)Cy_IPC_Drv_ReadDataValue(cy_semaIpcStruct);
 677              		.loc 1 428 0
ARM GAS  C:\Users\mattma1\AppData\Local\Temp\cchZ2NYx.s 			page 38


 678 0000 024B     		ldr	r3, .L53
 679 0002 1B68     		ldr	r3, [r3]
 680              	.LVL105:
 681              	.LBB36:
 682              	.LBB37:
 776:Generated_Source\PSoC6\pdl\drivers\peripheral\ipc/cy_ipc_drv.h **** }
 683              		.loc 2 776 0
 684 0004 DB68     		ldr	r3, [r3, #12]
 685              	.LVL106:
 686              	.LBE37:
 687              	.LBE36:
 429:Generated_Source\PSoC6\pdl\drivers\peripheral\ipc/cy_ipc_sema.c **** 
 430:Generated_Source\PSoC6\pdl\drivers\peripheral\ipc/cy_ipc_sema.c ****     return (semaStruct->maxSema);
 688              		.loc 1 430 0
 689 0006 1868     		ldr	r0, [r3]
 431:Generated_Source\PSoC6\pdl\drivers\peripheral\ipc/cy_ipc_sema.c **** }
 690              		.loc 1 431 0
 691              		@ sp needed
 692 0008 7047     		bx	lr
 693              	.L54:
 694 000a C046     		.align	2
 695              	.L53:
 696 000c 00000000 		.word	.LANCHOR0
 697              		.cfi_endproc
 698              	.LFE69:
 699              		.size	Cy_IPC_Sema_GetMaxSems, .-Cy_IPC_Sema_GetMaxSems
 700              		.section	.rodata.str1.4,"aMS",%progbits,1
 701              		.align	2
 702              	.LC1:
 703 0000 47656E65 		.ascii	"Generated_Source\\PSoC6\\pdl\\drivers\\peripheral\\"
 703      72617465 
 703      645F536F 
 703      75726365 
 703      5C50536F 
 704 002e 6970635C 		.ascii	"ipc\\cy_ipc_drv.h\000"
 704      63795F69 
 704      70635F64 
 704      72762E68 
 704      00
 705              		.bss
 706              		.align	2
 707              		.set	.LANCHOR0,. + 0
 708              		.type	cy_semaIpcStruct, %object
 709              		.size	cy_semaIpcStruct, 4
 710              	cy_semaIpcStruct:
 711 0000 00000000 		.space	4
 712              		.type	cy_semaData.10024, %object
 713              		.size	cy_semaData.10024, 8
 714              	cy_semaData.10024:
 715 0004 00000000 		.space	8
 715      00000000 
 716              		.text
 717              	.Letext0:
 718              		.file 3 "c:\\program files (x86)\\cypress\\psoc creator\\4.3\\psoc creator\\import\\gnu\\arm\\5.4.
 719              		.file 4 "c:\\program files (x86)\\cypress\\psoc creator\\4.3\\psoc creator\\import\\gnu\\arm\\5.4.
 720              		.file 5 "Generated_Source\\PSoC6\\pdl\\devices/psoc6/include/ip/cyip_ipc.h"
 721              		.file 6 "Generated_Source\\PSoC6\\pdl\\drivers/peripheral/device/cy_device.h"
ARM GAS  C:\Users\mattma1\AppData\Local\Temp\cchZ2NYx.s 			page 39


 722              		.file 7 "Generated_Source\\PSoC6\\pdl\\devices/psoc6/include/psoc6_01_config.h"
 723              		.file 8 "Generated_Source\\PSoC6\\pdl\\drivers/peripheral/syslib/cy_syslib.h"
 724              		.file 9 "Generated_Source\\PSoC6\\pdl\\drivers\\peripheral\\ipc\\cy_ipc_sema.h"
