ARM GAS  C:\Users\mattma1\AppData\Local\Temp\ccsAF7mF.s 			page 1


   1              		.syntax unified
   2              		.cpu cortex-m0plus
   3              		.fpu softvfp
   4              		.eabi_attribute 20, 1
   5              		.eabi_attribute 21, 1
   6              		.eabi_attribute 23, 3
   7              		.eabi_attribute 24, 1
   8              		.eabi_attribute 25, 1
   9              		.eabi_attribute 26, 1
  10              		.eabi_attribute 30, 1
  11              		.eabi_attribute 34, 0
  12              		.eabi_attribute 18, 4
  13              		.thumb
  14              		.syntax unified
  15              		.file	"cymetadata.c"
  16              		.text
  17              	.Ltext0:
  18              		.cfi_sections	.debug_frame
  19              		.global	cy_metadata
  20              		.section	.cymeta,"a",%progbits
  21              		.align	2
  22              		.type	cy_metadata, %object
  23              		.size	cy_metadata, 12
  24              	cy_metadata:
  25 0000 00       		.byte	0
  26 0001 05       		.byte	5
  27 0002 E2       		.byte	-30
  28 0003 F0       		.byte	-16
  29 0004 21       		.byte	33
  30 0005 00       		.byte	0
  31 0006 21       		.byte	33
  32 0007 01       		.byte	1
  33 0008 00       		.byte	0
  34 0009 00       		.byte	0
  35 000a 00       		.byte	0
  36 000b 00       		.byte	0
  37              		.text
  38              	.Letext0:
  39              		.file 1 "c:\\program files (x86)\\cypress\\psoc creator\\4.3\\psoc creator\\import\\gnu\\arm\\5.4.
  40              		.file 2 "c:\\program files (x86)\\cypress\\psoc creator\\4.3\\psoc creator\\import\\gnu\\arm\\5.4.
  41              		.file 3 "Generated_Source\\PSoC6\\cymetadata.c"
