:020000041008E2
:4000000000780408EB0208100D00000051030810510308105103081051030810000000000000000000000000000000004D0308104D030810000000004D0308104D030810DA
:400040004D0308104D0308104D0308104D0308104D0308104D0308104D0308104D0308104D0308104D0308104D0308104D0308104D0308104D0308104D0308104D03081000
:400080004D0308104D0308104D0308104D0308104D0308104D0308104D0308104D0308104D0308104D0308104D0308104D0308104D0308104D0308104D0308104D030810C0
:4000C0004D0308104D0308104D0308104D0308104D0308104D0308104D0308104D0308104D0308104D0308104D0308104D0308104D0308104D0308104D0308104D03081080
:400100004D0308104D0308104D0308104D0308104D0308104D0308104D0308104D0308104D0308104D0308104D0308104D0308104D0308104D0308104D0308104D0308103F
:400140004D0308104D0308104D0308104D0308104D0308104D0308104D0308104D0308104D0308104D0308104D0308104D0308104D0308104D0308104D0308104D030810FF
:400180004D0308104D0308104D0308104D0308104D0308104D0308104D0308104D0308104D0308104D0308104D0308104D0308104D0308104D0308104D0308104D030810BF
:4001C0004D0308104D0308104D0308104D0308104D0308104D0308104D0308104D0308104D0308104D0308104D0308104D0308104D0308104D0308104D0308104D0308107F
:400200004D0308104D0308104D0308104D0308104D0308104D0308104D0308104D0308104D0308104D0308104D0308104D0308104D0308104D0308104D0308104D0308103E
:400240004D0308104D0308104D0308104D0308104D0308104D0308104D0308104D0308104D0308104D0308104D0308104D0308104D0308104D0308104D0308104D030810FE
:400280004D0308104D0308104D03081010B5054C237833B9044B13B10448AFF300800123237010BD544902080000000010420810084B10B51BB108490848AFF3008008485C
:4002C000036803B910BD074B002BFBD0BDE81040184700BF00000000584902081042081024430208000000007047FFF7FDFF72B6104C114DAC4209DA21686268A368043B30
:40030000A2BFC858D050FAE70C34F3E70B490C4A00209142BCBF41F8040BFAE709480A490860BFF34F8F00F0F1FA00F0CBFA00F0FBF8FEE7144208102C4208105449020851
:40034000E84B02080040020808ED00E0FEE7FEE700B504207146084202D0EFF3098001E0EFF30880043000F01DFFFEE7194BD3F8CC3F13F0040F2BD0164BD3F8C02F02F078
:400380000402C3F8C02FD3F84033DBB2124A1370124A128892B23AB9104A937013889BB201339BB2138070472A2B05D10B4B9A78DA7000221A80704708490A8892B2C2F17C
:4003C0000702074883540B889BB201339BB20B80704700BF000066409C4B020870490208904B020872B60122014B5A60FEE700BF000032402DE970430024264621E0134B0E
:400400001D5D303D204601F007FB02460B4600200F4902F041FA80468946284601F0FCFA42464B4601F05EFB80468946304601F0F3FA42464B4601F0A3F901F065FD0646C3
:400440000134062CDBDD3046BDE87083904B020800002440002303E03021034AD1540133062BF9DD704700BF904B0208044B40225A6180225A6101225A6102225A6170476A
:400480000000384008B5FFF7B5FF034B18800022024B5A6008BD00BF8C4202087049020808B5FFF7A7FF80B2044B58800130401098800022024B5A6008BD00BF8C4202085F
:4004C0007049020810B4134BC3229A6012484288C3F89422C3F8D422C3F81421C3F85421C4888188091BC3F88C12C3F8CC12C3F80C11C3F84C11121BC3F888220021C3F809
:40050000C8120188521AC3F80821C3F848115DF8044B7047000038408C420208C322014B9A6170470000384070B5684A6849694800F06EFF08B1FFF755FF664C236843F0E5
:40054000004323606449204600F04AFF0423C4F8C83F624C6249204600F0D8FDB4F90030002B08DB590903F01F03012202FA03F35C4A42F8213000255B4B1D605B4B1D70D8
:400580005B4C5C4A0621204600F06EFE5A4A0721204600F069FE594A2946204600F064FE574A0121204600F05FFEC321A160554A5388D0881B1AC4F88832C4F8C85212886A
:4005C0009B1AC4F80831C4F84821A16162B64E4BDB78613B142BFAD801A252F823F000BF350608106706081077060810CF050810CF05081093060810CF050810CF050810EC
:40060000CF050810CF050810CF050810CF050810CF050810CF050810CF05081087060810CF050810CF050810CF050810CF0508109F060810FFF7DEFE334C6060254D334935
:40064000284600F0CDFE324E62683249304601F08BFC3146284600F0C3FEFFF7FBFE0023E3702380B3E72C491A4800F0B9FE0022254BDA70ABE72949164800F0B1FE0022E9
:40068000214BDA70A3E7FFF7FDFE00221E4BDA709DE7FFF705FF00221B4BDA7097E7FFF7E5FEFFF70FFFFFF739FF164A184C138852881B49204601F057FC2146054800F070
:4006C0008FFE0022104BDA7081E700BFAC4B020880410810000066407C3B0810703C08106D03081000E100E0A04B0208A44B020800003840783C0810DC3C0810403D08102C
:40070000A43D08108C42020870490208CC3B08106C4B0208E03B0810E43B08100C3C0810203C081008B5012000F0B6FC08BD00BF704700BF5C4AD2F8803303F00F0303F171
:40074000D00152F8212002F00702032A04D0042A05D092B9554914E0554A116811E003F1C002514951F8222002F01F02112A06D0132A04D04FF4FA4103E04E4901E04FF40C
:4007800000418BBB484BD3F8902502F00100D3F88825C2F30172D3F8883513F0405F07D0414BD3F88835C3F30173012B02D102E0012300E0002303B108B9032A46D13A488A
:4007C000D0F88025C2F31103D0F88425C2F30C02D0F88005C0F300600130B1FBF2F202FB03F2B2FBF0F131E0012B2FD12E4BD3F8402602F00100D3F80026C2F30172D3F830
:40080000003613F0405F07D0274BD3F80036C3F30173012B02D102E0012300E0002303B108B9032A12D12048D0F8002602F07F02D0F80036C3F30423D0F80006C0F3044076
:4008400002FB01F2B2FBF3F2B2FBF0F1164BD3F88033C3F3011321FA03F215494A601648D0F89030C3F3072301330069000E0130B2FBF0F08860B2FBF3F3CB600B6103F56E
:40088000742202F23F220D48A0FB0202C2F387420A7503F2E7330A4AA2FB03239B098B61DB03CB61704700BF0000264000127A009442020800366E010000214083DE1B438F
:4008C000D34D621008B50D4800F084FDFFF730FFFFF730FF00221146042000F0A5F9084800F038FA074B1B6893F8513013B1064800F0A0FA00F0E2F808BD00BF04400810D5
:400900007C490208A84B02083C3C081008B500F0A4FC074AD2F8883043F47003C2F88830BFF34F8FBFF36F8F00F09BFC08BD00BF00ED00E01F4B98422DD00CD840282ED07C
:4009400003D8E8B1102828D02FE0802829D0B0F5807F28D029E0184B984228D006D8B0F1204F0DD0154B984212D01EE0144B98420AD00133984209D0023B984215D101E08C
:40098000002070470F4870470F4870470F4870474FF4A0007047074870470D4870470D4870470D487047034870470C4870474FF4A400704706005200010000F0090000A0D5
:4009C000040000F0010052000200520003005200010050000200500005005200FF00520038B5124B1B6893F83130012B04D840F2C3110F4800F0C6FB0C4B1D682A6AB5F8D0
:400A0000B03013442C46D5F8B420D358002B0BDB084B1868FFF78EFF6B6801229A6063689B68002BFBD138BD034838BDA84B0208083E0810FC4A0208020050001A4B186115
:400A400028B102230370FF23437000234380174B1B6893F850202AB300B583B0B3F93830ADF80030002301931149684600F04EFBBDF90030002B08DB590903F01F03012236
:400A800002FA03F30B4A42F82130084B1B6893F8513023B102220849012000F077FA03B05DF804FB704700BFFC4A0208A84B02089543020800E100E04D44020808B50248A8
:400AC000FFF7BCFF08BD00BF104B020838B50B4B1B68D3F8B4301B58002B0DDA0D4604460B0C1B0423B140F2D521054800F04AFBA9B26160002038BD024838BDA84B0208A4
:400B0000483E081001008A0038B50368002B01DA002300E0094B73B90D460446C2600B0C1B0423B140F2BB21054800F02BFBA9B2A160002038BD014838BD00BF01008A0078
:400B4000483E081038B504460D4619B99921084800F018FB074B1B68D3F8B4301B59002B03DAE3682B60002038BD034838BD00BF883E0810A84B020801008A00254B1B682B
:400B800093F8313083423AD900293AD00B6813F01F0F38D170B50D4604461E4B1B6893F83130984204D340F2C3111B4800F0EAFA184B1B68186AB3F8B03004FB0304174EAB
:400BC00034602A68D2080021686801F0C5F900212046FFF77BFF346825B940F293310E4800F0D0FA2A4600212046FFF78DFF60B900210A4B1868FFF769FF40B970BD084882
:400C000070470748704706487047064870BD054870BD00BFA84B0208483E0810144B020803018A0001018A0010B504461346B2B9A9B9124B1B6893F83130984204D340F23C
:400C4000C3110F4800F09EFA0C4B1B681A6AB3F8B03004FB03240B4B1C60002010BD43B149B1084A51609360111D2046FFF786FF10BD054810BD044810BD00BFA84B020844
:400C8000483E0810144B020803018A002DE9F0411B4B1B68DC68236883422CD90D464609A0EB4610012303FA00F819B900F0D5FA074600E00027124B18680368002B01DA07
:400CC000002300E00F4B83B9626852F8263018EA030F05D023EA080342F82630002400E0094C0021FFF7F2FE00E0084C25B9384600F0B7FA00E0064C2046BDE8F08100BF62
:400D0000144B020801008A00020188000301880004018A000B4B1B68DB681A6882420CD94109A0EB4110012202FA00F05B6853F82130184203D004487047044870470448BF
:400D4000704700BF144B02080101880004018A0000018800024B1B680BB9014B18607047204B02082DE9F8430446884691461D46089F2C4B1B681BB9B5212B4800F002FA21
:400D8000284B1B682C2000FB04F01C18EEB21E50C5F3072363602D0CA560244B1B6893F831309E4204D340F2C311214800F0EAF91E4B1B68196AB3F8B02006FB021626617C
:400DC000666893F832309E4204D340F2DF11184800F0D8F9154B1B681D6A803605EB46156561A668330C1B0423B14FF4FF71104800F0C8F9330C1B0423B140F2FF110C4849
:400E000000F0C0F9B3B243EA0646AE60C4F81C90C4F820800023A36117B1B7F90030A381BDE8F883204B0208C83E0810A84B0208483E0810F0B58FB0044618B95221274837
:400E400000F0A0F9A369072B03D95621234800F099F9E36A1BB95821204800F093F9236B1BB959211D4800F08DF907AD04F114060FCE0FC537682F6002AD26460FCE0FC5C8
:400E800033682B60164B1B68B3F93620079B1344ADF83030089B0D93A26AE16A0CAD00953B460A98FFF75EFF00210091069B0A460598FFF757FF216B284600F027F9BDF97E
:400EC0003030002B08DB590903F01F03012202FA03F3044A42F821300FB0F0BDC83E0810A84B020800E100E0F8B506460F461D4614461AB9FD211F4800F044F91E4B1B685B
:400F00001BB9FE211B4800F03DF91B4B1B682C2101FB063001FB07314B68012202FA03F31B04466802FA06F60269EAB18F69EFB91268002A01DA002200E0104AC2B9228866
:400F4000134323600369DC6001238B614D620469330C1B0423B140F2BB21094800F012F9B2B2A2600020F8BD0648F8BD0648F8BD0548F8BDC83E0810204B020801008A00D7
:400F8000483E081004028A0007028A00F8B505460F4616460E4B1B6823B94FF4AF710D4800F0F0F80A4B1B682C2404FB0534236A23B94FF4B171074800F0E4F8E369B342F5
:400FC00004D9236A43F826700020F8BD0248F8BD204B0208C83E08100A028A0070B582B000230193044620B940F2D111284800F0C9F8236923B94FF4E971254800F0C2F837
:40100000636923B940F2D311214800F0BBF8236A23B94FF4EA711E4800F0B4F86369DD682A0C20D012041A601B682069194B1B68D3F8B430C358002B15DA01A9FFF782FD20
:4010400060B9019803681E0CDBB2E269934206D2226A52F8233013B1984700E0002631462069FFF733FDADB275B16369ADB21D601B68636A1BB198470023636202E0A36AAD
:4010800003B198470023A36163691B6802B070BDC83E0810A84B020810B50446074B1B6823B940F2B111064800F06CF8034B1B682C2000FB0430FFF791FF10BD204B0208C3
:4010C000C83E081038B50D4B9A680D4B9A420FD10D46044621B940F237110A4800F052F804F11003064A52F8230042F8235038BD1030054B53F8200038BD00BF00ED00E017
:4011000000400208083F08100000081048B338B504460D464368072B03D93221134800F031F8B4F900306268002B08DB5201D2B203F1604303F5614383F8002305E003F0B4
:401140000F035201D2B20A49CA540A4B9A680A4B9A4208D12946B4F90000FFF7B3FF002038BD06487047002038BD00BF083F081014ED00E000ED00E0004002080100560054
:4011800001BEFEE738B50D46044C18220146204600F00EFFA5610020FFF7F2FFC0480208FEE700BF08B50268254BDA6142681A6282685A62C2689A620269DA6242691A63C1
:4011C00082695A63C2699A631E4A916AD963D16A1964516A5964516B9964926BDA64F1EE103A13F0900F27D0026A154B1A65426A5A65826A9A65C26ADA65026B1A66426BF4
:401200005A66826B9A66C26BDA66026C1A67426C5A67826C9A67C26CDA67026DC3F88020426DC3F88420826DC3F88820C26DC3F88C20026EC3F89020FFF7B2FF08BD00BF12
:40124000C048020800ED00E00230800803D001300238FCD100BF00BF7047EFF3108072B6704780F310887047002800F0AC8070B40446002A00F0A98092F828300BB10125C9
:4012800000E00025137F0BB1022300E000231D431669B60406F4802645EA060395682D0405F440351D431668300600F0E0602843136B556B43EA45031B0503F44013034394
:4012C000906B43EA8000052E03D1D3681B029BB202E053681B029BB20343081D800123501368062B08D104EB81130120C3F808013F20C3F828011DE0936843B904EB81138D
:401300000020C3F808013120C3F8280112E0012B08D1506904EB8113C3F808011C20C3F8280107E004EB81130120C3F808011220C3F82801106A04EB8113C3F80C01506A99
:40134000C3F810015069C3F814019069C3F81801136EB3F1FF3F17D0106C00F00F00966C360206F470663043156D2D0405F470250543906D000380B228431B01DBB20343F4
:4013800004EB8110C0F82031D36B03F00303566C360106F030063343D56C2D0205F440752B43506D8001C0B21843D36D9B0003F00C03034304EB8114C4F82431D36AC4F88A
:4013C0003831002002E002487047014870BC70470100B600014B1860704700BFA84B020830B4036813F4006F01D0802200E04022002408E0D0F80832C3F308039A42F9D079
:40140000C0F8405201340D5D002DF3D130BC7047002800F0A48170B50546002900F0A18116460C460B78022B03D93F21A248FFF7A9FE637B023BDBB2062B03D940219E482A
:40144000FFF7A0FEA37B3BB1022B05D0032B03D041219948FFF796FE94F82130012B03D942219548FFF78EFE94F82830012B03D943219148FFF786FE2378012B06D8636844
:40148000083B082B94BF0023012307E0A37F2BB16368013B062B94BF002301231BB145218548FFF76FFEA368053B042B03D946218148FFF767FE6369FF2B03D947217E4822
:4014C000FFF760FEA369FF2B03D948217A48FFF759FEA37C6BB1237833B9A368092B05D1A37B2BB1012304E0012302E0012300E000231BB14A217048FFF744FE636B23F4FC
:40150000366323F00D031BB14C216B48FFF73AFEE36B23F4EE6323F003031BB14D216648FFF730FE2378022B01D1A37F13B16268013A00E00022237F13B14FF4803100E039
:401540000021A368082B02D84FF4006300E000230B4302F00F02134343F000732B60226B2B6813F4006F01D0802300E040239A4203D362215048FFF705FEA26B2B6813F4F7
:40158000006F01D0802300E040239A4203D363214948FFF7F7FD626A2B6813F4006F01D0802300E040239A4203D364214248FFF7E9FD23781B0603F040732B64637F0BB19C
:4015C000402200E00022A37C13B14FF4806300E000231343227C12B14FF4807200E000221343627C12B14FF4007200E000221A43E36A013B1B0403F470231343627B013AE2
:4016000002F007021343A27B120102F030021343AB64237B13B14FF4807200E00022E37B23B92378022B03D1012302E0012300E0002313B14FF4007300E000231A43A3681F
:40164000013B03F00F031343C5F80033227DA3691B0403F47F031343C5F81033E26AD5F8003303F00F0303339A4201D3102A03D97A211148FFF786FDE37F23B12378012B93
:4016800003D0002302E0002300E0012313B14FF4807200E00022637B013B03F007031A43A37B1B0103F0300313436B64237B2BB14FF4807203E000BF404108100022A36820
:4016C000013B03F00F0313432278012A02D14FF4803200E000221343C5F8003294F83030C5F8043394F8203013B14FF0007200E0002294F82130012B02D14FF0807300E05E
:401700000023134394F82820012A02D14FF4803200E00022134394F8242013432B6594F83830C5F80432636B23F4926323F002031B051B0DC5F8C83FE36B23F08C035B0526
:401740005B0DC5F8883F76B1002070603060B060F0603062F0623063044B736370BD04487047034870BD002070BD00BFEFCDAB000160AA0081F0004102E000BF83F00043AB
:4017800030B54FEA41044FEA430594EA050F08BF90EA020F1FBF54EA000C55EA020C7FEA645C7FEA655C00F0E2804FEA5454D4EB5555B8BF6D420CDD2C4480EA020281EAA5
:4017C000030382EA000083EA010180EA020281EA0303362D88BF30BD11F0004F4FEA01314FF4801C4CEA113102D0404261EB410113F0004F4FEA03334CEA133302D05242FB
:4018000063EB430394EA050F00F0A780A4F10104D5F1200E0DDB02FA0EFC22FA05F2801841F1000103FA0EF2801843FA05F359410EE0A5F120050EF1200E012A03FA0EFCA5
:4018400028BF4CF0020C43FA05F3C01851EBE37101F0004507D54FF0000EDCF1000C7EEB00006EEB0101B1F5801F1BD3B1F5001F0CD349085FEA30004FEA3C0C04F1010482
:401880004FEA445212F5800F80F09A80BCF1004F08BF5FEA500C50F1000041EB045141EA050130BD5FEA4C0C404141EB010111F4801FA4F10104E9D191F0000F04BF01460F
:4018C0000020B1FA81F308BF2033A3F10B03B3F120020CDA0C3208DD02F1140CC2F10C0201FA0CF021FA02F10CE002F11402D8BFC2F1200C01FA02F120FA0CFCDCBF41EA04
:401900000C019040E41AA2BF01EB0451294330BD6FEA04041F3C1CDA0C340EDC04F11404C4F1200220FA04F001FA02F340EA030021FA04F345EA030130BDC4F10C04C4F13A
:40194000200220FA02F001FA04F340EA0300294630BD21FA04F0294630BD94F0000F83F4801306BF81F480110134013D4EE77FEA645C18BF7FEA655C29D094EA050F08BFC7
:4019800090EA020F05D054EA000C04BF1946104630BD91EA030F1EBF0021002030BD5FEA545C05D14000494128BF41F0004130BD14F580043CBF01F5801130BD01F000456F
:4019C00045F0FE4141F470014FF0000030BD7FEA645C1ABF194610467FEA655C1CBF0B46024650EA013406BF52EA033591EA030F41F4002130BD00BF90F0000F04BF0021A2
:401A0000704730B54FF4806404F132044FF000054FF0000150E700BF90F0000F04BF0021704730B54FF4806404F1320410F0004548BF40424FF000013EE700BF42004FEA70
:401A4000E2014FEA31014FEA02701FBF12F07F4393F07F4F81F06051704792F0000F14BF93F07F4F704730B54FF4607401F0004521F0004120E700BF50EA010208BF704730
:401A800030B54FF000050AE050EA010208BF704730B511F0004502D5404261EB41014FF4806404F132045FEA915C3FF4DCAE4FF003025FEADC0C18BF03325FEADC0C18BF78
:401AC000033202EBDC02C2F1200300FA03FC20FA02F001FA03FE40EA0E0021FA02F11444C1E600BF70B54FF0FF0C4CF4E06C1CEA11541DBF1CEA135594EA0C0F95EA0C0F28
:401B000000F0DEF82C4481EA030621EA4C5123EA4C5350EA013518BF52EA033541F4801143F4801338D0A0FB02CE4FF00005E1FB02E506F00042E0FB03E54FF00006E1FBC6
:401B400003569CF0000F18BF4EF0010EA4F1FF04B6F5007F64F5407404D25FEA4E0E6D4146EB060642EAC62141EA55514FEAC52040EA5E504FEACE2EB4F1FD0C88BFBCF563
:401B8000E06F1ED8BEF1004F08BF5FEA500E50F1000041EB045170BD06F0004646EA010140EA020081EA0301B4EB5C04C2BFD4EB0C0541EA045170BD41F480114FF0000E6C
:401BC000013C00F3AB8014F1360FDEBF002001F0004170BDC4F10004203C35DA0C341BDC04F11404C4F1200500FA05F320FA04F001FA05F240EA020001F0004221F000413F
:401C000010EBD37021FA04F642EB06015EEA430E08BF20EAD37070BDC4F10C04C4F1200500FA04F320FA05F001FA04F240EA020001F0004110EBD37041F100015EEA430E4B
:401C400008BF20EAD37070BDC4F1200500FA05F24EEA020E20FA04F301FA05F243EA020321FA04F001F0004121FA04F220EA020000EBD3705EEA430E08BF20EAD37070BD75
:401C800094F0000F0FD101F00046400041EB010111F4801F08BF013CF7D041EA060195F0000F18BF704703F00046520043EB030313F4801F08BF013DF7D043EA060370472B
:401CC00094EA0C0F0CEA135518BF95EA0C0F0CD050EA410618BF52EA4306D1D181EA030101F000414FF0000070BD50EA410606BF1046194652EA430619D094EA0C0F02D13F
:401D000050EA013613D195EA0C0F05D152EA03361CBF104619460AD181EA030101F0004141F0FE4141F470014FF0000070BD41F0FE4141F4780170BD70B54FF0FF0C4CF4E1
:401D4000E06C1CEA11541DBF1CEA135594EA0C0F95EA0C0F00F0A7F8A4EB050481EA030E52EA03354FEA013100F088804FEA03334FF0805545EA131343EA12634FEA0222DE
:401D800045EA111545EA10654FEA00260EF000419D4208BF964244F1FD0404F5407402D25B084FEA3202B61A65EB03055B084FEA32024FF480104FF4002CB6EB020E75EB3C
:401DC000030E22BFB61A754640EA0C005B084FEA3202B6EB020E75EB030E22BFB61A754640EA5C005B084FEA3202B6EB020E75EB030E22BFB61A754640EA9C005B084FEA8C
:401E00003202B6EB020E75EB030E22BFB61A754640EADC0055EA060E18D04FEA051545EA16754FEA06164FEAC30343EA52734FEAC2025FEA1C1CC0D111F4801F0BD141EA92
:401E400000014FF000004FF0004CB6E711F4801F04BF01430020B4F1FD0C88BFBCF5E06F3FF6AFAEB5EB030C04BFB6EB020C5FEA500C50F1000041EB045170BD0EF0004EA7
:401E80004EEA113114EB5C04C2BFD4EB0C0541EA045170BD41F480114FF0000E013C90E645EA060E8DE60CEA135594EA0C0F08BF95EA0C0F3FF43BAF94EA0C0F0AD150EAAC
:401EC00001347FF434AF95EA0C0F7FF425AF104619462CE795EA0C0F06D152EA03353FF4FDAE1046194622E750EA410618BF52EA43067FF4C5AE50EA41047FF40DAF52EA80
:401F000043057FF4EBAE12E74FEA410212F5001215D211D56FF47873B3EB625212D94FEAC12343F0004343EA505311F0004F23FA02F018BF404270474FF00000704750EA65
:401F4000013005D111F0004008BF6FF0004070474FF00000704700BF02440346934202D003F8011BFAE770470EB400B59CB04FF402711DABADF81410029006906FF0004190
:401F80000A48049107914FF6FF7153F8042BADF816100068019302A900F076F8029B00221A701CB05DF804EB03B070471443020810B5034642B111F8014B03F8014B013AA7
:401FC000002CF7D11A4400E010BD934202D003F8014BFAE710BD2DE9F0478E689E4282460C46914698463ED88A8912F4906F3AD0256809696F1A6569022305EB450595FBD7
:40200000F3F57B1C43449D4238BF1D4653050FD5294600F091FB064698B13A46216900F017FBA38923F4906343F08003A38113E02A4600F0DFFB064670B92169504600F0D7
:402040002DFB0C23CAF80030A38943F04003A3814FF0FF30BDE8F087266165613E44ED1B2660A5604646464528BF464632464946206800F0F8FAA3689B1BA36023681E44B9
:4020800026600020BDE8F0872DE9F04F9DB0804603938B891C060D4616460DD50B695BB9402100F049FB2860286118B90C23C8F80030CDE040236B610023099320238DF818
:4020C0002930DFF89CB130238DF82A3037463C4614F8013B1BB9B7EB060910D003E0252BF9D02746F3E74B46324629464046FFF772FF013000F0A780099B4B4409933B7813
:40210000002B00F0A08000234FF0FF3204930793059206938DF853301A930126052221784E4800F045FA671C049B38B14B4A801A06FA00F0184304903C46EFE7D90644BFBC
:4021400020228DF853201A0744BF2B228DF8532022782A2A03D0079A00210A200BE0039A111D12680391002A10DA524243F00200079204900BE0274601343B78303B092B62
:4021800003D800FB02320121F5E701B107923B782E2B1ED17B782A2B0AD1039B1A1D1B680392002BB8BF4FF0FF330237059310E000230593781C19460A24074601303A78E1
:4021C000303A092A03D804FB01210123F5E703B1059103223978224800F0EAF940B14023CBEB000003FA00F0049B18430490013739781C488DF8281006227E1C00F0D8F9D7
:4022000088B1194B33B9039B073323F007030833039314E003AB00932A46144B04A94046AFF3008007E003AB00932A460F4B04A9404600F093F8B0F1FF3F824603D0099B38
:402240005344099342E7AB895B0601D4099801E04FF0FF301DB0BDE8F08F00BFC2410810C8410810CC41081000000000D71F08102DE9F04791461F460A698B68DDF8208025
:402280009342B8BF1346C9F8003091F8432006460C4612B10133C9F800302368990642BFD9F800300233C9F80030256815F0060510D104F1190A07E0012352463946304696
:4022C000C04701301AD00135E368D9F800209B1A9D42F1DB94F843302268003318BF012392060FD5E1185A1C302081F84300224494F8451082F84310023303E04FF0FF30A2
:40230000BDE8F08704F1430239463046C0470130F4D02268D9F80050E36802F00602042A08BF5D1B2269A3680CBF25EAE57500259342C4BF9B1AED184FF000091A344D45D0
:4023400009D00123224639463046C0470130D5D009F10109F3E70020BDE8F0872DE9F04317460A7E85B06E2A984606460C460C9B01F1430E00F0AE8011D8632A22D009D844
:40238000002A00F0BB80582A40F0CA8081F84520834955E0642A1ED0692A1CD0C0E0732A00F0B08009D86F2A2ED0702A40F0B8800A6842F020020A603EE0752A24D0782A98
:4023C0003AD0ADE01A6801F14205111D1960136884F84230A8E021681A6811F0800F02D0111D196008E011F0400F02F10401196002D0B2F9003000E01368002B3CDA2D229E
:402400005B4284F8432037E021681A6811F0800F02D0111D196007E011F0400F02F10401196001D0138800E01368227E5C496F2A14BF0A2208221BE078225A4984F8452066
:402440002268186812F0800F00F104051D6003D1550601D5038800E00368D00744BF42F0200222601BB9226822F0200222601022002084F8430001E049490A226568A56029
:40248000002D08DB206820F0040020602BB9002D7DD175460CE0002B79D07546B3FBF2F002FB1033CB5C05F8013D03460028F5D1082A0BD12368DA0708D5236962689A42C9
:4024C000DEBF302305F8013C05F1FF35C5EB0E0323612EE008681A68496910F0800F03D0101D1860136808E010F0400F02F104001860136801D0198000E019600023236184
:40250000754616E01A68111D1960156862680021284600F04DF808B1401B6060636804E004F1420584F8422001232361002384F84330CDF800803B4603AA21463046FFF719
:4025400097FE013002D14FF0FF3026E023692A4639463046C0470130F5D023689B0710D5002504F1190907E001234A4639463046C0470130E7D00135E368039A9B1A9D42E1
:40258000F2DBE068039B9842B8BF184605E00B7884F8423004F142058AE705B0BDE8F083D3410810E4410810000000000000000001F0FF01102A2BDB10F0070F08D010F859
:4025C000013B013A8B422DD010F0070F42B3F6D1F0B441EA012141EA014122F007047FF000070023F0E80256083C85EA010586EA010685FA47F5A3FA87F586FA47F6A5FA24
:4026000087F68EB9EED1F0BC01F0FF0102F0070232B110F8013B013A83EA010313B1F8D10020704701387047002D06BF35460338073815F0010F07D1013015F4807F02BF8A
:40264000013015F4C03F0130F0BC0138704700BF10B5431E0A44914204D011F8014B03F8014FF8E710BD884210B501EB020301D8421E0BE09842FBD28118D21AD34204D075
:4026800013F8014D01F8014DF8E710BD994204D011F8014B02F8014FF8E710BD38B50546002946D051F8043C0C1F002BB8BFE41800F0D6F81F4A1368114613B9636014600F
:4026C00032E0A3420ED92268A018834204BF18685B68636004BF121822600C6024E0A24203D813465A68002AF9D118681918A1420BD12168014458188242196014D1106837
:4027000052685A60014419600EE002D90C232B600AE021686018824204BF10685268626004BF091821605C602846BDE8384000F098B838BD644B020870B5CD1C25F00305B9
:4027400008350C2D38BF0C25002D064601DBA94202D90C23336046E000F082F8234B1C681A462146A1B10B685B1B0ED40B2B03D90B60CC18CD501EE08C420DBF63684B68E4
:402780006360136018BF0C4615E00C464968E9E7174C23681BB9304600F052F820602946304600F04DF8431C18D0C41C24F00304A0420DD12560304600F053F804F10B00AE
:4027C000231D20F00700C31A0ED05A42E25070BD211A304600F034F80130EBD10C233360304600F03EF8002070BD00BF644B0208604B0208F8B5074615460E4621B9114660
:40280000BDE8F840FFF798BF1AB9FFF747FF2846F8BD00F027F885420ED929463846FFF78BFF044650B131462A46FFF711FF31463846FFF733FF01E03046F8BD2046F8BD96
:4028400038B5064C002305460846236000F014F8431C02D1236803B12B6038BDE44B02087047704751F8040C0028BEBF091851F8043CC01804387047044A05491368002B91
:4028800008BF0B461844106018467047684B0208E84B0208000000002DE9F04FDFF8F4928DB006460F4614461D4600F079F999F90080B8F1FF3FCDE9000145D022462B46D8
:4028C0002046294601F032F9834600283CD132463B463046394601F029F98246002840F08580304639460022002301F0EDF880B3002200232046294601F0E6F88346A8B175
:402900009FED9D7B01229E4BCDF828A00292CDE90467CDE906458DED087B0393B8F1000F53D0984900200DB0BDE8F08F2046294600F054FF40B1002200232046294601F040
:40294000CDF8002840F0BA80DDE900010DB0BDE8F08FDDE9000100F041FF804600285FD04FF0000A4FF0000BDDE9000152465B4601F0AAF80028E7D03046394600F02EFF2D
:402980000028E1D02046294600F028FF0028DBD099F900307A4A039204210022022BCDE90467CDE90645CDE908AB02910A9203D002A800F019FF70B901F0CEF82223036029
:4029C00009E09FED6D7B8DED087B02A800F00CFF002800F089800A9B1BB101F0BDF80A9B0360DDE908010DB0BDE8F08F002200232046294601F068F80028A5D06149604B8B
:402A0000CDF828B000200122B8F1020FCDE904670292CDE90645CDE908010393D5D195E73046394600F0DAFE002899D02046294600F0D4FE002893D0DDE9002310461946C1
:402A400001F074F800287AD1032399F9008002934B4B0A90CDE90467CDE906450393B8F1000F46D1DFF830B14FF0604A0022002330463946CDE908AB01F030F8002897D016
:402A80000022414B20462946FFF72CF804460D4600F0B2FE02460B462046294601F014F8002849D1394B99F900804FF06042CDE90823B8F1020F7FF47BAF7DE799F90030BA
:402AC0002F4ACDF828B00121CDE90467CDE9064502910392002B3FF474AF2D490020022BCDE908017FF471AF01F036F82123036071E7DFF8A8B04FF0000A0022002330466D
:402B00003946CDE908AB00F0E9FF0028D1D000221D4B20462946FEF7E5FF04460D4600F06BFE02460B462046294600F0CDFF18B9174B0022CDE9082399F90080B9E799F93A
:402B400000900F4BCDF828800122CDE90467CDE9064502920393B9F1000F3FF432AF0022002310461946FFF7E7F8B9F1020FCDE90801B9D029E700BF000000000000000021
:402B8000F84108100000F03F0000E03FFFFFEFC70000F0FF18430208FFFFEF470000F07F2DE9F04F23F0004757EA020493B037D0674C21F00046A64283460D4629DC9A4698
:402BC000964625D0A74224DC614CA74279D0002D80468946CDE9002377DB0024BEF1000F2CD15B4B9F4200F08B805A4B9F4261D0BAF1804F00F0C283574B9A451ED1002DEB
:402C00001CDB4046494613B0BDE8F04F00F020BD58B106F1404606F5801656EA0B0306D14C49002013B0BDE8F08FB742CCDD4B4813B0BDE8F04F00F0D9BD002440464946A1
:402C400000F0C8FDBBF1000F19D126B1414B25F040429A4213D1BAF1000FC0F2C983002DE0DA06F1404606F5801656EA040300F0A184012CD6D101F100494946D2E7ED0FE4
:402C8000013D54EA05034ED0354B9F426EDD03F104739F4240F3EE83324B9E424EDDBAF1000F4EDD28A3D3E9002310461946FEF719FFB7E7BAF1000FC0F24E84404649460C
:402CC000B0E7BEF1000F82D0A3E7274B9F4228DCA3F154739F4280DD3B15A3F2FF33142B40F35084C3F134032EFA03F202FA03F39E457FF472AF02F00102C2F102046DE7E3
:402D000006F1404303F5801353EA0B0388D0154B9E4240F36383BAF1000F12DBDDE9000180E702245AE742464B4610461946FEF725FD02460B46FEF7FFFF73E7BAF1000FD1
:402D4000B0DB002000216DE79C7500883CE4377E0000F07F0000F03F0000E03FC83B08100000E041FFFFEF3FFFFF3F43B6F5801F4FF0000205DAD84BFEF7B4FE6FF0340257
:402D80000E463315D54FC6F31306A3F2FF33134446F07F5ABE421A460D934AF4401A40F3CF83CF4B9E4240F309849FEDB57B8DED087B8DED0E7B9FEDB47B13468DED067BB2
:402DC00001330D93AAF5801A0027DDE906235146CDE90A01FEF7D2FCDDE9062380468946DDE90A01FEF7CCFC02460B460020BD49FEF7A2FF0A460146CDE9101213464946D7
:402E000002464046FEF76EFE4FEA6A0343F000538C46834603F50023CDE904BCDA468B46D9190023CDE902AB0293DDE902AB002006460F4602460B4650465946FEF752FEC6
:402E400002460B4640464946FEF798FCDDE906238046894630463946FEF790FC02460B46DDE90A01FEF78AFC52465B46FEF73AFE02460B4640464946FEF780FCDDE91023BE
:402E8000FEF730FEDDE90467CDE9060132463B4630463946FEF726FE7DA3D3E9002306460F46FEF71FFE7CA3D3E90023FEF768FC32463B46FEF716FE79A3D3E90023FEF7FF
:402EC0005FFC32463B46FEF70DFE77A3D3E90023FEF756FC32463B46FEF704FE74A3D3E90023FEF74DFC32463B46FEF7FBFD72A3D3E90023FEF744FC3246804689463B467D
:402F000030463946FEF7EEFD02460B4640464946FEF7E8FD524606460F465B46DDE90401FEF72EFCDDE90623FEF7DCFD32463B46FEF726FC5246804689465B4650465946A0
:402F4000FEF7D0FD0022684BCDE90A01FEF718FC42464B46FEF714FC02980F46064632463B4650465946FEF7BDFD002282468B465D4B30463946FEF701FCDDE90A23FEF788
:402F8000FDFB02460B4640464946FEF7F7FBDDE90423FEF7A7FD3246804689463B46DDE90601FEF79FFD02460B4640464946FEF7E7FB8046894602460B4650465946CDE974
:402FC00004ABFEF7DDFBDDE902AB3DA3D3E9002350460F46FEF786FDDDE90423CDE9020139465046FEF7CAFB02460B4640464946FEF7C4FB34A3D3E90023FEF773FD34A3F7
:40300000D3E900238046894650463946FEF76AFD02460B4640464946FEF7B2FBDDE90E23FEF7AEFB80460D988946FEF7F5FC424606460F464B46DDE90201FEF7A1FBDDE9CC
:403040000823FEF79DFB32463B46FEF799FB32463B4650468B46FEF791FBDDE90823FEF78DFBDDE90223FEF789FB02460B4640464946FEF783FB8046894637E0AFF3008074
:403080000000000000000000000000000000F03FEF4E454A287ECA3F65DBC9934A86CD3F01411DA96074D13F4D268F515555D53FFFAB6FDBB66DDB3F033333333333E33F9C
:4030C000000000E009C7EE3FFD033ADC09C7EE3FF5015B14E02F3EBE000040438E98030079B60B000000F03F00000840013C54EA050300F06E819FEDC27B8DED047BDDE929
:4031000000120B461446CDE9023400230293DDE9024508462B4611462246FEF72FFB52465B46FEF7DFFCDDE9002306460F4640464946FEF7D7FC02460B4630463946FEF791
:403140001FFB2246804689462B4650465946CDE90089FEF7C7FC0B46024606460F4640464946FEF70DFBBE4B994204460D468A4640F30B8101F13F4303F5E003034340F07A
:40318000F381A1A3D3E90023DDE90001FEF7F8FA3246804689463B4620462946FEF7EEFA02460B464046494600F0B6FC002840F0DB81A8464FEA28534FF48012A3F2FE3349
:4031C00042FA03F35344C3F30A52A64DA2F2FF321541C3F3130B0020C2F1140423EA05014BF4801BBAF1000F02460B464BFA04FB30463946B8BFCBF1000BFEF7BFFA02467A
:403200000B4606460F46DDE90001FEF7B9FA4FEA0B5A00247EA3D3E9002320460D46FEF761FC3246804689463B4620462946FEF7A5FA02460B46DDE90001FEF79FFA76A362
:40324000D3E90023FEF74EFC75A3D3E9002306460F4620462946FEF745FC02460B4630463946FEF78DFA06460F4602460B4640464946FEF785FA42464B4604460D46FEF715
:403280007DFA02460B4630463946FEF777FA2246804689462B4620462946FEF723FC62A3D3E9002306460F46FEF71CFC60A3D3E90023FEF763FA32463B46FEF713FC5EA388
:4032C000D3E90023FEF75CFA32463B46FEF70AFC5BA3D3E90023FEF751FA32463B46FEF701FC59A3D3E90023FEF74AFA32463B46FEF7F8FB02460B4620462946FEF73EFA18
:4033000006460F4602460B4620462946FEF7EAFB0022CDE900014FF0804330463946FEF72DFA02460B46DDE90001FEF705FD424606460F464B4620462946FEF7D3FB424687
:403340004B46FEF71DFA02460B4630463946FEF715FA22462B46FEF711FA02460B4600204149FEF70BFA8A44BAF5801FC0F236815146DDE90423FEF7B5FB53E442464B460A
:4033800040464946FEF7AEFB4CE4384B21F00048984540F30681364B0B4403430CD132463B46FEF7EBF902460B46DDE9000100F09FFB00283FF4FEAEDDE9040124A3D3E9B3
:4033C0000023FEF78FFB22A3D3E90023FEF78AFB28E49FED217B8DED047B90E6BAF1000FBFF6AFACDDE90034184604F1004119E402460B4600201C49FEF79EFC2FE400BF96
:40340000000000000000F03FFE822B654715973C00000000432EE63FEF39FAFE422EE63F396CA80C615C20BED0A4BE726937663EF16BD2C541BDBB3E2CDE25AF6A56113F1F
:4034400093BDBE166CC1663F3E5555555555C53F59F3F8C21F6EA501000000000000F0BFFFFF8F40FFFF0F000000F03FFFCB904000346F3F724B9E427FF760AC714B9E4243
:403480003FF70DAC00226F4BFEF778F958A3D3E9002306460F46FEF725FB57A3D3E900238046894630463946FEF71CFB002282468B46654B30463946FEF714FB02460B46DF
:4034C0004FA1D1E90001FEF759F932463B46FEF709FB02460B4600205C49FEF74FF93246CDE902013B4630463946FEF7FBFA02460B46DDE90201FEF7F5FA43A3D3E90023B1
:40350000FEF7F0FA02460B4650465946FEF736F902460B4606460F4640464946FEF730F942464B46002082468B46FEF727F902460B4630463946FEF721F980468946D5E57A
:403540009FED337B8DED087B8DED0E7B9FED327B00278DED067B38E442464B4600203949FEF7EAFBFFF75EBBDDE904012CA3D3E90023FEF7B7FA2AA3D3E90023FEF7B2FA8A
:40358000FFF750BBBEF1000F7FF457ABC3F1140347FA03F202FA03F39F4223D07446FFF724BB2A4B98453FF705AEDDE902349A469B462EE602460B46FFF7B7BB9FED1A7B53
:4035C0008DED087B9FED1A7B8DED0E7B9FED1A7B4FF480278DED067BFFF7F7BB5A4600F097F9C6E602F00102C2F10204FFF7FDBA000000604715F73F44DF5DF80BAE543E20
:40360000555555555555D53FFE822B654715F73F0000000000000000000000000000F03F9C7500883CE4377E0000004003B8E23F06D0CF43EBFD4C3E000000000000F83F8C
:40364000FEFFEF3F0000F03F0000D03F0000E03F2DE9F0415E4EB6460E40764504460D4600F0948000290B46024672DD0F157DD0A7F2FF37C3F31303F80743F4801363D40C
:4036800003EBD27100260B447F105200B64616204FF400110EEB01049C424FEAD2754FEA420203DC1B1B04EB010E0E44013805EB43034FEA5101EDD1844620244FF0004179
:4036C00009E020D003EBD275013C4FEA51012B444FEA420220D09E4501EB0C05F1DA002D05EB010C09DBF0469542CEEB030300D9013B521B0844C646E4E7BCF1000FF2DB65
:403700000EF10108F0E795421CD8002D05EB010C48DB98460023ECE7134304D0411C45D000F00104204444087310F20703F17F5303F5001348BF44F0004403EB0751204605
:40374000BDE8F0817346BDE75B0003EBD273520096E721F00046064322D071BB0F46D30A153F5205002BFAD0DD0221D4002100E001465B00DC0201F10100F9D5C0F12004FE
:4037800022FA04F423437F1A824071E702460B46FEF7A8F922462B46FDF7F2FFBDE8F081BDE8F081BCF1000FAADAB2E70136BBE720244FF0FF310020E2E702460B46FDF7E8
:4037C000DDFF02460B46FEF7B7FABDE8F08100BF0000F07F21F00041704700BF41F0004101F58010C00F70470020704700200149704700BF0000F87FF0B5C1F30A5EAEF295
:40380000FF36132E83B002460B460C464FEAD17507462EDC002E49DB3B49314103EA010010432BD049080B4053EA02070CD04FF48023132E24EA010143FA06F444EA01043B
:403840000CBF4FF000470027304B03EBC5052146D5E90045384622462B46FDF791FFCDE9000122462B46DDE90001FDF787FF03B0F0BD332E06DDB6F5806F42D01046194682
:4038800003B0F0BDAEF2134E4FF0FF3121FA0EF10842F3D049080842D6D04FF0804320EA010143FA0EFE4EEA0107CDE721F000410143E3D0C3F31301144E41EA000CCCF11C
:4038C00000015C0C06EBC503D3E9006741EA0C0C4FEA1C3C0CF4002C64044CEA040132463B46FDF74DFFCDE900013B463246DDE90001FDF743FF21F0004444EAC5731946E0
:40390000BEE7FDF73DFFBBE7FFFF0F0000420810F8B5C1F30A5604460D460B46174606BB21F00043034325D00022354BFEF7DAF8344A974204460D460B462ADBC1F30A5686
:40394000363E3E4440F2FE72964228DC002E12DD23F0FF4323F4E00343EA065520462946F8BD40F2FF729642EBD102460B46FDF707FFF8BDF8BD16F1350F1DDA4CF250331E
:403980009F4222462B4625DC19A1D1E9000100F03DF817A3D3E90023FEF7A4F8F8BD22462B4615A1D1E9000100F030F812A3D3E90023FEF797F8F8BD23F0FF4323F4E00355
:4039C000363643EA06552046294600220E4BFEF789F8F8BD08A1D1E9000100F017F806A3D3E90023FEF77EF8F8BD00BFAFF3008059F3F8C21F6EA5019C7500883CE4377EC5
:403A000000005043B03CFFFF0000903C03F0004321F0004242EA0301704700BF4FF0FF3C06E000BF4FF0010C02E000BF4FF0010C4DF804CD4FEA410C7FEA6C5C4FEA430C61
:403A400018BF7FEA6C5C1BD001B050EA410C0CBF52EA430C91EA030F02BF90EA020F0020704710F1000F91EA030F58BF994208BF90422CBFD8176FEAE37040F0010070477F
:403A80004FEA410C7FEA6C5C02D150EA013C07D14FEA430C7FEA6C5CD6D152EA033CD3D05DF8040B704700BF8446104662468C461946634600E000BF01B5FFF7B7FF00280A
:403AC00048BF10F1000F01BD4DF808EDFFF7F4FF0CBF012000205DF808FB00BF4DF808EDFFF7EAFF34BF012000205DF808FB00BF4DF808EDFFF7E0FF94BF012000205DF84F
:403B000008FB00BF4DF808EDFFF7CEFF94BF012000205DF808FB00BF4DF808EDFFF7C4FF34BF012000205DF808FB00BF4FEA410C7FEA6C5C02D150EA013C0AD14FEA430C79
:403B40007FEA6C5C02D152EA033C02D14FF0000070474FF001007047014B1868704700BF14430208F8B500BFF8BC08BC9E467047F8B500BFF8BC08BC9E4670470D0A2A2AFA
:403B80002A2A2A2A2A2A2A2A202020576520676F7420736F6D6520434F4D21212120202A2A2A2A2A2A2A2A2A2A2A2A2A2A2A2A2A2A2A2A2A2A2A2A2A2A2A2A2A2A2A2A2A4F
:403BC0002A2A2A2A2A2A0D0A00000000596F757220506172616D657465722069733A2000256C75005468657265206973206E6F20706172616D6574657220746F20706172AE
:403C0000736520686572652100000000576527726520696E20746865206D6F6E65792100506572696F643A202564207C2050686173653A202564200A000000000300000049
:403C400001000000010000000000000005036000040000000100000000000000010000000604600008000000DC4A0208250708102E000000070000000400000000000000B5
:403C80000000000000000000000000006400000000800000000000002800000000400000000000000000000000000000000000000200000003000000FFFFFFFF03000000B4
:403CC000FFFFFFFF03000000FFFFFFFF03000000FFFFFFFF03000000FFFFFFFF040000000000000001000000000000000000000064000000008000000000000028000000BA
:403D000000400000000000000000000000000000000000000200000003000000FFFFFFFF03000000FFFFFFFF03000000FFFFFFFF03000000FFFFFFFF03000000FFFFFFFF46
:403D400004000000000000000000000000000000000000006400000000800000000000002800000000400000000000000000000000000000000000000200000003000000EE
:403D8000FFFFFFFF03000000FFFFFFFF03000000FFFFFFFF03000000FFFFFFFF03000000FFFFFFFF0400000000000000010000000000000000000000640000000080000022
:403DC000000000002800000000400000000000000000000000000000000000000200000003000000FFFFFFFF03000000FFFFFFFF03000000FFFFFFFF03000000FFFFFFFF5D
:403E000003000000FFFFFFFF47656E6572617465645F536F757263655C50536F43365C70646C5C647269766572732F7065726970686572616C2F6970632F63795F697063DA
:403E40005F6472762E68000047656E6572617465645F536F757263655C50536F43365C70646C5C647269766572735C7065726970686572616C5C6970635C63795F697063D1
:403E80005F6472762E68000047656E6572617465645F536F757263655C50536F43365C70646C5C647269766572735C7065726970686572616C5C6970635C63795F69706391
:403EC0005F6472762E63000047656E6572617465645F536F757263655C50536F43365C70646C5C647269766572735C7065726970686572616C5C6970635C63795F69706356
:403F00005F706970652E630047656E6572617465645F536F757263655C50536F43365C70646C5C647269766572735C7065726970686572616C5C737973696E745C63795F81
:403F4000737973696E742E63000000000000204000002440000000400000000000002340000030400000314000009F40000022400000104002020202020202020210101DDE
:403F8000800017007500FF030602063604102000000000007FC0000000040000000000000019324B647D00804000080B100000000000FF012002001F00800004FF081018EA
:403FC000001000140018001C4044484C50000000081000000800000004000000041000000012000004210000002100000016000040114002C41300138013A0132000000078
:404000001C0000000000214000002540000001400000344000002440000031400000324000001F410000234000001140010101010101010101101010800019005500F00077
:404040000501053B04101C01010000000FC000000004000001010101011D3A57789600082000101208000000001F00000010000F002000023F06080E00080009000A000B01
:4040800024282C3034000000100000009000000088000000080000008000000004F0000000F00000400200002005A000D00100018001A001200000001000000047656E65E6
:4040C00072617465645F536F757263655C50536F43365C70646C5C647269766572735C7065726970686572616C5C7363625C63795F7363625F756172742E680047656E65E7
:4041000072617465645F536F757263655C50536F43365C70646C5C647269766572735C7065726970686572616C5C7363625C63795F7363625F636F6D6D6F6E2E6800000058
:4041400047656E6572617465645F536F757263655C50536F43365C70646C5C647269766572735C7065726970686572616C5C7363625C63795F7363625F756172742E63006B
:40418000000000000C0000000800000000020000000000000000000000000000000000000000000000000000000000000B00000000000000000000000000000000000000DE
:4041C0004300232D302B2000686C4C006566674546470030313233343536373839414243444546003031323334353637383961626364656600000000706F77000000000033
:40420000000000000000304300000000000030C30000000000000810004002088C020000344208108C4202083406000054490208940200001E00630032000A000048E8015D
:4042400000127A0000093D0000127A0000127A0008000000401F00000000A00F0000000000000000000000000000000000000000000000000000000000000000C041081025
:40428000000000000000000000000000000000000000000000000000000000000000000000000000000000000000000000000000000000000000000000000000B4420208FE
:4042C00001000000B10208108D0208100000000080B2C10050B3164B1B681A6AB3F8B030C3EBC303D358002BF5DA3E22114B1A6041F61E7204331A60A3F584730622C3F8A9
:40430000182521F07F41C3F81C15D3F81C35084B1A68116AB2F8B030C3EBC3030B4400225A60054BD3F81C35002BFADA704700BFA84B02080401264000002640F8B5274B20
:404340001B6893F83130052B04D840F2C311244800F082FA214F3A68166AB2F8B03003EB83031E4452684FF26003D458A4B200F063FA05463B681968D3F890208A58013CBC
:40438000032C27D8032A0CD1164A127812F0FF0F07D10822B2601968D3F890208A58032AF9D01968D3F884208B588858C0F307221B0E581C02FB00000B4B03FB00F00B4B20
:4043C0001B680B4AA2FB03239B09B0FBF3F08230FFF77EFF284600F017FAF8BDA84B0208083E08100B00001640420F0098420208D34D62104378FF2B23D110B500F01CFA80
:404400000446104B1B6893F83130042B04D840F2C3110D4800F020FA0A4B1A68136AB2F8B02003EB8203DB685A68136843F001031360136813F0010FFBD1204600F0E4F900
:4044400010BD7047A84B0208083E08102DE9F04707468846554B1B6893F83130012B04D840F2C311524800F0F7F9504B1B681C6AB3F8B0201444D3F8B420161993F850300E
:40448000002B79D04B4B1B7813F0FF0F02D04FF0000901E04FF00109B9F1000F38D0434B1B6893F83130052B04D840F2C311404800F0D2F93D4B1A68116AB2F8B03003EBFA
:4044C00083030B44D2F8B420D358002B22DB002000F092F9384B98421ED00023374A12690121184600F0B0F918B1354D17E0013500E00025002000F07FF92F4B984202D0AD
:40450000304B9D42F3D92F4B9D4207D92C4D06E0002504E02A4D02E0294D00E00025002D41D100F089F98246274BD3F81C35002B10DA224A0121204600F076F960B94046D2
:40454000FFF7C6FE57B13368002BFCDB00F04CF9054604E01A4D02E0194D00E01B4DB9F1000F05D00121002000F056F90028F9D1504600F049F916E000F05EF980460F4A5C
:404580000121204600F050F938B947B13368002BFCDB00F029F9054602E0094D00E00B4D404600F031F92846BDE8F087A84B0208083E08100B00001601018800FC4A020867
:4045C00005005200EF4902000000264001005000F0B47F4B1A6855684FF0B0535B7813F0FF0F04D04FF0B0535B78DBB200E02123212B55D1116AB2F8B030C3EBC303CC1837
:40460000CB58002BF6DAE36843F00103E360146AB2F8B030C3EBC3031C44E36813F0020F2DD0E3689EB21368D2F884105958090A090401F47F01D2F88870DB591B0A41EA5F
:4046400003633343E3601168D2F884208B5823F47F4343F410638B505D4A13681C68D3F88810635823F47F4343F41063635013681A68D3F884105158D3F88830D358544BA7
:404680001A68116AB2F8B030C3EBC3030B4400215960116AB2F8B030C3EBC3030B445B684B4B19680C68D1F894301C44494A136943F004031361012801D030BF07E020BF67
:4046C000454B1B7803B120BF0122434B1A70236803F00303022BE9D00A6AB1F8B030C3EBC303D018D358002BF6DA4FF0B0535B7813F0FF0F04D04FF0B0535B78DBB200E064
:404700002123212B30D1C36813F0020F1FD00C68D1F88410635823F47F42C3681B0C1B0203F47F4313436350294B19680C68D1F88800235823F47F420D6AB1F8B030C3EB6A
:40474000C3032B44DB681B0E42EA03232350204B1A68136AB2F8B020C2EBC2021344DA6822F00102DA6026E0D5F80C311BBB1B490E681B4BD3F818451A4A106841F61E77A0
:404780000F600621C3F818153E2111604422C3F81C25134BD3F81C35002BFADA4FF0AA33C5F80C310D4B1E60A3F58473C3F8184503F582731860064B1A68116AB2F8B03000
:4047C000C3EBC3030B4400225A60F0BC704700BFA84B020800ED00E0244B020808012640000026400401264001B40248844601BC604700BFE109081001B40248844601BC01
:40480000604700BF150D081001B40248844601BC604700BF6312081001B40248844601BC604700BF8D0C081001B40248844601BC604700BF090B081001B40248844601BC24
:40484000604700BF5B12081001B40248844601BC604700BFE90E081001B40248844601BC604700BF85110810000000000000000000000000000000000000000000000000B8
:4048800000000000000000000000000000000000000000000000000000000000000000000000000000000000000000000000000000000000000000000000000000000000F8
:4048C00000000000000000000000000000000000000000000000000000000000000000000000000000000000000000000000000000000000000000000000000000000000B8
:404900000000000000000000000000000000000000000000000000000000000000000000000000000000000000000000000000000000000000000000000000000000000077
:404940000000000000000000000000000000000000000000000000000000000000000000000000000000000000000000000000000000000000000000000000000000000037
:4049800000000000000000000000000000000000000000000000000000000000000000000000000000000000000000000000000000000000000000000000000000000000F7
:4049C00000000000000000000000000000000000000000000000000000000000000000000000000000000000000000000000000000000000000000000000000000000000B7
:0200000490303A
:02000000EF0F00
:0200000490501A
:0C0000000005E2F021002101E30B100FCD
:00000001FF