ARM GAS  C:\Users\mattma1\AppData\Local\Temp\ccvjuF6r.s 			page 1


   1              		.syntax unified
   2              		.cpu cortex-m4
   3              		.eabi_attribute 27, 1
   4              		.fpu fpv4-sp-d16
   5              		.eabi_attribute 20, 1
   6              		.eabi_attribute 21, 1
   7              		.eabi_attribute 23, 3
   8              		.eabi_attribute 24, 1
   9              		.eabi_attribute 25, 1
  10              		.eabi_attribute 26, 1
  11              		.eabi_attribute 30, 1
  12              		.eabi_attribute 34, 1
  13              		.eabi_attribute 18, 4
  14              		.thumb
  15              		.syntax unified
  16              		.file	"cy_trigmux.c"
  17              		.text
  18              	.Ltext0:
  19              		.cfi_sections	.debug_frame
  20              		.section	.text.Cy_TrigMux_Connect,"ax",%progbits
  21              		.align	2
  22              		.global	Cy_TrigMux_Connect
  23              		.thumb
  24              		.thumb_func
  25              		.type	Cy_TrigMux_Connect, %function
  26              	Cy_TrigMux_Connect:
  27              	.LFB132:
  28              		.file 1 "Generated_Source\\PSoC6\\pdl\\drivers\\peripheral\\trigmux\\cy_trigmux.c"
   1:Generated_Source\PSoC6\pdl\drivers\peripheral\trigmux/cy_trigmux.c **** /***************************************************************************//**
   2:Generated_Source\PSoC6\pdl\drivers\peripheral\trigmux/cy_trigmux.c **** * \file cy_trigmux.c
   3:Generated_Source\PSoC6\pdl\drivers\peripheral\trigmux/cy_trigmux.c **** * \version 1.20
   4:Generated_Source\PSoC6\pdl\drivers\peripheral\trigmux/cy_trigmux.c **** *
   5:Generated_Source\PSoC6\pdl\drivers\peripheral\trigmux/cy_trigmux.c **** * \brief Trigger mux API.
   6:Generated_Source\PSoC6\pdl\drivers\peripheral\trigmux/cy_trigmux.c **** *
   7:Generated_Source\PSoC6\pdl\drivers\peripheral\trigmux/cy_trigmux.c **** ********************************************************************************
   8:Generated_Source\PSoC6\pdl\drivers\peripheral\trigmux/cy_trigmux.c **** * \copyright
   9:Generated_Source\PSoC6\pdl\drivers\peripheral\trigmux/cy_trigmux.c **** * Copyright 2016-2018, Cypress Semiconductor Corporation.  All rights reserved.
  10:Generated_Source\PSoC6\pdl\drivers\peripheral\trigmux/cy_trigmux.c **** * You may use this file only in accordance with the license, terms, conditions,
  11:Generated_Source\PSoC6\pdl\drivers\peripheral\trigmux/cy_trigmux.c **** * disclaimers, and limitations in the end user license agreement accompanying
  12:Generated_Source\PSoC6\pdl\drivers\peripheral\trigmux/cy_trigmux.c **** * the software package with which this file was provided.
  13:Generated_Source\PSoC6\pdl\drivers\peripheral\trigmux/cy_trigmux.c **** *******************************************************************************/
  14:Generated_Source\PSoC6\pdl\drivers\peripheral\trigmux/cy_trigmux.c **** 
  15:Generated_Source\PSoC6\pdl\drivers\peripheral\trigmux/cy_trigmux.c **** #include "cy_trigmux.h"
  16:Generated_Source\PSoC6\pdl\drivers\peripheral\trigmux/cy_trigmux.c **** #include "cy_device.h"
  17:Generated_Source\PSoC6\pdl\drivers\peripheral\trigmux/cy_trigmux.c **** 
  18:Generated_Source\PSoC6\pdl\drivers\peripheral\trigmux/cy_trigmux.c **** 
  19:Generated_Source\PSoC6\pdl\drivers\peripheral\trigmux/cy_trigmux.c **** #define CY_TRIGMUX_IS_TRIGTYPE_VALID(trigType)  (((trigType) == TRIGGER_TYPE_EDGE) || \
  20:Generated_Source\PSoC6\pdl\drivers\peripheral\trigmux/cy_trigmux.c ****                                                  ((trigType) == TRIGGER_TYPE_LEVEL))
  21:Generated_Source\PSoC6\pdl\drivers\peripheral\trigmux/cy_trigmux.c **** 
  22:Generated_Source\PSoC6\pdl\drivers\peripheral\trigmux/cy_trigmux.c **** #define CY_TRIGMUX_V1_IS_CYCLES_VALID(cycles)   (CY_TRIGGER_INFINITE >= (cycles))
  23:Generated_Source\PSoC6\pdl\drivers\peripheral\trigmux/cy_trigmux.c **** #define CY_TRIGMUX_V2_IS_CYCLES_VALID(cycles)   ((CY_TRIGGER_DEACTIVATE == (cycles)) || \
  24:Generated_Source\PSoC6\pdl\drivers\peripheral\trigmux/cy_trigmux.c ****                                                  (CY_TRIGGER_TWO_CYCLES == (cycles)) || \
  25:Generated_Source\PSoC6\pdl\drivers\peripheral\trigmux/cy_trigmux.c ****                                                  (CY_TRIGGER_INFINITE   == (cycles)))
  26:Generated_Source\PSoC6\pdl\drivers\peripheral\trigmux/cy_trigmux.c **** #define CY_TRIGMUX_IS_CYCLES_VALID(cycles)      ((CY_PERI_V1 && CY_TRIGMUX_V1_IS_CYCLES_VALID(cycle
  27:Generated_Source\PSoC6\pdl\drivers\peripheral\trigmux/cy_trigmux.c ****                                                                 CY_TRIGMUX_V2_IS_CYCLES_VALID(cycle
  28:Generated_Source\PSoC6\pdl\drivers\peripheral\trigmux/cy_trigmux.c **** 
  29:Generated_Source\PSoC6\pdl\drivers\peripheral\trigmux/cy_trigmux.c **** #define CY_TRIGMUX_INTRIG_MASK                  (PERI_TR_CMD_GROUP_SEL_Msk | PERI_TR_GR_TR_OUT_CTL_
ARM GAS  C:\Users\mattma1\AppData\Local\Temp\ccvjuF6r.s 			page 2


  30:Generated_Source\PSoC6\pdl\drivers\peripheral\trigmux/cy_trigmux.c **** #define CY_TRIGMUX_IS_INTRIG_VALID(inTrg)       (0UL == ((inTrg) & (uint32_t)~CY_TRIGMUX_INTRIG_MAS
  31:Generated_Source\PSoC6\pdl\drivers\peripheral\trigmux/cy_trigmux.c **** 
  32:Generated_Source\PSoC6\pdl\drivers\peripheral\trigmux/cy_trigmux.c **** #define CY_TRIGMUX_OUTTRIG_MASK                 (PERI_TR_CMD_OUT_SEL_Msk | PERI_TR_CMD_GROUP_SEL_Ms
  33:Generated_Source\PSoC6\pdl\drivers\peripheral\trigmux/cy_trigmux.c **** #define CY_TRIGMUX_IS_OUTTRIG_VALID(outTrg)     ((0UL == ((outTrg) & (uint32_t)~CY_TRIGMUX_OUTTRIG_
  34:Generated_Source\PSoC6\pdl\drivers\peripheral\trigmux/cy_trigmux.c ****                                                  (0UL != ((outTrg) & PERI_TR_CMD_OUT_SEL_Msk)))
  35:Generated_Source\PSoC6\pdl\drivers\peripheral\trigmux/cy_trigmux.c **** 
  36:Generated_Source\PSoC6\pdl\drivers\peripheral\trigmux/cy_trigmux.c **** #define CY_TRIGMUX_ONETRIG_MASK                 (PERI_V2_TR_CMD_OUT_SEL_Msk | PERI_V2_TR_CMD_GROUP_
  37:Generated_Source\PSoC6\pdl\drivers\peripheral\trigmux/cy_trigmux.c **** #define CY_TRIGMUX_IS_ONETRIG_VALID(oneTrg)     ((0UL == ((oneTrg) & (uint32_t)~CY_TRIGMUX_ONETRIG_
  38:Generated_Source\PSoC6\pdl\drivers\peripheral\trigmux/cy_trigmux.c ****                                                  (0UL != ((oneTrg) & PERI_V2_TR_CMD_OUT_SEL_Msk)) &
  39:Generated_Source\PSoC6\pdl\drivers\peripheral\trigmux/cy_trigmux.c ****                                                  (0UL != ((oneTrg) & (PERI_V2_TR_CMD_GROUP_SEL_Msk 
  40:Generated_Source\PSoC6\pdl\drivers\peripheral\trigmux/cy_trigmux.c **** 
  41:Generated_Source\PSoC6\pdl\drivers\peripheral\trigmux/cy_trigmux.c **** #define CY_TRIGMUX_TRIGLINE_MASK                (PERI_TR_CMD_OUT_SEL_Msk | CY_PERI_TR_CMD_GROUP_SEL
  42:Generated_Source\PSoC6\pdl\drivers\peripheral\trigmux/cy_trigmux.c **** #define CY_TRIGMUX_IS_TRIGLINE_VALID(trgLn)     (0U == ((trgLn) & (uint32_t)~CY_TRIGMUX_TRIGLINE_MA
  43:Generated_Source\PSoC6\pdl\drivers\peripheral\trigmux/cy_trigmux.c **** 
  44:Generated_Source\PSoC6\pdl\drivers\peripheral\trigmux/cy_trigmux.c **** #define CY_TRIGMUX_TR_CTL(outTrig)              (PERI_TR_GR_TR_CTL(_FLD2VAL(CY_PERI_TR_CMD_GROUP_SE
  45:Generated_Source\PSoC6\pdl\drivers\peripheral\trigmux/cy_trigmux.c ****                                                                    _FLD2VAL(CY_PERI_TR_CTL_SEL,    
  46:Generated_Source\PSoC6\pdl\drivers\peripheral\trigmux/cy_trigmux.c **** 
  47:Generated_Source\PSoC6\pdl\drivers\peripheral\trigmux/cy_trigmux.c **** 
  48:Generated_Source\PSoC6\pdl\drivers\peripheral\trigmux/cy_trigmux.c **** /*******************************************************************************
  49:Generated_Source\PSoC6\pdl\drivers\peripheral\trigmux/cy_trigmux.c **** * Function Name: Cy_TrigMux_Connect
  50:Generated_Source\PSoC6\pdl\drivers\peripheral\trigmux/cy_trigmux.c **** ****************************************************************************//**
  51:Generated_Source\PSoC6\pdl\drivers\peripheral\trigmux/cy_trigmux.c **** *
  52:Generated_Source\PSoC6\pdl\drivers\peripheral\trigmux/cy_trigmux.c **** * Connects an input trigger source and output trigger.
  53:Generated_Source\PSoC6\pdl\drivers\peripheral\trigmux/cy_trigmux.c **** *
  54:Generated_Source\PSoC6\pdl\drivers\peripheral\trigmux/cy_trigmux.c **** * \param inTrig
  55:Generated_Source\PSoC6\pdl\drivers\peripheral\trigmux/cy_trigmux.c **** * An input selection for the trigger mux.
  56:Generated_Source\PSoC6\pdl\drivers\peripheral\trigmux/cy_trigmux.c **** * - Bit 30 should be cleared.
  57:Generated_Source\PSoC6\pdl\drivers\peripheral\trigmux/cy_trigmux.c **** * - Bit 12 should be cleared.
  58:Generated_Source\PSoC6\pdl\drivers\peripheral\trigmux/cy_trigmux.c **** * - Bits 11:8 represent the trigger group selection.
  59:Generated_Source\PSoC6\pdl\drivers\peripheral\trigmux/cy_trigmux.c **** * - Bits 7:0 select the input trigger signal for the specified trigger multiplexer.
  60:Generated_Source\PSoC6\pdl\drivers\peripheral\trigmux/cy_trigmux.c **** *
  61:Generated_Source\PSoC6\pdl\drivers\peripheral\trigmux/cy_trigmux.c **** * \param outTrig
  62:Generated_Source\PSoC6\pdl\drivers\peripheral\trigmux/cy_trigmux.c **** * The output of the trigger mux. This refers to the consumer of the trigger mux.
  63:Generated_Source\PSoC6\pdl\drivers\peripheral\trigmux/cy_trigmux.c **** * - Bit 30 should be set.
  64:Generated_Source\PSoC6\pdl\drivers\peripheral\trigmux/cy_trigmux.c **** * - Bit 12 should be cleared.
  65:Generated_Source\PSoC6\pdl\drivers\peripheral\trigmux/cy_trigmux.c **** * - Bits 11:8 represent the trigger group selection.<br>
  66:Generated_Source\PSoC6\pdl\drivers\peripheral\trigmux/cy_trigmux.c **** *  For PERI_ver1:
  67:Generated_Source\PSoC6\pdl\drivers\peripheral\trigmux/cy_trigmux.c **** * - Bits 6:0 select the output trigger number in the trigger group.<br>
  68:Generated_Source\PSoC6\pdl\drivers\peripheral\trigmux/cy_trigmux.c **** *  For PERI_ver2:
  69:Generated_Source\PSoC6\pdl\drivers\peripheral\trigmux/cy_trigmux.c **** * - Bits 7:0 select the output trigger number in the trigger group.
  70:Generated_Source\PSoC6\pdl\drivers\peripheral\trigmux/cy_trigmux.c **** *
  71:Generated_Source\PSoC6\pdl\drivers\peripheral\trigmux/cy_trigmux.c **** * \param invert
  72:Generated_Source\PSoC6\pdl\drivers\peripheral\trigmux/cy_trigmux.c **** * - true: The output trigger is inverted.
  73:Generated_Source\PSoC6\pdl\drivers\peripheral\trigmux/cy_trigmux.c **** * - false: The output trigger is not inverted.
  74:Generated_Source\PSoC6\pdl\drivers\peripheral\trigmux/cy_trigmux.c **** *
  75:Generated_Source\PSoC6\pdl\drivers\peripheral\trigmux/cy_trigmux.c **** * \param trigType The trigger signal type.
  76:Generated_Source\PSoC6\pdl\drivers\peripheral\trigmux/cy_trigmux.c **** * - TRIGGER_TYPE_EDGE: The trigger is synchronized to the consumer blocks clock
  77:Generated_Source\PSoC6\pdl\drivers\peripheral\trigmux/cy_trigmux.c **** *   and a two-cycle pulse is generated on this clock.
  78:Generated_Source\PSoC6\pdl\drivers\peripheral\trigmux/cy_trigmux.c **** * - TRIGGER_TYPE_LEVEL: The trigger is a simple level output.
  79:Generated_Source\PSoC6\pdl\drivers\peripheral\trigmux/cy_trigmux.c **** *
  80:Generated_Source\PSoC6\pdl\drivers\peripheral\trigmux/cy_trigmux.c **** * \return status:
  81:Generated_Source\PSoC6\pdl\drivers\peripheral\trigmux/cy_trigmux.c **** * - CY_TRIGMUX_SUCCESS: The connection is made successfully.
  82:Generated_Source\PSoC6\pdl\drivers\peripheral\trigmux/cy_trigmux.c **** * - CY_TRIGMUX_BAD_PARAM: Some parameter is invalid.
  83:Generated_Source\PSoC6\pdl\drivers\peripheral\trigmux/cy_trigmux.c **** *
  84:Generated_Source\PSoC6\pdl\drivers\peripheral\trigmux/cy_trigmux.c **** * \funcusage
  85:Generated_Source\PSoC6\pdl\drivers\peripheral\trigmux/cy_trigmux.c **** * \snippet trigmux\1.20\snippet\main.c snippet_Cy_TrigMux_Connect
  86:Generated_Source\PSoC6\pdl\drivers\peripheral\trigmux/cy_trigmux.c **** *  
ARM GAS  C:\Users\mattma1\AppData\Local\Temp\ccvjuF6r.s 			page 3


  87:Generated_Source\PSoC6\pdl\drivers\peripheral\trigmux/cy_trigmux.c **** *******************************************************************************/
  88:Generated_Source\PSoC6\pdl\drivers\peripheral\trigmux/cy_trigmux.c **** cy_en_trigmux_status_t Cy_TrigMux_Connect(uint32_t inTrig, uint32_t outTrig, bool invert, en_trig_t
  89:Generated_Source\PSoC6\pdl\drivers\peripheral\trigmux/cy_trigmux.c **** {
  29              		.loc 1 89 0
  30              		.cfi_startproc
  31              		@ args = 0, pretend = 0, frame = 0
  32              		@ frame_needed = 0, uses_anonymous_args = 0
  33              	.LVL0:
  34 0000 2DE9F041 		push	{r4, r5, r6, r7, r8, lr}
  35              		.cfi_def_cfa_offset 24
  36              		.cfi_offset 4, -24
  37              		.cfi_offset 5, -20
  38              		.cfi_offset 6, -16
  39              		.cfi_offset 7, -12
  40              		.cfi_offset 8, -8
  41              		.cfi_offset 14, -4
  42 0004 0546     		mov	r5, r0
  43 0006 0C46     		mov	r4, r1
  44 0008 1746     		mov	r7, r2
  45 000a 1E46     		mov	r6, r3
  46              	.LVL1:
  90:Generated_Source\PSoC6\pdl\drivers\peripheral\trigmux/cy_trigmux.c ****     cy_en_trigmux_status_t retVal = CY_TRIGMUX_BAD_PARAM;
  91:Generated_Source\PSoC6\pdl\drivers\peripheral\trigmux/cy_trigmux.c ****     CY_ASSERT_L3(CY_TRIGMUX_IS_TRIGTYPE_VALID(trigType));
  47              		.loc 1 91 0
  48 000c 012B     		cmp	r3, #1
  49 000e 03D9     		bls	.L2
  50              		.loc 1 91 0 is_stmt 0 discriminator 1
  51 0010 5B21     		movs	r1, #91
  52              	.LVL2:
  53 0012 2C48     		ldr	r0, .L10
  54              	.LVL3:
  55 0014 FFF7FEFF 		bl	Cy_SysLib_AssertFailed
  56              	.LVL4:
  57              	.L2:
  92:Generated_Source\PSoC6\pdl\drivers\peripheral\trigmux/cy_trigmux.c ****     CY_ASSERT_L2(CY_TRIGMUX_IS_INTRIG_VALID(inTrig));
  58              		.loc 1 92 0 is_stmt 1
  59 0018 25F47F63 		bic	r3, r5, #4080
  60 001c 23F00F03 		bic	r3, r3, #15
  61 0020 1BB1     		cbz	r3, .L3
  62              		.loc 1 92 0 is_stmt 0 discriminator 1
  63 0022 5C21     		movs	r1, #92
  64 0024 2748     		ldr	r0, .L10
  65 0026 FFF7FEFF 		bl	Cy_SysLib_AssertFailed
  66              	.LVL5:
  67              	.L3:
  93:Generated_Source\PSoC6\pdl\drivers\peripheral\trigmux/cy_trigmux.c ****     CY_ASSERT_L2(CY_TRIGMUX_IS_OUTTRIG_VALID(outTrig));
  68              		.loc 1 93 0 is_stmt 1
  69 002a 274B     		ldr	r3, .L10+4
  70 002c 1B68     		ldr	r3, [r3]
  71 002e B3F86E30 		ldrh	r3, [r3, #110]
  72 0032 9B08     		lsrs	r3, r3, #2
  73 0034 013B     		subs	r3, r3, #1
  74 0036 43F08043 		orr	r3, r3, #1073741824
  75 003a 43F47063 		orr	r3, r3, #3840
  76 003e 34EA0303 		bics	r3, r4, r3
  77 0042 02D1     		bne	.L4
  78              		.loc 1 93 0 is_stmt 0 discriminator 2
ARM GAS  C:\Users\mattma1\AppData\Local\Temp\ccvjuF6r.s 			page 4


  79 0044 14F0804F 		tst	r4, #1073741824
  80 0048 03D1     		bne	.L5
  81              	.L4:
  82              		.loc 1 93 0 discriminator 3
  83 004a 5D21     		movs	r1, #93
  84 004c 1D48     		ldr	r0, .L10
  85 004e FFF7FEFF 		bl	Cy_SysLib_AssertFailed
  86              	.LVL6:
  87              	.L5:
  94:Generated_Source\PSoC6\pdl\drivers\peripheral\trigmux/cy_trigmux.c **** 
  95:Generated_Source\PSoC6\pdl\drivers\peripheral\trigmux/cy_trigmux.c ****     /* inTrig and outTrig should be in the same group */
  96:Generated_Source\PSoC6\pdl\drivers\peripheral\trigmux/cy_trigmux.c ****     if ((inTrig & PERI_TR_CMD_GROUP_SEL_Msk) == (outTrig & PERI_TR_CMD_GROUP_SEL_Msk))
  88              		.loc 1 96 0 is_stmt 1
  89 0052 85EA0403 		eor	r3, r5, r4
  90 0056 13F47068 		ands	r8, r3, #3840
  91 005a 2FD1     		bne	.L8
  92              	.LBB2:
  97:Generated_Source\PSoC6\pdl\drivers\peripheral\trigmux/cy_trigmux.c ****     {
  98:Generated_Source\PSoC6\pdl\drivers\peripheral\trigmux/cy_trigmux.c ****         uint32_t interruptState = Cy_SysLib_EnterCriticalSection();
  93              		.loc 1 98 0
  94 005c FFF7FEFF 		bl	Cy_SysLib_EnterCriticalSection
  95              	.LVL7:
  99:Generated_Source\PSoC6\pdl\drivers\peripheral\trigmux/cy_trigmux.c **** 
 100:Generated_Source\PSoC6\pdl\drivers\peripheral\trigmux/cy_trigmux.c ****         CY_TRIGMUX_TR_CTL(outTrig) = (CY_TRIGMUX_TR_CTL(outTrig) &
  96              		.loc 1 100 0
  97 0060 194B     		ldr	r3, .L10+4
  98 0062 D3F800E0 		ldr	lr, [r3]
  99 0066 DEF80820 		ldr	r2, [lr, #8]
 100 006a BEF86C30 		ldrh	r3, [lr, #108]
 101 006e 1A44     		add	r2, r2, r3
 102 0070 BEF86EC0 		ldrh	ip, [lr, #110]
 103 0074 4FEA9C03 		lsr	r3, ip, #2
 104 0078 013B     		subs	r3, r3, #1
 105 007a 04EA0301 		and	r1, r4, r3
 106 007e BEF86AE0 		ldrh	lr, [lr, #106]
 107 0082 04EA0E04 		and	r4, r4, lr
 108              	.LVL8:
 109 0086 240A     		lsrs	r4, r4, #8
 110 0088 0CFB04F4 		mul	r4, ip, r4
 111 008c 04EB8103 		add	r3, r4, r1, lsl #2
 112 0090 9958     		ldr	r1, [r3, r2]
 113 0092 21F47F71 		bic	r1, r1, #1020
 114 0096 21F00301 		bic	r1, r1, #3
 101:Generated_Source\PSoC6\pdl\drivers\peripheral\trigmux/cy_trigmux.c ****                                       (uint32_t)~(PERI_TR_GR_TR_OUT_CTL_TR_SEL_Msk |
 102:Generated_Source\PSoC6\pdl\drivers\peripheral\trigmux/cy_trigmux.c ****                                                   PERI_TR_GR_TR_OUT_CTL_TR_INV_Msk |
 103:Generated_Source\PSoC6\pdl\drivers\peripheral\trigmux/cy_trigmux.c ****                                                   PERI_TR_GR_TR_OUT_CTL_TR_EDGE_Msk)) |
 104:Generated_Source\PSoC6\pdl\drivers\peripheral\trigmux/cy_trigmux.c ****                                         (_VAL2FLD(PERI_TR_GR_TR_OUT_CTL_TR_SEL, inTrig) |
 115              		.loc 1 104 0
 116 009a EDB2     		uxtb	r5, r5
 117              	.LVL9:
 105:Generated_Source\PSoC6\pdl\drivers\peripheral\trigmux/cy_trigmux.c ****                                         _BOOL2FLD(PERI_TR_GR_TR_OUT_CTL_TR_INV, invert) |
 118              		.loc 1 105 0
 119 009c 0FB1     		cbz	r7, .L7
 120 009e 4FF48078 		mov	r8, #256
 121              	.L7:
 104:Generated_Source\PSoC6\pdl\drivers\peripheral\trigmux/cy_trigmux.c ****                                         _BOOL2FLD(PERI_TR_GR_TR_OUT_CTL_TR_INV, invert) |
 122              		.loc 1 104 0
ARM GAS  C:\Users\mattma1\AppData\Local\Temp\ccvjuF6r.s 			page 5


 123 00a2 48EA0505 		orr	r5, r8, r5
 106:Generated_Source\PSoC6\pdl\drivers\peripheral\trigmux/cy_trigmux.c ****                                          _VAL2FLD(PERI_TR_GR_TR_OUT_CTL_TR_EDGE, trigType));
 124              		.loc 1 106 0
 125 00a6 7602     		lsls	r6, r6, #9
 126 00a8 06F40076 		and	r6, r6, #512
 105:Generated_Source\PSoC6\pdl\drivers\peripheral\trigmux/cy_trigmux.c ****                                         _BOOL2FLD(PERI_TR_GR_TR_OUT_CTL_TR_INV, invert) |
 127              		.loc 1 105 0
 128 00ac 3543     		orrs	r5, r5, r6
 103:Generated_Source\PSoC6\pdl\drivers\peripheral\trigmux/cy_trigmux.c ****                                         (_VAL2FLD(PERI_TR_GR_TR_OUT_CTL_TR_SEL, inTrig) |
 129              		.loc 1 103 0
 130 00ae 0D43     		orrs	r5, r5, r1
 100:Generated_Source\PSoC6\pdl\drivers\peripheral\trigmux/cy_trigmux.c ****                                       (uint32_t)~(PERI_TR_GR_TR_OUT_CTL_TR_SEL_Msk |
 131              		.loc 1 100 0
 132 00b0 9D50     		str	r5, [r3, r2]
 107:Generated_Source\PSoC6\pdl\drivers\peripheral\trigmux/cy_trigmux.c **** 
 108:Generated_Source\PSoC6\pdl\drivers\peripheral\trigmux/cy_trigmux.c ****         Cy_SysLib_ExitCriticalSection(interruptState);
 133              		.loc 1 108 0
 134 00b2 FFF7FEFF 		bl	Cy_SysLib_ExitCriticalSection
 135              	.LVL10:
 109:Generated_Source\PSoC6\pdl\drivers\peripheral\trigmux/cy_trigmux.c **** 
 110:Generated_Source\PSoC6\pdl\drivers\peripheral\trigmux/cy_trigmux.c ****         retVal = CY_TRIGMUX_SUCCESS;
 136              		.loc 1 110 0
 137 00b6 0020     		movs	r0, #0
 138 00b8 BDE8F081 		pop	{r4, r5, r6, r7, r8, pc}
 139              	.LVL11:
 140              	.L8:
 141              	.LBE2:
  90:Generated_Source\PSoC6\pdl\drivers\peripheral\trigmux/cy_trigmux.c ****     CY_ASSERT_L3(CY_TRIGMUX_IS_TRIGTYPE_VALID(trigType));
 142              		.loc 1 90 0
 143 00bc 0348     		ldr	r0, .L10+8
 144              	.LVL12:
 111:Generated_Source\PSoC6\pdl\drivers\peripheral\trigmux/cy_trigmux.c ****     }
 112:Generated_Source\PSoC6\pdl\drivers\peripheral\trigmux/cy_trigmux.c **** 
 113:Generated_Source\PSoC6\pdl\drivers\peripheral\trigmux/cy_trigmux.c ****     return retVal;
 114:Generated_Source\PSoC6\pdl\drivers\peripheral\trigmux/cy_trigmux.c **** }
 145              		.loc 1 114 0
 146 00be BDE8F081 		pop	{r4, r5, r6, r7, r8, pc}
 147              	.LVL13:
 148              	.L11:
 149 00c2 00BF     		.align	2
 150              	.L10:
 151 00c4 00000000 		.word	.LC0
 152 00c8 00000000 		.word	cy_device
 153 00cc 0100CE00 		.word	13500417
 154              		.cfi_endproc
 155              	.LFE132:
 156              		.size	Cy_TrigMux_Connect, .-Cy_TrigMux_Connect
 157              		.section	.text.Cy_TrigMux_Select,"ax",%progbits
 158              		.align	2
 159              		.global	Cy_TrigMux_Select
 160              		.thumb
 161              		.thumb_func
 162              		.type	Cy_TrigMux_Select, %function
 163              	Cy_TrigMux_Select:
 164              	.LFB133:
 115:Generated_Source\PSoC6\pdl\drivers\peripheral\trigmux/cy_trigmux.c **** 
 116:Generated_Source\PSoC6\pdl\drivers\peripheral\trigmux/cy_trigmux.c **** 
ARM GAS  C:\Users\mattma1\AppData\Local\Temp\ccvjuF6r.s 			page 6


 117:Generated_Source\PSoC6\pdl\drivers\peripheral\trigmux/cy_trigmux.c **** /*******************************************************************************
 118:Generated_Source\PSoC6\pdl\drivers\peripheral\trigmux/cy_trigmux.c **** * Function Name: Cy_TrigMux_Select
 119:Generated_Source\PSoC6\pdl\drivers\peripheral\trigmux/cy_trigmux.c **** ****************************************************************************//**
 120:Generated_Source\PSoC6\pdl\drivers\peripheral\trigmux/cy_trigmux.c **** *
 121:Generated_Source\PSoC6\pdl\drivers\peripheral\trigmux/cy_trigmux.c **** * Enables and configures the specified 1-to-1 trigger line. For PERI_ver2 only.
 122:Generated_Source\PSoC6\pdl\drivers\peripheral\trigmux/cy_trigmux.c **** *
 123:Generated_Source\PSoC6\pdl\drivers\peripheral\trigmux/cy_trigmux.c **** * \param outTrig
 124:Generated_Source\PSoC6\pdl\drivers\peripheral\trigmux/cy_trigmux.c **** * The 1to1 trigger line.
 125:Generated_Source\PSoC6\pdl\drivers\peripheral\trigmux/cy_trigmux.c **** * - Bit 30 should be set.
 126:Generated_Source\PSoC6\pdl\drivers\peripheral\trigmux/cy_trigmux.c **** * - Bit 12 should be set.
 127:Generated_Source\PSoC6\pdl\drivers\peripheral\trigmux/cy_trigmux.c **** * - Bits 11:8 represent the 1-to-1 trigger group selection.
 128:Generated_Source\PSoC6\pdl\drivers\peripheral\trigmux/cy_trigmux.c **** * - Bits 7:0 select the trigger line number in the trigger group.
 129:Generated_Source\PSoC6\pdl\drivers\peripheral\trigmux/cy_trigmux.c **** *
 130:Generated_Source\PSoC6\pdl\drivers\peripheral\trigmux/cy_trigmux.c **** * \param invert
 131:Generated_Source\PSoC6\pdl\drivers\peripheral\trigmux/cy_trigmux.c **** * - true: The trigger signal is inverted.
 132:Generated_Source\PSoC6\pdl\drivers\peripheral\trigmux/cy_trigmux.c **** * - false: The trigger signal is not inverted.
 133:Generated_Source\PSoC6\pdl\drivers\peripheral\trigmux/cy_trigmux.c **** *
 134:Generated_Source\PSoC6\pdl\drivers\peripheral\trigmux/cy_trigmux.c **** * \param trigType The trigger signal type.
 135:Generated_Source\PSoC6\pdl\drivers\peripheral\trigmux/cy_trigmux.c **** * - TRIGGER_TYPE_EDGE: The trigger is synchronized to the consumer blocks clock
 136:Generated_Source\PSoC6\pdl\drivers\peripheral\trigmux/cy_trigmux.c **** *   and a two-cycle pulse is generated on this clock.
 137:Generated_Source\PSoC6\pdl\drivers\peripheral\trigmux/cy_trigmux.c **** * - TRIGGER_TYPE_LEVEL: The trigger is a simple level output.
 138:Generated_Source\PSoC6\pdl\drivers\peripheral\trigmux/cy_trigmux.c **** *
 139:Generated_Source\PSoC6\pdl\drivers\peripheral\trigmux/cy_trigmux.c **** * \return status:
 140:Generated_Source\PSoC6\pdl\drivers\peripheral\trigmux/cy_trigmux.c **** * - CY_TRIGMUX_SUCCESS: The selection is made successfully.
 141:Generated_Source\PSoC6\pdl\drivers\peripheral\trigmux/cy_trigmux.c **** * - CY_TRIGMUX_BAD_PARAM: Some parameter is invalid.
 142:Generated_Source\PSoC6\pdl\drivers\peripheral\trigmux/cy_trigmux.c **** *
 143:Generated_Source\PSoC6\pdl\drivers\peripheral\trigmux/cy_trigmux.c **** * \funcusage
 144:Generated_Source\PSoC6\pdl\drivers\peripheral\trigmux/cy_trigmux.c **** * \snippet trigmux\1.20\snippet\main.c snippet_Cy_TrigMux_Select
 145:Generated_Source\PSoC6\pdl\drivers\peripheral\trigmux/cy_trigmux.c **** *  
 146:Generated_Source\PSoC6\pdl\drivers\peripheral\trigmux/cy_trigmux.c **** *******************************************************************************/
 147:Generated_Source\PSoC6\pdl\drivers\peripheral\trigmux/cy_trigmux.c **** cy_en_trigmux_status_t Cy_TrigMux_Select(uint32_t outTrig, bool invert, en_trig_type_t trigType)
 148:Generated_Source\PSoC6\pdl\drivers\peripheral\trigmux/cy_trigmux.c **** {
 165              		.loc 1 148 0
 166              		.cfi_startproc
 167              		@ args = 0, pretend = 0, frame = 0
 168              		@ frame_needed = 0, uses_anonymous_args = 0
 169              	.LVL14:
 170 0000 F8B5     		push	{r3, r4, r5, r6, r7, lr}
 171              		.cfi_def_cfa_offset 24
 172              		.cfi_offset 3, -24
 173              		.cfi_offset 4, -20
 174              		.cfi_offset 5, -16
 175              		.cfi_offset 6, -12
 176              		.cfi_offset 7, -8
 177              		.cfi_offset 14, -4
 178 0002 0546     		mov	r5, r0
 179 0004 0E46     		mov	r6, r1
 180 0006 1446     		mov	r4, r2
 181              	.LVL15:
 149:Generated_Source\PSoC6\pdl\drivers\peripheral\trigmux/cy_trigmux.c ****     cy_en_trigmux_status_t retVal = CY_TRIGMUX_BAD_PARAM;
 150:Generated_Source\PSoC6\pdl\drivers\peripheral\trigmux/cy_trigmux.c ****     
 151:Generated_Source\PSoC6\pdl\drivers\peripheral\trigmux/cy_trigmux.c ****     CY_ASSERT_L3(CY_TRIGMUX_IS_TRIGTYPE_VALID(trigType));
 182              		.loc 1 151 0
 183 0008 012A     		cmp	r2, #1
 184 000a 03D9     		bls	.L13
 185              		.loc 1 151 0 is_stmt 0 discriminator 1
 186 000c 9721     		movs	r1, #151
ARM GAS  C:\Users\mattma1\AppData\Local\Temp\ccvjuF6r.s 			page 7


 187              	.LVL16:
 188 000e 2348     		ldr	r0, .L21
 189              	.LVL17:
 190 0010 FFF7FEFF 		bl	Cy_SysLib_AssertFailed
 191              	.LVL18:
 192              	.L13:
 152:Generated_Source\PSoC6\pdl\drivers\peripheral\trigmux/cy_trigmux.c ****     CY_ASSERT_L2(CY_TRIGMUX_IS_ONETRIG_VALID(outTrig));
 193              		.loc 1 152 0 is_stmt 1
 194 0014 224B     		ldr	r3, .L21+4
 195 0016 1B68     		ldr	r3, [r3]
 196 0018 B3F86E30 		ldrh	r3, [r3, #110]
 197 001c 9B08     		lsrs	r3, r3, #2
 198 001e 013B     		subs	r3, r3, #1
 199 0020 43F08043 		orr	r3, r3, #1073741824
 200 0024 43F4F853 		orr	r3, r3, #7936
 201 0028 35EA0303 		bics	r3, r5, r3
 202 002c 02D1     		bne	.L14
 203              		.loc 1 152 0 is_stmt 0 discriminator 2
 204 002e 1D4B     		ldr	r3, .L21+8
 205 0030 AB43     		bics	r3, r3, r5
 206 0032 03D0     		beq	.L15
 207              	.L14:
 208              		.loc 1 152 0 discriminator 3
 209 0034 9821     		movs	r1, #152
 210 0036 1948     		ldr	r0, .L21
 211 0038 FFF7FEFF 		bl	Cy_SysLib_AssertFailed
 212              	.LVL19:
 213              	.L15:
 153:Generated_Source\PSoC6\pdl\drivers\peripheral\trigmux/cy_trigmux.c **** 
 154:Generated_Source\PSoC6\pdl\drivers\peripheral\trigmux/cy_trigmux.c ****     if (!CY_PERI_V1)
 214              		.loc 1 154 0 is_stmt 1
 215 003c 184B     		ldr	r3, .L21+4
 216 003e 1B68     		ldr	r3, [r3]
 217 0040 93F82F30 		ldrb	r3, [r3, #47]	@ zero_extendqisi2
 218 0044 012B     		cmp	r3, #1
 219 0046 27D0     		beq	.L18
 220              	.LBB3:
 155:Generated_Source\PSoC6\pdl\drivers\peripheral\trigmux/cy_trigmux.c ****     {
 156:Generated_Source\PSoC6\pdl\drivers\peripheral\trigmux/cy_trigmux.c ****         uint32_t interruptState;
 157:Generated_Source\PSoC6\pdl\drivers\peripheral\trigmux/cy_trigmux.c **** 
 158:Generated_Source\PSoC6\pdl\drivers\peripheral\trigmux/cy_trigmux.c ****         interruptState = Cy_SysLib_EnterCriticalSection();
 221              		.loc 1 158 0
 222 0048 FFF7FEFF 		bl	Cy_SysLib_EnterCriticalSection
 223              	.LVL20:
 159:Generated_Source\PSoC6\pdl\drivers\peripheral\trigmux/cy_trigmux.c **** 
 160:Generated_Source\PSoC6\pdl\drivers\peripheral\trigmux/cy_trigmux.c ****         CY_TRIGMUX_TR_CTL(outTrig) = (CY_TRIGMUX_TR_CTL(outTrig) &
 224              		.loc 1 160 0
 225 004c 144B     		ldr	r3, .L21+4
 226 004e 1F68     		ldr	r7, [r3]
 227 0050 B968     		ldr	r1, [r7, #8]
 228 0052 B7F86C30 		ldrh	r3, [r7, #108]
 229 0056 1944     		add	r1, r1, r3
 230 0058 B7F86E30 		ldrh	r3, [r7, #110]
 231 005c 9A08     		lsrs	r2, r3, #2
 232 005e 013A     		subs	r2, r2, #1
 233 0060 2A40     		ands	r2, r2, r5
 234 0062 B7F86A70 		ldrh	r7, [r7, #106]
ARM GAS  C:\Users\mattma1\AppData\Local\Temp\ccvjuF6r.s 			page 8


 235 0066 3D40     		ands	r5, r5, r7
 236              	.LVL21:
 237 0068 2D0A     		lsrs	r5, r5, #8
 238 006a 03FB05F3 		mul	r3, r3, r5
 239 006e 03EB8205 		add	r5, r3, r2, lsl #2
 240 0072 6A58     		ldr	r2, [r5, r1]
 241 0074 22F44072 		bic	r2, r2, #768
 161:Generated_Source\PSoC6\pdl\drivers\peripheral\trigmux/cy_trigmux.c ****                           (uint32_t)~(PERI_TR_1TO1_GR_V2_TR_CTL_TR_INV_Msk |
 162:Generated_Source\PSoC6\pdl\drivers\peripheral\trigmux/cy_trigmux.c ****                                       PERI_TR_1TO1_GR_V2_TR_CTL_TR_EDGE_Msk)) |
 163:Generated_Source\PSoC6\pdl\drivers\peripheral\trigmux/cy_trigmux.c ****                                      (PERI_TR_1TO1_GR_V2_TR_CTL_TR_SEL_Msk      |
 242              		.loc 1 163 0
 243 0078 16B1     		cbz	r6, .L19
 244 007a 40F20116 		movw	r6, #257
 245 007e 00E0     		b	.L17
 246              	.L19:
 247 0080 0126     		movs	r6, #1
 248              	.L17:
 164:Generated_Source\PSoC6\pdl\drivers\peripheral\trigmux/cy_trigmux.c ****                             _BOOL2FLD(PERI_TR_1TO1_GR_V2_TR_CTL_TR_INV, invert) |
 165:Generated_Source\PSoC6\pdl\drivers\peripheral\trigmux/cy_trigmux.c ****                              _VAL2FLD(PERI_TR_1TO1_GR_V2_TR_CTL_TR_EDGE, trigType));
 249              		.loc 1 165 0
 250 0082 6302     		lsls	r3, r4, #9
 251 0084 03F40073 		and	r3, r3, #512
 164:Generated_Source\PSoC6\pdl\drivers\peripheral\trigmux/cy_trigmux.c ****                             _BOOL2FLD(PERI_TR_1TO1_GR_V2_TR_CTL_TR_INV, invert) |
 252              		.loc 1 164 0
 253 0088 46EA0304 		orr	r4, r6, r3
 162:Generated_Source\PSoC6\pdl\drivers\peripheral\trigmux/cy_trigmux.c ****                                      (PERI_TR_1TO1_GR_V2_TR_CTL_TR_SEL_Msk      |
 254              		.loc 1 162 0
 255 008c 1443     		orrs	r4, r4, r2
 160:Generated_Source\PSoC6\pdl\drivers\peripheral\trigmux/cy_trigmux.c ****                           (uint32_t)~(PERI_TR_1TO1_GR_V2_TR_CTL_TR_INV_Msk |
 256              		.loc 1 160 0
 257 008e 6C50     		str	r4, [r5, r1]
 166:Generated_Source\PSoC6\pdl\drivers\peripheral\trigmux/cy_trigmux.c **** 
 167:Generated_Source\PSoC6\pdl\drivers\peripheral\trigmux/cy_trigmux.c ****         Cy_SysLib_ExitCriticalSection(interruptState);
 258              		.loc 1 167 0
 259 0090 FFF7FEFF 		bl	Cy_SysLib_ExitCriticalSection
 260              	.LVL22:
 168:Generated_Source\PSoC6\pdl\drivers\peripheral\trigmux/cy_trigmux.c **** 
 169:Generated_Source\PSoC6\pdl\drivers\peripheral\trigmux/cy_trigmux.c ****         retVal = CY_TRIGMUX_SUCCESS;
 261              		.loc 1 169 0
 262 0094 0020     		movs	r0, #0
 263 0096 F8BD     		pop	{r3, r4, r5, r6, r7, pc}
 264              	.LVL23:
 265              	.L18:
 266              	.LBE3:
 149:Generated_Source\PSoC6\pdl\drivers\peripheral\trigmux/cy_trigmux.c ****     
 267              		.loc 1 149 0
 268 0098 0348     		ldr	r0, .L21+12
 269              	.LVL24:
 170:Generated_Source\PSoC6\pdl\drivers\peripheral\trigmux/cy_trigmux.c ****     }
 171:Generated_Source\PSoC6\pdl\drivers\peripheral\trigmux/cy_trigmux.c **** 
 172:Generated_Source\PSoC6\pdl\drivers\peripheral\trigmux/cy_trigmux.c ****     return retVal;
 173:Generated_Source\PSoC6\pdl\drivers\peripheral\trigmux/cy_trigmux.c **** }
 270              		.loc 1 173 0
 271 009a F8BD     		pop	{r3, r4, r5, r6, r7, pc}
 272              	.LVL25:
 273              	.L22:
 274              		.align	2
ARM GAS  C:\Users\mattma1\AppData\Local\Temp\ccvjuF6r.s 			page 9


 275              	.L21:
 276 009c 00000000 		.word	.LC0
 277 00a0 00000000 		.word	cy_device
 278 00a4 00100040 		.word	1073745920
 279 00a8 0100CE00 		.word	13500417
 280              		.cfi_endproc
 281              	.LFE133:
 282              		.size	Cy_TrigMux_Select, .-Cy_TrigMux_Select
 283              		.section	.text.Cy_TrigMux_Deselect,"ax",%progbits
 284              		.align	2
 285              		.global	Cy_TrigMux_Deselect
 286              		.thumb
 287              		.thumb_func
 288              		.type	Cy_TrigMux_Deselect, %function
 289              	Cy_TrigMux_Deselect:
 290              	.LFB134:
 174:Generated_Source\PSoC6\pdl\drivers\peripheral\trigmux/cy_trigmux.c **** 
 175:Generated_Source\PSoC6\pdl\drivers\peripheral\trigmux/cy_trigmux.c **** 
 176:Generated_Source\PSoC6\pdl\drivers\peripheral\trigmux/cy_trigmux.c **** /*******************************************************************************
 177:Generated_Source\PSoC6\pdl\drivers\peripheral\trigmux/cy_trigmux.c **** * Function Name: Cy_TrigMux_Deselect
 178:Generated_Source\PSoC6\pdl\drivers\peripheral\trigmux/cy_trigmux.c **** ****************************************************************************//**
 179:Generated_Source\PSoC6\pdl\drivers\peripheral\trigmux/cy_trigmux.c **** *
 180:Generated_Source\PSoC6\pdl\drivers\peripheral\trigmux/cy_trigmux.c **** * Disables the specified 1-to-1 trigger line. For PERI_ver2 only.
 181:Generated_Source\PSoC6\pdl\drivers\peripheral\trigmux/cy_trigmux.c **** *
 182:Generated_Source\PSoC6\pdl\drivers\peripheral\trigmux/cy_trigmux.c **** * \param outTrig
 183:Generated_Source\PSoC6\pdl\drivers\peripheral\trigmux/cy_trigmux.c **** * The 1to1 trigger line.
 184:Generated_Source\PSoC6\pdl\drivers\peripheral\trigmux/cy_trigmux.c **** * - Bit 30 should be set.
 185:Generated_Source\PSoC6\pdl\drivers\peripheral\trigmux/cy_trigmux.c **** * - Bit 12 should be set.
 186:Generated_Source\PSoC6\pdl\drivers\peripheral\trigmux/cy_trigmux.c **** * - Bits 11:8 represent the 1-to-1 trigger group selection.
 187:Generated_Source\PSoC6\pdl\drivers\peripheral\trigmux/cy_trigmux.c **** * - Bits 7:0 select the trigger line number in the trigger group.
 188:Generated_Source\PSoC6\pdl\drivers\peripheral\trigmux/cy_trigmux.c **** *
 189:Generated_Source\PSoC6\pdl\drivers\peripheral\trigmux/cy_trigmux.c **** * \return status:
 190:Generated_Source\PSoC6\pdl\drivers\peripheral\trigmux/cy_trigmux.c **** * - CY_TRIGMUX_SUCCESS: The deselection is made successfully.
 191:Generated_Source\PSoC6\pdl\drivers\peripheral\trigmux/cy_trigmux.c **** * - CY_TRIGMUX_BAD_PARAM: Some parameter is invalid.
 192:Generated_Source\PSoC6\pdl\drivers\peripheral\trigmux/cy_trigmux.c **** *
 193:Generated_Source\PSoC6\pdl\drivers\peripheral\trigmux/cy_trigmux.c **** * \funcusage
 194:Generated_Source\PSoC6\pdl\drivers\peripheral\trigmux/cy_trigmux.c **** * \snippet trigmux\1.20\snippet\main.c snippet_Cy_TrigMux_Deselect
 195:Generated_Source\PSoC6\pdl\drivers\peripheral\trigmux/cy_trigmux.c **** *  
 196:Generated_Source\PSoC6\pdl\drivers\peripheral\trigmux/cy_trigmux.c **** *******************************************************************************/
 197:Generated_Source\PSoC6\pdl\drivers\peripheral\trigmux/cy_trigmux.c **** cy_en_trigmux_status_t Cy_TrigMux_Deselect(uint32_t outTrig)
 198:Generated_Source\PSoC6\pdl\drivers\peripheral\trigmux/cy_trigmux.c **** {
 291              		.loc 1 198 0
 292              		.cfi_startproc
 293              		@ args = 0, pretend = 0, frame = 0
 294              		@ frame_needed = 0, uses_anonymous_args = 0
 295              	.LVL26:
 296 0000 38B5     		push	{r3, r4, r5, lr}
 297              		.cfi_def_cfa_offset 16
 298              		.cfi_offset 3, -16
 299              		.cfi_offset 4, -12
 300              		.cfi_offset 5, -8
 301              		.cfi_offset 14, -4
 302 0002 0446     		mov	r4, r0
 303              	.LVL27:
 199:Generated_Source\PSoC6\pdl\drivers\peripheral\trigmux/cy_trigmux.c ****     cy_en_trigmux_status_t retVal = CY_TRIGMUX_BAD_PARAM;
 200:Generated_Source\PSoC6\pdl\drivers\peripheral\trigmux/cy_trigmux.c **** 
 201:Generated_Source\PSoC6\pdl\drivers\peripheral\trigmux/cy_trigmux.c ****     CY_ASSERT_L2(CY_TRIGMUX_IS_ONETRIG_VALID(outTrig));
ARM GAS  C:\Users\mattma1\AppData\Local\Temp\ccvjuF6r.s 			page 10


 304              		.loc 1 201 0
 305 0004 1C4B     		ldr	r3, .L29
 306 0006 1B68     		ldr	r3, [r3]
 307 0008 B3F86E30 		ldrh	r3, [r3, #110]
 308 000c 9B08     		lsrs	r3, r3, #2
 309 000e 013B     		subs	r3, r3, #1
 310 0010 43F08043 		orr	r3, r3, #1073741824
 311 0014 43F4F853 		orr	r3, r3, #7936
 312 0018 30EA0303 		bics	r3, r0, r3
 313 001c 02D1     		bne	.L24
 314              		.loc 1 201 0 is_stmt 0 discriminator 2
 315 001e 174B     		ldr	r3, .L29+4
 316 0020 8343     		bics	r3, r3, r0
 317 0022 03D0     		beq	.L25
 318              	.L24:
 319              		.loc 1 201 0 discriminator 3
 320 0024 C921     		movs	r1, #201
 321 0026 1648     		ldr	r0, .L29+8
 322              	.LVL28:
 323 0028 FFF7FEFF 		bl	Cy_SysLib_AssertFailed
 324              	.LVL29:
 325              	.L25:
 202:Generated_Source\PSoC6\pdl\drivers\peripheral\trigmux/cy_trigmux.c **** 
 203:Generated_Source\PSoC6\pdl\drivers\peripheral\trigmux/cy_trigmux.c ****     if (!CY_PERI_V1)
 326              		.loc 1 203 0 is_stmt 1
 327 002c 124B     		ldr	r3, .L29
 328 002e 1B68     		ldr	r3, [r3]
 329 0030 93F82F30 		ldrb	r3, [r3, #47]	@ zero_extendqisi2
 330 0034 012B     		cmp	r3, #1
 331 0036 1DD0     		beq	.L27
 332              	.LBB4:
 204:Generated_Source\PSoC6\pdl\drivers\peripheral\trigmux/cy_trigmux.c ****     {
 205:Generated_Source\PSoC6\pdl\drivers\peripheral\trigmux/cy_trigmux.c ****         uint32_t interruptState;
 206:Generated_Source\PSoC6\pdl\drivers\peripheral\trigmux/cy_trigmux.c **** 
 207:Generated_Source\PSoC6\pdl\drivers\peripheral\trigmux/cy_trigmux.c ****         interruptState = Cy_SysLib_EnterCriticalSection();
 333              		.loc 1 207 0
 334 0038 FFF7FEFF 		bl	Cy_SysLib_EnterCriticalSection
 335              	.LVL30:
 208:Generated_Source\PSoC6\pdl\drivers\peripheral\trigmux/cy_trigmux.c **** 
 209:Generated_Source\PSoC6\pdl\drivers\peripheral\trigmux/cy_trigmux.c ****         CY_TRIGMUX_TR_CTL(outTrig) &= (uint32_t)~(PERI_TR_1TO1_GR_V2_TR_CTL_TR_SEL_Msk |
 336              		.loc 1 209 0
 337 003c 0E4B     		ldr	r3, .L29
 338 003e 1B68     		ldr	r3, [r3]
 339 0040 9968     		ldr	r1, [r3, #8]
 340 0042 B3F86C20 		ldrh	r2, [r3, #108]
 341 0046 1144     		add	r1, r1, r2
 342 0048 B3F86E50 		ldrh	r5, [r3, #110]
 343 004c AA08     		lsrs	r2, r5, #2
 344 004e 013A     		subs	r2, r2, #1
 345 0050 B3F86A30 		ldrh	r3, [r3, #106]
 346 0054 2340     		ands	r3, r3, r4
 347 0056 1B0A     		lsrs	r3, r3, #8
 348 0058 1440     		ands	r4, r4, r2
 349              	.LVL31:
 350 005a A400     		lsls	r4, r4, #2
 351 005c 05FB0344 		mla	r4, r5, r3, r4
 352 0060 6358     		ldr	r3, [r4, r1]
ARM GAS  C:\Users\mattma1\AppData\Local\Temp\ccvjuF6r.s 			page 11


 353 0062 23F44073 		bic	r3, r3, #768
 354 0066 23F00103 		bic	r3, r3, #1
 355 006a 6350     		str	r3, [r4, r1]
 210:Generated_Source\PSoC6\pdl\drivers\peripheral\trigmux/cy_trigmux.c ****                                                   PERI_TR_1TO1_GR_V2_TR_CTL_TR_INV_Msk |
 211:Generated_Source\PSoC6\pdl\drivers\peripheral\trigmux/cy_trigmux.c ****                                                   PERI_TR_1TO1_GR_V2_TR_CTL_TR_EDGE_Msk);
 212:Generated_Source\PSoC6\pdl\drivers\peripheral\trigmux/cy_trigmux.c **** 
 213:Generated_Source\PSoC6\pdl\drivers\peripheral\trigmux/cy_trigmux.c ****         Cy_SysLib_ExitCriticalSection(interruptState);
 356              		.loc 1 213 0
 357 006c FFF7FEFF 		bl	Cy_SysLib_ExitCriticalSection
 358              	.LVL32:
 214:Generated_Source\PSoC6\pdl\drivers\peripheral\trigmux/cy_trigmux.c **** 
 215:Generated_Source\PSoC6\pdl\drivers\peripheral\trigmux/cy_trigmux.c ****         retVal = CY_TRIGMUX_SUCCESS;
 359              		.loc 1 215 0
 360 0070 0020     		movs	r0, #0
 361 0072 38BD     		pop	{r3, r4, r5, pc}
 362              	.LVL33:
 363              	.L27:
 364              	.LBE4:
 199:Generated_Source\PSoC6\pdl\drivers\peripheral\trigmux/cy_trigmux.c **** 
 365              		.loc 1 199 0
 366 0074 0348     		ldr	r0, .L29+12
 367              	.LVL34:
 216:Generated_Source\PSoC6\pdl\drivers\peripheral\trigmux/cy_trigmux.c ****     }
 217:Generated_Source\PSoC6\pdl\drivers\peripheral\trigmux/cy_trigmux.c **** 
 218:Generated_Source\PSoC6\pdl\drivers\peripheral\trigmux/cy_trigmux.c ****     return retVal;
 219:Generated_Source\PSoC6\pdl\drivers\peripheral\trigmux/cy_trigmux.c **** }
 368              		.loc 1 219 0
 369 0076 38BD     		pop	{r3, r4, r5, pc}
 370              	.LVL35:
 371              	.L30:
 372              		.align	2
 373              	.L29:
 374 0078 00000000 		.word	cy_device
 375 007c 00100040 		.word	1073745920
 376 0080 00000000 		.word	.LC0
 377 0084 0100CE00 		.word	13500417
 378              		.cfi_endproc
 379              	.LFE134:
 380              		.size	Cy_TrigMux_Deselect, .-Cy_TrigMux_Deselect
 381              		.section	.text.Cy_TrigMux_SetDebugFreeze,"ax",%progbits
 382              		.align	2
 383              		.global	Cy_TrigMux_SetDebugFreeze
 384              		.thumb
 385              		.thumb_func
 386              		.type	Cy_TrigMux_SetDebugFreeze, %function
 387              	Cy_TrigMux_SetDebugFreeze:
 388              	.LFB135:
 220:Generated_Source\PSoC6\pdl\drivers\peripheral\trigmux/cy_trigmux.c **** 
 221:Generated_Source\PSoC6\pdl\drivers\peripheral\trigmux/cy_trigmux.c **** 
 222:Generated_Source\PSoC6\pdl\drivers\peripheral\trigmux/cy_trigmux.c **** /*******************************************************************************
 223:Generated_Source\PSoC6\pdl\drivers\peripheral\trigmux/cy_trigmux.c **** * Function Name: Cy_TrigMux_SetDebugFreeze
 224:Generated_Source\PSoC6\pdl\drivers\peripheral\trigmux/cy_trigmux.c **** ****************************************************************************//**
 225:Generated_Source\PSoC6\pdl\drivers\peripheral\trigmux/cy_trigmux.c **** *
 226:Generated_Source\PSoC6\pdl\drivers\peripheral\trigmux/cy_trigmux.c **** * Enables/disables the Debug Freeze feature for the specified trigger 
 227:Generated_Source\PSoC6\pdl\drivers\peripheral\trigmux/cy_trigmux.c **** * multiplexer or 1-to-1 trigger line. For PERI_ver2 only.
 228:Generated_Source\PSoC6\pdl\drivers\peripheral\trigmux/cy_trigmux.c **** *
 229:Generated_Source\PSoC6\pdl\drivers\peripheral\trigmux/cy_trigmux.c **** * \param outTrig
ARM GAS  C:\Users\mattma1\AppData\Local\Temp\ccvjuF6r.s 			page 12


 230:Generated_Source\PSoC6\pdl\drivers\peripheral\trigmux/cy_trigmux.c **** * The output of the trigger mux or dedicated 1-to-1 trigger line.
 231:Generated_Source\PSoC6\pdl\drivers\peripheral\trigmux/cy_trigmux.c **** * - Bit 30 should be set.
 232:Generated_Source\PSoC6\pdl\drivers\peripheral\trigmux/cy_trigmux.c **** * - Bits 12:8 represent the trigger group selection.
 233:Generated_Source\PSoC6\pdl\drivers\peripheral\trigmux/cy_trigmux.c **** * - Bits 7:0 select the output trigger number in the trigger group.
 234:Generated_Source\PSoC6\pdl\drivers\peripheral\trigmux/cy_trigmux.c **** *
 235:Generated_Source\PSoC6\pdl\drivers\peripheral\trigmux/cy_trigmux.c **** * \param enable
 236:Generated_Source\PSoC6\pdl\drivers\peripheral\trigmux/cy_trigmux.c **** * - true: The Debug Freeze feature is enabled.
 237:Generated_Source\PSoC6\pdl\drivers\peripheral\trigmux/cy_trigmux.c **** * - false: The Debug Freeze feature is disabled.
 238:Generated_Source\PSoC6\pdl\drivers\peripheral\trigmux/cy_trigmux.c **** *
 239:Generated_Source\PSoC6\pdl\drivers\peripheral\trigmux/cy_trigmux.c **** * \return status:
 240:Generated_Source\PSoC6\pdl\drivers\peripheral\trigmux/cy_trigmux.c **** * - CY_TRIGMUX_SUCCESS: The operation is made successfully.
 241:Generated_Source\PSoC6\pdl\drivers\peripheral\trigmux/cy_trigmux.c **** * - CY_TRIGMUX_BAD_PARAM: The outTrig parameter is invalid.
 242:Generated_Source\PSoC6\pdl\drivers\peripheral\trigmux/cy_trigmux.c **** *
 243:Generated_Source\PSoC6\pdl\drivers\peripheral\trigmux/cy_trigmux.c **** * \funcusage
 244:Generated_Source\PSoC6\pdl\drivers\peripheral\trigmux/cy_trigmux.c **** * \snippet trigmux\1.20\snippet\main.c snippet_Cy_TrigMux_SetDebugFreeze
 245:Generated_Source\PSoC6\pdl\drivers\peripheral\trigmux/cy_trigmux.c **** *  
 246:Generated_Source\PSoC6\pdl\drivers\peripheral\trigmux/cy_trigmux.c **** *******************************************************************************/
 247:Generated_Source\PSoC6\pdl\drivers\peripheral\trigmux/cy_trigmux.c **** cy_en_trigmux_status_t Cy_TrigMux_SetDebugFreeze(uint32_t outTrig, bool enable)
 248:Generated_Source\PSoC6\pdl\drivers\peripheral\trigmux/cy_trigmux.c **** {    
 389              		.loc 1 248 0
 390              		.cfi_startproc
 391              		@ args = 0, pretend = 0, frame = 0
 392              		@ frame_needed = 0, uses_anonymous_args = 0
 393              	.LVL36:
 394 0000 38B5     		push	{r3, r4, r5, lr}
 395              		.cfi_def_cfa_offset 16
 396              		.cfi_offset 3, -16
 397              		.cfi_offset 4, -12
 398              		.cfi_offset 5, -8
 399              		.cfi_offset 14, -4
 400              	.LVL37:
 249:Generated_Source\PSoC6\pdl\drivers\peripheral\trigmux/cy_trigmux.c ****     cy_en_trigmux_status_t retVal = CY_TRIGMUX_BAD_PARAM;
 250:Generated_Source\PSoC6\pdl\drivers\peripheral\trigmux/cy_trigmux.c **** 
 251:Generated_Source\PSoC6\pdl\drivers\peripheral\trigmux/cy_trigmux.c ****     if (!CY_PERI_V1)
 401              		.loc 1 251 0
 402 0002 1F4B     		ldr	r3, .L37
 403 0004 1B68     		ldr	r3, [r3]
 404 0006 93F82F30 		ldrb	r3, [r3, #47]	@ zero_extendqisi2
 405 000a 012B     		cmp	r3, #1
 406 000c 35D0     		beq	.L35
 407 000e 0D46     		mov	r5, r1
 408 0010 0446     		mov	r4, r0
 409              	.LBB5:
 252:Generated_Source\PSoC6\pdl\drivers\peripheral\trigmux/cy_trigmux.c ****     {
 253:Generated_Source\PSoC6\pdl\drivers\peripheral\trigmux/cy_trigmux.c ****         uint32_t interruptState;
 254:Generated_Source\PSoC6\pdl\drivers\peripheral\trigmux/cy_trigmux.c **** 
 255:Generated_Source\PSoC6\pdl\drivers\peripheral\trigmux/cy_trigmux.c ****         interruptState = Cy_SysLib_EnterCriticalSection();
 410              		.loc 1 255 0
 411 0012 FFF7FEFF 		bl	Cy_SysLib_EnterCriticalSection
 412              	.LVL38:
 256:Generated_Source\PSoC6\pdl\drivers\peripheral\trigmux/cy_trigmux.c **** 
 257:Generated_Source\PSoC6\pdl\drivers\peripheral\trigmux/cy_trigmux.c ****         if (enable)
 413              		.loc 1 257 0
 414 0016 B5B1     		cbz	r5, .L33
 258:Generated_Source\PSoC6\pdl\drivers\peripheral\trigmux/cy_trigmux.c ****         {
 259:Generated_Source\PSoC6\pdl\drivers\peripheral\trigmux/cy_trigmux.c ****             CY_TRIGMUX_TR_CTL(outTrig) |= PERI_TR_GR_V2_TR_CTL_DBG_FREEZE_EN_Msk;
 415              		.loc 1 259 0
ARM GAS  C:\Users\mattma1\AppData\Local\Temp\ccvjuF6r.s 			page 13


 416 0018 194B     		ldr	r3, .L37
 417 001a 1B68     		ldr	r3, [r3]
 418 001c 9968     		ldr	r1, [r3, #8]
 419 001e B3F86C20 		ldrh	r2, [r3, #108]
 420 0022 1144     		add	r1, r1, r2
 421 0024 B3F86E50 		ldrh	r5, [r3, #110]
 422 0028 AA08     		lsrs	r2, r5, #2
 423 002a 013A     		subs	r2, r2, #1
 424 002c B3F86A30 		ldrh	r3, [r3, #106]
 425 0030 2340     		ands	r3, r3, r4
 426 0032 1B0A     		lsrs	r3, r3, #8
 427 0034 1440     		ands	r4, r4, r2
 428              	.LVL39:
 429 0036 A400     		lsls	r4, r4, #2
 430 0038 05FB0344 		mla	r4, r5, r3, r4
 431 003c 6358     		ldr	r3, [r4, r1]
 432 003e 43F48053 		orr	r3, r3, #4096
 433 0042 6350     		str	r3, [r4, r1]
 434 0044 15E0     		b	.L34
 435              	.LVL40:
 436              	.L33:
 260:Generated_Source\PSoC6\pdl\drivers\peripheral\trigmux/cy_trigmux.c ****         }
 261:Generated_Source\PSoC6\pdl\drivers\peripheral\trigmux/cy_trigmux.c ****         else
 262:Generated_Source\PSoC6\pdl\drivers\peripheral\trigmux/cy_trigmux.c ****         {
 263:Generated_Source\PSoC6\pdl\drivers\peripheral\trigmux/cy_trigmux.c ****             CY_TRIGMUX_TR_CTL(outTrig) &= (uint32_t)~PERI_TR_GR_V2_TR_CTL_DBG_FREEZE_EN_Msk;
 437              		.loc 1 263 0
 438 0046 0E4B     		ldr	r3, .L37
 439 0048 1B68     		ldr	r3, [r3]
 440 004a 9968     		ldr	r1, [r3, #8]
 441 004c B3F86C20 		ldrh	r2, [r3, #108]
 442 0050 1144     		add	r1, r1, r2
 443 0052 B3F86E50 		ldrh	r5, [r3, #110]
 444 0056 AA08     		lsrs	r2, r5, #2
 445 0058 013A     		subs	r2, r2, #1
 446 005a B3F86A30 		ldrh	r3, [r3, #106]
 447 005e 2340     		ands	r3, r3, r4
 448 0060 1B0A     		lsrs	r3, r3, #8
 449 0062 1440     		ands	r4, r4, r2
 450              	.LVL41:
 451 0064 A400     		lsls	r4, r4, #2
 452 0066 05FB0344 		mla	r4, r5, r3, r4
 453 006a 6358     		ldr	r3, [r4, r1]
 454 006c 23F48053 		bic	r3, r3, #4096
 455 0070 6350     		str	r3, [r4, r1]
 456              	.L34:
 264:Generated_Source\PSoC6\pdl\drivers\peripheral\trigmux/cy_trigmux.c ****         }
 265:Generated_Source\PSoC6\pdl\drivers\peripheral\trigmux/cy_trigmux.c **** 
 266:Generated_Source\PSoC6\pdl\drivers\peripheral\trigmux/cy_trigmux.c ****         Cy_SysLib_ExitCriticalSection(interruptState);
 457              		.loc 1 266 0
 458 0072 FFF7FEFF 		bl	Cy_SysLib_ExitCriticalSection
 459              	.LVL42:
 267:Generated_Source\PSoC6\pdl\drivers\peripheral\trigmux/cy_trigmux.c **** 
 268:Generated_Source\PSoC6\pdl\drivers\peripheral\trigmux/cy_trigmux.c ****         retVal = CY_TRIGMUX_SUCCESS;
 460              		.loc 1 268 0
 461 0076 0020     		movs	r0, #0
 462 0078 38BD     		pop	{r3, r4, r5, pc}
 463              	.LVL43:
ARM GAS  C:\Users\mattma1\AppData\Local\Temp\ccvjuF6r.s 			page 14


 464              	.L35:
 465              	.LBE5:
 249:Generated_Source\PSoC6\pdl\drivers\peripheral\trigmux/cy_trigmux.c **** 
 466              		.loc 1 249 0
 467 007a 0248     		ldr	r0, .L37+4
 468              	.LVL44:
 269:Generated_Source\PSoC6\pdl\drivers\peripheral\trigmux/cy_trigmux.c ****     }
 270:Generated_Source\PSoC6\pdl\drivers\peripheral\trigmux/cy_trigmux.c **** 
 271:Generated_Source\PSoC6\pdl\drivers\peripheral\trigmux/cy_trigmux.c ****     return retVal;
 272:Generated_Source\PSoC6\pdl\drivers\peripheral\trigmux/cy_trigmux.c **** }
 469              		.loc 1 272 0
 470 007c 38BD     		pop	{r3, r4, r5, pc}
 471              	.L38:
 472 007e 00BF     		.align	2
 473              	.L37:
 474 0080 00000000 		.word	cy_device
 475 0084 0100CE00 		.word	13500417
 476              		.cfi_endproc
 477              	.LFE135:
 478              		.size	Cy_TrigMux_SetDebugFreeze, .-Cy_TrigMux_SetDebugFreeze
 479              		.section	.text.Cy_TrigMux_SwTrigger,"ax",%progbits
 480              		.align	2
 481              		.global	Cy_TrigMux_SwTrigger
 482              		.thumb
 483              		.thumb_func
 484              		.type	Cy_TrigMux_SwTrigger, %function
 485              	Cy_TrigMux_SwTrigger:
 486              	.LFB136:
 273:Generated_Source\PSoC6\pdl\drivers\peripheral\trigmux/cy_trigmux.c **** 
 274:Generated_Source\PSoC6\pdl\drivers\peripheral\trigmux/cy_trigmux.c **** 
 275:Generated_Source\PSoC6\pdl\drivers\peripheral\trigmux/cy_trigmux.c **** /*******************************************************************************
 276:Generated_Source\PSoC6\pdl\drivers\peripheral\trigmux/cy_trigmux.c **** * Function Name: Cy_TrigMux_SwTrigger
 277:Generated_Source\PSoC6\pdl\drivers\peripheral\trigmux/cy_trigmux.c **** ****************************************************************************//**
 278:Generated_Source\PSoC6\pdl\drivers\peripheral\trigmux/cy_trigmux.c **** *
 279:Generated_Source\PSoC6\pdl\drivers\peripheral\trigmux/cy_trigmux.c **** * This function generates a software trigger on an input trigger line. 
 280:Generated_Source\PSoC6\pdl\drivers\peripheral\trigmux/cy_trigmux.c **** * All output triggers connected to this input trigger will be triggered. 
 281:Generated_Source\PSoC6\pdl\drivers\peripheral\trigmux/cy_trigmux.c **** * The function also verifies that there is no activated trigger before 
 282:Generated_Source\PSoC6\pdl\drivers\peripheral\trigmux/cy_trigmux.c **** * generating another activation. 
 283:Generated_Source\PSoC6\pdl\drivers\peripheral\trigmux/cy_trigmux.c **** *
 284:Generated_Source\PSoC6\pdl\drivers\peripheral\trigmux/cy_trigmux.c **** * \param trigLine
 285:Generated_Source\PSoC6\pdl\drivers\peripheral\trigmux/cy_trigmux.c **** * The input of the trigger mux.
 286:Generated_Source\PSoC6\pdl\drivers\peripheral\trigmux/cy_trigmux.c **** * - Bit 30 represents if the signal is an input/output. When this bit is set, 
 287:Generated_Source\PSoC6\pdl\drivers\peripheral\trigmux/cy_trigmux.c **** *   the trigger activation is for an output trigger from the trigger multiplexer.
 288:Generated_Source\PSoC6\pdl\drivers\peripheral\trigmux/cy_trigmux.c **** *   When this bit is reset, the trigger activation is for an input trigger to 
 289:Generated_Source\PSoC6\pdl\drivers\peripheral\trigmux/cy_trigmux.c **** *   the trigger multiplexer.
 290:Generated_Source\PSoC6\pdl\drivers\peripheral\trigmux/cy_trigmux.c **** * - Bits 12:8 represent the trigger group selection.<br>
 291:Generated_Source\PSoC6\pdl\drivers\peripheral\trigmux/cy_trigmux.c **** * In case of output trigger line (bit 30 is set):
 292:Generated_Source\PSoC6\pdl\drivers\peripheral\trigmux/cy_trigmux.c **** *  For PERI_ver1:
 293:Generated_Source\PSoC6\pdl\drivers\peripheral\trigmux/cy_trigmux.c **** * - Bits 6:0 select the output trigger number in the trigger group.<br>
 294:Generated_Source\PSoC6\pdl\drivers\peripheral\trigmux/cy_trigmux.c **** *  For PERI_ver2:
 295:Generated_Source\PSoC6\pdl\drivers\peripheral\trigmux/cy_trigmux.c **** * - Bits 7:0 select the output trigger number in the trigger group.
 296:Generated_Source\PSoC6\pdl\drivers\peripheral\trigmux/cy_trigmux.c **** * In case of input trigger line (bit 30 is unset):
 297:Generated_Source\PSoC6\pdl\drivers\peripheral\trigmux/cy_trigmux.c **** * - Bits 7:0 select the input trigger signal for the trigger multiplexer.
 298:Generated_Source\PSoC6\pdl\drivers\peripheral\trigmux/cy_trigmux.c **** *
 299:Generated_Source\PSoC6\pdl\drivers\peripheral\trigmux/cy_trigmux.c **** * \param cycles
 300:Generated_Source\PSoC6\pdl\drivers\peripheral\trigmux/cy_trigmux.c **** *  The number of "Clk_Peri" cycles during which the trigger remains activated.<br>
 301:Generated_Source\PSoC6\pdl\drivers\peripheral\trigmux/cy_trigmux.c **** *  For PERI_ver1: The valid range of cycles is 1 ... 254.<br>
ARM GAS  C:\Users\mattma1\AppData\Local\Temp\ccvjuF6r.s 			page 15


 302:Generated_Source\PSoC6\pdl\drivers\peripheral\trigmux/cy_trigmux.c **** *  For PERI_ver2: The only valid value of cycles is 2 (\ref CY_TRIGGER_TWO_CYCLES).<br>
 303:Generated_Source\PSoC6\pdl\drivers\peripheral\trigmux/cy_trigmux.c **** *  Also there are special values (supported with both PERI_ver1 and PERI_ver2):
 304:Generated_Source\PSoC6\pdl\drivers\peripheral\trigmux/cy_trigmux.c **** *   - CY_TRIGGER_INFINITE - trigger remains activated until the user deactivates it by
 305:Generated_Source\PSoC6\pdl\drivers\peripheral\trigmux/cy_trigmux.c **** *   calling this function with CY_TRIGGER_DEACTIVATE parameter.
 306:Generated_Source\PSoC6\pdl\drivers\peripheral\trigmux/cy_trigmux.c **** *   - CY_TRIGGER_DEACTIVATE - this is used to deactivate the trigger activated by
 307:Generated_Source\PSoC6\pdl\drivers\peripheral\trigmux/cy_trigmux.c **** *   calling this function with CY_TRIGGER_INFINITE parameter.
 308:Generated_Source\PSoC6\pdl\drivers\peripheral\trigmux/cy_trigmux.c **** * 
 309:Generated_Source\PSoC6\pdl\drivers\peripheral\trigmux/cy_trigmux.c **** * \return status:
 310:Generated_Source\PSoC6\pdl\drivers\peripheral\trigmux/cy_trigmux.c **** * - CY_TRIGMUX_SUCCESS: The trigger is successfully activated/deactivated.
 311:Generated_Source\PSoC6\pdl\drivers\peripheral\trigmux/cy_trigmux.c **** * - CY_TRIGMUX_INVALID_STATE: The trigger is already activated/not active.
 312:Generated_Source\PSoC6\pdl\drivers\peripheral\trigmux/cy_trigmux.c **** * - CY_TRIGMUX_BAD_PARAM: Some parameter is invalid.
 313:Generated_Source\PSoC6\pdl\drivers\peripheral\trigmux/cy_trigmux.c **** *
 314:Generated_Source\PSoC6\pdl\drivers\peripheral\trigmux/cy_trigmux.c **** * \funcusage
 315:Generated_Source\PSoC6\pdl\drivers\peripheral\trigmux/cy_trigmux.c **** * \snippet trigmux\1.20\snippet\main.c snippet_Cy_TrigMux_SwTrigger
 316:Generated_Source\PSoC6\pdl\drivers\peripheral\trigmux/cy_trigmux.c **** *
 317:Generated_Source\PSoC6\pdl\drivers\peripheral\trigmux/cy_trigmux.c **** *******************************************************************************/
 318:Generated_Source\PSoC6\pdl\drivers\peripheral\trigmux/cy_trigmux.c **** cy_en_trigmux_status_t Cy_TrigMux_SwTrigger(uint32_t trigLine, uint32_t cycles)
 319:Generated_Source\PSoC6\pdl\drivers\peripheral\trigmux/cy_trigmux.c **** {
 487              		.loc 1 319 0
 488              		.cfi_startproc
 489              		@ args = 0, pretend = 0, frame = 0
 490              		@ frame_needed = 0, uses_anonymous_args = 0
 491              	.LVL45:
 492 0000 70B5     		push	{r4, r5, r6, lr}
 493              		.cfi_def_cfa_offset 16
 494              		.cfi_offset 4, -16
 495              		.cfi_offset 5, -12
 496              		.cfi_offset 6, -8
 497              		.cfi_offset 14, -4
 498 0002 0546     		mov	r5, r0
 499 0004 0C46     		mov	r4, r1
 500              	.LVL46:
 320:Generated_Source\PSoC6\pdl\drivers\peripheral\trigmux/cy_trigmux.c ****     cy_en_trigmux_status_t retVal = CY_TRIGMUX_INVALID_STATE;
 321:Generated_Source\PSoC6\pdl\drivers\peripheral\trigmux/cy_trigmux.c **** 
 322:Generated_Source\PSoC6\pdl\drivers\peripheral\trigmux/cy_trigmux.c ****     CY_ASSERT_L2(CY_TRIGMUX_IS_TRIGLINE_VALID(trigLine));
 501              		.loc 1 322 0
 502 0006 2F4B     		ldr	r3, .L51
 503 0008 1A68     		ldr	r2, [r3]
 504 000a B2F86A10 		ldrh	r1, [r2, #106]
 505              	.LVL47:
 506 000e B2F86E30 		ldrh	r3, [r2, #110]
 507 0012 9B08     		lsrs	r3, r3, #2
 508 0014 013B     		subs	r3, r3, #1
 509 0016 0B43     		orrs	r3, r3, r1
 510 0018 43F08043 		orr	r3, r3, #1073741824
 511 001c 30EA0303 		bics	r3, r0, r3
 512 0020 04D0     		beq	.L40
 513              		.loc 1 322 0 is_stmt 0 discriminator 1
 514 0022 4FF4A171 		mov	r1, #322
 515 0026 2848     		ldr	r0, .L51+4
 516              	.LVL48:
 517 0028 FFF7FEFF 		bl	Cy_SysLib_AssertFailed
 518              	.LVL49:
 519              	.L40:
 323:Generated_Source\PSoC6\pdl\drivers\peripheral\trigmux/cy_trigmux.c ****     CY_ASSERT_L2(CY_TRIGMUX_IS_CYCLES_VALID(cycles));
 520              		.loc 1 323 0 is_stmt 1
 521 002c 254B     		ldr	r3, .L51
ARM GAS  C:\Users\mattma1\AppData\Local\Temp\ccvjuF6r.s 			page 16


 522 002e 1B68     		ldr	r3, [r3]
 523 0030 93F82F30 		ldrb	r3, [r3, #47]	@ zero_extendqisi2
 524 0034 012B     		cmp	r3, #1
 525 0036 01D1     		bne	.L41
 526              		.loc 1 323 0 is_stmt 0 discriminator 2
 527 0038 FF2C     		cmp	r4, #255
 528 003a 09D9     		bls	.L42
 529              	.L41:
 530              		.loc 1 323 0 discriminator 3
 531 003c 44B1     		cbz	r4, .L42
 532              		.loc 1 323 0 discriminator 4
 533 003e 022C     		cmp	r4, #2
 534 0040 06D0     		beq	.L42
 535              		.loc 1 323 0 discriminator 5
 536 0042 FF2C     		cmp	r4, #255
 537 0044 04D0     		beq	.L42
 538              		.loc 1 323 0 discriminator 6
 539 0046 40F24311 		movw	r1, #323
 540 004a 1F48     		ldr	r0, .L51+4
 541 004c FFF7FEFF 		bl	Cy_SysLib_AssertFailed
 542              	.LVL50:
 543              	.L42:
 324:Generated_Source\PSoC6\pdl\drivers\peripheral\trigmux/cy_trigmux.c **** 
 325:Generated_Source\PSoC6\pdl\drivers\peripheral\trigmux/cy_trigmux.c ****     if (CY_TRIGGER_DEACTIVATE != cycles)
 544              		.loc 1 325 0 is_stmt 1
 545 0050 3CB3     		cbz	r4, .L43
 326:Generated_Source\PSoC6\pdl\drivers\peripheral\trigmux/cy_trigmux.c ****     {
 327:Generated_Source\PSoC6\pdl\drivers\peripheral\trigmux/cy_trigmux.c ****         /* Activate the trigger if it is not in the active state. */
 328:Generated_Source\PSoC6\pdl\drivers\peripheral\trigmux/cy_trigmux.c ****         if (PERI_TR_CMD_ACTIVATE_Msk != (PERI_TR_CMD & PERI_TR_CMD_ACTIVATE_Msk))
 546              		.loc 1 328 0
 547 0052 1C4B     		ldr	r3, .L51
 548 0054 1A68     		ldr	r2, [r3]
 549 0056 9068     		ldr	r0, [r2, #8]
 550 0058 B2F86810 		ldrh	r1, [r2, #104]
 551 005c 4358     		ldr	r3, [r0, r1]
 552 005e 002B     		cmp	r3, #0
 553 0060 2ADB     		blt	.L47
 554              	.LBB6:
 329:Generated_Source\PSoC6\pdl\drivers\peripheral\trigmux/cy_trigmux.c ****         {
 330:Generated_Source\PSoC6\pdl\drivers\peripheral\trigmux/cy_trigmux.c **** 
 331:Generated_Source\PSoC6\pdl\drivers\peripheral\trigmux/cy_trigmux.c ****             uint32_t trCmd = (trigLine & (PERI_TR_CMD_TR_SEL_Msk |
 332:Generated_Source\PSoC6\pdl\drivers\peripheral\trigmux/cy_trigmux.c ****                                           PERI_TR_CMD_OUT_SEL_Msk |
 333:Generated_Source\PSoC6\pdl\drivers\peripheral\trigmux/cy_trigmux.c ****                                        CY_PERI_TR_CMD_GROUP_SEL_Msk)) |
 555              		.loc 1 333 0
 556 0062 B2F86A30 		ldrh	r3, [r2, #106]
 332:Generated_Source\PSoC6\pdl\drivers\peripheral\trigmux/cy_trigmux.c ****                                        CY_PERI_TR_CMD_GROUP_SEL_Msk)) |
 557              		.loc 1 332 0
 558 0066 43F08043 		orr	r3, r3, #1073741824
 559 006a 43F0FF03 		orr	r3, r3, #255
 331:Generated_Source\PSoC6\pdl\drivers\peripheral\trigmux/cy_trigmux.c ****                                           PERI_TR_CMD_OUT_SEL_Msk |
 560              		.loc 1 331 0
 561 006e 1D40     		ands	r5, r5, r3
 562              	.LVL51:
 563 0070 45F00046 		orr	r6, r5, #-2147483648
 564              	.LVL52:
 334:Generated_Source\PSoC6\pdl\drivers\peripheral\trigmux/cy_trigmux.c ****                                           PERI_TR_CMD_ACTIVATE_Msk;
 335:Generated_Source\PSoC6\pdl\drivers\peripheral\trigmux/cy_trigmux.c ****             
ARM GAS  C:\Users\mattma1\AppData\Local\Temp\ccvjuF6r.s 			page 17


 336:Generated_Source\PSoC6\pdl\drivers\peripheral\trigmux/cy_trigmux.c ****             retVal = CY_TRIGMUX_SUCCESS;
 337:Generated_Source\PSoC6\pdl\drivers\peripheral\trigmux/cy_trigmux.c ****             
 338:Generated_Source\PSoC6\pdl\drivers\peripheral\trigmux/cy_trigmux.c ****             if (CY_PERI_V1) /* mxperi_v1 */
 565              		.loc 1 338 0
 566 0074 92F82F30 		ldrb	r3, [r2, #47]	@ zero_extendqisi2
 567 0078 012B     		cmp	r3, #1
 568 007a 06D1     		bne	.L45
 339:Generated_Source\PSoC6\pdl\drivers\peripheral\trigmux/cy_trigmux.c ****             {
 340:Generated_Source\PSoC6\pdl\drivers\peripheral\trigmux/cy_trigmux.c ****                 PERI_TR_CMD = trCmd | _VAL2FLD(PERI_TR_CMD_COUNT, cycles);
 569              		.loc 1 340 0
 570 007c 2404     		lsls	r4, r4, #16
 571              	.LVL53:
 572 007e 04F47F04 		and	r4, r4, #16711680
 573 0082 2643     		orrs	r6, r6, r4
 574              	.LVL54:
 575 0084 4650     		str	r6, [r0, r1]
 336:Generated_Source\PSoC6\pdl\drivers\peripheral\trigmux/cy_trigmux.c ****             
 576              		.loc 1 336 0
 577 0086 0020     		movs	r0, #0
 578 0088 70BD     		pop	{r4, r5, r6, pc}
 579              	.LVL55:
 580              	.L45:
 341:Generated_Source\PSoC6\pdl\drivers\peripheral\trigmux/cy_trigmux.c ****             }
 342:Generated_Source\PSoC6\pdl\drivers\peripheral\trigmux/cy_trigmux.c ****             else if (CY_TRIGGER_TWO_CYCLES == cycles) /* mxperi_v2 or later, 2 cycles pulse */
 581              		.loc 1 342 0
 582 008a 022C     		cmp	r4, #2
 583 008c 04D1     		bne	.L46
 343:Generated_Source\PSoC6\pdl\drivers\peripheral\trigmux/cy_trigmux.c ****             {
 344:Generated_Source\PSoC6\pdl\drivers\peripheral\trigmux/cy_trigmux.c ****                 PERI_TR_CMD = trCmd | PERI_V2_TR_CMD_TR_EDGE_Msk;
 584              		.loc 1 344 0
 585 008e 45F02045 		orr	r5, r5, #-1610612736
 586 0092 4550     		str	r5, [r0, r1]
 336:Generated_Source\PSoC6\pdl\drivers\peripheral\trigmux/cy_trigmux.c ****             
 587              		.loc 1 336 0
 588 0094 0020     		movs	r0, #0
 589 0096 70BD     		pop	{r4, r5, r6, pc}
 590              	.LVL56:
 591              	.L46:
 345:Generated_Source\PSoC6\pdl\drivers\peripheral\trigmux/cy_trigmux.c ****             }
 346:Generated_Source\PSoC6\pdl\drivers\peripheral\trigmux/cy_trigmux.c ****             else if (CY_TRIGGER_INFINITE == cycles) /* mxperi_v2 or later, infinite activating */
 592              		.loc 1 346 0
 593 0098 FF2C     		cmp	r4, #255
 594 009a 0FD1     		bne	.L48
 347:Generated_Source\PSoC6\pdl\drivers\peripheral\trigmux/cy_trigmux.c ****             {
 348:Generated_Source\PSoC6\pdl\drivers\peripheral\trigmux/cy_trigmux.c ****                 PERI_TR_CMD = trCmd;
 595              		.loc 1 348 0
 596 009c 4650     		str	r6, [r0, r1]
 336:Generated_Source\PSoC6\pdl\drivers\peripheral\trigmux/cy_trigmux.c ****             
 597              		.loc 1 336 0
 598 009e 0020     		movs	r0, #0
 599 00a0 70BD     		pop	{r4, r5, r6, pc}
 600              	.LVL57:
 601              	.L43:
 602              	.LBE6:
 349:Generated_Source\PSoC6\pdl\drivers\peripheral\trigmux/cy_trigmux.c ****             }
 350:Generated_Source\PSoC6\pdl\drivers\peripheral\trigmux/cy_trigmux.c ****             else /* mxperi_v2 or later, invalid cycles value */
 351:Generated_Source\PSoC6\pdl\drivers\peripheral\trigmux/cy_trigmux.c ****             {
ARM GAS  C:\Users\mattma1\AppData\Local\Temp\ccvjuF6r.s 			page 18


 352:Generated_Source\PSoC6\pdl\drivers\peripheral\trigmux/cy_trigmux.c ****                 retVal = CY_TRIGMUX_BAD_PARAM;
 353:Generated_Source\PSoC6\pdl\drivers\peripheral\trigmux/cy_trigmux.c ****             }
 354:Generated_Source\PSoC6\pdl\drivers\peripheral\trigmux/cy_trigmux.c ****         }
 355:Generated_Source\PSoC6\pdl\drivers\peripheral\trigmux/cy_trigmux.c ****     }
 356:Generated_Source\PSoC6\pdl\drivers\peripheral\trigmux/cy_trigmux.c ****     else
 357:Generated_Source\PSoC6\pdl\drivers\peripheral\trigmux/cy_trigmux.c ****     {
 358:Generated_Source\PSoC6\pdl\drivers\peripheral\trigmux/cy_trigmux.c ****         /* Forcibly deactivate the trigger if it is in the active state. */
 359:Generated_Source\PSoC6\pdl\drivers\peripheral\trigmux/cy_trigmux.c ****         if (PERI_TR_CMD_ACTIVATE_Msk == (PERI_TR_CMD & PERI_TR_CMD_ACTIVATE_Msk))
 603              		.loc 1 359 0
 604 00a2 084B     		ldr	r3, .L51
 605 00a4 1B68     		ldr	r3, [r3]
 606 00a6 9A68     		ldr	r2, [r3, #8]
 607 00a8 B3F86830 		ldrh	r3, [r3, #104]
 608 00ac D158     		ldr	r1, [r2, r3]
 609 00ae 0029     		cmp	r1, #0
 610 00b0 06DA     		bge	.L49
 360:Generated_Source\PSoC6\pdl\drivers\peripheral\trigmux/cy_trigmux.c ****         {
 361:Generated_Source\PSoC6\pdl\drivers\peripheral\trigmux/cy_trigmux.c ****             PERI_TR_CMD = 0UL;
 611              		.loc 1 361 0
 612 00b2 0020     		movs	r0, #0
 613 00b4 D050     		str	r0, [r2, r3]
 614              	.LVL58:
 615 00b6 70BD     		pop	{r4, r5, r6, pc}
 616              	.LVL59:
 617              	.L47:
 320:Generated_Source\PSoC6\pdl\drivers\peripheral\trigmux/cy_trigmux.c **** 
 618              		.loc 1 320 0
 619 00b8 0448     		ldr	r0, .L51+8
 620 00ba 70BD     		pop	{r4, r5, r6, pc}
 621              	.LVL60:
 622              	.L48:
 623              	.LBB7:
 352:Generated_Source\PSoC6\pdl\drivers\peripheral\trigmux/cy_trigmux.c ****             }
 624              		.loc 1 352 0
 625 00bc 0448     		ldr	r0, .L51+12
 626 00be 70BD     		pop	{r4, r5, r6, pc}
 627              	.LVL61:
 628              	.L49:
 629              	.LBE7:
 320:Generated_Source\PSoC6\pdl\drivers\peripheral\trigmux/cy_trigmux.c **** 
 630              		.loc 1 320 0
 631 00c0 0248     		ldr	r0, .L51+8
 632              	.LVL62:
 362:Generated_Source\PSoC6\pdl\drivers\peripheral\trigmux/cy_trigmux.c **** 
 363:Generated_Source\PSoC6\pdl\drivers\peripheral\trigmux/cy_trigmux.c ****             retVal = CY_TRIGMUX_SUCCESS;
 364:Generated_Source\PSoC6\pdl\drivers\peripheral\trigmux/cy_trigmux.c ****         }
 365:Generated_Source\PSoC6\pdl\drivers\peripheral\trigmux/cy_trigmux.c ****     }
 366:Generated_Source\PSoC6\pdl\drivers\peripheral\trigmux/cy_trigmux.c **** 
 367:Generated_Source\PSoC6\pdl\drivers\peripheral\trigmux/cy_trigmux.c ****     return retVal;
 368:Generated_Source\PSoC6\pdl\drivers\peripheral\trigmux/cy_trigmux.c **** }
 633              		.loc 1 368 0
 634 00c2 70BD     		pop	{r4, r5, r6, pc}
 635              	.LVL63:
 636              	.L52:
 637              		.align	2
 638              	.L51:
 639 00c4 00000000 		.word	cy_device
ARM GAS  C:\Users\mattma1\AppData\Local\Temp\ccvjuF6r.s 			page 19


 640 00c8 00000000 		.word	.LC0
 641 00cc 0200CE00 		.word	13500418
 642 00d0 0100CE00 		.word	13500417
 643              		.cfi_endproc
 644              	.LFE136:
 645              		.size	Cy_TrigMux_SwTrigger, .-Cy_TrigMux_SwTrigger
 646              		.section	.rodata.str1.4,"aMS",%progbits,1
 647              		.align	2
 648              	.LC0:
 649 0000 47656E65 		.ascii	"Generated_Source\\PSoC6\\pdl\\drivers\\peripheral\\"
 649      72617465 
 649      645F536F 
 649      75726365 
 649      5C50536F 
 650 002e 74726967 		.ascii	"trigmux\\cy_trigmux.c\000"
 650      6D75785C 
 650      63795F74 
 650      7269676D 
 650      75782E63 
 651              		.text
 652              	.Letext0:
 653              		.file 2 "c:\\program files (x86)\\cypress\\psoc creator\\4.3\\psoc creator\\import\\gnu\\arm\\5.4.
 654              		.file 3 "c:\\program files (x86)\\cypress\\psoc creator\\4.3\\psoc creator\\import\\gnu\\arm\\5.4.
 655              		.file 4 "Generated_Source\\PSoC6\\pdl\\drivers/peripheral/device/cy_device.h"
 656              		.file 5 "Generated_Source\\PSoC6\\pdl\\devices/psoc6/include/psoc6_01_config.h"
 657              		.file 6 "Generated_Source\\PSoC6\\pdl\\drivers/peripheral/syslib/cy_syslib.h"
 658              		.file 7 "Generated_Source\\PSoC6\\pdl\\drivers\\peripheral\\trigmux\\cy_trigmux.h"
 659              		.file 8 "Generated_Source\\PSoC6\\pdl\\cmsis/include/core_cm4.h"
