ARM GAS  C:\Users\mattma1\AppData\Local\Temp\cc4IXJDv.s 			page 1


   1              		.syntax unified
   2              		.cpu cortex-m4
   3              		.eabi_attribute 27, 1
   4              		.fpu fpv4-sp-d16
   5              		.eabi_attribute 20, 1
   6              		.eabi_attribute 21, 1
   7              		.eabi_attribute 23, 3
   8              		.eabi_attribute 24, 1
   9              		.eabi_attribute 25, 1
  10              		.eabi_attribute 26, 1
  11              		.eabi_attribute 30, 1
  12              		.eabi_attribute 34, 1
  13              		.eabi_attribute 18, 4
  14              		.thumb
  15              		.syntax unified
  16              		.file	"cy_wdt.c"
  17              		.text
  18              	.Ltext0:
  19              		.cfi_sections	.debug_frame
  20              		.section	.text.Cy_WDT_Locked,"ax",%progbits
  21              		.align	2
  22              		.thumb
  23              		.thumb_func
  24              		.type	Cy_WDT_Locked, %function
  25              	Cy_WDT_Locked:
  26              	.LFB141:
  27              		.file 1 "Generated_Source\\PSoC6\\pdl\\drivers\\peripheral\\wdt\\cy_wdt.c"
   1:Generated_Source\PSoC6\pdl\drivers\peripheral\wdt/cy_wdt.c **** /***************************************************************************//**
   2:Generated_Source\PSoC6\pdl\drivers\peripheral\wdt/cy_wdt.c **** * \file cy_wdt.c
   3:Generated_Source\PSoC6\pdl\drivers\peripheral\wdt/cy_wdt.c **** * \version 1.10
   4:Generated_Source\PSoC6\pdl\drivers\peripheral\wdt/cy_wdt.c **** *
   5:Generated_Source\PSoC6\pdl\drivers\peripheral\wdt/cy_wdt.c **** *  This file provides the source code to the API for the WDT driver.
   6:Generated_Source\PSoC6\pdl\drivers\peripheral\wdt/cy_wdt.c **** *
   7:Generated_Source\PSoC6\pdl\drivers\peripheral\wdt/cy_wdt.c **** ********************************************************************************
   8:Generated_Source\PSoC6\pdl\drivers\peripheral\wdt/cy_wdt.c **** * \copyright
   9:Generated_Source\PSoC6\pdl\drivers\peripheral\wdt/cy_wdt.c **** * Copyright 2016-2018, Cypress Semiconductor Corporation. All rights reserved.
  10:Generated_Source\PSoC6\pdl\drivers\peripheral\wdt/cy_wdt.c **** * You may use this file only in accordance with the license, terms, conditions,
  11:Generated_Source\PSoC6\pdl\drivers\peripheral\wdt/cy_wdt.c **** * disclaimers, and limitations in the end user license agreement accompanying
  12:Generated_Source\PSoC6\pdl\drivers\peripheral\wdt/cy_wdt.c **** * the software package with which this file was provided.
  13:Generated_Source\PSoC6\pdl\drivers\peripheral\wdt/cy_wdt.c **** *******************************************************************************/
  14:Generated_Source\PSoC6\pdl\drivers\peripheral\wdt/cy_wdt.c **** 
  15:Generated_Source\PSoC6\pdl\drivers\peripheral\wdt/cy_wdt.c **** #include "cy_wdt.h"
  16:Generated_Source\PSoC6\pdl\drivers\peripheral\wdt/cy_wdt.c **** #include "cy_syslib.h"
  17:Generated_Source\PSoC6\pdl\drivers\peripheral\wdt/cy_wdt.c **** 
  18:Generated_Source\PSoC6\pdl\drivers\peripheral\wdt/cy_wdt.c **** #if defined(__cplusplus)
  19:Generated_Source\PSoC6\pdl\drivers\peripheral\wdt/cy_wdt.c **** extern "C" {
  20:Generated_Source\PSoC6\pdl\drivers\peripheral\wdt/cy_wdt.c **** #endif
  21:Generated_Source\PSoC6\pdl\drivers\peripheral\wdt/cy_wdt.c **** 
  22:Generated_Source\PSoC6\pdl\drivers\peripheral\wdt/cy_wdt.c **** static bool Cy_WDT_Locked(void);
  23:Generated_Source\PSoC6\pdl\drivers\peripheral\wdt/cy_wdt.c **** 
  24:Generated_Source\PSoC6\pdl\drivers\peripheral\wdt/cy_wdt.c **** 
  25:Generated_Source\PSoC6\pdl\drivers\peripheral\wdt/cy_wdt.c **** /*******************************************************************************
  26:Generated_Source\PSoC6\pdl\drivers\peripheral\wdt/cy_wdt.c **** * Function Name: Cy_WDT_Init
  27:Generated_Source\PSoC6\pdl\drivers\peripheral\wdt/cy_wdt.c **** ****************************************************************************//**
  28:Generated_Source\PSoC6\pdl\drivers\peripheral\wdt/cy_wdt.c **** *
  29:Generated_Source\PSoC6\pdl\drivers\peripheral\wdt/cy_wdt.c **** * Initializes the Watchdog timer to its default state.
  30:Generated_Source\PSoC6\pdl\drivers\peripheral\wdt/cy_wdt.c **** *
ARM GAS  C:\Users\mattma1\AppData\Local\Temp\cc4IXJDv.s 			page 2


  31:Generated_Source\PSoC6\pdl\drivers\peripheral\wdt/cy_wdt.c **** * The given default setting of the WDT:
  32:Generated_Source\PSoC6\pdl\drivers\peripheral\wdt/cy_wdt.c **** * The WDT is unlocked and disabled.
  33:Generated_Source\PSoC6\pdl\drivers\peripheral\wdt/cy_wdt.c **** * The WDT match value is 4096.
  34:Generated_Source\PSoC6\pdl\drivers\peripheral\wdt/cy_wdt.c **** * None of ignore bits are set: the whole WDT counter bits are checked against 
  35:Generated_Source\PSoC6\pdl\drivers\peripheral\wdt/cy_wdt.c **** * the match value.
  36:Generated_Source\PSoC6\pdl\drivers\peripheral\wdt/cy_wdt.c **** *
  37:Generated_Source\PSoC6\pdl\drivers\peripheral\wdt/cy_wdt.c **** * \sideeffect
  38:Generated_Source\PSoC6\pdl\drivers\peripheral\wdt/cy_wdt.c **** * This function clears the WDT interrupt.
  39:Generated_Source\PSoC6\pdl\drivers\peripheral\wdt/cy_wdt.c **** *
  40:Generated_Source\PSoC6\pdl\drivers\peripheral\wdt/cy_wdt.c **** *******************************************************************************/
  41:Generated_Source\PSoC6\pdl\drivers\peripheral\wdt/cy_wdt.c **** void Cy_WDT_Init(void)
  42:Generated_Source\PSoC6\pdl\drivers\peripheral\wdt/cy_wdt.c **** {
  43:Generated_Source\PSoC6\pdl\drivers\peripheral\wdt/cy_wdt.c ****     /* Unlock the WDT by two writes */
  44:Generated_Source\PSoC6\pdl\drivers\peripheral\wdt/cy_wdt.c ****     SRSS_WDT_CTL = ((SRSS_WDT_CTL & (uint32_t)(~SRSS_WDT_CTL_WDT_LOCK_Msk)) | CY_SRSS_WDT_LOCK_BIT0
  45:Generated_Source\PSoC6\pdl\drivers\peripheral\wdt/cy_wdt.c ****     SRSS_WDT_CTL |= CY_SRSS_WDT_LOCK_BIT1;
  46:Generated_Source\PSoC6\pdl\drivers\peripheral\wdt/cy_wdt.c **** 
  47:Generated_Source\PSoC6\pdl\drivers\peripheral\wdt/cy_wdt.c ****     Cy_WDT_Disable();
  48:Generated_Source\PSoC6\pdl\drivers\peripheral\wdt/cy_wdt.c ****     Cy_WDT_SetMatch(CY_SRSS_WDT_DEFAULT_MATCH_VALUE);
  49:Generated_Source\PSoC6\pdl\drivers\peripheral\wdt/cy_wdt.c ****     Cy_WDT_SetIgnoreBits(CY_SRSS_WDT_DEFAULT_IGNORE_BITS);
  50:Generated_Source\PSoC6\pdl\drivers\peripheral\wdt/cy_wdt.c ****     Cy_WDT_ClearInterrupt();
  51:Generated_Source\PSoC6\pdl\drivers\peripheral\wdt/cy_wdt.c **** }
  52:Generated_Source\PSoC6\pdl\drivers\peripheral\wdt/cy_wdt.c **** 
  53:Generated_Source\PSoC6\pdl\drivers\peripheral\wdt/cy_wdt.c **** 
  54:Generated_Source\PSoC6\pdl\drivers\peripheral\wdt/cy_wdt.c **** /*******************************************************************************
  55:Generated_Source\PSoC6\pdl\drivers\peripheral\wdt/cy_wdt.c **** * Function Name: Cy_WDT_Lock
  56:Generated_Source\PSoC6\pdl\drivers\peripheral\wdt/cy_wdt.c **** ****************************************************************************//**
  57:Generated_Source\PSoC6\pdl\drivers\peripheral\wdt/cy_wdt.c **** *
  58:Generated_Source\PSoC6\pdl\drivers\peripheral\wdt/cy_wdt.c **** * Locks out configuration changes to the Watchdog Timer register.
  59:Generated_Source\PSoC6\pdl\drivers\peripheral\wdt/cy_wdt.c **** *
  60:Generated_Source\PSoC6\pdl\drivers\peripheral\wdt/cy_wdt.c **** * After this function is called, the WDT configuration cannot be changed until 
  61:Generated_Source\PSoC6\pdl\drivers\peripheral\wdt/cy_wdt.c **** * Cy_WDT_Unlock() is called.
  62:Generated_Source\PSoC6\pdl\drivers\peripheral\wdt/cy_wdt.c **** *
  63:Generated_Source\PSoC6\pdl\drivers\peripheral\wdt/cy_wdt.c **** *******************************************************************************/
  64:Generated_Source\PSoC6\pdl\drivers\peripheral\wdt/cy_wdt.c **** void Cy_WDT_Lock(void)
  65:Generated_Source\PSoC6\pdl\drivers\peripheral\wdt/cy_wdt.c **** {
  66:Generated_Source\PSoC6\pdl\drivers\peripheral\wdt/cy_wdt.c ****     SRSS_WDT_CTL |= _VAL2FLD(SRSS_WDT_CTL_WDT_LOCK, CY_SRSS_WDT_LOCK_BITS);
  67:Generated_Source\PSoC6\pdl\drivers\peripheral\wdt/cy_wdt.c **** }
  68:Generated_Source\PSoC6\pdl\drivers\peripheral\wdt/cy_wdt.c **** 
  69:Generated_Source\PSoC6\pdl\drivers\peripheral\wdt/cy_wdt.c **** 
  70:Generated_Source\PSoC6\pdl\drivers\peripheral\wdt/cy_wdt.c **** /*******************************************************************************
  71:Generated_Source\PSoC6\pdl\drivers\peripheral\wdt/cy_wdt.c **** * Function Name: Cy_WDT_Locked
  72:Generated_Source\PSoC6\pdl\drivers\peripheral\wdt/cy_wdt.c **** ****************************************************************************//**
  73:Generated_Source\PSoC6\pdl\drivers\peripheral\wdt/cy_wdt.c **** * 
  74:Generated_Source\PSoC6\pdl\drivers\peripheral\wdt/cy_wdt.c **** * Internal function that returns the WDT lock state.
  75:Generated_Source\PSoC6\pdl\drivers\peripheral\wdt/cy_wdt.c **** *
  76:Generated_Source\PSoC6\pdl\drivers\peripheral\wdt/cy_wdt.c **** * \return
  77:Generated_Source\PSoC6\pdl\drivers\peripheral\wdt/cy_wdt.c **** * True - if WDT is locked.
  78:Generated_Source\PSoC6\pdl\drivers\peripheral\wdt/cy_wdt.c **** * False - if WDT is unlocked.
  79:Generated_Source\PSoC6\pdl\drivers\peripheral\wdt/cy_wdt.c **** * 
  80:Generated_Source\PSoC6\pdl\drivers\peripheral\wdt/cy_wdt.c **** *******************************************************************************/
  81:Generated_Source\PSoC6\pdl\drivers\peripheral\wdt/cy_wdt.c **** static bool Cy_WDT_Locked(void)
  82:Generated_Source\PSoC6\pdl\drivers\peripheral\wdt/cy_wdt.c **** {
  28              		.loc 1 82 0
  29              		.cfi_startproc
  30              		@ args = 0, pretend = 0, frame = 0
  31              		@ frame_needed = 0, uses_anonymous_args = 0
  32              		@ link register save eliminated.
ARM GAS  C:\Users\mattma1\AppData\Local\Temp\cc4IXJDv.s 			page 3


  83:Generated_Source\PSoC6\pdl\drivers\peripheral\wdt/cy_wdt.c ****     /* Prohibits writing to the WDT registers and other CLK_LF */
  84:Generated_Source\PSoC6\pdl\drivers\peripheral\wdt/cy_wdt.c ****     return (0u != _FLD2VAL(SRSS_WDT_CTL_WDT_LOCK, SRSS_WDT_CTL));
  33              		.loc 1 84 0
  34 0000 034B     		ldr	r3, .L2
  35 0002 D3F88031 		ldr	r3, [r3, #384]
  36 0006 9B0F     		lsrs	r3, r3, #30
  85:Generated_Source\PSoC6\pdl\drivers\peripheral\wdt/cy_wdt.c **** }
  37              		.loc 1 85 0
  38 0008 14BF     		ite	ne
  39 000a 0120     		movne	r0, #1
  40 000c 0020     		moveq	r0, #0
  41 000e 7047     		bx	lr
  42              	.L3:
  43              		.align	2
  44              	.L2:
  45 0010 00002640 		.word	1076232192
  46              		.cfi_endproc
  47              	.LFE141:
  48              		.size	Cy_WDT_Locked, .-Cy_WDT_Locked
  49              		.section	.text.Cy_WDT_Lock,"ax",%progbits
  50              		.align	2
  51              		.global	Cy_WDT_Lock
  52              		.thumb
  53              		.thumb_func
  54              		.type	Cy_WDT_Lock, %function
  55              	Cy_WDT_Lock:
  56              	.LFB140:
  65:Generated_Source\PSoC6\pdl\drivers\peripheral\wdt/cy_wdt.c ****     SRSS_WDT_CTL |= _VAL2FLD(SRSS_WDT_CTL_WDT_LOCK, CY_SRSS_WDT_LOCK_BITS);
  57              		.loc 1 65 0
  58              		.cfi_startproc
  59              		@ args = 0, pretend = 0, frame = 0
  60              		@ frame_needed = 0, uses_anonymous_args = 0
  61              		@ link register save eliminated.
  66:Generated_Source\PSoC6\pdl\drivers\peripheral\wdt/cy_wdt.c **** }
  62              		.loc 1 66 0
  63 0000 034A     		ldr	r2, .L5
  64 0002 D2F88031 		ldr	r3, [r2, #384]
  65 0006 43F04043 		orr	r3, r3, #-1073741824
  66 000a C2F88031 		str	r3, [r2, #384]
  67 000e 7047     		bx	lr
  68              	.L6:
  69              		.align	2
  70              	.L5:
  71 0010 00002640 		.word	1076232192
  72              		.cfi_endproc
  73              	.LFE140:
  74              		.size	Cy_WDT_Lock, .-Cy_WDT_Lock
  75              		.section	.text.Cy_WDT_Unlock,"ax",%progbits
  76              		.align	2
  77              		.global	Cy_WDT_Unlock
  78              		.thumb
  79              		.thumb_func
  80              		.type	Cy_WDT_Unlock, %function
  81              	Cy_WDT_Unlock:
  82              	.LFB142:
  86:Generated_Source\PSoC6\pdl\drivers\peripheral\wdt/cy_wdt.c **** 
  87:Generated_Source\PSoC6\pdl\drivers\peripheral\wdt/cy_wdt.c **** 
ARM GAS  C:\Users\mattma1\AppData\Local\Temp\cc4IXJDv.s 			page 4


  88:Generated_Source\PSoC6\pdl\drivers\peripheral\wdt/cy_wdt.c **** /*******************************************************************************
  89:Generated_Source\PSoC6\pdl\drivers\peripheral\wdt/cy_wdt.c **** * Function Name: Cy_WDT_Unlock
  90:Generated_Source\PSoC6\pdl\drivers\peripheral\wdt/cy_wdt.c **** ****************************************************************************//**
  91:Generated_Source\PSoC6\pdl\drivers\peripheral\wdt/cy_wdt.c **** *
  92:Generated_Source\PSoC6\pdl\drivers\peripheral\wdt/cy_wdt.c **** * Unlocks the Watchdog Timer configuration register.
  93:Generated_Source\PSoC6\pdl\drivers\peripheral\wdt/cy_wdt.c **** *
  94:Generated_Source\PSoC6\pdl\drivers\peripheral\wdt/cy_wdt.c **** *******************************************************************************/
  95:Generated_Source\PSoC6\pdl\drivers\peripheral\wdt/cy_wdt.c **** void Cy_WDT_Unlock(void)
  96:Generated_Source\PSoC6\pdl\drivers\peripheral\wdt/cy_wdt.c **** {
  83              		.loc 1 96 0
  84              		.cfi_startproc
  85              		@ args = 0, pretend = 0, frame = 0
  86              		@ frame_needed = 0, uses_anonymous_args = 0
  87              		@ link register save eliminated.
  97:Generated_Source\PSoC6\pdl\drivers\peripheral\wdt/cy_wdt.c ****     /* The WDT lock is to be removed by two writes */
  98:Generated_Source\PSoC6\pdl\drivers\peripheral\wdt/cy_wdt.c ****     SRSS_WDT_CTL = ((SRSS_WDT_CTL & (uint32_t)(~SRSS_WDT_CTL_WDT_LOCK_Msk)) | CY_SRSS_WDT_LOCK_BIT0
  88              		.loc 1 98 0
  89 0000 074A     		ldr	r2, .L8
  90 0002 D2F88031 		ldr	r3, [r2, #384]
  91 0006 23F04043 		bic	r3, r3, #-1073741824
  92 000a 43F08043 		orr	r3, r3, #1073741824
  93 000e C2F88031 		str	r3, [r2, #384]
  99:Generated_Source\PSoC6\pdl\drivers\peripheral\wdt/cy_wdt.c **** 
 100:Generated_Source\PSoC6\pdl\drivers\peripheral\wdt/cy_wdt.c ****     SRSS_WDT_CTL |= CY_SRSS_WDT_LOCK_BIT1;
  94              		.loc 1 100 0
  95 0012 D2F88031 		ldr	r3, [r2, #384]
  96 0016 43F00043 		orr	r3, r3, #-2147483648
  97 001a C2F88031 		str	r3, [r2, #384]
  98 001e 7047     		bx	lr
  99              	.L9:
 100              		.align	2
 101              	.L8:
 102 0020 00002640 		.word	1076232192
 103              		.cfi_endproc
 104              	.LFE142:
 105              		.size	Cy_WDT_Unlock, .-Cy_WDT_Unlock
 106              		.section	.text.Cy_WDT_SetMatch,"ax",%progbits
 107              		.align	2
 108              		.global	Cy_WDT_SetMatch
 109              		.thumb
 110              		.thumb_func
 111              		.type	Cy_WDT_SetMatch, %function
 112              	Cy_WDT_SetMatch:
 113              	.LFB143:
 101:Generated_Source\PSoC6\pdl\drivers\peripheral\wdt/cy_wdt.c **** }
 102:Generated_Source\PSoC6\pdl\drivers\peripheral\wdt/cy_wdt.c **** 
 103:Generated_Source\PSoC6\pdl\drivers\peripheral\wdt/cy_wdt.c **** 
 104:Generated_Source\PSoC6\pdl\drivers\peripheral\wdt/cy_wdt.c **** /*******************************************************************************
 105:Generated_Source\PSoC6\pdl\drivers\peripheral\wdt/cy_wdt.c **** * Function Name: Cy_WDT_SetMatch
 106:Generated_Source\PSoC6\pdl\drivers\peripheral\wdt/cy_wdt.c **** ****************************************************************************//**
 107:Generated_Source\PSoC6\pdl\drivers\peripheral\wdt/cy_wdt.c **** *
 108:Generated_Source\PSoC6\pdl\drivers\peripheral\wdt/cy_wdt.c **** * Configures the WDT counter match comparison value. The Watchdog timer 
 109:Generated_Source\PSoC6\pdl\drivers\peripheral\wdt/cy_wdt.c **** * should be unlocked before changing the match value. Call the Cy_WDT_Unlock() 
 110:Generated_Source\PSoC6\pdl\drivers\peripheral\wdt/cy_wdt.c **** * function to unlock the WDT.
 111:Generated_Source\PSoC6\pdl\drivers\peripheral\wdt/cy_wdt.c **** *
 112:Generated_Source\PSoC6\pdl\drivers\peripheral\wdt/cy_wdt.c **** * \param match
 113:Generated_Source\PSoC6\pdl\drivers\peripheral\wdt/cy_wdt.c **** * The valid valid range is [0-65535]. The value to be used to match 
ARM GAS  C:\Users\mattma1\AppData\Local\Temp\cc4IXJDv.s 			page 5


 114:Generated_Source\PSoC6\pdl\drivers\peripheral\wdt/cy_wdt.c **** * against the counter.
 115:Generated_Source\PSoC6\pdl\drivers\peripheral\wdt/cy_wdt.c **** *
 116:Generated_Source\PSoC6\pdl\drivers\peripheral\wdt/cy_wdt.c **** *******************************************************************************/
 117:Generated_Source\PSoC6\pdl\drivers\peripheral\wdt/cy_wdt.c **** void Cy_WDT_SetMatch(uint32_t match)
 118:Generated_Source\PSoC6\pdl\drivers\peripheral\wdt/cy_wdt.c **** {
 114              		.loc 1 118 0
 115              		.cfi_startproc
 116              		@ args = 0, pretend = 0, frame = 0
 117              		@ frame_needed = 0, uses_anonymous_args = 0
 118              	.LVL0:
 119 0000 10B5     		push	{r4, lr}
 120              		.cfi_def_cfa_offset 8
 121              		.cfi_offset 4, -8
 122              		.cfi_offset 14, -4
 123 0002 0446     		mov	r4, r0
 119:Generated_Source\PSoC6\pdl\drivers\peripheral\wdt/cy_wdt.c ****     CY_ASSERT_L2(CY_WDT_IS_MATCH_VAL_VALID(match));
 124              		.loc 1 119 0
 125 0004 B0F5803F 		cmp	r0, #65536
 126 0008 03D3     		bcc	.L11
 127              		.loc 1 119 0 is_stmt 0 discriminator 1
 128 000a 7721     		movs	r1, #119
 129 000c 0748     		ldr	r0, .L14
 130              	.LVL1:
 131 000e FFF7FEFF 		bl	Cy_SysLib_AssertFailed
 132              	.LVL2:
 133              	.L11:
 120:Generated_Source\PSoC6\pdl\drivers\peripheral\wdt/cy_wdt.c ****     
 121:Generated_Source\PSoC6\pdl\drivers\peripheral\wdt/cy_wdt.c ****     if (false == Cy_WDT_Locked())
 134              		.loc 1 121 0 is_stmt 1
 135 0012 FFF7FEFF 		bl	Cy_WDT_Locked
 136              	.LVL3:
 137 0016 40B9     		cbnz	r0, .L10
 122:Generated_Source\PSoC6\pdl\drivers\peripheral\wdt/cy_wdt.c ****     {
 123:Generated_Source\PSoC6\pdl\drivers\peripheral\wdt/cy_wdt.c ****         SRSS_WDT_MATCH = _CLR_SET_FLD32U((SRSS_WDT_MATCH), SRSS_WDT_MATCH_MATCH, match);
 138              		.loc 1 123 0
 139 0018 054A     		ldr	r2, .L14+4
 140 001a D2F88831 		ldr	r3, [r2, #392]
 141 001e 1B0C     		lsrs	r3, r3, #16
 142 0020 1B04     		lsls	r3, r3, #16
 143 0022 A4B2     		uxth	r4, r4
 144              	.LVL4:
 145 0024 1C43     		orrs	r4, r4, r3
 146 0026 C2F88841 		str	r4, [r2, #392]
 147              	.L10:
 148 002a 10BD     		pop	{r4, pc}
 149              	.L15:
 150              		.align	2
 151              	.L14:
 152 002c 00000000 		.word	.LC0
 153 0030 00002640 		.word	1076232192
 154              		.cfi_endproc
 155              	.LFE143:
 156              		.size	Cy_WDT_SetMatch, .-Cy_WDT_SetMatch
 157              		.section	.text.Cy_WDT_SetIgnoreBits,"ax",%progbits
 158              		.align	2
 159              		.global	Cy_WDT_SetIgnoreBits
 160              		.thumb
ARM GAS  C:\Users\mattma1\AppData\Local\Temp\cc4IXJDv.s 			page 6


 161              		.thumb_func
 162              		.type	Cy_WDT_SetIgnoreBits, %function
 163              	Cy_WDT_SetIgnoreBits:
 164              	.LFB144:
 124:Generated_Source\PSoC6\pdl\drivers\peripheral\wdt/cy_wdt.c ****     }
 125:Generated_Source\PSoC6\pdl\drivers\peripheral\wdt/cy_wdt.c **** }
 126:Generated_Source\PSoC6\pdl\drivers\peripheral\wdt/cy_wdt.c **** 
 127:Generated_Source\PSoC6\pdl\drivers\peripheral\wdt/cy_wdt.c **** 
 128:Generated_Source\PSoC6\pdl\drivers\peripheral\wdt/cy_wdt.c **** /*******************************************************************************
 129:Generated_Source\PSoC6\pdl\drivers\peripheral\wdt/cy_wdt.c **** * Function Name: Cy_WDT_SetIgnoreBits
 130:Generated_Source\PSoC6\pdl\drivers\peripheral\wdt/cy_wdt.c **** ****************************************************************************//**
 131:Generated_Source\PSoC6\pdl\drivers\peripheral\wdt/cy_wdt.c **** *
 132:Generated_Source\PSoC6\pdl\drivers\peripheral\wdt/cy_wdt.c **** * Configures the number of the most significant bits of the Watchdog timer that 
 133:Generated_Source\PSoC6\pdl\drivers\peripheral\wdt/cy_wdt.c **** * are not checked against the match. Unlock the Watchdog timer before 
 134:Generated_Source\PSoC6\pdl\drivers\peripheral\wdt/cy_wdt.c **** * ignoring the bits setting. Call the Cy_WDT_Unlock() API to unlock the WDT.
 135:Generated_Source\PSoC6\pdl\drivers\peripheral\wdt/cy_wdt.c **** *
 136:Generated_Source\PSoC6\pdl\drivers\peripheral\wdt/cy_wdt.c **** * \param bitsNum
 137:Generated_Source\PSoC6\pdl\drivers\peripheral\wdt/cy_wdt.c **** * The number of the most significant bits. The valid range is [0-15].
 138:Generated_Source\PSoC6\pdl\drivers\peripheral\wdt/cy_wdt.c **** * The bitsNum over 12 are considered as 12.
 139:Generated_Source\PSoC6\pdl\drivers\peripheral\wdt/cy_wdt.c **** *
 140:Generated_Source\PSoC6\pdl\drivers\peripheral\wdt/cy_wdt.c **** * \details The value of bitsNum controls the time-to-reset of the Watchdog timer
 141:Generated_Source\PSoC6\pdl\drivers\peripheral\wdt/cy_wdt.c **** * This happens after 3 successive matches.
 142:Generated_Source\PSoC6\pdl\drivers\peripheral\wdt/cy_wdt.c **** *
 143:Generated_Source\PSoC6\pdl\drivers\peripheral\wdt/cy_wdt.c **** * \warning This function changes the WDT interrupt period, therefore 
 144:Generated_Source\PSoC6\pdl\drivers\peripheral\wdt/cy_wdt.c **** * the device can go into an infinite WDT reset loop. This may happen
 145:Generated_Source\PSoC6\pdl\drivers\peripheral\wdt/cy_wdt.c **** * if a WDT reset occurs faster that a device start-up.
 146:Generated_Source\PSoC6\pdl\drivers\peripheral\wdt/cy_wdt.c **** *
 147:Generated_Source\PSoC6\pdl\drivers\peripheral\wdt/cy_wdt.c **** *******************************************************************************/
 148:Generated_Source\PSoC6\pdl\drivers\peripheral\wdt/cy_wdt.c **** void Cy_WDT_SetIgnoreBits(uint32_t bitsNum)
 149:Generated_Source\PSoC6\pdl\drivers\peripheral\wdt/cy_wdt.c **** {
 165              		.loc 1 149 0
 166              		.cfi_startproc
 167              		@ args = 0, pretend = 0, frame = 0
 168              		@ frame_needed = 0, uses_anonymous_args = 0
 169              	.LVL5:
 170 0000 10B5     		push	{r4, lr}
 171              		.cfi_def_cfa_offset 8
 172              		.cfi_offset 4, -8
 173              		.cfi_offset 14, -4
 174 0002 0446     		mov	r4, r0
 150:Generated_Source\PSoC6\pdl\drivers\peripheral\wdt/cy_wdt.c ****     CY_ASSERT_L2(CY_WDT_IS_IGNORE_BITS_VALID(bitsNum));
 175              		.loc 1 150 0
 176 0004 0F28     		cmp	r0, #15
 177 0006 03D9     		bls	.L17
 178              		.loc 1 150 0 is_stmt 0 discriminator 1
 179 0008 9621     		movs	r1, #150
 180 000a 0948     		ldr	r0, .L20
 181              	.LVL6:
 182 000c FFF7FEFF 		bl	Cy_SysLib_AssertFailed
 183              	.LVL7:
 184              	.L17:
 151:Generated_Source\PSoC6\pdl\drivers\peripheral\wdt/cy_wdt.c **** 
 152:Generated_Source\PSoC6\pdl\drivers\peripheral\wdt/cy_wdt.c ****     if (false == Cy_WDT_Locked())
 185              		.loc 1 152 0 is_stmt 1
 186 0010 FFF7FEFF 		bl	Cy_WDT_Locked
 187              	.LVL8:
 188 0014 50B9     		cbnz	r0, .L16
ARM GAS  C:\Users\mattma1\AppData\Local\Temp\cc4IXJDv.s 			page 7


 153:Generated_Source\PSoC6\pdl\drivers\peripheral\wdt/cy_wdt.c ****     {
 154:Generated_Source\PSoC6\pdl\drivers\peripheral\wdt/cy_wdt.c ****         SRSS_WDT_MATCH = _CLR_SET_FLD32U((SRSS_WDT_MATCH), SRSS_WDT_MATCH_IGNORE_BITS, bitsNum);
 189              		.loc 1 154 0
 190 0016 074A     		ldr	r2, .L20+4
 191 0018 D2F88831 		ldr	r3, [r2, #392]
 192 001c 23F47023 		bic	r3, r3, #983040
 193 0020 2404     		lsls	r4, r4, #16
 194              	.LVL9:
 195 0022 04F47024 		and	r4, r4, #983040
 196 0026 1C43     		orrs	r4, r4, r3
 197 0028 C2F88841 		str	r4, [r2, #392]
 198              	.L16:
 199 002c 10BD     		pop	{r4, pc}
 200              	.L21:
 201 002e 00BF     		.align	2
 202              	.L20:
 203 0030 00000000 		.word	.LC0
 204 0034 00002640 		.word	1076232192
 205              		.cfi_endproc
 206              	.LFE144:
 207              		.size	Cy_WDT_SetIgnoreBits, .-Cy_WDT_SetIgnoreBits
 208              		.section	.text.Cy_WDT_ClearInterrupt,"ax",%progbits
 209              		.align	2
 210              		.global	Cy_WDT_ClearInterrupt
 211              		.thumb
 212              		.thumb_func
 213              		.type	Cy_WDT_ClearInterrupt, %function
 214              	Cy_WDT_ClearInterrupt:
 215              	.LFB145:
 155:Generated_Source\PSoC6\pdl\drivers\peripheral\wdt/cy_wdt.c ****     }
 156:Generated_Source\PSoC6\pdl\drivers\peripheral\wdt/cy_wdt.c **** }
 157:Generated_Source\PSoC6\pdl\drivers\peripheral\wdt/cy_wdt.c **** 
 158:Generated_Source\PSoC6\pdl\drivers\peripheral\wdt/cy_wdt.c **** 
 159:Generated_Source\PSoC6\pdl\drivers\peripheral\wdt/cy_wdt.c **** /*******************************************************************************
 160:Generated_Source\PSoC6\pdl\drivers\peripheral\wdt/cy_wdt.c **** * Function Name: Cy_WDT_ClearInterrupt
 161:Generated_Source\PSoC6\pdl\drivers\peripheral\wdt/cy_wdt.c **** ****************************************************************************//**
 162:Generated_Source\PSoC6\pdl\drivers\peripheral\wdt/cy_wdt.c **** *
 163:Generated_Source\PSoC6\pdl\drivers\peripheral\wdt/cy_wdt.c **** * Clears the WDT match flag which is set every time the WDT counter reaches a 
 164:Generated_Source\PSoC6\pdl\drivers\peripheral\wdt/cy_wdt.c **** * WDT match value. Two unserviced interrupts lead to a system reset 
 165:Generated_Source\PSoC6\pdl\drivers\peripheral\wdt/cy_wdt.c **** * (i.e. at the third match).
 166:Generated_Source\PSoC6\pdl\drivers\peripheral\wdt/cy_wdt.c **** *
 167:Generated_Source\PSoC6\pdl\drivers\peripheral\wdt/cy_wdt.c **** *******************************************************************************/
 168:Generated_Source\PSoC6\pdl\drivers\peripheral\wdt/cy_wdt.c **** void Cy_WDT_ClearInterrupt(void)
 169:Generated_Source\PSoC6\pdl\drivers\peripheral\wdt/cy_wdt.c **** {
 216              		.loc 1 169 0
 217              		.cfi_startproc
 218              		@ args = 0, pretend = 0, frame = 0
 219              		@ frame_needed = 0, uses_anonymous_args = 0
 220              		@ link register save eliminated.
 170:Generated_Source\PSoC6\pdl\drivers\peripheral\wdt/cy_wdt.c ****     SRSS_SRSS_INTR = _VAL2FLD(SRSS_SRSS_INTR_WDT_MATCH, 1U);
 221              		.loc 1 170 0
 222 0000 034B     		ldr	r3, .L23
 223 0002 0122     		movs	r2, #1
 224 0004 C3F80027 		str	r2, [r3, #1792]
 171:Generated_Source\PSoC6\pdl\drivers\peripheral\wdt/cy_wdt.c **** 
 172:Generated_Source\PSoC6\pdl\drivers\peripheral\wdt/cy_wdt.c ****     /* Read the interrupt register to ensure that the initial clearing write has
 173:Generated_Source\PSoC6\pdl\drivers\peripheral\wdt/cy_wdt.c ****     * been flushed out to the hardware.
ARM GAS  C:\Users\mattma1\AppData\Local\Temp\cc4IXJDv.s 			page 8


 174:Generated_Source\PSoC6\pdl\drivers\peripheral\wdt/cy_wdt.c ****     */
 175:Generated_Source\PSoC6\pdl\drivers\peripheral\wdt/cy_wdt.c ****     (void) SRSS_SRSS_INTR;
 225              		.loc 1 175 0
 226 0008 D3F80037 		ldr	r3, [r3, #1792]
 227 000c 7047     		bx	lr
 228              	.L24:
 229 000e 00BF     		.align	2
 230              	.L23:
 231 0010 00002640 		.word	1076232192
 232              		.cfi_endproc
 233              	.LFE145:
 234              		.size	Cy_WDT_ClearInterrupt, .-Cy_WDT_ClearInterrupt
 235              		.section	.text.Cy_WDT_Init,"ax",%progbits
 236              		.align	2
 237              		.global	Cy_WDT_Init
 238              		.thumb
 239              		.thumb_func
 240              		.type	Cy_WDT_Init, %function
 241              	Cy_WDT_Init:
 242              	.LFB139:
  42:Generated_Source\PSoC6\pdl\drivers\peripheral\wdt/cy_wdt.c ****     /* Unlock the WDT by two writes */
 243              		.loc 1 42 0
 244              		.cfi_startproc
 245              		@ args = 0, pretend = 0, frame = 0
 246              		@ frame_needed = 0, uses_anonymous_args = 0
 247 0000 08B5     		push	{r3, lr}
 248              		.cfi_def_cfa_offset 8
 249              		.cfi_offset 3, -8
 250              		.cfi_offset 14, -4
  44:Generated_Source\PSoC6\pdl\drivers\peripheral\wdt/cy_wdt.c ****     SRSS_WDT_CTL |= CY_SRSS_WDT_LOCK_BIT1;
 251              		.loc 1 44 0
 252 0002 0F4B     		ldr	r3, .L27
 253 0004 D3F88021 		ldr	r2, [r3, #384]
 254 0008 22F04042 		bic	r2, r2, #-1073741824
 255 000c 42F08042 		orr	r2, r2, #1073741824
 256 0010 C3F88021 		str	r2, [r3, #384]
  45:Generated_Source\PSoC6\pdl\drivers\peripheral\wdt/cy_wdt.c **** 
 257              		.loc 1 45 0
 258 0014 D3F88021 		ldr	r2, [r3, #384]
 259 0018 42F00042 		orr	r2, r2, #-2147483648
 260 001c C3F88021 		str	r2, [r3, #384]
 261              	.LBB4:
 262              	.LBB5:
 263              		.file 2 "Generated_Source\\PSoC6\\pdl\\drivers\\peripheral\\wdt\\cy_wdt.h"
   1:Generated_Source\PSoC6\pdl\drivers\peripheral\wdt/cy_wdt.h **** /***************************************************************************//**
   2:Generated_Source\PSoC6\pdl\drivers\peripheral\wdt/cy_wdt.h **** * \file cy_wdt.h
   3:Generated_Source\PSoC6\pdl\drivers\peripheral\wdt/cy_wdt.h **** * \version 1.10
   4:Generated_Source\PSoC6\pdl\drivers\peripheral\wdt/cy_wdt.h **** *
   5:Generated_Source\PSoC6\pdl\drivers\peripheral\wdt/cy_wdt.h **** *  This file provides constants and parameter values for the WDT driver.
   6:Generated_Source\PSoC6\pdl\drivers\peripheral\wdt/cy_wdt.h **** *
   7:Generated_Source\PSoC6\pdl\drivers\peripheral\wdt/cy_wdt.h **** ********************************************************************************
   8:Generated_Source\PSoC6\pdl\drivers\peripheral\wdt/cy_wdt.h **** * \copyright
   9:Generated_Source\PSoC6\pdl\drivers\peripheral\wdt/cy_wdt.h **** * Copyright 2016-2018, Cypress Semiconductor Corporation.  All rights reserved.
  10:Generated_Source\PSoC6\pdl\drivers\peripheral\wdt/cy_wdt.h **** * You may use this file only in accordance with the license, terms, conditions,
  11:Generated_Source\PSoC6\pdl\drivers\peripheral\wdt/cy_wdt.h **** * disclaimers, and limitations in the end user license agreement accompanying
  12:Generated_Source\PSoC6\pdl\drivers\peripheral\wdt/cy_wdt.h **** * the software package with which this file was provided.
  13:Generated_Source\PSoC6\pdl\drivers\peripheral\wdt/cy_wdt.h **** *
ARM GAS  C:\Users\mattma1\AppData\Local\Temp\cc4IXJDv.s 			page 9


  14:Generated_Source\PSoC6\pdl\drivers\peripheral\wdt/cy_wdt.h **** *******************************************************************************/
  15:Generated_Source\PSoC6\pdl\drivers\peripheral\wdt/cy_wdt.h **** 
  16:Generated_Source\PSoC6\pdl\drivers\peripheral\wdt/cy_wdt.h **** /**
  17:Generated_Source\PSoC6\pdl\drivers\peripheral\wdt/cy_wdt.h **** * \addtogroup group_wdt
  18:Generated_Source\PSoC6\pdl\drivers\peripheral\wdt/cy_wdt.h **** * \{
  19:Generated_Source\PSoC6\pdl\drivers\peripheral\wdt/cy_wdt.h **** *
  20:Generated_Source\PSoC6\pdl\drivers\peripheral\wdt/cy_wdt.h **** * The Watchdog timer (WDT) has a 16-bit free-running up-counter. 
  21:Generated_Source\PSoC6\pdl\drivers\peripheral\wdt/cy_wdt.h **** *
  22:Generated_Source\PSoC6\pdl\drivers\peripheral\wdt/cy_wdt.h **** * The functions and other declarations used in this driver are in cy_wdt.h. 
  23:Generated_Source\PSoC6\pdl\drivers\peripheral\wdt/cy_wdt.h **** * You can include cy_pdl.h (ModusToolbox only) to get access to all functions 
  24:Generated_Source\PSoC6\pdl\drivers\peripheral\wdt/cy_wdt.h **** * and declarations in the PDL. 
  25:Generated_Source\PSoC6\pdl\drivers\peripheral\wdt/cy_wdt.h **** *
  26:Generated_Source\PSoC6\pdl\drivers\peripheral\wdt/cy_wdt.h **** * The WDT can issue counter match interrupts, and a device reset if its interrupts are not 
  27:Generated_Source\PSoC6\pdl\drivers\peripheral\wdt/cy_wdt.h **** * handled. Use the Watchdog timer for two main purposes:
  28:Generated_Source\PSoC6\pdl\drivers\peripheral\wdt/cy_wdt.h **** *
  29:Generated_Source\PSoC6\pdl\drivers\peripheral\wdt/cy_wdt.h **** * The <b> First use case </b> is recovering from a CPU or firmware failure.
  30:Generated_Source\PSoC6\pdl\drivers\peripheral\wdt/cy_wdt.h **** * A timeout period is set up in the Watchdog timer, and if a timeout occurs, the
  31:Generated_Source\PSoC6\pdl\drivers\peripheral\wdt/cy_wdt.h **** * device is reset (WRES). <br>
  32:Generated_Source\PSoC6\pdl\drivers\peripheral\wdt/cy_wdt.h **** * The <b>Second use case</b> is to generate periodic interrupts.
  33:Generated_Source\PSoC6\pdl\drivers\peripheral\wdt/cy_wdt.h **** * It is strongly recommended not to use the WDT for periodic interrupt
  34:Generated_Source\PSoC6\pdl\drivers\peripheral\wdt/cy_wdt.h **** * generation. However, if absolutely required, see information below.
  35:Generated_Source\PSoC6\pdl\drivers\peripheral\wdt/cy_wdt.h **** *
  36:Generated_Source\PSoC6\pdl\drivers\peripheral\wdt/cy_wdt.h **** * A "reset cause" register exists, and the firmware should check this register 
  37:Generated_Source\PSoC6\pdl\drivers\peripheral\wdt/cy_wdt.h **** * at a start-up. An appropriate action can be taken if a WRES reset is detected.
  38:Generated_Source\PSoC6\pdl\drivers\peripheral\wdt/cy_wdt.h **** *
  39:Generated_Source\PSoC6\pdl\drivers\peripheral\wdt/cy_wdt.h **** * The user's firmware periodically resets the timeout period (clears or "feeds" 
  40:Generated_Source\PSoC6\pdl\drivers\peripheral\wdt/cy_wdt.h **** * the watchdog) before a timeout occurs. If the firmware fails to do so, that is
  41:Generated_Source\PSoC6\pdl\drivers\peripheral\wdt/cy_wdt.h **** * considered to be a CPU crash or a firmware failure, and the reason for a 
  42:Generated_Source\PSoC6\pdl\drivers\peripheral\wdt/cy_wdt.h **** * device reset.
  43:Generated_Source\PSoC6\pdl\drivers\peripheral\wdt/cy_wdt.h **** * The WDT can generate an interrupt instead of a device reset. The Interrupt 
  44:Generated_Source\PSoC6\pdl\drivers\peripheral\wdt/cy_wdt.h **** * Service Routine (ISR) can handle the interrupt either as a periodic interrupt,
  45:Generated_Source\PSoC6\pdl\drivers\peripheral\wdt/cy_wdt.h **** * or as an early indication of a firmware failure and respond accordingly.
  46:Generated_Source\PSoC6\pdl\drivers\peripheral\wdt/cy_wdt.h **** * However, it is not recommended to use the WDT for periodic interrupt 
  47:Generated_Source\PSoC6\pdl\drivers\peripheral\wdt/cy_wdt.h **** * generation. The Multi-counter Watchdog Timers (MCWDT) can be used to generate 
  48:Generated_Source\PSoC6\pdl\drivers\peripheral\wdt/cy_wdt.h **** * periodic interrupts if such are presented in the device.
  49:Generated_Source\PSoC6\pdl\drivers\peripheral\wdt/cy_wdt.h **** *
  50:Generated_Source\PSoC6\pdl\drivers\peripheral\wdt/cy_wdt.h **** * <b> Functional Description </b>
  51:Generated_Source\PSoC6\pdl\drivers\peripheral\wdt/cy_wdt.h **** *
  52:Generated_Source\PSoC6\pdl\drivers\peripheral\wdt/cy_wdt.h **** * The WDT generates an interrupt when the count value in the counter equals the 
  53:Generated_Source\PSoC6\pdl\drivers\peripheral\wdt/cy_wdt.h **** * configured match value.
  54:Generated_Source\PSoC6\pdl\drivers\peripheral\wdt/cy_wdt.h **** *
  55:Generated_Source\PSoC6\pdl\drivers\peripheral\wdt/cy_wdt.h **** * Note that the counter is not reset on a match. In such case the WDT
  56:Generated_Source\PSoC6\pdl\drivers\peripheral\wdt/cy_wdt.h **** * reset period is:
  57:Generated_Source\PSoC6\pdl\drivers\peripheral\wdt/cy_wdt.h **** * WDT_Reset_Period = ILO_Period * (2*2^(16-IgnoreBits) + MatchValue);
  58:Generated_Source\PSoC6\pdl\drivers\peripheral\wdt/cy_wdt.h **** * When the counter reaches a match value, it generates an interrupt and then 
  59:Generated_Source\PSoC6\pdl\drivers\peripheral\wdt/cy_wdt.h **** * keeps counting up until it overflows and rolls back to zero and reaches the 
  60:Generated_Source\PSoC6\pdl\drivers\peripheral\wdt/cy_wdt.h **** * match value again, at which point another interrupt is generated.
  61:Generated_Source\PSoC6\pdl\drivers\peripheral\wdt/cy_wdt.h **** *
  62:Generated_Source\PSoC6\pdl\drivers\peripheral\wdt/cy_wdt.h **** * To use a WDT to generate a periodic interrupt, the match value should be 
  63:Generated_Source\PSoC6\pdl\drivers\peripheral\wdt/cy_wdt.h **** * incremented in the ISR. As a result, the next WDT interrupt is generated when 
  64:Generated_Source\PSoC6\pdl\drivers\peripheral\wdt/cy_wdt.h **** * the counter reaches a new match value.
  65:Generated_Source\PSoC6\pdl\drivers\peripheral\wdt/cy_wdt.h **** *
  66:Generated_Source\PSoC6\pdl\drivers\peripheral\wdt/cy_wdt.h **** * You can also reduce the entire WDT counter period by 
  67:Generated_Source\PSoC6\pdl\drivers\peripheral\wdt/cy_wdt.h **** * specifying the number of most significant bits that are ignored in the WDT 
  68:Generated_Source\PSoC6\pdl\drivers\peripheral\wdt/cy_wdt.h **** * counter. For example, if the Cy_WDT_SetIgnoreBits() function is called with
  69:Generated_Source\PSoC6\pdl\drivers\peripheral\wdt/cy_wdt.h **** * parameter 3, the WDT counter becomes a 13-bit free-running up-counter.
  70:Generated_Source\PSoC6\pdl\drivers\peripheral\wdt/cy_wdt.h **** *
ARM GAS  C:\Users\mattma1\AppData\Local\Temp\cc4IXJDv.s 			page 10


  71:Generated_Source\PSoC6\pdl\drivers\peripheral\wdt/cy_wdt.h **** * <b> Power Modes </b> 
  72:Generated_Source\PSoC6\pdl\drivers\peripheral\wdt/cy_wdt.h **** *
  73:Generated_Source\PSoC6\pdl\drivers\peripheral\wdt/cy_wdt.h **** * WDT can operate in all possible low power modes. 
  74:Generated_Source\PSoC6\pdl\drivers\peripheral\wdt/cy_wdt.h **** * Operation during Hibernate mode is possible because the logic and 
  75:Generated_Source\PSoC6\pdl\drivers\peripheral\wdt/cy_wdt.h **** * high-voltage internal low oscillator (ILO) are supplied by the external 
  76:Generated_Source\PSoC6\pdl\drivers\peripheral\wdt/cy_wdt.h **** * high-voltage supply (Vddd). The WDT can be configured to wake the device from 
  77:Generated_Source\PSoC6\pdl\drivers\peripheral\wdt/cy_wdt.h **** * Hibernate mode.
  78:Generated_Source\PSoC6\pdl\drivers\peripheral\wdt/cy_wdt.h **** *
  79:Generated_Source\PSoC6\pdl\drivers\peripheral\wdt/cy_wdt.h **** * In CPU Active mode, an interrupt request from the WDT is sent to the 
  80:Generated_Source\PSoC6\pdl\drivers\peripheral\wdt/cy_wdt.h **** * CPU. In CPU Sleep, CPU Deep Sleep mode, the CPU subsystem 
  81:Generated_Source\PSoC6\pdl\drivers\peripheral\wdt/cy_wdt.h **** * is powered down, so the interrupt request from the WDT is sent directly to the
  82:Generated_Source\PSoC6\pdl\drivers\peripheral\wdt/cy_wdt.h **** * WakeUp Interrupt Controller (WIC) which will then wake up the CPU. The 
  83:Generated_Source\PSoC6\pdl\drivers\peripheral\wdt/cy_wdt.h **** * CPU then acknowledges the interrupt request and executes the ISR.
  84:Generated_Source\PSoC6\pdl\drivers\peripheral\wdt/cy_wdt.h **** *
  85:Generated_Source\PSoC6\pdl\drivers\peripheral\wdt/cy_wdt.h **** * <b> Clock Source </b>
  86:Generated_Source\PSoC6\pdl\drivers\peripheral\wdt/cy_wdt.h **** *
  87:Generated_Source\PSoC6\pdl\drivers\peripheral\wdt/cy_wdt.h **** * The WDT is clocked by the ILO. The WDT must be disabled before disabling 
  88:Generated_Source\PSoC6\pdl\drivers\peripheral\wdt/cy_wdt.h **** * the ILO. According to the device datasheet, the ILO accuracy is +/-30% over 
  89:Generated_Source\PSoC6\pdl\drivers\peripheral\wdt/cy_wdt.h **** * voltage and temperature. This means that the timeout period may vary by 30% 
  90:Generated_Source\PSoC6\pdl\drivers\peripheral\wdt/cy_wdt.h **** * from the configured value. Appropriate margins should be added while 
  91:Generated_Source\PSoC6\pdl\drivers\peripheral\wdt/cy_wdt.h **** * configuring WDT intervals to make sure that unwanted device resets do not 
  92:Generated_Source\PSoC6\pdl\drivers\peripheral\wdt/cy_wdt.h **** * occur on some devices.
  93:Generated_Source\PSoC6\pdl\drivers\peripheral\wdt/cy_wdt.h **** * 
  94:Generated_Source\PSoC6\pdl\drivers\peripheral\wdt/cy_wdt.h **** * Refer to the device datasheet for more information on the oscillator accuracy.
  95:Generated_Source\PSoC6\pdl\drivers\peripheral\wdt/cy_wdt.h **** *
  96:Generated_Source\PSoC6\pdl\drivers\peripheral\wdt/cy_wdt.h **** * <b> Register Locking </b>
  97:Generated_Source\PSoC6\pdl\drivers\peripheral\wdt/cy_wdt.h **** *
  98:Generated_Source\PSoC6\pdl\drivers\peripheral\wdt/cy_wdt.h **** * You can prevent accidental corruption of the WDT configuration by calling 
  99:Generated_Source\PSoC6\pdl\drivers\peripheral\wdt/cy_wdt.h **** * the Cy_WDT_Lock() function. When the WDT is locked, any writing to the WDT_*, 
 100:Generated_Source\PSoC6\pdl\drivers\peripheral\wdt/cy_wdt.h **** * CLK_ILO_CONFIG, CLK_SELECT.LFCLK_SEL, and CLK_TRIM_ILO_CTL registers is 
 101:Generated_Source\PSoC6\pdl\drivers\peripheral\wdt/cy_wdt.h **** * ignored.
 102:Generated_Source\PSoC6\pdl\drivers\peripheral\wdt/cy_wdt.h **** * Call the Cy_WDT_Unlock() function to allow WDT registers modification.
 103:Generated_Source\PSoC6\pdl\drivers\peripheral\wdt/cy_wdt.h **** *
 104:Generated_Source\PSoC6\pdl\drivers\peripheral\wdt/cy_wdt.h **** * <b> Clearing WDT </b>
 105:Generated_Source\PSoC6\pdl\drivers\peripheral\wdt/cy_wdt.h **** *
 106:Generated_Source\PSoC6\pdl\drivers\peripheral\wdt/cy_wdt.h **** * The ILO clock is asynchronous to the SysClk. Therefore it generally 
 107:Generated_Source\PSoC6\pdl\drivers\peripheral\wdt/cy_wdt.h **** * takes three ILO cycles for WDT register changes to come into effect. It is 
 108:Generated_Source\PSoC6\pdl\drivers\peripheral\wdt/cy_wdt.h **** * important to remember that a WDT should be cleared at least four cycles 
 109:Generated_Source\PSoC6\pdl\drivers\peripheral\wdt/cy_wdt.h **** * (3 + 1 for sure) before a timeout occurs, especially when small 
 110:Generated_Source\PSoC6\pdl\drivers\peripheral\wdt/cy_wdt.h **** * match values / low-toggle bit numbers are used.
 111:Generated_Source\PSoC6\pdl\drivers\peripheral\wdt/cy_wdt.h **** *
 112:Generated_Source\PSoC6\pdl\drivers\peripheral\wdt/cy_wdt.h **** * \warning It may happen that a WDT reset can be generated 
 113:Generated_Source\PSoC6\pdl\drivers\peripheral\wdt/cy_wdt.h **** * faster than a device start-up. To prevent this, calculate the 
 114:Generated_Source\PSoC6\pdl\drivers\peripheral\wdt/cy_wdt.h **** * start-up time and WDT reset time. The WDT reset time should be always greater
 115:Generated_Source\PSoC6\pdl\drivers\peripheral\wdt/cy_wdt.h **** * than device start-up time.
 116:Generated_Source\PSoC6\pdl\drivers\peripheral\wdt/cy_wdt.h **** *
 117:Generated_Source\PSoC6\pdl\drivers\peripheral\wdt/cy_wdt.h **** * <b> Reset Detection </b> 
 118:Generated_Source\PSoC6\pdl\drivers\peripheral\wdt/cy_wdt.h **** *
 119:Generated_Source\PSoC6\pdl\drivers\peripheral\wdt/cy_wdt.h **** * Use the Cy_SysLib_GetResetReason() function to detect whether the WDT has 
 120:Generated_Source\PSoC6\pdl\drivers\peripheral\wdt/cy_wdt.h **** * triggered a device reset.
 121:Generated_Source\PSoC6\pdl\drivers\peripheral\wdt/cy_wdt.h **** *
 122:Generated_Source\PSoC6\pdl\drivers\peripheral\wdt/cy_wdt.h **** * <b> Interrupt Configuration </b>
 123:Generated_Source\PSoC6\pdl\drivers\peripheral\wdt/cy_wdt.h **** *
 124:Generated_Source\PSoC6\pdl\drivers\peripheral\wdt/cy_wdt.h **** * If the WDT is configured to generate an interrupt, pending 
 125:Generated_Source\PSoC6\pdl\drivers\peripheral\wdt/cy_wdt.h **** * interrupts must be cleared within the ISR (otherwise, the interrupt will be 
 126:Generated_Source\PSoC6\pdl\drivers\peripheral\wdt/cy_wdt.h **** * generated continuously).
 127:Generated_Source\PSoC6\pdl\drivers\peripheral\wdt/cy_wdt.h **** * A pending interrupt to the WDT block must be cleared by calling the 
ARM GAS  C:\Users\mattma1\AppData\Local\Temp\cc4IXJDv.s 			page 11


 128:Generated_Source\PSoC6\pdl\drivers\peripheral\wdt/cy_wdt.h **** * Cy_WDT_ClearInterrupt() function. The call to the function will clear the 
 129:Generated_Source\PSoC6\pdl\drivers\peripheral\wdt/cy_wdt.h **** * unhandled WDT interrupt counter.
 130:Generated_Source\PSoC6\pdl\drivers\peripheral\wdt/cy_wdt.h **** *
 131:Generated_Source\PSoC6\pdl\drivers\peripheral\wdt/cy_wdt.h **** * Use the WDT ISR as a timer to trigger certain actions 
 132:Generated_Source\PSoC6\pdl\drivers\peripheral\wdt/cy_wdt.h **** * and to change a next WDT match value.
 133:Generated_Source\PSoC6\pdl\drivers\peripheral\wdt/cy_wdt.h **** *
 134:Generated_Source\PSoC6\pdl\drivers\peripheral\wdt/cy_wdt.h **** * Ensure that the interrupts from the WDT are passed to the CPU to avoid 
 135:Generated_Source\PSoC6\pdl\drivers\peripheral\wdt/cy_wdt.h **** * unregistered interrupts. Unregistered WDT interrupts result in a continuous 
 136:Generated_Source\PSoC6\pdl\drivers\peripheral\wdt/cy_wdt.h **** * device reset. To avoid this, call Cy_WDT_UnmaskInterrupt().
 137:Generated_Source\PSoC6\pdl\drivers\peripheral\wdt/cy_wdt.h **** * After that, call the WDT API functions for interrupt
 138:Generated_Source\PSoC6\pdl\drivers\peripheral\wdt/cy_wdt.h **** * handling/clearing.
 139:Generated_Source\PSoC6\pdl\drivers\peripheral\wdt/cy_wdt.h **** *
 140:Generated_Source\PSoC6\pdl\drivers\peripheral\wdt/cy_wdt.h **** * \section group_wdt_configuration Configuration Considerations
 141:Generated_Source\PSoC6\pdl\drivers\peripheral\wdt/cy_wdt.h **** *
 142:Generated_Source\PSoC6\pdl\drivers\peripheral\wdt/cy_wdt.h **** * To start the WDT, make sure that ILO is enabled.
 143:Generated_Source\PSoC6\pdl\drivers\peripheral\wdt/cy_wdt.h **** * After the ILO is enabled, ensure that the WDT is unlocked and disabled by 
 144:Generated_Source\PSoC6\pdl\drivers\peripheral\wdt/cy_wdt.h **** * calling the Cy_WDT_Unlock() and Cy_WDT_Disable() functions. Set the WDT match 
 145:Generated_Source\PSoC6\pdl\drivers\peripheral\wdt/cy_wdt.h **** * value by calling Cy_WDT_SetMatch() with the required match value. If needed, 
 146:Generated_Source\PSoC6\pdl\drivers\peripheral\wdt/cy_wdt.h **** * set the ignore bits for reducing the WDT counter period by calling 
 147:Generated_Source\PSoC6\pdl\drivers\peripheral\wdt/cy_wdt.h **** * Cy_WDT_SetIgnoreBits() function. After the WDT configuration is set, 
 148:Generated_Source\PSoC6\pdl\drivers\peripheral\wdt/cy_wdt.h **** * call Cy_WDT_Enable().
 149:Generated_Source\PSoC6\pdl\drivers\peripheral\wdt/cy_wdt.h **** *
 150:Generated_Source\PSoC6\pdl\drivers\peripheral\wdt/cy_wdt.h **** * \note Enable a WDT if the power supply can produce
 151:Generated_Source\PSoC6\pdl\drivers\peripheral\wdt/cy_wdt.h **** * sudden brownout events that may compromise the CPU functionality. This 
 152:Generated_Source\PSoC6\pdl\drivers\peripheral\wdt/cy_wdt.h **** * ensures that the system can recover after a brownout.
 153:Generated_Source\PSoC6\pdl\drivers\peripheral\wdt/cy_wdt.h **** *
 154:Generated_Source\PSoC6\pdl\drivers\peripheral\wdt/cy_wdt.h **** * When the WDT is used to protect against system crashes, the 
 155:Generated_Source\PSoC6\pdl\drivers\peripheral\wdt/cy_wdt.h **** * WDT interrupt should be cleared by a portion of the code that is not directly 
 156:Generated_Source\PSoC6\pdl\drivers\peripheral\wdt/cy_wdt.h **** * associated with the WDT interrupt.
 157:Generated_Source\PSoC6\pdl\drivers\peripheral\wdt/cy_wdt.h **** * Otherwise, it is possible that the main firmware loop has crashed or is in an 
 158:Generated_Source\PSoC6\pdl\drivers\peripheral\wdt/cy_wdt.h **** * endless loop, but the WDT interrupt vector continues to operate and service 
 159:Generated_Source\PSoC6\pdl\drivers\peripheral\wdt/cy_wdt.h **** * the WDT. The user should:
 160:Generated_Source\PSoC6\pdl\drivers\peripheral\wdt/cy_wdt.h **** * * Feed the watchdog by clearing the interrupt bit regularly in the main body 
 161:Generated_Source\PSoC6\pdl\drivers\peripheral\wdt/cy_wdt.h **** * of the firmware code.
 162:Generated_Source\PSoC6\pdl\drivers\peripheral\wdt/cy_wdt.h **** *
 163:Generated_Source\PSoC6\pdl\drivers\peripheral\wdt/cy_wdt.h **** * * Guarantee that the interrupt is cleared at least once every WDT period.
 164:Generated_Source\PSoC6\pdl\drivers\peripheral\wdt/cy_wdt.h **** *
 165:Generated_Source\PSoC6\pdl\drivers\peripheral\wdt/cy_wdt.h **** * * Use the WDT ISR only as a timer to trigger certain actions and to change the
 166:Generated_Source\PSoC6\pdl\drivers\peripheral\wdt/cy_wdt.h **** * next match value.
 167:Generated_Source\PSoC6\pdl\drivers\peripheral\wdt/cy_wdt.h **** *
 168:Generated_Source\PSoC6\pdl\drivers\peripheral\wdt/cy_wdt.h **** * \section group_wdt_section_more_information More Information
 169:Generated_Source\PSoC6\pdl\drivers\peripheral\wdt/cy_wdt.h **** *
 170:Generated_Source\PSoC6\pdl\drivers\peripheral\wdt/cy_wdt.h **** * For more information on the WDT peripheral, refer to the technical reference
 171:Generated_Source\PSoC6\pdl\drivers\peripheral\wdt/cy_wdt.h **** * manual (TRM).
 172:Generated_Source\PSoC6\pdl\drivers\peripheral\wdt/cy_wdt.h **** *
 173:Generated_Source\PSoC6\pdl\drivers\peripheral\wdt/cy_wdt.h **** * \section group_wdt_MISRA MISRA-C Compliance
 174:Generated_Source\PSoC6\pdl\drivers\peripheral\wdt/cy_wdt.h **** * The WDT driver does not have any specific deviations.
 175:Generated_Source\PSoC6\pdl\drivers\peripheral\wdt/cy_wdt.h **** *
 176:Generated_Source\PSoC6\pdl\drivers\peripheral\wdt/cy_wdt.h **** * \section group_wdt_changelog Changelog
 177:Generated_Source\PSoC6\pdl\drivers\peripheral\wdt/cy_wdt.h **** * <table class="doxtable">
 178:Generated_Source\PSoC6\pdl\drivers\peripheral\wdt/cy_wdt.h **** *   <tr><th>Version</th><th>Changes</th><th>Reason for Change</th></tr>
 179:Generated_Source\PSoC6\pdl\drivers\peripheral\wdt/cy_wdt.h **** *   <tr>
 180:Generated_Source\PSoC6\pdl\drivers\peripheral\wdt/cy_wdt.h **** *     <td rowspan="4">1.10</td>
 181:Generated_Source\PSoC6\pdl\drivers\peripheral\wdt/cy_wdt.h **** *     <td>Flattened the organization of the driver source code into the single 
 182:Generated_Source\PSoC6\pdl\drivers\peripheral\wdt/cy_wdt.h **** *         source directory and the single include directory.
 183:Generated_Source\PSoC6\pdl\drivers\peripheral\wdt/cy_wdt.h **** *     </td>
 184:Generated_Source\PSoC6\pdl\drivers\peripheral\wdt/cy_wdt.h **** *     <td>Driver library directory-structure simplification.</td>
ARM GAS  C:\Users\mattma1\AppData\Local\Temp\cc4IXJDv.s 			page 12


 185:Generated_Source\PSoC6\pdl\drivers\peripheral\wdt/cy_wdt.h **** *   </tr>
 186:Generated_Source\PSoC6\pdl\drivers\peripheral\wdt/cy_wdt.h **** *   <tr>
 187:Generated_Source\PSoC6\pdl\drivers\peripheral\wdt/cy_wdt.h **** *     <td> Removed critical section usage in the following functions:
 188:Generated_Source\PSoC6\pdl\drivers\peripheral\wdt/cy_wdt.h **** *           - \ref Cy_WDT_Init()
 189:Generated_Source\PSoC6\pdl\drivers\peripheral\wdt/cy_wdt.h **** *           - \ref Cy_WDT_Lock()
 190:Generated_Source\PSoC6\pdl\drivers\peripheral\wdt/cy_wdt.h **** *           - \ref Cy_WDT_Unlock()
 191:Generated_Source\PSoC6\pdl\drivers\peripheral\wdt/cy_wdt.h **** *     </td>
 192:Generated_Source\PSoC6\pdl\drivers\peripheral\wdt/cy_wdt.h **** *   <td>Driver functions simplification</td>
 193:Generated_Source\PSoC6\pdl\drivers\peripheral\wdt/cy_wdt.h **** *   </tr>
 194:Generated_Source\PSoC6\pdl\drivers\peripheral\wdt/cy_wdt.h **** *   <tr>
 195:Generated_Source\PSoC6\pdl\drivers\peripheral\wdt/cy_wdt.h **** *     <td>Updated the \ref Cy_WDT_Init(), \ref Cy_WDT_Enable() to clear WDT interrupt.</td>
 196:Generated_Source\PSoC6\pdl\drivers\peripheral\wdt/cy_wdt.h **** *     <td>Corner case reliability improvements</td>
 197:Generated_Source\PSoC6\pdl\drivers\peripheral\wdt/cy_wdt.h **** *   </tr>
 198:Generated_Source\PSoC6\pdl\drivers\peripheral\wdt/cy_wdt.h **** *   <tr>
 199:Generated_Source\PSoC6\pdl\drivers\peripheral\wdt/cy_wdt.h **** *     <td>Added register access layer. Use register access macros instead
 200:Generated_Source\PSoC6\pdl\drivers\peripheral\wdt/cy_wdt.h **** *         of direct register access using dereferenced pointers.</td>
 201:Generated_Source\PSoC6\pdl\drivers\peripheral\wdt/cy_wdt.h **** *     <td>Makes register access device-independent, so that the PDL does 
 202:Generated_Source\PSoC6\pdl\drivers\peripheral\wdt/cy_wdt.h **** *         not need to be recompiled for each supported part number.</td>
 203:Generated_Source\PSoC6\pdl\drivers\peripheral\wdt/cy_wdt.h **** *   </tr>
 204:Generated_Source\PSoC6\pdl\drivers\peripheral\wdt/cy_wdt.h **** *   <tr>
 205:Generated_Source\PSoC6\pdl\drivers\peripheral\wdt/cy_wdt.h **** *     <td>1.0.2</td>
 206:Generated_Source\PSoC6\pdl\drivers\peripheral\wdt/cy_wdt.h **** *     <td>Minor documentation updates</td>
 207:Generated_Source\PSoC6\pdl\drivers\peripheral\wdt/cy_wdt.h **** *     <td>Corrected info about a reset generation</td>
 208:Generated_Source\PSoC6\pdl\drivers\peripheral\wdt/cy_wdt.h **** *   </tr>
 209:Generated_Source\PSoC6\pdl\drivers\peripheral\wdt/cy_wdt.h **** *   <tr>
 210:Generated_Source\PSoC6\pdl\drivers\peripheral\wdt/cy_wdt.h **** *     <td>1.0.1</td>
 211:Generated_Source\PSoC6\pdl\drivers\peripheral\wdt/cy_wdt.h **** *     <td>General documentation updates</td>
 212:Generated_Source\PSoC6\pdl\drivers\peripheral\wdt/cy_wdt.h **** *     <td>Added info about periodic interrupt generation use case</td>
 213:Generated_Source\PSoC6\pdl\drivers\peripheral\wdt/cy_wdt.h **** *   </tr>
 214:Generated_Source\PSoC6\pdl\drivers\peripheral\wdt/cy_wdt.h **** *   <tr>
 215:Generated_Source\PSoC6\pdl\drivers\peripheral\wdt/cy_wdt.h **** *     <td>1.0</td>
 216:Generated_Source\PSoC6\pdl\drivers\peripheral\wdt/cy_wdt.h **** *     <td>Initial version</td>
 217:Generated_Source\PSoC6\pdl\drivers\peripheral\wdt/cy_wdt.h **** *     <td></td>
 218:Generated_Source\PSoC6\pdl\drivers\peripheral\wdt/cy_wdt.h **** *   </tr>
 219:Generated_Source\PSoC6\pdl\drivers\peripheral\wdt/cy_wdt.h **** * </table>
 220:Generated_Source\PSoC6\pdl\drivers\peripheral\wdt/cy_wdt.h **** *
 221:Generated_Source\PSoC6\pdl\drivers\peripheral\wdt/cy_wdt.h **** * \defgroup group_wdt_macros Macros
 222:Generated_Source\PSoC6\pdl\drivers\peripheral\wdt/cy_wdt.h **** * \defgroup group_wdt_functions Functions
 223:Generated_Source\PSoC6\pdl\drivers\peripheral\wdt/cy_wdt.h **** *
 224:Generated_Source\PSoC6\pdl\drivers\peripheral\wdt/cy_wdt.h **** */
 225:Generated_Source\PSoC6\pdl\drivers\peripheral\wdt/cy_wdt.h **** 
 226:Generated_Source\PSoC6\pdl\drivers\peripheral\wdt/cy_wdt.h **** #if !defined(CY_WDT_H)
 227:Generated_Source\PSoC6\pdl\drivers\peripheral\wdt/cy_wdt.h **** #define CY_WDT_H
 228:Generated_Source\PSoC6\pdl\drivers\peripheral\wdt/cy_wdt.h **** 
 229:Generated_Source\PSoC6\pdl\drivers\peripheral\wdt/cy_wdt.h **** #include <stdint.h>
 230:Generated_Source\PSoC6\pdl\drivers\peripheral\wdt/cy_wdt.h **** #include <stdbool.h>
 231:Generated_Source\PSoC6\pdl\drivers\peripheral\wdt/cy_wdt.h **** #include "cy_device_headers.h"
 232:Generated_Source\PSoC6\pdl\drivers\peripheral\wdt/cy_wdt.h **** #include "cy_device.h"
 233:Generated_Source\PSoC6\pdl\drivers\peripheral\wdt/cy_wdt.h **** 
 234:Generated_Source\PSoC6\pdl\drivers\peripheral\wdt/cy_wdt.h **** #if defined(__cplusplus)
 235:Generated_Source\PSoC6\pdl\drivers\peripheral\wdt/cy_wdt.h **** extern "C" {
 236:Generated_Source\PSoC6\pdl\drivers\peripheral\wdt/cy_wdt.h **** #endif
 237:Generated_Source\PSoC6\pdl\drivers\peripheral\wdt/cy_wdt.h **** 
 238:Generated_Source\PSoC6\pdl\drivers\peripheral\wdt/cy_wdt.h **** 
 239:Generated_Source\PSoC6\pdl\drivers\peripheral\wdt/cy_wdt.h **** /*******************************************************************************
 240:Generated_Source\PSoC6\pdl\drivers\peripheral\wdt/cy_wdt.h **** *       Function Constants
 241:Generated_Source\PSoC6\pdl\drivers\peripheral\wdt/cy_wdt.h **** *******************************************************************************/
ARM GAS  C:\Users\mattma1\AppData\Local\Temp\cc4IXJDv.s 			page 13


 242:Generated_Source\PSoC6\pdl\drivers\peripheral\wdt/cy_wdt.h **** 
 243:Generated_Source\PSoC6\pdl\drivers\peripheral\wdt/cy_wdt.h **** /**
 244:Generated_Source\PSoC6\pdl\drivers\peripheral\wdt/cy_wdt.h **** * \addtogroup group_wdt_macros
 245:Generated_Source\PSoC6\pdl\drivers\peripheral\wdt/cy_wdt.h **** * \{
 246:Generated_Source\PSoC6\pdl\drivers\peripheral\wdt/cy_wdt.h **** */
 247:Generated_Source\PSoC6\pdl\drivers\peripheral\wdt/cy_wdt.h **** 
 248:Generated_Source\PSoC6\pdl\drivers\peripheral\wdt/cy_wdt.h **** /** The driver major version */
 249:Generated_Source\PSoC6\pdl\drivers\peripheral\wdt/cy_wdt.h **** #define CY_WDT_DRV_VERSION_MAJOR                       1
 250:Generated_Source\PSoC6\pdl\drivers\peripheral\wdt/cy_wdt.h **** 
 251:Generated_Source\PSoC6\pdl\drivers\peripheral\wdt/cy_wdt.h **** /** The driver minor version */
 252:Generated_Source\PSoC6\pdl\drivers\peripheral\wdt/cy_wdt.h **** #define CY_WDT_DRV_VERSION_MINOR                       10
 253:Generated_Source\PSoC6\pdl\drivers\peripheral\wdt/cy_wdt.h **** 
 254:Generated_Source\PSoC6\pdl\drivers\peripheral\wdt/cy_wdt.h **** /** The internal define for the first iteration of WDT unlocking */
 255:Generated_Source\PSoC6\pdl\drivers\peripheral\wdt/cy_wdt.h **** #define CY_SRSS_WDT_LOCK_BIT0                           ((uint32_t)0x01U << 30U)
 256:Generated_Source\PSoC6\pdl\drivers\peripheral\wdt/cy_wdt.h **** 
 257:Generated_Source\PSoC6\pdl\drivers\peripheral\wdt/cy_wdt.h **** /** The internal define for the second iteration of WDT unlocking */
 258:Generated_Source\PSoC6\pdl\drivers\peripheral\wdt/cy_wdt.h **** #define CY_SRSS_WDT_LOCK_BIT1                           ((uint32_t)0x01U << 31U)
 259:Generated_Source\PSoC6\pdl\drivers\peripheral\wdt/cy_wdt.h **** 
 260:Generated_Source\PSoC6\pdl\drivers\peripheral\wdt/cy_wdt.h **** /** The WDT default match value */
 261:Generated_Source\PSoC6\pdl\drivers\peripheral\wdt/cy_wdt.h **** #define CY_SRSS_WDT_DEFAULT_MATCH_VALUE                 ((uint32_t) 4096U)
 262:Generated_Source\PSoC6\pdl\drivers\peripheral\wdt/cy_wdt.h **** 
 263:Generated_Source\PSoC6\pdl\drivers\peripheral\wdt/cy_wdt.h **** /** The default match value of the WDT ignore bits */
 264:Generated_Source\PSoC6\pdl\drivers\peripheral\wdt/cy_wdt.h **** #define CY_SRSS_WDT_DEFAULT_IGNORE_BITS                 (0U)
 265:Generated_Source\PSoC6\pdl\drivers\peripheral\wdt/cy_wdt.h **** 
 266:Generated_Source\PSoC6\pdl\drivers\peripheral\wdt/cy_wdt.h **** /** The default match value of the WDT ignore bits */
 267:Generated_Source\PSoC6\pdl\drivers\peripheral\wdt/cy_wdt.h **** #define CY_SRSS_WDT_LOCK_BITS                           (3U)
 268:Generated_Source\PSoC6\pdl\drivers\peripheral\wdt/cy_wdt.h **** 
 269:Generated_Source\PSoC6\pdl\drivers\peripheral\wdt/cy_wdt.h **** /** The WDT driver identifier */
 270:Generated_Source\PSoC6\pdl\drivers\peripheral\wdt/cy_wdt.h **** #define CY_WDT_ID                                       CY_PDL_DRV_ID(0x34U)
 271:Generated_Source\PSoC6\pdl\drivers\peripheral\wdt/cy_wdt.h **** 
 272:Generated_Source\PSoC6\pdl\drivers\peripheral\wdt/cy_wdt.h **** /** \} group_wdt_macros */
 273:Generated_Source\PSoC6\pdl\drivers\peripheral\wdt/cy_wdt.h **** 
 274:Generated_Source\PSoC6\pdl\drivers\peripheral\wdt/cy_wdt.h **** /** \cond Internal */
 275:Generated_Source\PSoC6\pdl\drivers\peripheral\wdt/cy_wdt.h **** 
 276:Generated_Source\PSoC6\pdl\drivers\peripheral\wdt/cy_wdt.h **** /** The WDT maximum match value */
 277:Generated_Source\PSoC6\pdl\drivers\peripheral\wdt/cy_wdt.h **** #define WDT_MAX_MATCH_VALUE                      (0xFFFFuL)
 278:Generated_Source\PSoC6\pdl\drivers\peripheral\wdt/cy_wdt.h **** 
 279:Generated_Source\PSoC6\pdl\drivers\peripheral\wdt/cy_wdt.h **** /** The WDT maximum match value */
 280:Generated_Source\PSoC6\pdl\drivers\peripheral\wdt/cy_wdt.h **** #define WDT_MAX_IGNORE_BITS                      (0xFuL)
 281:Generated_Source\PSoC6\pdl\drivers\peripheral\wdt/cy_wdt.h **** 
 282:Generated_Source\PSoC6\pdl\drivers\peripheral\wdt/cy_wdt.h **** /* Internal macro to validate match value */
 283:Generated_Source\PSoC6\pdl\drivers\peripheral\wdt/cy_wdt.h **** #define CY_WDT_IS_MATCH_VAL_VALID(match)         ((match) <= WDT_MAX_MATCH_VALUE)
 284:Generated_Source\PSoC6\pdl\drivers\peripheral\wdt/cy_wdt.h **** 
 285:Generated_Source\PSoC6\pdl\drivers\peripheral\wdt/cy_wdt.h **** /* Internal macro to validate match value */
 286:Generated_Source\PSoC6\pdl\drivers\peripheral\wdt/cy_wdt.h **** #define CY_WDT_IS_IGNORE_BITS_VALID(bitsNum)     ((bitsNum) <= WDT_MAX_IGNORE_BITS)
 287:Generated_Source\PSoC6\pdl\drivers\peripheral\wdt/cy_wdt.h **** 
 288:Generated_Source\PSoC6\pdl\drivers\peripheral\wdt/cy_wdt.h **** /** \endcond */
 289:Generated_Source\PSoC6\pdl\drivers\peripheral\wdt/cy_wdt.h **** 
 290:Generated_Source\PSoC6\pdl\drivers\peripheral\wdt/cy_wdt.h **** 
 291:Generated_Source\PSoC6\pdl\drivers\peripheral\wdt/cy_wdt.h **** /*******************************************************************************
 292:Generated_Source\PSoC6\pdl\drivers\peripheral\wdt/cy_wdt.h **** *        Function Prototypes
 293:Generated_Source\PSoC6\pdl\drivers\peripheral\wdt/cy_wdt.h **** *******************************************************************************/
 294:Generated_Source\PSoC6\pdl\drivers\peripheral\wdt/cy_wdt.h **** /**
 295:Generated_Source\PSoC6\pdl\drivers\peripheral\wdt/cy_wdt.h **** * \addtogroup group_wdt_functions
 296:Generated_Source\PSoC6\pdl\drivers\peripheral\wdt/cy_wdt.h **** * @{
 297:Generated_Source\PSoC6\pdl\drivers\peripheral\wdt/cy_wdt.h **** */
 298:Generated_Source\PSoC6\pdl\drivers\peripheral\wdt/cy_wdt.h **** /* WDT API */
ARM GAS  C:\Users\mattma1\AppData\Local\Temp\cc4IXJDv.s 			page 14


 299:Generated_Source\PSoC6\pdl\drivers\peripheral\wdt/cy_wdt.h **** void Cy_WDT_Init(void);
 300:Generated_Source\PSoC6\pdl\drivers\peripheral\wdt/cy_wdt.h **** __STATIC_INLINE void Cy_WDT_Enable(void);
 301:Generated_Source\PSoC6\pdl\drivers\peripheral\wdt/cy_wdt.h **** __STATIC_INLINE void Cy_WDT_Disable(void);
 302:Generated_Source\PSoC6\pdl\drivers\peripheral\wdt/cy_wdt.h **** void Cy_WDT_Lock(void);
 303:Generated_Source\PSoC6\pdl\drivers\peripheral\wdt/cy_wdt.h **** void Cy_WDT_Unlock(void);
 304:Generated_Source\PSoC6\pdl\drivers\peripheral\wdt/cy_wdt.h **** __STATIC_INLINE uint32_t Cy_WDT_GetCount(void);
 305:Generated_Source\PSoC6\pdl\drivers\peripheral\wdt/cy_wdt.h **** void Cy_WDT_SetMatch(uint32_t match);
 306:Generated_Source\PSoC6\pdl\drivers\peripheral\wdt/cy_wdt.h **** __STATIC_INLINE uint32_t Cy_WDT_GetMatch(void);
 307:Generated_Source\PSoC6\pdl\drivers\peripheral\wdt/cy_wdt.h **** void Cy_WDT_SetIgnoreBits(uint32_t bitsNum);
 308:Generated_Source\PSoC6\pdl\drivers\peripheral\wdt/cy_wdt.h **** __STATIC_INLINE uint32_t Cy_WDT_GetIgnoreBits(void);
 309:Generated_Source\PSoC6\pdl\drivers\peripheral\wdt/cy_wdt.h **** __STATIC_INLINE void Cy_WDT_MaskInterrupt(void);
 310:Generated_Source\PSoC6\pdl\drivers\peripheral\wdt/cy_wdt.h **** __STATIC_INLINE void Cy_WDT_UnmaskInterrupt(void);
 311:Generated_Source\PSoC6\pdl\drivers\peripheral\wdt/cy_wdt.h **** void Cy_WDT_ClearInterrupt(void);
 312:Generated_Source\PSoC6\pdl\drivers\peripheral\wdt/cy_wdt.h **** void Cy_WDT_ClearWatchdog(void);
 313:Generated_Source\PSoC6\pdl\drivers\peripheral\wdt/cy_wdt.h **** 
 314:Generated_Source\PSoC6\pdl\drivers\peripheral\wdt/cy_wdt.h **** 
 315:Generated_Source\PSoC6\pdl\drivers\peripheral\wdt/cy_wdt.h **** /*******************************************************************************
 316:Generated_Source\PSoC6\pdl\drivers\peripheral\wdt/cy_wdt.h **** * Function Name: Cy_WDT_Enable
 317:Generated_Source\PSoC6\pdl\drivers\peripheral\wdt/cy_wdt.h **** ****************************************************************************//**
 318:Generated_Source\PSoC6\pdl\drivers\peripheral\wdt/cy_wdt.h **** *
 319:Generated_Source\PSoC6\pdl\drivers\peripheral\wdt/cy_wdt.h **** * Enables the Watchdog timer.
 320:Generated_Source\PSoC6\pdl\drivers\peripheral\wdt/cy_wdt.h **** *
 321:Generated_Source\PSoC6\pdl\drivers\peripheral\wdt/cy_wdt.h **** * \sideeffect
 322:Generated_Source\PSoC6\pdl\drivers\peripheral\wdt/cy_wdt.h **** * This function clears the WDT interrupt.
 323:Generated_Source\PSoC6\pdl\drivers\peripheral\wdt/cy_wdt.h **** *
 324:Generated_Source\PSoC6\pdl\drivers\peripheral\wdt/cy_wdt.h **** *******************************************************************************/
 325:Generated_Source\PSoC6\pdl\drivers\peripheral\wdt/cy_wdt.h **** __STATIC_INLINE void Cy_WDT_Enable(void)
 326:Generated_Source\PSoC6\pdl\drivers\peripheral\wdt/cy_wdt.h **** {
 327:Generated_Source\PSoC6\pdl\drivers\peripheral\wdt/cy_wdt.h ****     SRSS_WDT_CTL |= _VAL2FLD(SRSS_WDT_CTL_WDT_EN, 1U);
 328:Generated_Source\PSoC6\pdl\drivers\peripheral\wdt/cy_wdt.h ****     Cy_WDT_ClearInterrupt();
 329:Generated_Source\PSoC6\pdl\drivers\peripheral\wdt/cy_wdt.h **** }
 330:Generated_Source\PSoC6\pdl\drivers\peripheral\wdt/cy_wdt.h **** 
 331:Generated_Source\PSoC6\pdl\drivers\peripheral\wdt/cy_wdt.h **** 
 332:Generated_Source\PSoC6\pdl\drivers\peripheral\wdt/cy_wdt.h **** /*******************************************************************************
 333:Generated_Source\PSoC6\pdl\drivers\peripheral\wdt/cy_wdt.h **** * Function Name: Cy_WDT_Disable
 334:Generated_Source\PSoC6\pdl\drivers\peripheral\wdt/cy_wdt.h **** ****************************************************************************//**
 335:Generated_Source\PSoC6\pdl\drivers\peripheral\wdt/cy_wdt.h **** *
 336:Generated_Source\PSoC6\pdl\drivers\peripheral\wdt/cy_wdt.h **** * Disables the Watchdog timer. The Watchdog timer should be unlocked before being
 337:Generated_Source\PSoC6\pdl\drivers\peripheral\wdt/cy_wdt.h **** * disabled. Call the Cy_WDT_Unlock() API to unlock the WDT.
 338:Generated_Source\PSoC6\pdl\drivers\peripheral\wdt/cy_wdt.h **** *
 339:Generated_Source\PSoC6\pdl\drivers\peripheral\wdt/cy_wdt.h **** *******************************************************************************/
 340:Generated_Source\PSoC6\pdl\drivers\peripheral\wdt/cy_wdt.h **** __STATIC_INLINE void Cy_WDT_Disable(void)
 341:Generated_Source\PSoC6\pdl\drivers\peripheral\wdt/cy_wdt.h **** {
 342:Generated_Source\PSoC6\pdl\drivers\peripheral\wdt/cy_wdt.h ****     SRSS_WDT_CTL &= ((uint32_t) ~(_VAL2FLD(SRSS_WDT_CTL_WDT_EN, 1U)));
 264              		.loc 2 342 0
 265 0020 D3F88021 		ldr	r2, [r3, #384]
 266 0024 22F00102 		bic	r2, r2, #1
 267 0028 C3F88021 		str	r2, [r3, #384]
 268              	.LBE5:
 269              	.LBE4:
  48:Generated_Source\PSoC6\pdl\drivers\peripheral\wdt/cy_wdt.c ****     Cy_WDT_SetIgnoreBits(CY_SRSS_WDT_DEFAULT_IGNORE_BITS);
 270              		.loc 1 48 0
 271 002c 4FF48050 		mov	r0, #4096
 272 0030 FFF7FEFF 		bl	Cy_WDT_SetMatch
 273              	.LVL10:
  49:Generated_Source\PSoC6\pdl\drivers\peripheral\wdt/cy_wdt.c ****     Cy_WDT_ClearInterrupt();
 274              		.loc 1 49 0
ARM GAS  C:\Users\mattma1\AppData\Local\Temp\cc4IXJDv.s 			page 15


 275 0034 0020     		movs	r0, #0
 276 0036 FFF7FEFF 		bl	Cy_WDT_SetIgnoreBits
 277              	.LVL11:
  50:Generated_Source\PSoC6\pdl\drivers\peripheral\wdt/cy_wdt.c **** }
 278              		.loc 1 50 0
 279 003a FFF7FEFF 		bl	Cy_WDT_ClearInterrupt
 280              	.LVL12:
 281 003e 08BD     		pop	{r3, pc}
 282              	.L28:
 283              		.align	2
 284              	.L27:
 285 0040 00002640 		.word	1076232192
 286              		.cfi_endproc
 287              	.LFE139:
 288              		.size	Cy_WDT_Init, .-Cy_WDT_Init
 289              		.section	.text.Cy_WDT_ClearWatchdog,"ax",%progbits
 290              		.align	2
 291              		.global	Cy_WDT_ClearWatchdog
 292              		.thumb
 293              		.thumb_func
 294              		.type	Cy_WDT_ClearWatchdog, %function
 295              	Cy_WDT_ClearWatchdog:
 296              	.LFB146:
 176:Generated_Source\PSoC6\pdl\drivers\peripheral\wdt/cy_wdt.c **** }
 177:Generated_Source\PSoC6\pdl\drivers\peripheral\wdt/cy_wdt.c **** 
 178:Generated_Source\PSoC6\pdl\drivers\peripheral\wdt/cy_wdt.c **** 
 179:Generated_Source\PSoC6\pdl\drivers\peripheral\wdt/cy_wdt.c **** /*******************************************************************************
 180:Generated_Source\PSoC6\pdl\drivers\peripheral\wdt/cy_wdt.c **** * Function Name: Cy_WDT_ClearWatchdog
 181:Generated_Source\PSoC6\pdl\drivers\peripheral\wdt/cy_wdt.c **** ****************************************************************************//**
 182:Generated_Source\PSoC6\pdl\drivers\peripheral\wdt/cy_wdt.c **** *
 183:Generated_Source\PSoC6\pdl\drivers\peripheral\wdt/cy_wdt.c **** * Clears ("feeds") the watchdog, to prevent a XRES device reset.
 184:Generated_Source\PSoC6\pdl\drivers\peripheral\wdt/cy_wdt.c **** * This function simply call Cy_WDT_ClearInterrupt() function.
 185:Generated_Source\PSoC6\pdl\drivers\peripheral\wdt/cy_wdt.c **** *
 186:Generated_Source\PSoC6\pdl\drivers\peripheral\wdt/cy_wdt.c **** *******************************************************************************/
 187:Generated_Source\PSoC6\pdl\drivers\peripheral\wdt/cy_wdt.c **** void Cy_WDT_ClearWatchdog(void)
 188:Generated_Source\PSoC6\pdl\drivers\peripheral\wdt/cy_wdt.c **** {
 297              		.loc 1 188 0
 298              		.cfi_startproc
 299              		@ args = 0, pretend = 0, frame = 0
 300              		@ frame_needed = 0, uses_anonymous_args = 0
 301 0000 08B5     		push	{r3, lr}
 302              		.cfi_def_cfa_offset 8
 303              		.cfi_offset 3, -8
 304              		.cfi_offset 14, -4
 189:Generated_Source\PSoC6\pdl\drivers\peripheral\wdt/cy_wdt.c ****     Cy_WDT_ClearInterrupt();
 305              		.loc 1 189 0
 306 0002 FFF7FEFF 		bl	Cy_WDT_ClearInterrupt
 307              	.LVL13:
 308 0006 08BD     		pop	{r3, pc}
 309              		.cfi_endproc
 310              	.LFE146:
 311              		.size	Cy_WDT_ClearWatchdog, .-Cy_WDT_ClearWatchdog
 312              		.section	.rodata.str1.4,"aMS",%progbits,1
 313              		.align	2
 314              	.LC0:
 315 0000 47656E65 		.ascii	"Generated_Source\\PSoC6\\pdl\\drivers\\peripheral\\"
 315      72617465 
ARM GAS  C:\Users\mattma1\AppData\Local\Temp\cc4IXJDv.s 			page 16


 315      645F536F 
 315      75726365 
 315      5C50536F 
 316 002e 7764745C 		.ascii	"wdt\\cy_wdt.c\000"
 316      63795F77 
 316      64742E63 
 316      00
 317              		.text
 318              	.Letext0:
 319              		.file 3 "c:\\program files (x86)\\cypress\\psoc creator\\4.3\\psoc creator\\import\\gnu\\arm\\5.4.
 320              		.file 4 "c:\\program files (x86)\\cypress\\psoc creator\\4.3\\psoc creator\\import\\gnu\\arm\\5.4.
 321              		.file 5 "Generated_Source\\PSoC6\\pdl\\devices/psoc6/include/ip/cyip_srss.h"
 322              		.file 6 "Generated_Source\\PSoC6\\pdl\\devices/psoc6/include/psoc6_01_config.h"
 323              		.file 7 "Generated_Source\\PSoC6\\pdl\\drivers/peripheral/syslib/cy_syslib.h"
 324              		.file 8 "Generated_Source\\PSoC6\\pdl\\cmsis/include/core_cm4.h"
