:020000041000EA
:4000000000400208230100100D00000085010010000000000000000000000000000000000000000000000000000000008101001000000000000000008101001081010010E9
:400040008101001081010010810100108101001081010010810100108101001081010010810100108101001081010010810100108101001081010010810100108101001060
:400080008101001081010010810100108101001081010010810100108101001081010010810100108101001081010010810100108101001081010010810100108101001020
:4000C00010B5064C2378002B07D1054B002B02D0044800E000BF0123237010BD3C060008000000006C240010084B10B5002B03D00749084800E000BF07480368002B00D19A
:4001000010BD064B002BFBD09847F9E700000000400600086C240010E8000008000000007047FFF7FDFF72B60F4C104DAC4209DA21686268A368043B02DBC858D050FAE719
:400140000C34F3E70A490B4A0020521A02DD043A8850FCDC084809490860BFF34F8F00F009F900F01DF8FEE770240010882400103C0600084C0800080000000808ED00E00B
:40018000FEE7FEE700B504207146084202D0EFF3098001E0EFF30880043001F0CDF9FEE710B5044800F06CF972B6002001F07EFDFBE7C0460000081010B5002000F03AFF1B
:4001C00010BDC04670B56249E0239B00CB580F2213401A00D0329200525807210A40032A05D0042A06D0002A12D15A4814E05A4A106811E01A00C0329200554952581F2171
:400200000A40112A06D0132A04D0FA20C00103E0524801E080200002002B36D14C4BB222D2009A5801211140B125ED005A59120F032422405B591B0F1C4207D0444C635924
:400240001B0F03242340012B02D102E0012300E00023002B01D0002901D1032A4BD13C4BB022D2009D58AD03AD0B3D495958C904C90C9C58240E01231C40013401F0C8FD90
:400280006843210001F0C4FD35E0012B33D1304BC822D2009A5801251540C024E4001A59120F03210A401B591B0F194207D028490B591B0F03210B40012B02D102E00123CA
:4002C00000E00023002B01D0002D01D1032A12D11F4DC022D200AB587F210B40A958090A1F263140AC58240C3440584301F090FD210001F08DFDE0239B00154AD3581B096F
:4003000003221340D840144C6060164B1D692D0AFC32154001351969090E013101F078FDA060290001F074FD0500E06020610E4BC0180E4901F06CFD20750D4BE818FA21CA
:40034000890001F065FDA061C003E06170BDC0460000264000127A00C000000800366E0184050000000021403F420F0040420F00E703000010B5284801F044FD274CB02269
:40038000D200A3585B005B08A350E0218900635830208343635080235B04A350204A214BE250A02292010433E250FF221E4BE25001F016FDC0225200A35801218B43A35024
:4003C00000F0A0F9FFF7FEFEB0235B055B78002B04D0B0235B055B78DBB200E02123212B03D1124B0022DA605A60114C22008021042000F0C5FB2000103000F059FC0D4B42
:400400001A685123D35C002B02D00B4800F0C6FC00F08EFA10BDC046B42300100000264001000200840500008C050000E00023405806000848080008881F00108023024A39
:40044000D3580320184070470000214010B501F004F9084980228C58074B2340074C23438B508823034AD358DB06FAD501F0F9F810BDC04600002140FCFF00000100FA0507
:4004800070B50500830504D0E821FF310F4801F025F801F0E2F80400FFF7D0FF032801D1FFF7D4FF0A4AB0239B00D55080215058084B03400848034353508823044AD3589B
:4004C000DB06FAD5200001F0CCF870BDBC1F001000002140FCFF00000300FA05FEE7C04630B587B07649A022D2008B58032083438B50744A116808688823CB58C318186830
:400500007149084018601368186884241B59C01803681B021B0A80256D042B430360106805680359EB1818680140196013683E229A5C002A06D06248E02189004258753CF0
:40054000A24342503E229A5C002A06D05C48E021890042583024A24342503E229B5C002B07D05749E02292008B588020000603438B500021012000F08FFD0021022000F0F3
:400580008BFD0021032000F087FD0021042000F083FD0021002000F07FFD01A84B4903000A0032CA32C312CA12C300F0A3FD002802D00420FFF792FF4149454A8B588020DC
:4005C000000603438B50434800F04EFE002802D00420FFF783FF3A4C3F4BE1583F4A0A40E250E1583E4A0A40E250E25880252D062A43E250043BE1583A4A0A40E250E1588A
:40060000394A0A40802189010A43E250E258802109020A43E250354A1168354B0B40802149000B431360002001F0BCFB314BE2581543E550E158012291430A43E250642131
:40064000002000F091FF1F4B1B683F229A5C052A0AD97122985C703A82401100032282400A402549986842509A6876215B5AD2181168224B0B4022490B431360114B1968DD
:400680007323CB5C032422009A4013007022885C02328A5C904018437123CB5C01229A409C402300134003438022120613438022D200886883508B689B5807B030BDC04665
:4006C0000000264048080008FF00FFFFD41F0010087F0000400D030004050000FEFCFFFFFFFF00FFFFF0FFFFFF8FFFFF00002740FFFCFFFF0C050000140C0000FF0000FF5F
:4007000000B1010070B58AB09621002000F02CFF00F002FF002814D100F0EEFEC0235B00244AD358DB0705D41100234A8B585B005B088B501F49204A8B58802000060343AF
:400740008B50012001F0CCF91C4A516C1C4B0B40E82189010B435364536C1B0AFF2213403A2B07D1154A516C164B0B40E82189010B435364FFF7B4FE01AD134C2A00230063
:40078000143343CB43C243CB43C243CB43C229000E4800F0D5F82A002300383313CB13C213CB13C213CB13C22900094800F0C8F80AB070BD000026400C05000000002740BD
:4007C000FF00FFFFFFC5FFDFD41F00108002324000033240214B984230D00ED8402831D004D800281FD010282AD031E080282BD080235B00984229D02AE0194B984229D06E
:4008000007D8A0231B0698420DD0164B984212D01EE0154B98420AD0144B984209D0144B984215D101E0002016E0124814E0124812E0124810E0A020C0030DE007480BE059
:400840000F4809E00F4807E00F4805E0034803E00E4801E0A420C0037047C04606005200010000F0090000A0040000F0050000F0030000F00100520002005200030052004B
:40088000010050000200500005005200FF00520070B5124B1A683123D35C002B04D1C421FF310F4800F01AFE0C4B1D682C00B423EB582A6A944663441B68002B0BDB094BD3
:4008C0001868FFF787FF6B6801229A6063689B68002BFBD100E0044870BDC0464808000830200010E80700080200500010B50D4B1861002805D002230370FD3343700023B6
:400900004380094B1B6850229A5C002A08D051229B5C002B04D04F3A0449002000F0F8FA10BDC046E8070008480800086101000810B502481430FFF7D9FF10BDE807000801
:4009400070B505000C0000285DD000295DD0FF230A689A4303D099212D4800F0BFFDFF2322699A4303D09A21294800F0B7FDA3685B0D03D09B21264800F0B0FD63685B0A0D
:4009800003D09C21224800F0A9FDE3695B0F03D09D211F4800F0A2FD236A5B0F03D09E211B4800F09BFD1B4A11688B69EB1ADB0949691B01CB18216829607D211068415CC5
:4009C0006918E06808607E211068415C6918206908607F211068415C6918606908607C211068415C6918A06808606168A961116880228A5CAD18A2692A60E2691A60226A17
:400A00005A60002002E0044800E0034870BDC046702000104808000801005A0070B504000D000A4B1A68B423D3581B181B68002B0ADA0B0C03D00649064800F04FFD2D0435
:400A40002D0C6560002000E0034870BD48080008D5020000F020001001008A0070B505000C000368002B01DA002300E0084B002B0BD1EA60230C03D00649074800F02EFD1D
:400A80002404240CAC60002000E0014870BDC04601008A00BB020000F020001070B505000C1E03D19921084800F018FD074B1A68B423D3585B191B68002B03DAEB6823600C
:400AC000002000E0024870BD302100104808000801008A0070B504000D00234B1A683123D35C834236D9002936D00B68DB0635D13123D35C984204D3C421FF311B4800F099
:400B0000EDFC194B1B681A6AB0215B5A5C431419174E34602B68DA080021686801F004FA00212000FFF77AFF3468002D03D111490E4800F0D3FC2A0000212000FFF78EFF17
:400B400000280DD10A4B18680021FFF767FF002808D108E0084806E0074804E0064802E0064800E0054870BD48080008F0200010000800089303000003018A0001018A00BB
:400B800010B50400002A17D1002915D1124B1A683123D35C984204D3C421FF310F4800F09DFC0D4B1B681A6AB0215B5A5C4314190B4B1C6000200EE0002A09D0002909D0AD
:400BC000074B59609A60191D2000FFF783FF02E0044800E0034810BD48080008F02000100008000803018A00F0B583B00D001C4B1B68DC68236883422DD947097B01C01AD7
:400C0000012383401E00002903D100F026FD019001E000230193124B18680368002B01DA002300E00F4B002B0ED16368BF00DF193B68334203D0B3433B60002400E00A4C69
:400C40000021FFF7EBFE00E0084C002D04D1019800F007FD00E0064C200003B0F0BDC0460008000801008A00020188000301880004018A000A4B1B68DA68136883420BD97A
:400C800043095901401A0121814052689B009B580B4203D0034802E0034800E003487047000800080101880004018A0000018800034B1B68002B01D1014B18607047C0468E
:400CC0000C080008F0B5474680B404000F0090461E002D4B1B68002B03D1B5212B4800F0FDFB294B1B682C2060431C18FF22150035402560330A13406360360CA660244BEC
:400D00001A683123D35C9D4204D3C421FF31214800F0E4FB1E4B1A68B023D35A6B43116A8C466344236166683223D35C9E4204D3E021FF31174800F0D1FB154B1B681D6ADB
:400D400080367601AD196561A668330C04D0FF214900104800F0C2FB330C03D00E490D4800F0BCFB3604330C1E43AE604346E36127620023A361069B002B02D000229B5EA8
:400D8000A38104BC9046F0BD0C0800087021001048080008F0200010FF010000F0B58FB0041E03D15221294800F098FB6368032B03D95421254800F091FBE36A002B03D1D7
:400DC0005821224800F08AFB236B002B03D159211E4800F083FB07AA1300210061C961C321C921C302AD290023001433C1CBC1C141CB41C10821535E0CAE3380144B1B6838
:400E000036215B5E07998C466344B370089B0D930B9B0A980096A26AE16AFFF753FF2B69E868002200920021FFF74CFF216B300000F0E6FA0023F25E002A05DB1F231A4007
:400E40001E3B9340034A13600FB0F0BD702100104808000800E100E0F8B505000F0016001C00002A03D1FD21224800F037FB224B1B68002B03D1FE211E4800F02FFB1E4BCE
:400E80001B682C2128004843181879435918012213004D68AB401B044568AA4015000269002A20D08F69002F1FD11268002A01DA002200E0114A002A19D132681204120C57
:400EC000134333600369DE6001238B614C6204692B0C03D00A490B4800F000FB2A04120CA260002004E0084802E0084800E00748F8BDC046702100100C08000801008A0093
:400F0000BB020000F020001004028A0007028A0070B504000D0016000F4B1B68002B04D1AF2149000D4800F0D9FA0B4B1B682C2060431C18236A002B04D1B1214900074864
:400F400000F0CCFAE369B34204D9236AB6009D51002000E0024870BD0C080008702100100A028A0070B582B0040000230193002804D1D221FF312D4800F0B0FA2369002BAA
:400F800004D1E9214900294800F0A8FA6369002B04D1D421FF31254800F0A0FA236A002B04D1EA214900214800F098FA6269D5682B0C24D01B041360136820691C4B1A68A0
:400FC000B423D358C3181B68002B18DA01A9FFF765FD00280ED1019803681E0CFF221340E269934207D29B00226AD358002B02D0984700E0002631002069FFF70FFD2D04AF
:401000002D0C0FD063691D601B68636A002B03D098470023636203E0A36A002B00D098470023A36163691B6802B070BD702100104808000810B50400084B1B68002B04D183
:40104000B221FF31064800F049FA044B1B682C2060431818FFF786FF10BDC0460C0800087021001010B50400094B1B689B6CC340DB0703D4BE21074800F030FA044B1B6873
:401080001B691034A402E3580F20184010BDC04648080008B0210010134B1A683C23D35C83421DD9042904D94B1EFF3B9BB2132B18D8FF290CD91F2319400C4A0300C033AF
:4010C0009B009950D03080000423835000200AE007231940D0308000044BC150002002E0034800E002487047480800080000264001004A0070B5041E03D14A494A4800F01E
:40110000EDF9B023DB00494AD358002B00DA87E0474B22689A4203D94649434800F0DEF923689B039B0BE279002A02D08022520400E000221343B022D2003C498B50A28898
:401140003D4B9A4204D984218900374800F0C6F92289344B9A4203D93849334800F0BEF9A388DB04D90C23891B04354A13400B43344A2E498B50A37A0F2B04D9862189003F
:40118000294800F0ABF9E37A0F2B03D92E49264800F0A4F9A289284B9A4203D92B49224800F09CF9A37A0F211940E27A1201FF2313400B43A289120225490A401343A27B4A
:4011C0001207C02189050A401343B122D20017498B50A379042B03D91E49134800F07EF9228A104B9A4204D9892189000E4800F075F90E4818494558184B1D40A3791B02A3
:40120000E022D20013402B4343504558144B1D40238A1B040A4A13402B434350002000E0104870BDFF010000F021001000002640FFFF030009020000FF1F00001102000070
:401240000000FF0184050000190200001A02000000FF1F00230200008C050000FFF8FFFFFFFF00FE03004A0070B505003149324A8B588020000603438B502C0003E00120A2
:4012800000F020F9013CB223DB002A4AD3585B0701D4002CF3D12749B122D2008858274B03408020800503438B50002D01D0002C0CD02049B022D2008B58802000060343A0
:4012C0008B5003E0012000F0FDF8013CB223DB00184AD358DB0701D4002CF3D1002D01D0002C08D01349B122D2008B58C020800503438B5013E00F4BB121C90058580F4AAC
:4013000002408020800502435A5008395A58520052085A5008495A58520052085A50002D03D0002C03D0002002E0002000E0044870BDC046000026408C050000FFFFFFCF72
:4013400002004A0070B505000C001A4B1B6828229A5C012A15D1820807211000884327D19200AD1AED00FF20A8401B6820339A181168AC4023004B40184004004C401460E9
:4013800016E03A229B5EDBB2994203D176210A4800F0A4F8074B1B681B68072215408022120615438022920194466444A400E55070BDC046480800087822001070B504005B
:4013C0000D000B4B9A680B4B9A420CD1002904D13821FF31084800F081F81034054BA400E058E55003E01034A400044BE05870BD00ED00E000000008782200100000001086
:40140000F0B5474680B482B0061E01914AD04368032B03D93221264800F060F80023F05E002804DBB178FFF78DFF002400E0214C0023F15E7368002912DB88081E4FC030A2
:401440008000C55903221140C900FC3290468A4095439A01434613408B402B43C35116E089B20F220A40083A92080632920013481018476803221140C900FF252A008A404A
:4014800097439A012B0013408B403B4343600B4B9A680B4B9A4206D10023F05E0199FFF78DFF00E0034C200002B004BC9046F0BD782200100100560000E100E000ED00E08C
:4014C0000000000810B5034B1B78584300F0BCF810BDC046D400000801BEFEE770B50D00044C18220100200000F026FDA5610020FFF7F2FF00060008054B802212069A6499
:401500009B6C002B01DB002000E002487047C0460000274003004600054B8022120198585B68FF221A4202D08023DB021843704700002640FEE7C04610B50A4B0268DA613D
:4015400042681A6282685A62C2689A620269DA6242691A6382695A63C2699A63FFF7EAFF10BDC04600060008F0B5474680B4002801D0192300E064238B429B415B42304D55
:401580002C682268A826A45BA41822680327BA433B401A4322602C682268A45BA2181668284CA046264016602C682668AA229446A25A96193268BA43134333602A681368EE
:4015C0006546525BD3181A68444614401C60002805D010291BD921291BD8012024E0184B1B6855229A5C914215D956229A5C914213D957229A5C914211D958229A5C914290
:401600000FD959229B5C99420DD804200CE000200AE0022008E0002006E0012004E0022002E0032000E00520054A1268526813680F218B430343136004BC9046F0BDC04637
:4016400048080008FFFCFFFF0230800803D001300238FCD1C046C0467047EFF3108072B6704780F31088704710B5B0235B059B899BB2002B04D0B0235B059B899BB201E091
:4016800080235B0080225200934215D1184C23681968683A9B58C9180B680F208343963A13430B6021680C689C23CB58E318196881430A431A6019E00D4C236819689822A0
:4016C0009B58C918B02040050A4BC2580A4B13400A681343C022920013430B60226811689C23D358CB18054A82581A6010BDC0464808000848180000FFFCFFFF441800009A
:4017000030B5B0235B059B899BB2002B04D0B0235B059B899BB201E080235B0080225200934215D1184C23681968683A9B58C9180B680F208343953A13430B6021680C6814
:401740009C23CB58E318196881430A431A6019E00D4D2B68196898229B58C918B0246405C12040012258094B13400A681343C022920013430B602A6811689C23D358CB1836
:4017800022581A6030BDC04648080008FFFCFFFFB0235B059B899BB2002B04D0B0235B059B899BB201E080235B008022520093420DD1104B1B681A6898215B58D2181168F5
:4017C0000D4B0B40C021C9010B43136011E0094B1B68196898229B58C918084BB0225205D258074B13400A681343C022920013430B60704748080008FF8FFFFF18180000F0
:40180000FFFCFFFF30B5B0235B059B899BB2002B04D0B0235B059B899BB201E080235B008022520093420DD1134B1B681A6898215B58D2181168114B0B408021C9010B436B
:40184000136018E00C4D2B68196898229B58C918B02464050A4822580A4B13400A681343C022920013430B602A6811689C23D358CB1822581A6030BD48080008FF8FFFFFB7
:401880004C180000FFFCFFFF10B5B0235B059B899BB2002B04D0B0235B059B899BB201E080235B0080225200934217D10020FFF7D9FBB0235B055B78002B04D0B0235B050D
:4018C0005B78DBB200E02123222B03D8002803D1013004E0012002E0002000E0012010BD30B585B004000D00022807D9042805D0032803D02A492B48FFF7F0FD6B1EDBB227
:40190000012B07D9042D05D0082D03D026492548FFF7E4FDA400254BE458042D13D0012D1CD112E0A3682B420BD1E3681A6802925B6801930393290002A8236898471B4B24
:401940005C61646902E0002000E00020002C24D0174B9842E6D1012DE4D11EE0022D01D104E01C006369002BFBD104E00F4B5C69002C00D0246900200DE0A3682B4209D138
:40198000E3681A6802925B6801930393290002A8236898472469002CEFD105B030BDC046B2090000BC220010B309000010080008FF004200F8B50700012803D93D493E48F0
:4019C000FFF78CFDB0235B055B78002B04D0B0235B055B78DBB200E021239DB2B0235B059B899BB2002B04D0B0235B059E89B6B201E0802676000020FFF734FB002814D1A9
:401A000080235B009E4212D1222D12D82B4B1B685C682B4821582B4B19403B068022520413400B432350002404E0274C02E0264C00E0254C80235B009E4201D1222D03D8ED
:401A400080235B009E4232D01C4B1A683123D35C002B04D1C421FF311C48FFF73FFD174B1B681D6A80235B009E4203D1002F05D0174A06E0002F03D0164A02E0164A00E082
:401A8000164A01212800FEF7E9FF00280FD10B4B1A68B423D3585B191B68002BF7DBEB681B0E1B06A0221206934200D100242000F8BDC0464C0A0000BC2200104808000811
:401AC00018F00000FFFFFFFE0400420030200010010100300300000C010000300100000CF8B50500012804D9822109012948FFF7F5FCFFF7C9FE002849D0FFF7AEFD07005B
:401B0000002D11D10021244B244AD150E823DB00B0225205D65CF6B20120FFF74BFF041E19D1FFF7A1FD16E0B02252051C4BD0581A4B194958501B49565CF6B21A481A58DE
:401B40001F218A4314390A431A500320FFF7BAFCFFF758FE0024002C15D11049124A8B581F20834306401E438E50002D02D1FFF70FFE08E00720FFF7A5FCFFF7C1FD002064
:401B8000FFF718FF04003800FFF76BFD00E0074C2000F8BDBC220010307F00000000264010180000410700001CFF00000300420010B5041E03D115491548FFF78FFC154B4C
:401BC0001A68D168F222D2018A5822601B68F022D201D9688A5862600F4AD9688A58A2600E4AD9688A58E2600D4AD9688A5822610C4AD9688A5862610B4AD9688A58A261A3
:401C0000DA680A4BD358E36110BDC046A10A0000BC2200104808000804780000087800000C78000010780000147800001878000010B5041E03D114491448FFF74FFC144BA2
:401C40001B68F022D201D96860688850114AD968A0688850104AD968E06888500F4AD968206988500E4AD968606988500D4AD968A06988500C4AD968E0698850DA682168B3
:401C8000F223DB01D15010BDC90A0000BC2200104808000804780000087800000C78000010780000147800001878000070B50500012804D9A62189003548FFF70FFC354B8A
:401CC0005B68002B05D001210120FFF709FE040000E00024002C53D1FFF7BFFC06002D4B5B68002B03D004210120FFF7F9FD2A4B1B6843229A5C002A08D09A68E023D358E2
:401D0000DB0603D523481830FFF752FFB0235B059B899BB2002B04D0B0235B059B899BB201E080235B0080225200934203D1280000F022F909E0194A116904230B4313614B
:401D4000012D01D030BF00E020BF134B1B6843229A5C002A08D09A68E023D358DB0603D50C481830FFF764FF3000FFF77AFC094B5B68002B09D008210120FFF7B1FD04E011
:401D800002210120FFF7ACFD054C200070BDC046BC220010100800084808000800ED00E0FF004200042805D10B4A116804230B4313600FE0094B1A681168A023D358CB1861
:401DC0000006C022920410401860034A136804218B4313607047C04610E000E0480800080749C02252008B589B009B088020C00503438B508B588020000603438B507047FE
:401E000000002640014B18607047C04648080008002243088B4274D303098B425FD3030A8B4244D3030B8B4228D3030C8B420DD3FF22090212BA030C8B4202D3121209027C
:401E400065D0030B8B4219D300E0090AC30B8B4201D3CB03C01A5241830B8B4201D38B03C01A5241430B8B4201D34B03C01A5241030B8B4201D30B03C01A5241C30A8B4231
:401E800001D3CB02C01A5241830A8B4201D38B02C01A5241430A8B4201D34B02C01A5241030A8B4201D30B02C01A5241CDD2C3098B4201D3CB01C01A524183098B4201D3AA
:401EC0008B01C01A524143098B4201D34B01C01A524103098B4201D30B01C01A5241C3088B4201D3CB00C01A524183088B4201D38B00C01A524143088B4201D34B00C01A44
:401F00005241411A00D20146524110467047FFE701B5002000F006F802BDC0460029F7D076E770477047C04603008218934202D019700133FAE77047030030B5002A0DD042
:401F40000C7801335D1E013A2C700131002CF5D19A189A4202D01C700133FAE730BD0000F8B5C046F8BC08BC9E467047F8B5C046F8BC08BC9E46704701B40248844601BC33
:401F8000604700BF350300080300000001000000010000000000000005036000040000000100000000000000010000000604600008000000C8070008B90100107379737422
:401FC000656D5F70736F63365F636D30706C75732E630000F4010000140004010A000905080000006301000003000000000000000000000068000000000000000000000014
:40200000000000001212000000000000080000000000000000000000002000BA0000000000000000000000000000000000001D1D47656E6572617465645F536F7572636501
:402040005C50536F43365C70646C5C647269766572732F7065726970686572616C2F6970632F63795F6970635F6472762E68000047656E6572617465645F536F7572636576
:402080005C50536F43365C70646C5C647269766572735C7065726970686572616C5C6770696F5C63795F6770696F2E630000000047656E6572617465645F536F7572636579
:4020C0005C50536F43365C70646C5C647269766572735C7065726970686572616C5C6770696F5C63795F6770696F2E680000000047656E6572617465645F536F7572636534
:402100005C50536F43365C70646C5C647269766572735C7065726970686572616C5C6970635C63795F6970635F6472762E68000047656E6572617465645F536F757263652E
:402140005C50536F43365C70646C5C647269766572735C7065726970686572616C5C6970635C63795F6970635F6472762E63000047656E6572617465645F536F75726365F3
:402180005C50536F43365C70646C5C647269766572735C7065726970686572616C5C6970635C63795F6970635F706970652E630047656E6572617465645F536F7572636551
:4021C0005C50536F43365C70646C5C647269766572735C7065726970686572616C5C70726F745C63795F70726F742E630000000047656E6572617465645F536F757263650C
:402200005C50536F43365C70646C5C647269766572735C7065726970686572616C5C737973636C6B5C63795F737973636C6B2E630000000047656E6572617465645F536FD2
:40224000757263655C50536F43365C70646C5C647269766572735C7065726970686572616C5C737973636C6B5C63795F737973636C6B2E680000000047656E657261746563
:40228000645F536F757263655C50536F43365C70646C5C647269766572735C7065726970686572616C5C737973696E745C63795F737973696E742E630000000047656E652D
:4022C00072617465645F536F757263655C50536F43365C70646C5C647269766572735C7065726970686572616C5C737973706D5C63795F737973706D2E630000000020403C
:4023000000002440000000400000000000002340000030400000314000009F40000022400000104002020202020202020210101D800017007500FF0306020636041020004F
:40234000000000007FC0000000040000000000000019324B647D00804000080B100000000000FF012002001F00800004FF081018001000140018001C4044484C500000000C
:40238000081000000800000004000000041000000012000004210000002100000016000040114002C41300138013A013200000001C00000000002140000025400000014071
:4023C0000000344000002440000031400000324000001F410000234000001140010101010101010101101010800019005500F0000501053B04101C01010000000FC00000B0
:402400000004000001010101011D3A57789600082000101208000000001F00000010000F002000023F06080E00080009000A000B24282C3034000000100000009000000028
:4024400088000000080000008000000004F0000000F00000400200002005A000D00100018001A0012000000010000000000000000000001000000008C000000090240010A1
:40248000C0000008400500003C060008100200000048E80100127A0000093D0000093D0000093D0004000000A00F00000000D007E9000010C10000100000000010B5000407
:4024C000400B27D0144B1A68146AB023D15ACA00531AE3181B68002BF4DA3E220F4B1A600F4A104B1A60104B0621A322D20099500E4A98509B58084B1A68106AB023D15AAB
:40250000CA00531AC31800225A60084B064AD358002BFADA10BDC04648080008040126401E1F000008012640000026401C05000010B54378FF2B20D100F01AFA04000F4B1A
:402540001A683123D35C042B04D8C421FF310C4800F01EFA094B1A68116AB023D35A9B00CB18DB685A68116801230B4313601368DB07FCD4200000F0EBF910BD4808000862
:4025800030200010F0B585B001900291544B1A683123D35C002B04D1C421FF31514800F0F7F94F4B1B681E6AB4229A58971950229B5C002B77D000F0F3F9050003283CD17A
:4025C000474B1A683123D35C062B04D8C421FF31444800F0DDF9424B1968B023CB5A5A00D21853000A6A94466344B4228A58D3181B68002B23DB002000F0B2F93A4B9842D5
:402600001FD03A4B1A6900230021012000F0D8F9002803D0364C17E0013400E00024002000F09EF9304B984202D0324B9C42F3D9304B9C4207D92E4C06E0002404E02C4CC2
:4026400002E02B4C00E00024002C46D100F090F90390294B294AD358002B13DA234A0121300000F08DF900280ED10298FFF726FF019B002B0AD03B68002BFCDB00F060F904
:40268000040004E01A4C02E0194C00E01C4C032D05D10121002000F08BF90028F9D1039800F056F919E000F063F905000F4A0121300000F065F9002809D1019B002B08D0D1
:4026C0003B68002BFCDB00F03BF9040002E0084C00E00B4C280000F03BF9200005B0F0BD480800083020001001018800E807000805005200EF4902001C0500000000264081
:4027000001005000F0B54F464646C0B4824B1A685468B0235B055B78002B04D0B0235B055B78DBB200E02123212B67D1B023D15ACB005B1A116A8C46634419680029F5DA18
:40274000DD6802212943D960B023D15ACB005B1A116A8C466344D968C9073ED5D9680904090C8C4684271168D559A84641440968090A0904FF26360431400D008826116867
:40278000894691598846C14449460968090A0906294365462943D9601168D359C9180A685E4B98461A4090252D012A430A605A4B99461A6813689C46925962441368414626
:4027C00019400B002B4313604B461A681568D15969180B689359EB181B684F4B1A68B021555AEB005B1B156AAC46634400255D60156A515ACA00531AEB185B68484A11694A
:4028000004230B431361012801D030BF00E020BF414B1A68B023D15ACB005B1A116A8C46634419680029F3DAB02149054978002904D0B02149054978C9B200E021212129AC
:4028400032D1D968C90722D510688421525880180468324A1440DB681B0C1B02FF2109020B40234303602C4B19688823C8580B689C46604403681A400D6AB023CC5AE1001A
:402880000B1BEB18DB681B0E1B021A430260224B1A68106AB023D15ACA00531AC318DA6802218A43DA6028E086235B00E358002B23D11C4807681C4BA321C9005E581B4A7A
:4028C000904615681A4A0260062058503E21424611600631174A9950164B134AD358002BFADA154A86235B00E2500E4B1F60A323DB000D4AD6500D4B1D60074B1A68106A82
:40290000B023D15ACA00531AC31800225A600CBC90469946F0BDC04648080008FF00FFFF00ED00E00801264000002640040126401E1F00001C050000AAAAAAAA0000000013
:4029400001B40248844601BC604700BF9108001001B40248844601BC604700BF6316001001B40248844601BC604700BF750C001001B40248844601BC604700BF5B16001063
:4029800001B40248844601BC604700BF5D0A001001B40248844601BC604700BFDD14001001B40248844601BC604700BF3D04001001B40248844601BC604700BFE90B00109A
:4029C00001B40248844601BC604700BF590E001000000000000000000000000000000000000000000000000000000000000000000000000000000000000000000000000074
:020000041008E2
:4000000000780408EB0208100D00000051030810510308105103081051030810000000000000000000000000000000004D0308104D030810000000004D0308104D030810DA
:400040004D0308104D0308104D0308104D0308104D0308104D0308104D0308104D0308104D0308104D0308104D0308104D0308104D0308104D0308104D0308104D03081000
:400080004D0308104D0308104D0308104D0308104D0308104D0308104D0308104D0308104D0308104D0308104D0308104D0308104D0308104D0308104D0308104D030810C0
:4000C0004D0308104D0308104D0308104D0308104D0308104D0308104D0308104D0308104D0308104D0308104D0308104D0308104D0308104D0308104D0308104D03081080
:400100004D0308104D0308104D0308104D0308104D0308104D0308104D0308104D0308104D0308104D0308104D0308104D0308104D0308104D0308104D0308104D0308103F
:400140004D0308104D0308104D0308104D0308104D0308104D0308104D0308104D0308104D0308104D0308104D0308104D0308104D0308104D0308104D0308104D030810FF
:400180004D0308104D0308104D0308104D0308104D0308104D0308104D0308104D0308104D0308104D0308104D0308104D0308104D0308104D0308104D0308104D030810BF
:4001C0004D0308104D0308104D0308104D0308104D0308104D0308104D0308104D0308104D0308104D0308104D0308104D0308104D0308104D0308104D0308104D0308107F
:400200004D0308104D0308104D0308104D0308104D0308104D0308104D0308104D0308104D0308104D0308104D0308104D0308104D0308104D0308104D0308104D0308103E
:400240004D0308104D0308104D0308104D0308104D0308104D0308104D0308104D0308104D0308104D0308104D0308104D0308104D0308104D0308104D0308104D030810FE
:400280004D0308104D0308104D03081010B5054C237833B9044B13B10448AFF300800123237010BDE448020800000000F4170810084B10B51BB108490848AFF30080084814
:4002C000036803B910BD074B002BFBD0BDE81040184700BF00000000E8480208F4170810B4420208000000007047FFF7FDFF72B6104C114DAC4209DA21686268A368043B59
:40030000A2BFC858D050FAE70C34F3E70B490C4A00209142BCBF41F8040BFAE709480A490860BFF34F8F00F095F900F06FF900F047F8FEE7F817081010180810E4480208BD
:400340002C4B02080040020808ED00E0FEE7FEE700B504207146084202D0EFF3098001E0EFF30880043000F09FFFFEE70C4BD3F8CC3F13F0040F0ED0094BD3F8C02F02F0E9
:400380000402C3F8C02FD3F84023064B1A600122054B1A6070470122044B1A70704700BF00006640E44A0208E84A0208EC4A020872B60822014B5A60FEE700BF00033240B3
:4003C00010B5204A2049214800F04CFD08B1FFF7EFFF1E4C236843F0004323601C49204600F028FD0423C4F8C83F1A4C1A49204600F00EFFB4F90030002B08DB590903F002
:400400001F03012202FA03F3144A42F821300023134A1360134A137062B6114B1B68012B09D100220E4B1A600F4B1968074800F0EDFC0028F8D00B4B1B78012BEDD1FFF71B
:40044000B7FF00BFF04A02083C14081000006640CC130810341408106D03081000E100E0E84A0208EC4A0208E44A020808B5012000F0B6FC08BD00BF704700BF5C4AD2F877
:40048000803303F00F0303F1D00152F8212002F00702032A04D0042A05D092B9554914E0554A116811E003F1C002514951F8222002F01F02112A06D0132A04D04FF4FA41C1
:4004C00003E04E4901E04FF400418BBB484BD3F8902502F00100D3F88825C2F30172D3F8883513F0405F07D0414BD3F88835C3F30173012B02D102E0012300E0002303B136
:4005000008B9032A46D13A48D0F88025C2F31103D0F88425C2F30C02D0F88005C0F300600130B1FBF2F202FB03F2B2FBF0F131E0012B2FD12E4BD3F8402602F00100D3F884
:400540000026C2F30172D3F8003613F0405F07D0274BD3F80036C3F30173012B02D102E0012300E0002303B108B9032A12D12048D0F8002602F07F02D0F80036C3F30423E5
:40058000D0F80006C0F3044002FB01F2B2FBF3F2B2FBF0F1164BD3F88033C3F3011321FA03F215494A601648D0F89030C3F3072301330069000E0130B2FBF0F08860B2FBE1
:4005C000F3F3CB600B6103F5742202F23F220D48A0FB0202C2F387420A7503F2E7330A4AA2FB03239B098B61DB03CB61704700BF0000264000127A008C42020800366E0105
:400600000000214083DE1B43D34D621008B50D4800F0AEFEFFF730FFFFF730FF00221146042000F0A5F9084800F038FA074B1B6893F8513013B1064800F0A0FA00F0E2F82C
:4006400008BD00BF3C17081000490208284B02080014081008B500F084FE074AD2F8883043F47003C2F88830BFF34F8FBFF36F8F00F07BFE08BD00BF00ED00E01F4B984233
:400680002DD00CD840282ED003D8E8B1102828D02FE0802829D0B0F5807F28D029E0184B984228D006D8B0F1204F0DD0154B984212D01EE0144B98420AD00133984209D0E6
:4006C000023B984215D101E0002070470F4870470F4870470F4870474FF4A0007047074870470D4870470D4870470D487047034870470C4870474FF4A40070470600520054
:40070000010000F0090000A0040000F0010052000200520003005200010050000200500005005200FF00520038B5124B1B6893F83130012B04D840F2C3110F4800F0A4FD35
:400740000C4B1D682A6AB5F8B03013442C46D5F8B420D358002B0BDB084B1868FFF78EFF6B6801229A6063689B68002BFBD138BD034838BD284B02087C140810804A02089D
:40078000020050001A4B186128B102230370FF23437000234380174B1B6893F850202AB300B583B0B3F93830ADF80030002301931149684600F02CFDBDF90030002B08DB83
:4007C000590903F01F03012202FA03F30B4A42F82130084B1B6893F8513023B102220849012000F077FA03B05DF804FB704700BF804A0208284B02082543020800E100E0DF
:40080000DD43020808B50248FFF7BCFF08BD00BF944A020838B50B4B1B68D3F8B4301B58002B0DDA0D4604460B0C1B0423B140F2D521054800F028FDA9B26160002038BD0E
:40084000024838BD284B0208BC14081001008A0038B50368002B01DA002300E0094B73B90D460446C2600B0C1B0423B140F2BB21054800F009FDA9B2A160002038BD014894
:4008800038BD00BF01008A00BC14081038B504460D4619B99921084800F0F6FC074B1B68D3F8B4301B59002B03DAE3682B60002038BD034838BD00BFFC140810284B02083A
:4008C00001008A00254B1B6893F8313083423AD900293AD00B6813F01F0F38D170B50D4604461E4B1B6893F83130984204D340F2C3111B4800F0C8FC184B1B68186AB3F85B
:40090000B03004FB0304174E34602A68D2080021686800F033FD00212046FFF77BFF346825B940F293310E4800F0AEFC2A4600212046FFF78DFF60B900210A4B1868FFF786
:4009400069FF40B970BD084870470748704706487047064870BD054870BD00BF284B0208BC140810984A020803018A0001018A0010B504461346B2B9A9B9124B1B6893F818
:400980003130984204D340F2C3110F4800F07CFC0C4B1B681A6AB3F8B03004FB03240B4B1C60002010BD43B149B1084A51609360111D2046FFF786FF10BD054810BD04486C
:4009C00010BD00BF284B0208BC140810984A020803018A002DE9F0411B4B1B68DC68236883422CD90D464609A0EB4610012303FA00F819B900F0B5FC074600E00027124B03
:400A000018680368002B01DA002300E00F4B83B9626852F8263018EA030F05D023EA080342F82630002400E0094C0021FFF7F2FE00E0084C25B9384600F097FC00E0064C8C
:400A40002046BDE8F08100BF984A020801008A00020188000301880004018A000B4B1B68DB681A6882420CD94109A0EB4110012202FA00F05B6853F82130184203D00448CA
:400A80007047044870470448704700BF984A02080101880004018A0000018800024B1B680BB9014B18607047A44A02082DE9F8430446884691461D46089F2C4B1B681BB90D
:400AC000B5212B4800F0E0FB284B1B682C2000FB04F01C18EEB21E50C5F3072363602D0CA560244B1B6893F831309E4204D340F2C311214800F0C8FB1E4B1B68196AB3F8BB
:400B0000B02006FB02162661666893F832309E4204D340F2DF11184800F0B6FB154B1B681D6A803605EB46156561A668330C1B0423B14FF4FF71104800F0A6FB330C1B0445
:400B400023B140F2FF110C4800F09EFBB3B243EA0646AE60C4F81C90C4F820800023A36117B1B7F90030A381BDE8F883A44A02083C150810284B0208BC140810F0B58FB015
:400B8000044618B95221274800F07EFBA369072B03D95621234800F077FBE36A1BB95821204800F071FB236B1BB959211D4800F06BFB07AD04F114060FCE0FC537682F60DA
:400BC00002AD26460FCE0FC533682B60164B1B68B3F93620079B1344ADF83030089B0D93A26AE16A0CAD00953B460A98FFF75EFF00210091069B0A460598FFF757FF216BA9
:400C0000284600F005FBBDF93030002B08DB590903F01F03012202FA03F3044A42F821300FB0F0BD3C150810284B020800E100E0F8B506460F461D4614461AB9FD211F4857
:400C400000F022FB1E4B1B681BB9FE211B4800F01BFB1B4B1B682C2101FB063001FB07314B68012202FA03F31B04466802FA06F60269EAB18F69EFB91268002A01DA0022AF
:400C800000E0104AC2B92288134323600369DC6001238B614D620469330C1B0423B140F2BB21094800F0F0FAB2B2A2600020F8BD0648F8BD0648F8BD0548F8BD3C15081011
:400CC000A44A020801008A00BC14081004028A0007028A00F8B505460F4616460E4B1B6823B94FF4AF710D4800F0CEFA0A4B1B682C2404FB0534236A23B94FF4B171074818
:400D000000F0C2FAE369B34204D9236A43F826700020F8BD0248F8BDA44A02083C1508100A028A0070B582B000230193044620B940F2D111284800F0A7FA236923B94FF4CF
:400D4000E971254800F0A0FA636923B940F2D311214800F099FA236A23B94FF4EA711E4800F092FA6369DD682A0C20D012041A601B682069194B1B68D3F8B430C358002BE0
:400D800015DA01A9FFF782FD60B9019803681E0CDBB2E269934206D2226A52F8233013B1984700E0002631462069FFF733FDADB275B16369ADB21D601B68636A1BB1984739
:400DC0000023636202E0A36A03B198470023A36163691B6802B070BD3C150810284B020810B50446074B1B6823B940F2B111064800F04AFA034B1B682C2000FB0430FFF7D6
:400E000091FF10BDA44A02083C150810036813F4006F01D0802200E04022D0F80832C3F30803934203D0C0F84012012070470020704700BF30B4036813F4006F01D0802243
:400E400000E04022002408E0D0F80832C3F308039A42F9D0C0F8405201340D5D002DF3D130BC7047002800F0A48170B50546002900F0A18116460C460B78022B03D93F21BD
:400E8000A24800F001FA637B023BDBB2062B03D940219E4800F0F8F9A37B3BB1022B05D0032B03D04121994800F0EEF994F82130012B03D94221954800F0E6F994F8283081
:400EC000012B03D94321914800F0DEF92378012B06D86368083B082B94BF0023012307E0A37F2BB16368013B062B94BF002301231BB14521854800F0C7F9A368053B042B86
:400F000003D94621814800F0BFF96369FF2B03D947217E4800F0B8F9A369FF2B03D948217A4800F0B1F9A37C6BB1237833B9A368092B05D1A37B2BB1012304E0012302E0A6
:400F4000012300E000231BB14A21704800F09CF9636B23F4366323F00D031BB14C216B4800F092F9E36B23F4EE6323F003031BB14D21664800F088F92378022B01D1A37FEA
:400F800013B16268013A00E00022237F13B14FF4803100E00021A368082B02D84FF4006300E000230B4302F00F02134343F000732B60226B2B6813F4006F01D0802300E088
:400FC00040239A4203D36221504800F05DF9A26B2B6813F4006F01D0802300E040239A4203D36321494800F04FF9626A2B6813F4006F01D0802300E040239A4203D36421EC
:40100000424800F041F923781B0603F040732B64637F0BB1402200E00022A37C13B14FF4806300E000231343227C12B14FF4807200E000221343627C12B14FF4007200E083
:4010400000221A43E36A013B1B0403F470231343627B013A02F007021343A27B120102F030021343AB64237B13B14FF4807200E00022E37B23B92378022B03D1012302E0D2
:40108000012300E0002313B14FF4007300E000231A43A368013B03F00F031343C5F80033227DA3691B0403F47F031343C5F81033E26AD5F8003303F00F0303339A4201D3CD
:4010C000102A03D97A21114800F0DEF8E37F23B12378012B03D0002302E0002300E0012313B14FF4807200E00022637B013B03F007031A43A37B1B0103F0300313436B6430
:40110000237B2BB14FF4807203E000BF001608100022A368013B03F00F0313432278012A02D14FF4803200E000221343C5F8003294F83030C5F8043394F8203013B14FF0D9
:40114000007200E0002294F82130012B02D14FF0807300E00023134394F82820012A02D14FF4803200E00022134394F8242013432B6594F83830C5F80432636B23F49263FE
:4011800023F002031B051B0DC5F8C83FE36B23F08C035B055B0DC5F8883F76B1002070603060B060F0603062F0623063044B736370BD04487047034870BD002070BD00BF78
:4011C000EFCDAB000160AA0038B50D4B9A680D4B9A420FD10D46044621B940F237110A4800F052F804F11003064A52F8230042F8235038BD1030054B53F8200038BD00BF8F
:4012000000ED00E000400208401608100000081048B338B504460D464368072B03D93221134800F031F8B4F900306268002B08DB5201D2B203F1604303F5614383F80023AF
:4012400005E003F00F035201D2B20A49CA540A4B9A680A4B9A4208D12946B4F90000FFF7B3FF002038BD06487047002038BD00BF4016081014ED00E000ED00E000400208C3
:401280000100560001BEFEE738B50D46044C18220146204600F07AF8A5610020FFF7F2FF50480208FEE700BF08B50268254BDA6142681A6282685A62C2689A620269DA629C
:4012C00042691A6382695A63C2699A631E4A916AD963D16A1964516A5964516B9964926BDA64F1EE103A13F0900F27D0026A154B1A65426A5A65826A9A65C26ADA65026BF8
:401300001A66426B5A66826B9A66C26BDA66026C1A67426C5A67826C9A67C26CDA67026DC3F88020426DC3F88420826DC3F88820C26DC3F88C20026EC3F89020FFF7B2FF68
:4013400008BD00BF5048020800ED00E0000000000230800803D001300238FCD100BF00BF7047EFF3108072B6704780F310887047014B1860704700BF284B02080244034627
:40138000934202D003F8011BFAE7704710B5034642B111F8014B03F8014B013A002CF7D11A4400E010BD934202D003F8014BFAE710BD0000F8B500BFF8BC08BC9E467047E5
:4013C000F8B500BFF8BC08BC9E4670470D0A2A2A2A2A434F4D204F50454E2A2A2A2A2A2A2A2A2A2A2A2A2A2A2A2A2A2A2A2A2A2A2A2A2A2A2A2A2A2A2A2A2A0D0A000000FD
:401400000300000001000000010000000000000005036000040000000100000000000000010000000604600008000000604A02086D0408102E000000070000000000000055
:401440000C0000000800000000020000000000000000000000000000000000000000000000000000000000000B0000000000000000000000000000000000000047656E65CC
:4014800072617465645F536F757263655C50536F43365C70646C5C647269766572732F7065726970686572616C2F6970632F63795F6970635F6472762E68000047656E6542
:4014C00072617465645F536F757263655C50536F43365C70646C5C647269766572735C7065726970686572616C5C6970635C63795F6970635F6472762E68000047656E657B
:4015000072617465645F536F757263655C50536F43365C70646C5C647269766572735C7065726970686572616C5C6970635C63795F6970635F6472762E63000047656E653F
:4015400072617465645F536F757263655C50536F43365C70646C5C647269766572735C7065726970686572616C5C6970635C63795F6970635F706970652E630047656E659D
:4015800072617465645F536F757263655C50536F43365C70646C5C647269766572735C7065726970686572616C5C7363625C63795F7363625F756172742E680047656E6552
:4015C00072617465645F536F757263655C50536F43365C70646C5C647269766572735C7065726970686572616C5C7363625C63795F7363625F636F6D6D6F6E2E68000000C4
:4016000047656E6572617465645F536F757263655C50536F43365C70646C5C647269766572735C7065726970686572616C5C7363625C63795F7363625F756172742E6300D6
:4016400047656E6572617465645F536F757263655C50536F43365C70646C5C647269766572735C7065726970686572616C5C737973696E745C63795F737973696E742E63CD
:40168000000000000000204000002440000000400000000000002340000030400000314000009F40000022400000104002020202020202020210101D800017007500FF03F4
:4016C0000602063604102000000000007FC0000000040000000000000019324B647D00804000080B100000000000FF012002001F00800004FF081018001000140018001C89
:401700004044484C50000000081000000800000004000000041000000012000004210000002100000016000040114002C41300138013A013200000001C000000000021403B
:4017400000002540000001400000344000002440000031400000324000001F410000234000001140010101010101010101101010800019005500F0000501053B04101C0166
:40178000010000000FC000000004000001010101011D3A57789600082000101208000000001F00000010000F002000023F06080E00080009000A000B24282C303400000085
:4017C000100000009000000088000000080000008000000004F0000000F00000400200002005A000D00100018001A0012000000010000000000000000000081000400208C8
:401800008C020000181808108C420208C4050000E4480208480200000048E80100127A0000093D0000127A0000127A0008000000401F00000000A00FB10208108D0208100E
:401840000000000080B2C10050B3164B1B681A6AB3F8B030C3EBC303D358002BF5DA3E22114B1A6041F61E7204331A60A3F584730622C3F8182521F07F41C3F81C15D3F801
:401880001C35084B1A68116AB2F8B030C3EBC3030B4400225A60054BD3F81C35002BFADA704700BF284B02080401264000002640F8B5274B1B6893F83130052B04D840F263
:4018C000C311244800F072FA214F3A68166AB2F8B03003EB83031E4452684FF26003D458A4B200F04BFA05463B681968D3F890208A58013C032C27D8032A0CD1164A12781A
:4019000012F0FF0F07D10822B2601968D3F890208A58032AF9D01968D3F884208B588858C0F307221B0E581C02FB00000B4B03FB00F00B4B1B680B4AA2FB03239B09B0FB02
:40194000F3F08230FFF77EFF284600F037FAF8BD284B02087C1408100B00001640420F0090420208D34D62104378FF2B23D110B500F004FA0446104B1B6893F83130042B07
:4019800004D840F2C3110D4800F010FA0A4B1A68136AB2F8B02003EB8203DB685A68136843F001031360136813F0010FFBD1204600F004FA10BD7047284B02087C14081034
:4019C0002DE9F04707468846554B1B6893F83130012B04D840F2C311524800F0E7F9504B1B681C6AB3F8B0201444D3F8B420161993F85030002B79D04B4B1B7813F0FF0FFA
:401A000002D04FF0000901E04FF00109B9F1000F38D0434B1B6893F83130052B04D840F2C311404800F0C2F93D4B1A68116AB2F8B03003EB83030B44D2F8B420D358002B99
:401A400022DB002000F0C2F9384B98421ED00023374A12690121184600F088F918B1354D17E0013500E00025002000F0AFF92F4B984202D0304B9D42F3D92F4B9D4207D989
:401A80002C4D06E0002504E02A4D02E0294D00E00025002D41D100F071F98246274BD3F81C35002B10DA224A0121204600F06EF960B94046FFF7C6FE57B13368002BFCDB9D
:401AC00000F04CF9054604E01A4D02E0194D00E01B4DB9F1000F05D00121002000F05EF90028F9D1504600F069F916E000F046F980460F4A0121204600F048F938B947B1B4
:401B00003368002BFCDB00F029F9054602E0094D00E00B4D404600F051F92846BDE8F087284B02087C1408100B00001601018800804A020805005200EF4902000000264056
:401B400001005000F0B47F4B1A6855684FF0B0535B7813F0FF0F04D04FF0B0535B78DBB200E02123212B55D1116AB2F8B030C3EBC303CC18CB58002BF6DAE36843F0010338
:401B8000E360146AB2F8B030C3EBC3031C44E36813F0020F2DD0E3689EB21368D2F884105958090A090401F47F01D2F88870DB591B0A41EA03633343E3601168D2F88420A4
:401BC0008B5823F47F4343F410638B505D4A13681C68D3F88810635823F47F4343F41063635013681A68D3F884105158D3F88830D358544B1A68116AB2F8B030C3EBC3035D
:401C00000B4400215960116AB2F8B030C3EBC3030B445B684B4B19680C68D1F894301C44494A136943F004031361012801D030BF07E020BF454B1B7803B120BF0122434BA5
:401C40001A70236803F00303022BE9D00A6AB1F8B030C3EBC303D018D358002BF6DA4FF0B0535B7813F0FF0F04D04FF0B0535B78DBB200E02123212B30D1C36813F0020FA5
:401C80001FD00C68D1F88410635823F47F42C3681B0C1B0203F47F4313436350294B19680C68D1F88800235823F47F420D6AB1F8B030C3EBC3032B44DB681B0E42EA0323F2
:401CC0002350204B1A68136AB2F8B020C2EBC2021344DA6822F00102DA6026E0D5F80C311BBB1B490E681B4BD3F818451A4A106841F61E770F600621C3F818153E211160F0
:401D00004422C3F81C25134BD3F81C35002BFADA4FF0AA33C5F80C310D4B1E60A3F58473C3F8184503F582731860064B1A68116AB2F8B030C3EBC3030B4400225A60F0BCAD
:401D4000704700BF284B020800ED00E0A84A020808012640000026400401264001B40248844601BC604700BF2907081001B40248844601BC604700BF310C081001B40248F3
:401D8000844601BC604700BF6313081001B40248844601BC604700BF5108081001B40248844601BC604700BFD509081001B40248844601BC604700BF8912081001B40248CB
:401DC000844601BC604700BF6B13081001B40248844601BC604700BF5D0A0810000000000000000000000000000000000000000000000000000000000000000000000000F5
:0200000490303A
:02000000F48E7C
:0200000490501A
:0C0000000005E2F021002101E307158E4D
:00000001FF